:020000040800F2
:1000000000000C205D1E01088D13010895130108E6
:100010009D130108A5130108AD130108AD1E0108C9
:10002000000000000000000000000000B5130108FF
:10003000C313010800000000D1130108DF130108F9
:10004000AD1E0108AD1E0108ED130108AD1E01082B
:10005000AD1E0108AD1E0108AD1E0108AD1E010850
:10006000AD1E0108AD1E0108AD1E0108AD1E010840
:10007000AD1E0108AD1E010801140108AD1E0108E6
:10008000AD1E0108AD1E01080F140108AD1E0108C8
:10009000AD1E0108AD1E0108AD1E0108AD1E010810
:1000A000AD1E0108AD1E0108AD1E01081D1401089A
:1000B000AD1E01083114010845140108AD1E0108E8
:1000C000AD1E0108AD1E0108AD1E0108AD1E0108E0
:1000D000AD1E010859140108AD1E0108AD1E01082E
:1000E000AD1E0108AD1E0108AD1E0108AD1E0108C0
:1000F000AD1E0108AD1E01086D1401088114010830
:1001000095140108A9140108AD1E0108AD1E0108CF
:10011000AD1E0108AD1E0108AD1E0108AD1E01088F
:10012000AD1E0108BD140108D1140108E514010831
:10013000AD1E0108F9140108AD1E0108AD1E01082D
:10014000AD1E0108AD1E0108AD1E01080D15010808
:100150002115010835150108AD1E0108AD1E010865
:10016000AD1E0108AD1E0108AD1E0108AD1E01083F
:10017000AD1E0108AD1E0108AD1E0108AD1E01082F
:10018000AD1E0108AD1E0108AD1E0108AD1E01081F
:10019000AD1E0108AD1E0108AD1E0108AD1E01080F
:1001A000491501085D150108AD1E0108AD1E0108C5
:1001B000AD1E0108AD1E010871150108AD1E010834
:1001C0008515010899150108AD150108AD1E010836
:1001D000AD1E0108AD1E0108AD1E0108AD1E0108CF
:1001E000AD1E0108AD1E0108AD1E0108C1150108B4
:1001F000AD1E0108AD1E0108CD150108AD1E010898
:10020000AD1E0108E1150108AD1E0108AD1E010873
:10021000AD1E0108AD1E0108AD1E0108AD1E01088E
:10022000AD1E0108AD1E0108AD1E0108AD1E01087E
:08023000AD1E0108AD1E01081E
:1002380010B5054C237833B9044B13B10448AFF318
:1002480000800123237010BDD01A00200000000098
:1002580010C3020808B5034B1BB103490348AFF3A9
:10026800008008BD00000000D41A002010C3020856
:10027800034613F8012B002AFBD1181A01387047DE
:1002880081F0004102E000BF83F0004330B54FEA3F
:1002980041044FEA430594EA050F08BF90EA020FAC
:1002A8001FBF54EA000C55EA020C7FEA645C7FEA3F
:1002B800655C00F0E2804FEA5454D4EB5555B8BF62
:1002C8006D420CDD2C4480EA020281EA030382EAD3
:1002D800000083EA010180EA020281EA0303362D65
:1002E80088BF30BD11F0004F4FEA01314FF4801C38
:1002F8004CEA113102D0404261EB410113F0004F4A
:100308004FEA03334CEA133302D0524263EB430300
:1003180094EA050F00F0A780A4F10104D5F1200E9E
:100328000DDB02FA0EFC22FA05F2801841F10001F9
:1003380003FA0EF2801843FA05F359410EE0A5F1CD
:1003480020050EF1200E012A03FA0EFC28BF4CF0FE
:10035800020C43FA05F3C01851EBE37101F00045B4
:1003680007D54FF0000EDCF1000C7EEB00006EEBC1
:100378000101B1F5801F1BD3B1F5001F0CD349084B
:100388005FEA30004FEA3C0C04F101044FEA4452A2
:1003980012F5800F80F09A80BCF1004F08BF5FEA29
:1003A800500C50F1000041EB045141EA050130BD09
:1003B8005FEA4C0C404141EB0101013C28BFB1F51B
:1003C800801FE9D291F0000F04BF01460020B1FA66
:1003D80081F308BF2033A3F10B03B3F120020CDA39
:1003E8000C3208DD02F1140CC2F10C0201FA0CF017
:1003F80021FA02F10CE002F11402D8BFC2F1200C7C
:1004080001FA02F120FA0CFCDCBF41EA0C01904031
:10041800E41AA2BF01EB0451294330BD6FEA04047A
:100428001F3C1CDA0C340EDC04F11404C4F1200265
:1004380020FA04F001FA02F340EA030021FA04F377
:1004480045EA030130BDC4F10C04C4F1200220FACE
:1004580002F001FA04F340EA0300294630BD21FA0C
:1004680004F0294630BD94F0000F83F4801306BFD2
:1004780081F480110134013D4EE77FEA645C18BFC6
:100488007FEA655C29D094EA050F08BF90EA020F5D
:1004980005D054EA000C04BF1946104630BD91EA55
:1004A800030F1EBF0021002030BD5FEA545C05D158
:1004B8004000494128BF41F0004130BD14F5800497
:1004C8003CBF01F5801130BD01F0004545F0FE410B
:1004D80041F470014FF0000030BD7FEA645C1ABF40
:1004E800194610467FEA655C1CBF0B46024650EA77
:1004F800013406BF52EA033591EA030F41F40021A3
:1005080030BD00BF90F0000F04BF0021704730B528
:100518004FF4806404F132044FF000054FF00001FD
:1005280050E700BF90F0000F04BF0021704730B5BE
:100538004FF4806404F1320410F0004548BF404293
:100548004FF000013EE700BF42004FEAE2014FEAE8
:1005580031014FEA02701FBF12F07F4393F07F4FC3
:1005680081F06051704732F07F4208BF704793F0C6
:100578007F4F04BF41F40021704730B54FF46074D9
:1005880001F0004521F000411CE700BF50EA0102DC
:1005980008BF704730B54FF000050AE050EA010285
:1005A80008BF704730B511F0004502D5404261EBF5
:1005B80041014FF4806404F132045FEA915C3FF436
:1005C800D8AE4FF003025FEADC0C18BF03325FEAD3
:1005D800DC0C18BF033202EBDC02C2F1200300FA84
:1005E80003FC20FA02F001FA03FE40EA0E0021FAA9
:1005F80002F11444BDE600BF70B54FF0FF0C4CF497
:10060800E06C1CEA11541DBF1CEA135594EA0C0F48
:1006180095EA0C0F00F0DEF82C4481EA030621EA83
:100628004C5123EA4C5350EA013518BF52EA0335BE
:1006380041F4801143F4801338D0A0FB02CE4FF070
:100648000005E1FB02E506F00042E0FB03E54FF0A0
:100658000006E1FB03569CF0000F18BF4EF0010E98
:10066800A4F1FF04B6F5007F64F5407404D25FEA94
:100678004E0E6D4146EB060642EAC62141EA555147
:100688004FEAC52040EA5E504FEACE2EB4F1FD0C89
:1006980088BFBCF5E06F1ED8BEF1004F08BF5FEA07
:1006A800500E50F1000041EB045170BD06F00046B9
:1006B80046EA010140EA020081EA0301B4EB5C0466
:1006C800C2BFD4EB0C0541EA045170BD41F480115E
:1006D8004FF0000E013C00F3AB8014F1360FDEBF83
:1006E800002001F0004170BDC4F10004203C35DA5F
:1006F8000C341BDC04F11404C4F1200500FA05F3E2
:1007080020FA04F001FA05F240EA020001F0004282
:1007180021F0004110EBD37021FA04F642EB0601F8
:100728005EEA430E08BF20EAD37070BDC4F10C0422
:10073800C4F1200500FA04F320FA05F001FA04F2E6
:1007480040EA020001F0004110EBD37041F10001D2
:100758005EEA430E08BF20EAD37070BDC4F12005DD
:1007680000FA05F24EEA020E20FA04F301FA05F245
:1007780043EA020321FA04F001F0004121FA04F2ED
:1007880020EA020000EBD3705EEA430E08BF20EABD
:10079800D37070BD94F0000F0FD101F000464000F7
:1007A80041EB010111F4801F08BF013CF7D041EA79
:1007B800060195F0000F18BF704703F0004652007D
:1007C80043EB030313F4801F08BF013DF7D043EA4E
:1007D8000603704794EA0C0F0CEA135518BF95EA04
:1007E8000C0F0CD050EA410618BF52EA4306D1D18B
:1007F80081EA030101F000414FF0000070BD50EAAA
:10080800410606BF1046194652EA430619D094EA33
:100818000C0F02D150EA013613D195EA0C0F05D11D
:1008280052EA03361CBF104619460AD181EA030171
:1008380001F0004141F0FE4141F470014FF0000029
:1008480070BD41F0FE4141F4780170BD70B54FF0C4
:10085800FF0C4CF4E06C1CEA11541DBF1CEA135544
:1008680094EA0C0F95EA0C0F00F0A7F8A4EB050426
:1008780081EA030E52EA03354FEA013100F088801D
:100888004FEA03334FF0805545EA131343EA1263E6
:100898004FEA022245EA111545EA10654FEA00269B
:1008A8000EF000419D4208BF964244F1FD0404F554
:1008B800407402D25B084FEA3202B61A65EB0305B0
:1008C8005B084FEA32024FF480104FF4002CB6EB6D
:1008D800020E75EB030E22BFB61A754640EA0C00ED
:1008E8005B084FEA3202B6EB020E75EB030E22BF2D
:1008F800B61A754640EA5C005B084FEA3202B6EB6E
:10090800020E75EB030E22BFB61A754640EA9C002C
:100918005B084FEA3202B6EB020E75EB030E22BFFC
:10092800B61A754640EADC0055EA060E18D04FEABA
:10093800051545EA16754FEA06164FEAC30343EA5A
:1009480052734FEAC2025FEA1C1CC0D111F4801F27
:100958000BD141EA00014FF000004FF0004CB6E720
:1009680011F4801F04BF01430020B4F1FD0C88BFBF
:10097800BCF5E06F3FF6AFAEB5EB030C04BFB6EBCA
:10098800020C5FEA500C50F1000041EB045170BDBD
:100998000EF0004E4EEA113114EB5C04C2BFD4EBEA
:1009A8000C0541EA045170BD41F480114FF0000E6E
:1009B800013C90E645EA060E8DE60CEA135594EAEA
:1009C8000C0F08BF95EA0C0F3FF43BAF94EA0C0FED
:1009D8000AD150EA01347FF434AF95EA0C0F7FF462
:1009E80025AF104619462CE795EA0C0F06D152EAB6
:1009F80003353FF4FDAE1046194622E750EA41069A
:100A080018BF52EA43067FF4C5AE50EA41047FF4AA
:100A18000DAF52EA43057FF4EBAE12E74FF0FF3C0F
:100A280006E000BF4FF0010C02E000BF4FF0010CE0
:100A38004DF804CD4FEA410C7FEA6C5C4FEA430C59
:100A480018BF7FEA6C5C1BD001B050EA410C0CBFA8
:100A580052EA430C91EA030F02BF90EA020F00200A
:100A6800704710F1000F91EA030F58BF994208BF71
:100A780090422CBFD8176FEAE37040F0010070472E
:100A88004FEA410C7FEA6C5C02D150EA013C07D185
:100A98004FEA430C7FEA6C5CD6D152EA033CD3D0D0
:100AA8005DF8040B704700BF8446104662468C46CA
:100AB8001946634600E000BF01B5FFF7B7FF0028FD
:100AC80048BF10F1000F01BD4DF808EDFFF7F4FF26
:100AD8000CBF012000205DF808FB00BF4DF808EDB1
:100AE800FFF7EAFF34BF012000205DF808FB00BFD4
:100AF8004DF808EDFFF7E0FF94BF012000205DF8F6
:100B080008FB00BF4DF808EDFFF7CEFF94BF0120AA
:100B180000205DF808FB00BF4DF808EDFFF7C4FFA3
:100B280034BF012000205DF808FB00BF4FEA4102F6
:100B380012F5001215D211D56FF47873B3EB625227
:100B480012D94FEAC12343F0004343EA505311F04E
:100B5800004F23FA02F018BF404270474FF00000E0
:100B6800704750EA013005D111F0004008BF6FF01E
:100B7800004070474FF00000704700BF4A0011D294
:100B880012F5001211D20DD56FF47873B3EB6252DF
:100B98000ED44FEAC12343F0004343EA505323FAEB
:100BA80002F070474FF00000704750EA013002D160
:100BB8004FF0FF3070474FF0000070474FEA410296
:100BC800B2F1E04324BFB3F5001CDCF1FE5C0DD9A3
:100BD80001F0004C4FEAC0024CEA5070B2F1004FED
:100BE80040EB830008BF20F00100704711F0804FF0
:100BF80021D113F13872BCBF01F00040704741F4B5
:100C080080114FEA5252C2F11802C2F1200C10FAB8
:100C18000CF320FA02F018BF40F001004FEAC1239C
:100C28004FEAD32303FA0CFC40EA0C0023FA02F340
:100C38004FEA4303CCE77FEA625307D150EA013316
:100C48001EBF4FF0FE4040F44000704701F00040E6
:100C580040F0FE4040F40000704700BF53B94AB965
:100C6800002908BF00281CBF4FF0FF314FF0FF30AC
:100C780000F0B2B9ADF1080C6DE904CE00F006F849
:100C8800DDF804E0DDE9022304B070472DE9F04FF8
:100C98008C46099E04460F46002B48D18A421546C9
:100CA8005ED9B2FA82F33BB1C3F120029F409D4066
:100CB8009C4020FA02F217434FEA154E1FFA85FCB2
:100CC800220CB7FBFEF10EFB117701FB0CF042EA98
:100CD8000742904207D9AA1801F1FF3702D2904281
:100CE80000F258813946121AA4B2B2FBFEF00EFB8C
:100CF800102200FB0CFC44EA0244A4450BD92C1931
:100D080000F1FF322CBF01270027A44502D9002F8C
:100D180000F04381104640EA0140A4EB0C04002196
:100D28001EB1DC400023C6E90043BDE8F08F8B42CA
:100D380006D90EB1C6E9000100210846BDE8F08FCA
:100D4800B3FA83F1002951D16345C0F0168182427C
:100D580040F213810846002EE7D0C6E90047E4E7D1
:100D6800002A00F0AF80B2FA82F3002B40F0C28074
:100D78008A1A4FEA154EAFB20121200CB2FBFEFCD5
:100D88000EFB1C2240EA024207FB0CF090420ED9EF
:100D9800AA180CF1FF382CBF4FF001094FF00009D9
:100DA800904203D9B9F1000F00F0F080C446121A3E
:100DB800A4B2B2FBFEF00EFB102200FB07F744EAD8
:100DC8000244A7420ED92C1900F1FF322CBF4FF074
:100DD800010E4FF0000EA74203D9BEF1000F00F03C
:100DE800D2801046E41B40EA0C4099E7C1F1200587
:100DF8008B400CFA01F400FA01F922FA05F72CFAF3
:100E080005FC8A401F4320FA05F3380C23431FFAD8
:100E180087FE1C0CBCFBF0F800FB18CC44EA0C4421
:100E280008FB0EFCA4450ED93C1908F1FF3A2CBF6B
:100E38004FF0010B4FF0000BA44503D9BBF1000F95
:100E480000F0B880D046A4EB0C041FFA83FCB4FB76
:100E5800F0F300FB134403FB0EFE4CEA0444A645E2
:100E68000ED93C1903F1FF302CBF4FF0010C4FF0A5
:100E7800000CA64503D9BCF1000F00F09F80034683
:100E880043EA0840A4EB0E04A0FB02EC6445734659
:100E9800E04602D307D1F14505D2BEEB02036CEB65
:100EA800070C0138E0465EB1B9EB030264EB0804B5
:100EB80004FA05F522FA01F3CC401D43C6E90054B3
:100EC800002132E742082F464B08AC4642EAC1727D
:100ED800AE46C407110C92B241EA034142EA01420C
:100EE800B1FBF5F1B3FBF5F01F23A2EB0C0241EACD
:100EF800004142E79D40C3F1200299409C402CFAF2
:100F080002FC4FEA154E20FA02F2AFB2BCFBFEF823
:100F18000A430EFB18CC110C41EA0C4108FB07FCF4
:100F28008C4550D9691808F1FF302CBF4FF00109E2
:100F38004FF000098C4502D9B9F1000F30D0A1EB70
:100F48000C01B1FBFEF808FB07FC0EFB181192B26E
:100F580042EA0142624534D2AA1808F1FF312CBF97
:100F68004FF001094FF000096245BED2B9F1000FF8
:100F7800BBD1A8F102012A44B7E7841A6CEB03023B
:100F880001201746E7E62C4402382BE7ACF1020CA7
:100F98002A440CE702392A44A5E62C440238BAE66A
:100FA800A5EB0C0CA8F102006144B1FBFEF808FBAC
:100FB80007FCCAE7A8F102083C4444E7023B3C446A
:100FC8005EE7414691E7A1EB0C014046B1FBFEF814
:100FD80008FB07FCB9E700BF704700BF80B586B0C3
:100FE80000AF78600B467B801CF0F0FB78617B6873
:100FF8001B689B6A01333B617A693B69B2FBF3F278
:101008007B88B2FBF3F3FB607B681B68FA68013AE4
:10101800DA62FB685A1E7B68DA6000BF1837BD4683
:1010280080BD80B582B000AF7860786812F0BAF9F8
:10103800786811F0EBFE7B6800229A6200BF0837DF
:10104800BD4680BDB0B58CB000AFF860B9607A60BD
:1010580007F1100320220021184629F0E2FD7B68E1
:101068003B6104233B6200237B62BB68144A9342C2
:101078000BD10023BB614FF6FF73FB61104B9B6ADA
:10108800104A52F823307B6107E0BB680E4A93424E
:1010980003D101237B610023BB61BB689B6A5A1C97
:1010A800BB689A62FB681D4607F110040FCC0FC598
:1010B80094E80F0085E80F00F8683037BD46B0BDEA
:1010C800688E002000000020F48E002080B586B0D5
:1010D80000AFF860B9601346FB71F86811F0CCFBFB
:1010E8000023FB750AE0FB7D5B01BA6813441946CF
:1010F800F86812F03DFCFB7D0133FB75FA7DFB7946
:101108009A42F0D300BF00BF1837BD4680BD00002B
:1011180080B584B000AFF860B96011461A460B4636
:10112800FB801346BB802B4AFB681360294ABB68C7
:101138009360284AFB889381264ABB88D381254B34
:1011480001221A74234B00225A74224B1868214B2F
:101158009968204B9B891A46FB689B6A02FB03F33C
:101168001A4612F015F81B4B1B681B4A934203D111
:10117800184B1A4A5A6007E0164B1B68184A9342E4
:1011880002D1144B174A5A60124B5B68114AD28934
:1011980011461846FFF722FF0E4B5B68184621F0F0
:1011A8003DFD00BF0B4B5B68184623F009F803466A
:1011B800022BF7D000BF074B5B7C83F00103DBB247
:1011C800002BF8D1034B00225A7400BF1037BD46DC
:1011D80080BD00BF343A0020688E0020A49400200F
:1011E800F48E0020F094002080B582B000AF7860C3
:1011F8000A4B01225A747B68094A934203D1094871
:1012080021F0E5FC06E07B68074A934202D10748D3
:1012180021F0DDFC00BF0837BD4680BD343A002010
:10122800688E0020A4940020F48E0020F094002002
:1012380080B58EB000AF6423BB8542F210737B8506
:10124800002387F8373059E097F83730304A52F89A
:1012580023307B62786AFFF7E4FE3B1D2D4A796AEA
:101268001846FFF7EFFE3B1D01221946786AFFF783
:101278002DFF4FF6FF724FF00111786A13F0AEFCA4
:101288000346002B01D00FF08FFD7B8DBA8D2249CC
:10129800786AFFF73DFF00233B63002387F82F3070
:1012A8000CE097F82F301C4A52F823303A6B13445D
:1012B8003B6397F82F30013387F82F3097F82F309A
:1012C8009BB2BA8D9A42ECD8BB8D3A6BB2FBF3F362
:1012D8003B63124B1B881A4640F6B83303FB02F1F6
:1012E8003B6B9A0097F83730B1FBF2F20C4941F8A2
:1012F800232097F83730013387F8373097F837309D
:10130800012BA1D900BF00BF3837BD4680BD00BF43
:101318004000002001000080EC1A0020A507FA0B0D
:101328002C3A002080B58EB000AFB9607A601A46BA
:101338000346FB731346BB81FB7B254A52F82330D7
:101348003B63386BFFF76DFE07F11003BA68396B22
:101358001846FFF777FE07F1100301221946386B8C
:10136800FFF7B4FEB7F84030BA891A49386BFFF76F
:10137800CFFE0023FB8619E0FB8E164A52F8233075
:10138800FA7B154951F8222003FB02F2134BA3FB09
:101398000213D21A52081344D90AFB8E5B007A68EA
:1013A80013448AB21A80FB8E0133FB86FA8EBB89FE
:1013B8009A42E1D30A4A7B685361FB7B064A52F89A
:1013C8002330074A936100BF3837BD4680BD00BF50
:1013D80040000020EC1A00202C3A002001011000E7
:1013E800343A002080B582B000AF0346FB71114A41
:1013F800FB7913740F4B00225A740E4B18680D4B6F
:1014080099680C4B9B891A460A4B1B7C02FB03F319
:101418001A46084B1B689B6A02FB03F31A4611F035
:10142800B7FE044B5B68184621F0F8FB00BF08378D
:10143800BD4680BD343A002080B485B000AF034675
:10144800FB710023FB731DE0154B9A68FB7BF97950
:1014580001FB03F39B0013441B68114A926903FBC9
:1014680002F2104BA3FB0213D21A52081344D90AF2
:101478000B4B5A69FB7B5B0013448AB21A80FB7BD7
:101488000133FB73FB7B9AB2054B9B899A42DBD3F2
:1014980000BF00BF1437BD465DF8047B704700BF2E
:1014A800343A00200101100080B400AF034B5B7C8C
:1014B8001846BD465DF8047B704700BF343A0020EB
:1014C80080B582B000AF7860074A7B68136001225C
:1014D8004FF48071054816F005FB012010F096FDC9
:1014E80000BF0837BD4680BD543A002000000242C4
:1014F80080B500AF00E000BF00F00EFB0346002BF4
:10150800F9D100224FF48071024816F0EBFA00BFBF
:1015180080BD00BF0000024280B584B000AFF86013
:10152800B96011461A460B46FB8013467B714FF48F
:101538008071114816F0BEFA0346002B18D00F4BE5
:1015480000221A70FB881A46B968F86800F0FEF99C
:101558007B79002B0DD000E000BF084B1B7883F08F
:101568000103DBB2002BF7D1012010F04FFD00E0A2
:1015780000BF1037BD4680BD00000242503A00202F
:1015880080B584B000AFF860B9601346FB80FB8873
:101598001A46B968F86800F013FA00BF1037BD465C
:1015A80080BD80B582B000AF7860396039687868EE
:1015B80000F03EFA00BF0837BD4680BD80B582B056
:1015C80000AF78600B467B80064B1B687A88114613
:1015D80078689847044B01221A7000BF0837BD4647
:1015E80080BD00BF543A0020503A002080B483B038
:1015F80000AF7860044A7B68136000BF0C37BD46B3
:101608005DF8047B704700BF583A002080B400AFF3
:10161800064B1B68002B04DB044B1B680133034A91
:10162800136000BFBD465DF8047B7047480000208A
:1016380080B584B000AF0346FB71FB79002B0BD05B
:10164800134B00221A60134819F0CCFE0346002BF6
:101658001AD00FF0A9FB17E00E4819F00CFF03464B
:10166800002B01D00FF0A0FB094B1B68FB73084B44
:101678004FF0FF321A60084B1B68002B04D0064B52
:101688001B68FA7B1046984700BF1037BD4680BDDF
:1016980048000020E4910020583A002080B582B02C
:1016A80000AF0346FB80FB88082B03D10120FFF71E
:1016B800BFFF05E0FB88802B02D1002003F080FEED
:1016C80000BF0837BD4680BD80B582B000AF034675
:1016D800FB80FB88082B03D10020FFF7A9FF05E05A
:1016E800FB88802B02D1012003F06AFE00BF083777
:1016F800BD4680BD80B582B000AF786039604FF4D8
:10170800007200211F4829F08CFA4FF40072002162
:101718001D4829F086FA4FF4807200211B4829F0F1
:1017280080FA1B4A7B6813601A4A3B6813600122DF
:101738001021194816F0D6F901222021174816F071
:10174800D1F9174B1B7883F00103DBB2002B0BD0C8
:1017580014480FF03DFD14480EF0EEFE134810F04B
:10176800E5FA0F4B01221A70FF2211490F4825F0A4
:10177800DCFE0346002B01D00FF016FB00BF083734
:10178800BD4680BD5C3A00205C3D00205C3C0020EA
:10179800604100206441002000000242001802421B
:1017A8004C00002030930020D89000203C95002069
:1017B8005C3E002080B500AF174820F02DFB0346A3
:1017C800002B01D00FF0F0FA144823F09BFC0346DD
:1017D800002B01D00FF0E8FA114B1B78002B0BD02F
:1017E8000D480FF067FD0F480EF080FF0B4810F012
:1017F8000DFB0B4B00221A70002210210A4816F02C
:1018080071F900222021094816F06CF9084B0022D2
:101818001A7000BF80BD00BF309300203C950020A7
:101828004C000020D890002000000242001802421C
:101838005C3F002080B582B000AF78600B46FB703B
:10184800FB781A467968054829F02EFA034AFB788E
:1018580082F8FF3000BF0837BD4680BD5C3C0020E1
:1018680080B586B004AF03463960FB71FB799AB244
:1018780005230293022301933B68009301239021DF
:10188800034817F061F8034618460837BD4680BD7F
:10189800D890002080B586B004AF03463960FB714C
:1018A800FB799AB205230293022301933B680093C4
:1018B80001239021034817F05BF9034618460837BF
:1018C800BD4680BDD890002080B584B002AF0346E5
:1018D8003960FB710B4AFB7913703B681B889AB21D
:1018E800094B1A80074B1B781A4602230193064BB3
:1018F800009301239021054817F054FA00BF0837D8
:10190800BD4680BD684100206C410020D890002071
:1019180080B588B004AF03460A46FB8013467B7146
:101928007B79FB73FA88052302930123019307F15E
:101938000F0300930123A021034817F005F803467D
:1019480018461037BD4680BDD890002080B584B0B9
:1019580000AFF860B9601346FB80FB88BA68F96885
:10196800104828F019FF03461A460F4B1A800E4BF1
:101978001B88043B9AB20D4B1A800D4AFB68136012
:101988000C4B06221A70002210210B4816F0AAF8F8
:1019980001220849094820F06DF900BF1037BD46FB
:1019A80080BD00BF603F0020544100205C41002002
:1019B800584100205C3F0020000002423093002084
:1019C80080B586B000AFF860B9601346FB8000238D
:1019D8007B6107F11403F968184628F013FF002209
:1019E8001021114816F07EF807F11401052304228E
:1019F8000E481FF091FC0346002B01D00FF0D4F9DC
:101A0800FA880523B96809481FF09AFE0346002B97
:101A180001D00FF0C9F901221021034816F062F82D
:101A280000BF1837BD4680BD000002423093002039
:101A380080B588B000AF7860396007F110030022E4
:101A48001A601A710023FB7307F10F0207F11000E7
:101A58000123796828F0A0FE0623BB730022102119
:101A68002A4816F03FF807F10E01052301222848FD
:101A78001FF052FC0346002B01D00FF095F901220C
:101A88001021224816F02EF81BF0A0FE0346214A2A
:101A9800A2FB03231B0DFB6102E0FB69013BFB6119
:101AA800FB69002BF9D100221021184816F01AF80A
:101AB80007F110010523052215481FF02DFC0346E8
:101AC800002B01D00FF070F97B680133BB610EE089
:101AD80007F10F01052301220D481FF01DFC0346E5
:101AE800002B01D00FF060F9BB690133BB617A6844
:101AF8003B681344BA699A42EAD301221021034889
:101B080015F0F0FF00BF2037BD4680BD000002423F
:101B18003093002083DE1B4380B483B000AF0023E2
:101B2800FB71064B1B78002B01D00123FB71FB795D
:101B380018460C37BD465DF8047B70475C3F0020B3
:101B480080B582B000AF78600B467B8000222021F0
:101B58000B4815F0C7FF7A880A23796809481FF0EF
:101B6800DBFB0346002B01D00FF01EF901222021D8
:101B7800034815F0B7FF00BF0837BD4680BD00BF5A
:101B8800001802423093002080B584B000AF78601E
:101B98000023FB7300222021134815F0A3FF07F14F
:101BA8000F010523012211481FF0CAFD0346002B2F
:101BB80001D00FF0F9F8FB7B002B0BD0FB7B1A460A
:101BC8000A23796809481FF0BBFD0346002B01D0A2
:101BD8000FF0EAF801222021034815F083FFFB7B70
:101BE80018461037BD4680BD0018024230930020C9
:101BF80080B582B000AF0346FB71174B1B78FA79AA
:101C08009A4225D000224FF48061144815F06AFFEB
:101C180000224FF40071114815F064FF0A2010F0FB
:101C2800F5F9FB791A464FF480610C4815F05AFF14
:101C3800FB7983F00103DBB21A464FF400710748C1
:101C480015F050FF642010F0E1F9034AFB79137096
:101C580000BF0837BD4680BD6E4100200018024213
:101C680080B586B004AF3A601A460346FB710B464E
:101C7800BB711346BB80FB7999B2BB799AB20A2330
:101C88000293BB8801933B6800930123034816F035
:101C98005BFE034618460837BD4680BD2C910020E0
:101CA80080B586B004AF3A601A460346FB710B460E
:101CB800BB711346BB80FB7999B2BB799AB20A23F0
:101CC8000293BB8801933B6800930123034816F0F5
:101CD8004FFF034618460837BD4680BD2C910020AB
:101CE80080B582B000AF0023FB7100E000BFFFF7B2
:101CF80013FF0346002BF9D11021464815F0DAFEF0
:101D08000346012B0AD1012010F080F94248FFF761
:101D18003BFF0346DAB2414B83F8FF213F4B93F870
:101D2800FF31002B0ED03E4B1B683C4A3D493A48D8
:101D3800984703461A46394B83F8FF200123FB7165
:101D480000E000BFFFF7E8FE0346002BF9D14FF48F
:101D58008051304815F0AEFE0346012B29D11021E1
:101D68002C4815F0A7FE0346002B22D12B4B93F8E5
:101D7800FF30002B0BD0294B93F8FF30194627482A
:101D8800FFF7DEFE254B002283F8FF2011E0264BEB
:101D980093F8FF30002B0BD0234B93F8FF301946F4
:101DA8002148FFF7CDFE204B002283F8FF2000E0FA
:101DB80000BF1E4B93F8FF31002B0CD0184B1B684B
:101DC8001A4A1B491B48984703461A46174B83F87B
:101DD800FF200123FB71154B93F8FF30002B10D027
:101DE800124B93F8FF301A461049134823F0E6F8CF
:101DF8000346002B01D00EF0D7FF0C4B002283F8CE
:101E0800FF20012010F002F9FB7918460837BD467B
:101E180080BD00BF001802425C3B00205C3A0020F5
:101E2800604100205B3C00205C3C00205C3D0020C1
:101E38005B3F00205C3E00203C95002080B582B0CE
:101E480000AF7860786820F0DDF80346002B01D0F9
:101E58000EF0AAFF00BF0837BD4680BD80B582B02E
:101E680000AF78607B680D4A934212D14FF400723C
:101E780000210B4828F0D5FE01222021094815F041
:101E880031FE01221021084815F02CFE074B0022D4
:101E98001A7000BF0837BD4680BD00BF30930020D0
:101EA8005C3A002000180242000002425C3F002019
:101EB80080B584B000AF78607B68284A934247D1E8
:101EC8001021274815F0F6FD0346002B41D10122C9
:101ED8001021234815F006FE224B1B78062B23D130
:101EE800204B02221A701BF071FC03461E4AA2FB0B
:101EF80003231B0DFB6002E0FB68013BFB60FB68F2
:101F0800002BF9D100221021154815F0EBFD174BD5
:101F18001B881A46164911481FF0ACFE0346002BD1
:101F280017D00EF041FF14E00E4B1B78022B0BD19B
:101F38000C4B00221A700F4B1B680F4A12680F498E
:101F480009881046984704E0064B00221A7000E002
:101F580000BF00BF1037BD4680BD00BF30930020D2
:101F6800000002425C3F002083DE1B4354410020F6
:101F7800603F002064410020584100205C4100205F
:101F880080B582B000AF7860786823F095F9034691
:101F9800002B01D00EF008FF00BF0837BD4680BDFA
:101FA80080B582B000AF78607B680A4A93420DD151
:101FB800094B002283F8FF21FF220849054825F034
:101FC800B4FA0346002B01D00EF0EEFE00BF08372E
:101FD800BD4680BD3C9500205C3D00205C3E002055
:101FE80080B582B000AF78600B467B807B680B4A77
:101FF80093420ED17B88DAB2094B83F8FF21FF2286
:102008000849064825F091FA0346002B01D00EF046
:10201800CBFE00BF0837BD4680BD00BF3C95002001
:102028005C3D00205C3E002080B582B000AF0346D6
:10203800FB71074819F0ABF80346002B01D00EF0EE
:10204800B3FE044AFB79137000BF0837BD4680BD54
:10205800809100206F41002080B500AF044819F03E
:1020680096F80346002B01D00EF09EFE00BF80BDFF
:102078008091002080B582B000AF7860094B1B7852
:1020880083F00103DBB2002B07D0786819F07FF8E2
:102098000346002B01D00EF087FE00BF0837BD466F
:1020A80080BD00BF6F41002084B0B0B582B000AFE2
:1020B80007F1180484E80F000023FB71354B002258
:1020C8001A70354B1B68354A1360354B1B68334A09
:1020D8005360344B1B68314A9360304B07F1180248
:1020E8005A622E4A07F1380393622C4A07F15803C3
:1020F800D3622A4B2C4ADA61284B2C4A1A6241F2E5
:10210800883226492A4819F062FC0346002B01D080
:102118000EF04AFE264819F06EFC0346012B2ED11C
:10212800244B1D4607F1180420686168A268E3681B
:102138000FC520696169A269E3690FC51D4B03F1E9
:10214800200407F1380528686968AA68EB680FC495
:1021580028696969AA69EB690FC4164B03F1400441
:1021680007F1580528686968AA68EB680FC42869E8
:102178006969AA69EB690FC40123FB7101E00023B7
:10218800FB71FB7918460837BD46BDE8B04004B07E
:10219800704700BF7842002088C80208500000201D
:1021A80000C8020824C8020874C6020894C60208B7
:1021B800D49200201842002080B586B002AF786023
:1021C8007B68002B71D03E4B00221A603D4A7B6829
:1021D80013607B68013BFB608023BB6023E0FFF753
:1021E8003BFF374B1B6803F58023BA6892B2364928
:1021F8001846FFF7C5F900E000BF344815F044FD64
:102208000346012BF8D1BA682F49304816F0D7FA9F
:102218000346002B01D00EF0C7FD294B1A68BB6896
:102228001344274A1360264B1B68FA68D31ABA6806
:102238009A42D4D3224B1B687A68D31ABB60204BCE
:102248001B6803F58023BA6892B21F491846FFF746
:1022580097F90A2300931E4BBA681B491B4816F0CE
:10226800C0FA0346002B01D00EF09EFD202218492B
:10227800184828F0ADFC0346002B03D1164B00226A
:102288001A700AE0242200210E4828F0CAFC124BDA
:102298001B780133DAB2104B1A7001232422094942
:1022A8004FF40020FFF738F905E00B4B1B7801339A
:1022B800DAB2094B1A70084B18461037BD4680BD74
:1022C80070410020F44100207441002094900020C7
:1022D800F8410020584200207842002080B58CB098
:1022E80002AF7860396007F1080320220021184600
:1022F80028F097FC1A4B1B884FF6FF7293420ED0BA
:10230800174B1B88002B07D0154B1B889B025B08BB
:1023180003F10063194604E04FF0016101E04FF05A
:10232800016107F108030A2200927A680D4816F045
:102338002FFA0346002B01D00EF036FD07F10803F3
:1023480020223968184628F043FC0346002B01D1A7
:10235800012300E0002318462837BD4680BD00BF92
:10236800A007FA0B9490002084B0B0B590B000AFED
:1023780007F1500484E80F00464B1B68464A136077
:10238800464B1B68444A5360454B1B68424A93605E
:10239800414B07F150025A623F4A07F170039362BA
:1023A8003D4A07F19003D3623E4B3C461D460FCD94
:1023B8000FC495E80F0084E80F003A4B07F120049A
:1023C80003F120050FCD0FC495E80F0084E80F0036
:1023D800314A3B46D361304A3B462033136241F2CF
:1023E80088322D49304819F0F2FA0346002B01D003
:1023F8000EF0DAFC2C4819F0FEFA0346012B01D145
:10240800FF2340E03B4640221946284802F0D7FB0C
:10241800214A3B46D361204A3B462033136241F2AE
:1024280088321D49204819F0D2FA0346002B01D002
:102438000EF0BAFC1C4819F0DEFA0346012B01D154
:10244800022320E03B4640221946194802F0B7FB18
:10245800114A3B46D361104A3B462033136241F28E
:1024680088320D49104819F0B2FA0346002B01D002
:102478000EF09AFC0C4819F0BEFA0346012B01D164
:10248800012300E0002318464037BD46BDE8B040B0
:1024980004B0704788C802085000002000C802082D
:1024A80024C8020874C60208D492002028C302086F
:1024B80030C3020880B586B000AF3B1D83E8070033
:1024C8000023FB750023BB753B79503B052B00F2BD
:1024D8008F8001A252F823F0F92400083B25000858
:1024E8006125000887250008AD250008D3250008C8
:1024F8007B79002B7ED10123FB750223BB753B7BC7
:10250800FA7D9A4276D83B7BBA7D9A4272D3BB68F1
:102518001B787B757B7D184600F022F93B7B022BEC
:1025280068D1BB685B783B753B7D184600F03AF98B
:1025380060E07B79002B5FD10023FB750023BB751E
:102548003B7BFA7D9A4257D83B7BBA7D9A4253D35C
:10255800012000F005F94FE07B79002B4ED10023D4
:10256800FB750023BB753B7BFA7D9A4246D83B7BC3
:10257800BA7D9A4242D3002000F0F2F83EE07B791F
:10258800002B3DD10023FB750023BB753B7BFA7DF7
:102598009A4235D83B7BBA7D9A4231D3002000F06D
:1025A800DFF82DE07B79002B2CD10023FB7500236D
:1025B800BB753B7BFA7D9A4224D83B7BBA7D9A4215
:1025C80020D3144B01221A701CE07B79002B1BD1FD
:1025D8000023FB750023BB753B7BFA7D9A4213D819
:1025E8003B7BBA7D9A420FD30B4B01221A700BE04A
:1025F80000BF0AE000BF08E000BF06E000BF04E03B
:1026080000BF02E000BF00E000BF00BF1837BD46B2
:1026180080BD00BF7B4200207C42002080B584B092
:1026280000AF0346FB71354BFF221A70FFF714FD0C
:10263800FFF7C0F801224FF40061314815F052FA53
:10264800002240212F4815F04DFA64200FF0DEFCDF
:10265800FB79002B4DD02C4800F080FA0122402154
:10266800284815F03FFA00224FF40061244815F07D
:1026780039FA64200FF0CAFC24492548FFF73AF8D4
:102688000A200FF0C3FCFFF7E7FC0023FB732CE0E4
:10269800002240211B4815F025FA32200FF0B6FC25
:1026A80001224021174815F01DFAC8200FF0AEFC92
:1026B800FFF7D2FC4FF48051124815F0FBF903469E
:1026C800002BE5D000F082F80023FB7302E0FB7BCF
:1026D8000133FB73FFF704FB034683F00103DBB20E
:1026E800002B02D0FB7B632BF1D9044B1B78FF2B0B
:1026F800E0D000BF1037BD4680BD00BF8400002079
:102708000000024200180242BD240008C515000856
:10271800852B000880B586B000AF786051233B73E5
:102728007B683B6129233B7507F10C0393E807009D
:1027380000F0AEFA00BF1837BD4680BD80B584B042
:1027480000AF53233B710023BB6000233B733B1D49
:1027580093E8070000F09CFA00BF1037BD4680BD23
:1027680080B483B000AF0346FB71074B1B78FA793E
:102778009A4202D0044AFB79137000BF0C37BD4659
:102788005DF8047B704700BF8400002080B400AF70
:10279800034B1B781846BD465DF8047B704700BFA5
:1027A8008400002080B483B000AF0346FB71FB793E
:1027B800002B02D0044AFB79137000BF0C37BD46CA
:1027C8005DF8047B704700BF7942002080B584B073
:1027D80000AF50233B710023BB6000233B733B1DBC
:1027E80093E8070000F054FA00BF1037BD4680BDDB
:1027F80080B584B000AF094B00221A7055233B7195
:102808000023BB6000233B733B1D93E8070000F0E7
:102818003FFA00BF1037BD4680BD00BF7C42002094
:1028280080B500AF0E4B1B68002B04DD0C4B1B68FA
:10283800013B0B4A13600A4B1B68002B0ED1094859
:1028480018F019FE0346002B01D00EF0ADFA044B28
:102858004FF0FF321A60044B00221A7000BF80BD8F
:1028680088000020349200207A42002080B400AF13
:10287800074B1B68002B05DD064B1B78042B01D981
:10288800012300E000231846BD465DF8047B70472D
:10289800880000207A42002080B588B000AF034647
:1028A800FB714FF000024FF00003C7E9042307F162
:1028B800100308221946264802F081F9D7E90423B3
:1028C80010461946FEF75AF90346FB774FF0000207
:1028D8004FF00003C7E9022307F10803082219464D
:1028E8001C4802F06CF9D7E9022310461946FEF796
:1028F80045F90346BB77FA79FB7F9A4224D3FA79E4
:10290800BB7F9A4220D80021134800F0DFFB134B0D
:102918001B780133DAB2114B1A70104B1B78012B5C
:102928000BD10F4B0A221A600E4818F05BFD0346C4
:10293800002B09D00EF038FA06E0084B1B78052B5F
:1029480002D1074B0A221A6000BF2037BD4680BD5E
:1029580038C3020840C3020848C302087A4200206C
:10296800880000203492002080B584B000AF7860E1
:102978000B46FB700023FB7300237B81FB78023B33
:102988001A467968104828F08FF9FB78023B7A6874
:1029980013441B889BB27B81FB78023B1A460A4989
:1029A8000A4812F023FD0346BB817B89BA899A4203
:1029B80002D10123FB7301E00023FB73FB7B184664
:1029C8001037BD4680BD00BF8842002070900020AF
:1029D80090B583B000AF78600B46FB70124B1B6854
:1029E800002B1CD07B681A78104B1A707B689A7879
:1029F8000E4B5A700D4B00225A607B685A780B4B6D
:102A08001A720A4B1B7A002B03D07B680333074AE0
:102A18005360054B1C68054B93E80700A04700BFAF
:102A28000C37BD4690BD00BF844200207C43002087
:102A3800B0B58AB000AFF8610B467A61FB76FB69E6
:102A48001A78394B1A70384BF2225A70364B0022DA
:102A58005A60354B00221A72344B1B68002B1FD06A
:102A6800FB691A78324B1A70314B00225A60FB69A5
:102A78005A782F4B1A722E4B1B7A002B03D0FB6906
:102A880002332B4A5360294B1C68274D3846284B84
:102A98000ECBA0472C463B4693E8070084E8070086
:102AA800214B1B7A053387F827301F4B1A787B692F
:102AB8001A707B6901331C4A127A1A707B690233D7
:102AC800194A52781A70184B1B7A002B0CD0164BE7
:102AD8005B68002B08D07B690333134A5168124A9C
:102AE800127A184628F0E0F897F82730023B1A4681
:102AF8007969104828F0D8F897F82730023B1A4629
:102B08000C490D4812F072FC03469BB2BB8497F83F
:102B18002730023B7A691344BA8C1A8097F8273019
:102B280018462837BD46B0BD7C43002080420020AF
:102B380088430020884200207090002080B483B031
:102B480000AF7860044A7B68136000BF0C37BD464D
:102B58005DF8047B704700BF8042002080B483B0DA
:102B680000AF7860044A7B68136000BF0C37BD462D
:102B78005DF8047B704700BF8442002080B586B0B2
:102B880000AFF860B9607A600023FB750023BB755D
:102B9800FB685B787B757B7DEF2B23D87B7D0533CA
:102BA800DBB21946F868FFF7DFFE0346002B19D0A1
:102BB8007B7D0533BB75BB7D1946F868FFF708FFB9
:102BC800BB7DFA68D118BB7DC3F1FF031A46F868CC
:102BD80028F00EF8BB681A78BB7DD31ADAB2BB6846
:102BE8001A704BE07B7DF02B26D87B7D0433DBB25B
:102BF8001946F868FFF7B8FE0346002B1CD07B7D0A
:102C08000433BB75BB7D7A681946F868FFF710FF77
:102C18000346FB75BB7DFA68D118BB7DC3F1FF0382
:102C28001A46F86827F0E4FFBB681A78BB7DD31A08
:102C3800DAB2BB681A7021E0FB681A787B681A70F0
:102C48007B68013300221A707B680233F0221A7005
:102C5800032279680C4828F027F803220A490B4810
:102C680012F0C4FB03469BB27B827B6803337A8AEB
:102C78001A800523FB75BB6800221A70FB7D184675
:102C88001837BD4680BD00BF8842002070900020E4
:102C980080B5C2B000AF07F58473A3F5827383E8EB
:102CA800070007F58473A3F582731B783B7507F556
:102CB8008473A3F582731B7A7B7507F58473A3F578
:102CC80082731B7A002B17D007F58473A3F58273E0
:102CD8005B68002B10D007F58473A3F582735968DD
:102CE80007F58473A3F582731B7A1A4607F1140358
:102CF8000233184627F0D8FF07F58473A3F58273CB
:102D08001B7A9A1C07F114031946174827F0CCFFC1
:102D180007F58473A3F582731B7A02331A461249A6
:102D2800124812F063FB03469BB27B8207F584735B
:102D3800A3F582731B7A023307F1140213447A8ACB
:102D48001A8007F58473A3F582731B7A0433DAB209
:102D580007F1140311461846FEF76CFD00BF07F58E
:102D68008477BD4680BD00BF884200207090002057
:102D780080B5C2B000AF07F58473A3F5827383E80A
:102D8800070007F58473A3F582731B783B7507F575
:102D98008473A3F582731B7A7B7507F58473A3F597
:102DA80082735B78BB7507F58473A3F582731B7A0E
:102DB800002B17D007F58473A3F582735B68002B8B
:102DC80010D007F58473A3F58273596807F58473E7
:102DD800A3F582731B7A1A4607F1140303331846C6
:102DE80027F062FF07F58473A3F582731B7ADA1C58
:102DF80007F114031946174827F056FF07F584739F
:102E0800A3F582731B7A03331A461249124812F04B
:102E1800EDFA03469BB27B8207F58473A3F58273B0
:102E28001B7A033307F1140213447A8A1A8007F5D0
:102E38008473A3F582731B7A0533DAB207F114039E
:102E480011461846FEF7F6FC00BF07F58477BD4625
:102E580080BD00BF8842002070900020B0B596B0B9
:102E680000AF786007F13C030022194672481DF054
:102E7800BDFD0346002B01D00DF096FF07F1380386
:102E8800002219466C481DF0A9FE0346002B01D00C
:102E98000DF08AFF97F83B3087F8303097F83930D3
:102EA80087F8313097F83A3087F8323097F83C3065
:102EB80087F8333097F83D3087F8343097F83E304C
:102EC80087F835303B6CDBB2DB43DBB287F8363052
:102ED8007B68002B0BD07A6807F130031068186004
:102EE8009188927999809A71544B7B6507E04FF4E9
:102EF80000720021524827F094FE514B7B65514BDC
:102F080007F114041D460FCD0FC495E8070084E8A7
:102F180007004D4A07F10C0392E8030018600433D8
:102F2800198002330A0C1A70002387F853303EE0E8
:102F380097F8533007F10C021A4407F114031146AD
:102F4800184627F076FE034687F8523097F8533034
:102F580058333B4413F8283C3C4AA2FB0323DB08C4
:102F6800DAB297F852303032D2B258333B4403F8D1
:102F7800442C97F8533058333B4413F8282C334BE0
:102F8800A3FB0213D9080B469B000B445B00D31A22
:102F9800DAB297F8523001333032D2B258333B4468
:102FA80003F8442C97F85330013387F8533097F8D7
:102FB8005330062BBCD997F83630254AA2FB032399
:102FC8005B09DBB23033DBB287F82A3097F836304A
:102FD8001F4AA2FB03125209642101FB02F29B1A49
:102FE800DBB21A4AA2FB0323DB08DBB23033DBB2C5
:102FF80087F82B3097F83620144BA3FB0213D90817
:103008000B469B000B445B00D31ADBB23033DBB2B8
:1030180087F82C307B6D1D4607F114040FCC28600F
:103028006960AA60EB6007CC28616961AA611B230B
:1030380018465837BD46B0BD00930020984500207B
:103048009843002050C302086CC30208CDCCCCCCF6
:103058001F85EB5180B584B000AF78600B467B804C
:103068007B68FB600A4B1A687B881344B3F5003F02
:1030780002D3074B00221A60054B18687A88002390
:10308800F968FEF749FA00BF1037BD4680BD00BF9A
:103098009443002080B500AF04220B494FF4003060
:1030A800FEF76EFA084B1B68B3F5003F09D3064BD1
:1030B80000221A600023042203494FF40030FEF76F
:1030C8002BFA00BF80BD00BF9443002080B584B0B8
:1030D80000AF786039600020FFF7C0FE0346FB812F
:1030E800FB89144A134404221349184627F0DCFDCF
:1030F800FB890433FB81FB890E4A13440522796856
:10310800184627F0D1FDFB890533FB81FB89094A65
:1031180013440A4A1188927819809A70FB890333FC
:10312800FB81FB8919460348FFF794FF00BF10375E
:10313800BD4680BD9843002074C30208B4C6020887
:1031480090B589B000AF03460A46FB801346BB80A2
:103158000020FFF783FE0346FB83FB8B5F4A134483
:1031680004225F49184627F09FFDFB8B0433FB833D
:103178005C4B07F10C040FCB07C4238002341B0CF3
:103188002370594A07F1080312681146198002335F
:10319800120C1A7007F1080207F10C0311461846C1
:1031A80027F047FD03467B77FB88504AA2FB0312B2
:1031B800520B42F2107101FB02F29B1A9BB24C4A6D
:1031C800A2FB03239B099BB2DAB27B7F3032D2B2D7
:1031D80020333B4403F8142CFB88454AA2FB031216
:1031E80092094FF47A7101FB02F29B1A9BB2414A91
:1031F800A2FB03235B099BB2DAB27B7F0233303236
:10320800D2B220333B4403F8142C07F108035A1CAC
:1032180007F10C031146184627F00BFD03467B7790
:10322800BB88324AA2FB0312520B42F2107101FB17
:1032380002F29B1A9BB22E4AA2FB03239B099BB264
:10324800DAB27B7F3032D2B220333B4403F8142CFD
:10325800BB88274AA2FB031292094FF47A7101FB3B
:1032680002F29B1A9BB2234AA2FB03235B099BB27F
:10327800DAB27B7F02333032D2B220333B4403F8D8
:10328800142CFB8B154A9C1807F10C031846FCF705
:10329800EFFF024607F10C031946204627F004FD0C
:1032A80007F10C031846FCF7E3FF03469AB2FB8BC1
:1032B8001344FB83FB8B094A13440F4A1188927805
:1032C80019809A70FB8B0333FB83FB8B19460348E9
:1032D800FFF7C0FE00BF2437BD4690BD98430020CD
:1032E8007CC3020884C3020894C302085917B7D1E3
:1032F800D34D62101F85EB51B4C60208B0B588B033
:1033080000AF78600020FFF7A9FD0346BB83BB8BA5
:103318007D4A134404227D49184627F0C5FCBB8B1F
:103328000433BB837A4B07F10C040FCB07C423701B
:1033380058233B8107F1080207F10C031146184690
:1033480027F077FC0346FB767A68724BA3FB0213DF
:103358009B0D714901FB03F3D31A704AA2FB0323A7
:103368009B0CDAB2FB7E3032D2B220333B4403F8F6
:10337800142C7A68694BA3FB02139B0C684901FB68
:1033880003F3D31A5B09674AA2FB0323DB09DAB20A
:10339800FB7E02333032D2B220333B4403F8142C84
:1033A8007A6853095F49A1FB0313DB095E4901FBF6
:1033B80003F3D31A5D4AA2FB03235B0BDAB2FB7E4D
:1033C80003333032D2B220333B4403F8142C7A68EA
:1033D800564BA3FB02135B0B42F2107101FB03F384
:1033E800D31A534AA2FB03239B09DAB2FB7E0433A8
:1033F8003032D2B220333B4403F8142C7A684C4B59
:10340800A3FB02139B094FF47A7101FB03F3D31A50
:10341800484AA2FB03235B09DAB2FB7E063330324B
:10342800D2B220333B4403F8142C7A68414BA3FBF7
:1034380002135B09642101FB03F3D31A3E4AA2FB82
:103448000323DB08DAB2FB7E07333032D2B22033F3
:103458003B4403F8142C7968374BA3FB0123DA08A3
:1034680013469B0013445B00CA1AD2B2FB7E083392
:103478003032D2B220333B4403F8142C0023FB77BC
:1034880002E0FB7F0133FB77FB7F20333B4413F8DB
:10349800143C302BF5D0FB7F20333B4413F8143C0D
:1034A8002C2BEED0BB8B184A9C18FB7F07F10C0223
:1034B800D51807F10C031846FCF7DAFE0246FB7F25
:1034C800D31A1A462946204627F0EEFB07F10C03CB
:1034D8001846FCF7CDFE03469AB2BB8B1344BB8358
:1034E800BB8B094A1344154A1188927819809A703F
:1034F800BB8B0333BB83BB8B19460348FFF7AAFD7D
:1035080000BF2037BD46B0BD9843002098C30208CD
:10351800A0C302086BCA5F6B8096980083DE1B43CA
:1035280040420F00C55A7C0AA08601005917B7D13E
:10353800D34D62101F85EB51CDCCCCCCB4C602085C
:10354800B0B594B000AFF8607A601A460B46FB72CB
:1035580013463B810020FFF781FC0346A7F84E3055
:10356800B7F84E30B04A13440422B049184627F041
:103578009BFBB7F84E300433A7F84E30AC4A07F13E
:10358800400392E8030018600433198002330A0CE0
:103598001A70FB681B68C7F84130B7F84E30A24A6A
:1035A800134407F140010622184627F07DFBB7F8BF
:1035B8004E300633A7F84E30FB7A022B40F0DA8003
:1035C8004FF000024FF00003C7E90E237B681C6828
:1035D8005D6822462B46C7E90E23D7E90E014FF056
:1035E8000002944BFDF708F802460B46C7E90E2384
:1035F800D7E90E2310461946FDF7C0FA0346A7F887
:103608004A308D4A07F12C0307CA03C31A800233D4
:10361800120C1A7078233B8507F1280207F12C0356
:103628001146184627F005FB034687F84930B7F8D6
:103638004A2053098149A1FB0313DB09804901FB97
:1036480003F3D31A7F4AA2FB03235B0BDAB297F882
:1036580049303032D2B250333B4403F8242CB7F807
:103668004A30784AA2FB0312520B42F2107101FB56
:1036780002F29B1A9BB2744AA2FB03239B099BB2DA
:10368800DAB297F8493001333032D2B250333B4482
:1036980003F8242CB7F84A306B4AA2FB03129209AC
:1036A8004FF47A7101FB02F29B1A9BB2674AA2FBA4
:1036B80003235B099BB2DAB297F849300233303200
:1036C800D2B250333B4403F8242CB7F84A305F4A4F
:1036D800A2FB03125209642101FB02F29B1A9BB25E
:1036E8005B4AA2FB0323DB089BB2DAB297F84930A6
:1036F80003333032D2B250333B4403F8242C97F8CA
:103708004930043350333B442E2203F8242CB7F8B5
:103718004A204F4BA3FB0213D9080B469B000B44CE
:103728005B00D31A9BB2DAB297F8493005333032CE
:10373800D2B250333B4403F8242CB7F84E303A4AFF
:103748009C1807F12C031846FCF792FD024607F176
:103758002C031946204627F0A7FA07F12C03184630
:10376800FCF786FD03469AB2B7F84E301344A7F823
:103778004E3041E0374B07F114041D460FCD0FC4FE
:103788002B682370344A07F1100312681146198018
:103798000233120C1A700023A7F84C3027E0B7F850
:1037A8004C307A6813441B781B09DBB250333B4416
:1037B80013F83C3C3B74B7F84C307A6813441B78D8
:1037C80003F00F0350333B4413F83C3C7B74B7F8C9
:1037D8004E30154A13443A8A1A80B7F84E300233ED
:1037E800A7F84E30B7F84C300133A7F84C30B7F88B
:1037F8004C203B899A42D2D3B7F84E300A4A134438
:10380800164A1188927819809A70B7F84E300333A7
:10381800A7F84E30B7F84E3019460348FFF71AFCA0
:1038280000BF5037BD46B0BD98430020B0C3020862
:10383800B8C3020800002440C0C30208C55A7C0A65
:10384800A08601005917B7D1D34D62101F85EB51DF
:10385800CDCCCCCCCCC30208E0C30208B4C6020865
:1038680080B586B000AF78600023FB754FF4007216
:103878000021204827F0D5F90023FB811D4BBB60B0
:10388800FB89BA68134404221B49184627F00CFA2E
:10389800FB890433FB81FB89BA68134405227968E4
:1038A800184627F001FAFB890533FB8100233B61A9
:1038B80016E0FB891A4611493869FDF761FEFB8954
:1038C8001A460E49B86827F083F90346002B02D13F
:1038D8000123FB7508E0FEF7BFFB3B6901333B6141
:1038E8003B69B3F5003FE4D3FB7D18461837BD4666
:1038F80080BD00BF9843002074C30208984500208B
:1039080080B588B000AF786039600023FB777868AD
:10391800FFF7A4FA03463B823D4BFB603D4B1B6817
:10392800BB613B8A1A46F9683B4827F051F90346C0
:10393800002B02D1394B1B68BB610023BB600023FD
:103948007B615CE0BA697B691344C3F31003BB6015
:1039580001223968B868FDF713FE3B681B785B2BBA
:1039680048D13B8A1A463968B868FDF709FE3B8A90
:10397800013B3A6813441B785D2B3BD13B8A1A46BE
:10398800F968386827F024F90346002B32DD3B8AB2
:10399800FB770023FB742AE0FEF75EFBFA7FBB6827
:1039A800D018FB7F3A68134401221946FDF7E8FD59
:1039B800FB7F3A6813441B780A2B05D0FB7F3A68D3
:1039C80013441B78002B0CD13B8A1A4639681248DD
:1039D80027F06AF9114ABB681360FB7F0133DBB239
:1039E80012E0FB7F0133FB77FB7C0133FB74FB7C2C
:1039F800EE2BD1D9FEF730FB7B6901337B617B6904
:103A0800B3F5003F9ED3002318462037BD4680BD3E
:103A180098450020944300208C00002098470020FF
:103A280080B500AFFEF718FB4FF400310020FDF71A
:103A3800B8FD04214FF40030FDF7B3FD0422002146
:103A4800034827F0EEF8024B00221A6000BF80BD41
:103A58009443002080B582B000AF78600B467B802D
:103A68007B68B3F5003F0DD2084B1A687B88134476
:103A7800013B064A13600023042204494FF4003036
:103A8800FDF74AFD00BF0837BD4680BD94430020BE
:103A980080B582B000AF0346FB71FB791A4604215A
:103AA800034814F01FF800BF0837BD4680BD00BFAB
:103AB8000000024280B588B002AF786039606423A4
:103AC80000936423224A23490020FDF72BFC64233A
:103AD80000936423204A21490020FDF723FC00239A
:103AE8007B6100233B610023FB7312E0FB7B184AD8
:103AF80032F813301A467B6913447B61FB7B164A04
:103B080032F813301A463B6913443B61FB7B01339F
:103B1800FB73FB7B632BE9D97B69114AA2FB032367
:103B28005B097B613B690E4AA2FB03235B093B618E
:103B38007B699BB25B009AB27B681A803B699BB237
:103B48005B009AB23B681A8000BF1837BD4680BD3B
:103B58009C47002020000014644800204000001802
:103B68001F85EB5180B582B000AF0346FB71FB792E
:103B78001A460421034813F0B5FF00BF0837BD46B5
:103B880080BD00BF0014024290B583B000AF044668
:103B9800084611461A462346FB710346BB710B467D
:103BA8007B7113463B71FB791A4602210C4813F0CE
:103BB80099FFBB791A460821094813F093FF7B79CE
:103BC8001A461021064813F08DFF3B791A46012149
:103BD800034813F087FF00BF0C37BD4690BD00BFF8
:103BE800001402420000000080B586B000AF786083
:103BF80039603868FCF786FC1AA3D3E90023FCF780
:103C0800FBFC02460B46C7E902237868FCF77AFCFE
:103C1800D7E90223FCF7F0FC02460B46104619468A
:103C28004FF000020E4BFCF731FB02460B461046E4
:103C38001946FCF7A3FF03467B617B69002B02D181
:103C480001237B6106E07B69B3F5FA6F02D94FF473
:103C5800FA637B617B699BB218461837BD4680BD05
:103C68000000E03F8DEDB5A0F7C6B03E80B586B048
:103C780002AFF860B96011461A460B46FB8013463E
:103C8800BB80FA88BB8800931346BA68F96801209C
:103C9800FDF748FB00BF1037BD4680BD000000009F
:103CA80080B58AB000AF78600B467B8013463B80B6
:103CB8007B687B614FF000024FF00003C7E90823DF
:103CC8000223FB747B885B083B823B885B08FB8193
:103CD8000023FB7644E00023FB834FF6FF73BB838E
:103CE800FB7E9BB23A8A12FB03F39AB2FB89134418
:103CF800BB813B8A5B089AB2BB8913447B81BB8931
:103D08003B8316E03B8B5B007A6913441B88FA8B74
:103D1800934238BF1346FB833B8B5B007A6913449D
:103D28001B88BA8B934228BF1346BB833B8B013356
:103D38003B833A8B7B899A42E4D3FA8BBB8BD31AA9
:103D48001846FCF7EFFB02460B46D7E90801FCF7DB
:103D58009DFA02460B46C7E90823FB7E0133FB7632
:103D6800FA7EFB7C9A42B6D3FB7C1846FCF7CAFB6A
:103D780002460B46D7E90801FCF768FD02460B46E8
:103D8800C7E9082308A3D3E90023D7E90801FCF70A
:103D980033FC02460B4643EC172BB0EE470AF0EE15
:103DA800670A2837BD4680BDAAAAAAAAAAAAEA3FD6
:103DB8002DE9B04F90B000AF87ED020B87ED001BE7
:103DC8004FF000027A4BD7E90201FCF73FFD0246AB
:103DD8000B46104619466CA3D3E90023FCF736FDC1
:103DE80002460B46C7E90A234FF000024FF00003D2
:103DF800D7E90A01FCF77CFE0346002B04D04FF0FC
:103E080000024FF00003B3E061A3D3E90023D7E930
:103E18000A01FCF7F1FB02460B46C7E90E23002313
:103E280087F837308EE0D7E90E23D7E90A01FCF787
:103E38000DFD02460B4610461946FCF7BFFE034629
:103E480000EE103A26F03EFFF0EE407A9FED597AE8
:103E580067EE877A17EE900AFCF776FB804689466C
:103E68004DA3D3E90023D7E90E01FCF7C5FB0246B1
:103E78000B4692469B464FF000024D4BD7E90A018C
:103E8800FCF7BAFB02460B4650465946FCF7FCF9CC
:103E980002460B4640464946FCF7F6F902460B46F1
:103EA800C7E90823D7E90E233DA1D1E90001FCF7B2
:103EB800CDFC02460B46144683F0004536A3D3E9F1
:103EC800002320462946FCF7DFF902460B46C7E9DE
:103ED8000623D7E90623D7E90801FCF7B7FC024611
:103EE8000B46C7E90423D7E90423D7E90E01FCF7F9
:103EF800CBF902460B46C7E90E23D7E90401FCF7C4
:103F08005DFE07EE900AF0EEE77A9FED2B7AF4EE6D
:103F1800C77AF1EE10FA1BD44FF000024FF00003FD
:103F2800D7E90E01FCF7E4FD0346002B05D01EA3DC
:103F3800D3E90023C7E90E230BE097F837300133A4
:103F480087F8373097F83730132B7FF66CAF00E0DF
:103F580000BF4FF00002164BD7E90E01FCF74CFBEF
:103F680002460B46D7E90001FCF770FC02460B46F7
:103F780043EC172BB0EE470AF0EE670A4037BD4610
:103F8800BDE8B08FAFF300800000000000E0A5405E
:103F9800000000A0AAAA1A400000000000C0624069
:103FA800000000206C789A3F000000809997713DCE
:103FB80000408F4061C3D33CCCBC8C2B80B582B011
:103FC80000AF0346FB71FB791A464FF48061034842
:103FD80013F088FD00BF0837BD4680BD00040242CB
:103FE80080B582B000AF03460A46FB711346BB7129
:103FF800FB79013B032B35D801A252F823F000BF0F
:1040080019400008334000084F4000085F4000088E
:10401800BB791A462021164813F064FDBB791A466D
:104028001021134813F05EFD1DE0BB791A464FF4CA
:104038008051104813F056FDBB791A4610210C48E0
:1040480013F050FD0FE0BB791A464FF48071084811
:1040580013F048FD07E0BB791A460421064813F01F
:1040680041FD00E000BF00BF0837BD4680BD00BF6E
:1040780000040242000802420018024280B586B0DD
:1040880002AF396011461A460346FB710B46BB71F5
:104098001346BB80BB795B08DBB2FB81FB79013B34
:1040A800032B33D801A252F823F000BFC540000803
:1040B800D9400008ED40000801410008FA89BB8892
:1040C800009313463A6814490020FDF72BF91EE0C7
:1040D800FA89BB88009313463A6810490020FDF717
:1040E80021F914E0FA89BB88009313463A680C4911
:1040F8000020FDF717F90AE0FA89BB8800931346F8
:104108003A6808490120FDF70DF900E000BF00BF3B
:104118001037BD4680BD00BF0080003E0000014250
:10412800000002468000001C80B584B000AF034642
:10413800B96087ED010AFB731346BB737868FCF717
:1041480003FA4FF000020B4BFCF756FA02460B46F7
:1041580010461946FCF712FD03469BB2BA7BF87B62
:10416800B968FFF78BFF0A20FDF73CF900BF10374D
:10417800BD4680BD0000244080B500AF0A20FDF791
:104188005BF90A20FDF72EF900BF80BD80B582B02B
:1041980000AF0346FB71FB791A464FF48061034870
:1041A80013F0A0FC00BF0837BD4680BD00080242DE
:1041B80080B586B002AF78600B46FB7013463B8033
:1041C800FB785B08DBB2FB81FA893B8800931346D6
:1041D8007A6804490120FDF7A5F800BF1037BD46ED
:1041E80080BD00BF0000405A80B582B000AF0346D2
:1041F800FB71FB791A462021034813F073FC00BFBA
:104208000837BD4680BD00BF0008024280B586B0B1
:1042180002AF396011461A460346FB710B46BB7163
:104228001346BB80BB795B08DBB2FB81FB79032BB0
:104238001AD0032B22DC012B02D0022B0AD01DE05E
:10424800FA89BB88009313463A680F490120FDF7A5
:1042580069F814E0FA89BB88009313463A680B4959
:104268000120FDF75FF80AE0FA89BB88009313463E
:104278003A6807490120FDF755F800E000BF00BF84
:104288001037BD4680BD00BF0800000C04000008C0
:104298000200000480B500AF0020FFF7F9FB002002
:1042A800FFF760FC0020FFF789FE00210120FFF7DF
:1042B80097FE00210220FFF793FE00210320FFF75D
:1042C8008FFE00210420FFF78BFE0020FFF75EFF22
:1042D8000020FFF789FF00BF80BD80B58AB000AF1E
:1042E800B9607A601A460346FB8113467B73FB89E3
:1042F800FB84082387F82230BB681B68BB61002356
:10430800BB84002387F8233049E04FF000024FF0C8
:104318000003C7E904237A7B97F82330D31A87F878
:10432800213097F8212097F822309A420BD297F83B
:1043380023307A68D11897F8212007F1100318461E
:1043480026F0B2FC0AE097F823307A68D11897F87B
:10435800222007F11003184626F0A6FC07F11002E8
:10436800FB8C1146184624F0BFFC0346BB84BB8C6B
:1043780003F48073002B03D024F0D0FC0346BB84E5
:10438800BB8C002B01D00CF00FFDFB8C0133FB84A0
:1043980097F8232097F82230134487F8233097F8AA
:1043A80023207B7B9A42B0D316F0F6FD0346002B00
:1043B80001D00CF0F9FCFB8C18462837BD4680BDAF
:1043C80080B58AB000AFB9607A601A460346FB81AF
:1043D80013467B73FB89FB8407F1100300221A60E4
:1043E8005A609A60DA60082387F8243000237B84B7
:1043F800002387F8253048E007F11002FB8C1146AE
:10440800184624F053FC03467B847B8CDBB2FF2BDD
:1044180001D10CF0C9FC7A7B97F82530D31A87F8BC
:1044280021307A7B97F824309A4207D27A7B07F1B9
:1044380010031946786826F037FC1CE097F821200D
:1044480097F824309A420BD297F825307A681344AB
:1044580097F8212007F11001184626F025FC0AE0FC
:1044680097F825307A68134497F8242007F110014B
:10447800184626F019FCFB8C0133FB8497F825209D
:1044880097F82430134487F8253097F825207B7B4C
:104498009A42B1D3BB68002B02D0BA69BB681A60D4
:1044A800FB8C18462837BD4680BD000080B584B017
:1044B80000AF78600023FB607B68002B1DD03F2392
:1044C8003B8100237B8114E07B891B010D4A134447
:1044D80004227968184626F07BFB0346002B05D199
:1044E8007B891B01074A1344FB6006E07B89013383
:1044F8007B817A893B899A42E6D3FB681846103754
:10450800BD4680BDA007002080B594B000AF002351
:104518007B620023A7F84E30B44B1B681B699BB223
:104528007B84002387F84D30B04B1B689A68AF4BEB
:104538001B6842F001029A600023A7F84A3048E05D
:10454800B7F84A301B01AA4A1344184600F0CDFABE
:10455800034687F82B3097F82B3003F00703DBB2BC
:10456800002B07D097F82B30DB08DBB2013387F834
:104578004D3004E097F82B30DB0887F84D300023E6
:1045880087F849301AE0B7F84A301B01984A1344B3
:104598001B687B6207F1240304221946934810F034
:1045A800E1FE03469BB27B84B7F84E300133A7F88F
:1045B8004E3097F84930013387F8493097F8492049
:1045C80097F84D309A42DED3B7F84A300133A7F84E
:1045D8004A303F22B7F84A309342B1D312F050FA2A
:1045E8000346002B01D00CF0DFFB0023A7F8463070
:1045F800002023F083F80346A7F84630B7F8463082
:10460800002B01D00CF0D0FB0023A7F84630002384
:10461800A7F84430754B1B681B699BB2FB81734B31
:104628001B689A68714B1B6842F001029A6000236C
:10463800A7F842302DE0B7F842300133A7F84230EE
:1046480007F11002B7F842301146184624F02EFB45
:104658000346A7F84630B7F84630002B19D1BB6996
:104668007B62FA89614B1B681A6107F124030422F3
:1046780019465E4810F076FE03469BB2FB815B4B01
:104688001B685A4A12691A61B7F844300133A7F80F
:104698004430B7F84630002BCDD0B7F84230012B64
:1046A80003D1B7F84630072B10D007F10E0107F1F8
:1046B80022030222184626F08BFA0346002B05D166
:1046C800B7F84E20B7F844309A4261D0002024F061
:1046D800E9F90346A7F84630B7F84630002B01D071
:1046E8000CF062FB0123A7F842300023A7F8403002
:1046F80048E0B7F840303E4A1B0113440433B7F88A
:1047080042201A800023FB63002387F83B30B7F868
:104718004030374A1B01134408331B68002B0FD065
:10472800B7F84030324A1B01134408331B68FB6258
:10473800FB6A1B68FB63FB6A1B7987F83B300DE05B
:10474800B7F840302A4A1B0113440C331B683B63FB
:104758003B6B1033FB63082387F83B30B7F84030D6
:104768001B01234A991897F83B30B7F84200FA6BB7
:10477800FFF7B3FD0346A7F84230B7F840300133DE
:10478800A7F840303F22B7F840309342B1D377E1E1
:104798000123A7F8423000233B8734E03B8F144ABB
:1047A8001B0113440433B7F842201A803B8F1B01C6
:1047B8000F4A1344184600F098F9034687F8373033
:1047C80097F83730DB08DBB2BB8697F8373003F051
:1047D8000703DBB2002B0DD0B7F84220BB8E134481
:1047E8009BB20133A7F842300AE000BF7090002066
:1047F800A0070020B7F84220BB8E1344A7F8423028
:104808003B8F01333B873F223B8F9342C6D33223F2
:10481800A3F1300213469B0013445B001A4636236B
:10482800303B13449C4A82FB03129210DB17D31AC5
:10483800DBB23033DBB23B723223A3F130021346D2
:104848009B0013445B001A463623303B1A44924BB4
:1048580083FB02139910D317C91A0B469B000B440C
:104868005B00D11ACBB23033DBB27B7253234A2BB5
:1048780005D16523612B02D170236E2B37D05323CA
:10488800462B34D053234D2B05D16523612B02D100
:104898007023722B2BD05323412B02D16523702B0D
:1048A80025D053234D2B05D16523612B02D17023CD
:1048B800792B1CD053234A2B05D16523752B02D1A4
:1048C80070236E2B13D053234A2B05D16523752BE8
:1048D80002D170236C2B0AD05323412B02D16523BC
:1048E800752B04D05323532B01D0012300E0002360
:1048F800DBB23033DBB2BB7253234A2B05D16523BD
:10490800612B02D170236E2B51D05323462B4CD0F0
:1049180053234D2B05D16523612B02D17023722BB4
:1049280041D05323412B02D16523702B39D0532317
:104938004D2B05D16523612B02D17023792B2ED005
:1049480053234A2B05D16523752B02D170236E2B77
:1049580023D053234A2B05D16523752B02D170230D
:104968006C2B18D05323412B02D16523752B10D003
:104978005323532B0BD053234F2B06D053234E2BAB
:1049880001D1312314E0322312E0302310E039231F
:104998000EE038230CE037230AE0362308E03523FD
:1049A80006E0342304E0332302E0322300E031231D
:1049B800FB723123202B0BD13823303B364A82FB44
:1049C80003129210DB17D31ADBB23033DBB213E0D9
:1049D8003123A3F1300213469B0013445B001A46AF
:1049E8003823303B13442C4A82FB03129210DB1706
:1049F800D31ADBB23033DBB23B733123202B11D116
:104A08003823A3F13002244B83FB02139910D317E8
:104A1800C91A0B469B000B445B00D11ACBB230334A
:104A2800DBB218E03123A3F1300213469B00134494
:104A38005B001A463823303B1A44174B83FB02139A
:104A48009910D317C91A0B469B000B445B00D11A67
:104A5800CBB23033DBB27B733B46062219460F4894
:104A680000F0ADF807F108013B460622184626F08B
:104A7800AFF80346002B03D00021084800F057F890
:104A880012F020F80346002B01D00CF08DF900BF7E
:104A98005037BD4680BD00BF67666666E4C302083E
:104AA80080B584B000AF78600023FB737B68002B6F
:104AB80016D07868FFF7FAFCB860BB68002B0FD0F7
:104AC800BB689B68002B02D00123FB7308E0BB681E
:104AD800DB68002B02D00223FB7301E00023FB7389
:104AE800FB7B18461037BD4680BD80B586B000AF49
:104AF80078600023FB757B68002B13D07868FFF77C
:104B0800D5FC38613B69002B0CD03B699B68002BB6
:104B180006D03B699B68FB60FB681B79FB7501E06D
:104B28000823FB75FB7D18461837BD4680BD80B548
:104B380088B000AF786039607B68002B3BD078681C
:104B4800FFF7B4FC78617B69002B34D00023FB7736
:104B58003B68BB617B699B68002B0CD07B699B68B9
:104B6800FB60FB681B79FB77BB69002B0ED1FB68E8
:104B78001B68BB610AE00823FB77BB69002B05D1E2
:104B88007B69DB683B613B691033BB6111F078FFDF
:104B98000346002B01D00CF007F97B699888FB7F4E
:104BA800BA697968FFF799FB11F08CFF0346002B6F
:104BB80001D00CF0F9F800BF2037BD4680BD80B5A4
:104BC80088B000AFF860B9601346FB71FB68002B32
:104BD80025D0BB68002B22D0F868FFF767FCB861C6
:104BE800BB69002B1BD00023FB77BB699B68002B9C
:104BF80006D0BB699B687B617B691B79FB7701E009
:104C08000823FB77FA79FB7F9A4201D2FB79FB777D
:104C1800BB699888FB7FBA680021FFF7D1FB00BF0A
:104C28002037BD4680BD80B586B000AF786039605A
:104C38007B68002B23D03B68002B20D07868FFF7D7
:104C480035FC78617B69002B19D07B699B68002B48
:104C58000BD07B699B68FB60FB681968FB681B7954
:104C68001A46386826F020F809E07B69DB683B6162
:104C78003B69103308221946386826F015F800BF3A
:104C88001837BD4680BD80B586B000AF78604FF05C
:104C980000024FF00003C7E904237B68002B12D001
:104CA8007868FFF703FCF860FB68002B0BD0FB6803
:104CB800DB68002B07D0FB68DB68BB60BB68D3E907
:104CC8000623C7E90423D7E9042343EC172BB0EEE6
:104CD800470AF0EE670A1837BD4680BD80B588B030
:104CE80000AFF86087ED000B0023FB77FB68002B13
:104CF80023D0F868FFF7DAFBB861BB69002B1CD03A
:104D0800BB69DB68002B18D0BB69DB687B617B69FA
:104D1800D3E90223D7E90001FBF7EAFE0346002B9B
:104D28000BD07B69D3E90023D7E90001FBF7EAFE42
:104D38000346002B01D00123FB77FB7F1846203761
:104D4800BD4680BD80B588B000AFF86087ED000B28
:104D5800FB68002B48D0F868FFF7A8FBF861FB69EF
:104D6800002B41D0FB69DB68002B3DD0FB69DB6879
:104D7800BB61BB69D3E90623D7E90001FBF766FDF0
:104D880002460B4643EC172BB0EE470AF0EE670AD3
:104D980026F012F851EC100BBB69D3E90623FBF798
:104DA8002BFC02460B46C7E90423BB69D3E9002361
:104DB800D7E90401FBF792FE0346002B03D0BB6939
:104DC800D3E9002314E0BB69D3E90223D7E904013E
:104DD800FBF7A2FE0346002B03D0BB69D3E90223ED
:104DE80006E0D7E9042303E04FF000024FF0000388
:104DF80043EC172BB0EE470AF0EE670A2037BD46A2
:104E080080BD000080B483B000AF0346FB80044A35
:104E1800FB88138000BF0C37BD465DF8047B7047E4
:104E28004449002080B400AF034B1B881846BD4698
:104E38005DF8047B704700BF4449002080B582B00C
:104E480000AF4FF000024FF00003C7E900233B46D4
:104E5800082219460748FFF7B2FED7E90023104693
:104E68001946FBF763FE0346034A136000BF083781
:104E7800BD4680BD4CC40208900B002080B582B0AE
:104E880000AF4FF000024FF00003C7E900233B4694
:104E9800082219460748FFF792FED7E90023104673
:104EA8001946FBF743FE0346034A136000BF083761
:104EB800BD4680BD4CC40208940B002080B588B064
:104EC80000AF04227A494FF42020FCF759FB784BB5
:104ED8001B88002B03D0764B5B88002B13D1744BB7
:104EE80040F201221A80724B40F201225A800123BB
:104EF80004226F494FF42020FCF70EFB6D4B40F263
:104F080001221A801DE06A4B1B8840F2012293425D
:104F180013D0674B40F201221A80654B40F2012200
:104F28005A800123042262494FF42020FCF7F4FA46
:104F3800604B40F201221A8003E05D4B5A885D4BBA
:104F48001A805D4BD3F8F43003F00053002B03D0E4
:104F580000215A48FEF7BAF8574BD3F8F43003F05B
:104F68000073002B08D0534B1B88B3F5027F03D086
:104F7800504B4FF400721A804F4BD3F8F4304E4A1E
:104F880043F40003C2F8F4304A4B1B88B3F5027FA0
:104F980062D0484B1B884FF6FF7293425CD00221C7
:104FA80047481CF05FF8F861FB69022B54D94FF0B1
:104FB80000024FF00003C7E9022307F108030822A3
:104FC80019464048FFF7FBFD0023FB800023BB8008
:104FD8000120FEF75DFD0A200DF018F83A1DBB1DF3
:104FE80011461846FEF766FD0020FEF751FDFA88C7
:104FF800BB889A420BD3FB881846FBF783FA4FF01D
:105008000002314BFBF722FC02460B460AE0BB8844
:105018001846FBF777FA4FF000022B4BFBF716FC0C
:1050280002460B46C7E90423D7E90223D7E904015E
:10503800FBF772FD0346002B0AD00022012120480D
:105048001BF0F8FF002202211D481BF0F3FF03E0CC
:10505800184B4FF480721A80FFF7F0FEFFF70EFF2F
:10506800144B1B88B3F5027F14D0B3F5027F1ADC0A
:10507800B3F5017F04D040F20522934205D012E037
:10508800124B4FF0FF321A600EE0114B4FF0FF3217
:105098001A6009E00D4B4FF0FF321A600C4B4FF0CD
:1050A800FF321A6000E000BF00BF2037BD4680BD58
:1050B8004049002044490020000C024654C402081C
:1050C800009300205CC4020800408F40900B002031
:1050D800940B002080B58AB000AF0346FB71334AB9
:1050E800FB791370314B1B78002B5AD04FF000021C
:1050F8004FF00003C7E9062307F1180308221946F1
:105108002B48FFF75CFDD7E9062310461946FBF745
:1051180035FD034687F8273097F82730002B3DD018
:1051280097F82730062B39D84FF000024FF00003CC
:10513800C7E9042397F82730013B1E4A52F8233069
:1051480007F1100108221846FFF739FDD7E90423B3
:1051580010461946FBF712FD03469AB2164B1A8001
:105168004FF000024FF00003C7E9022397F82730F9
:10517800013B124A52F8233007F108010822184669
:10518800FFF71DFDD7E9022310461946FBF7F6FC89
:1051980003469AB20A4B1A8000BF02E0034B002272
:1051A8001A7000BF2837BD4680BD00BF4A4900209D
:1051B80064C40208980B002046490020B00B002068
:1051C8004849002080B400AF0B4B1B68002B04DD5E
:1051D800094B1B68013B084A1360084B1B68002BEE
:1051E80004DD064B1B68013B044A136000BFBD4643
:1051F8005DF8047B704700BF900B0020940B0020E3
:1052080080B58CB000AF0CF0F5FE7862644B1B687B
:105218007A6AD31A47F22F52934240F2B880604A12
:105228007B6A13605F4B1B8840F20922934200F0AF
:10523800B0805C4B1B8840F20A22934200F0A980A0
:10524800584B1B88B3F5027F00F0A380554B1B8891
:10525800B3F5807F00F09D80524B1B884FF6FF729C
:10526800934200F096804FF400714F4812F022FCF0
:105278000346012B00F08F804FF000024FF000032F
:10528800C7E904234FF000024FF00003C7E90223E7
:1052980007F11003082219464448FFF790FC07F16C
:1052A8000803082219464248FFF789FC0023FB80BF
:1052B8000023BB800120FEF7EBFB0A200CF0A6FEC2
:1052C8003A1DBB1D11461846FEF7F4FB0020FEF7F9
:1052D800DFFBFA88BB889A420BD3FB881846FBF79A
:1052E80011F94FF00002334BFBF7B0FA02460B46B8
:1052F8000AE0BB881846FBF705F94FF000022D4B72
:10530800FBF7A4FA02460B46C7E9062301212A48FF
:105318001BF0A8FEF862022127481BF0A3FEB86222
:10532800D7E90423D7E90601FBF7F6FB0346002B70
:1053380004D00023FB620023BB621DE0D7E90223EF
:10534800D7E90601FBF7E8FB0346002B03D0FB6A0D
:105358000133FB6210E0FB6A0133FB62BB6A013375
:10536800BB62BB6A022B07D900211448FDF7AEFEC9
:105378000C4B4FF480721A80FA6A01210E481BF018
:1053880059FEBA6A02210C481BF054FE04E000BF23
:1053980002E000BF00E000BF3037BD4680BD00BF5F
:1053A8004C49002044490020000802425CC402081D
:1053B8006CC4020800408F400093002074C40208A7
:1053C80080B483B000AF0346FB71FB79002B23D078
:1053D8001C4B1B88B3F5807F04D01A4B1B88B3F590
:1053E800007F29D3174B1B884FF6FF72934223D0B7
:1053F800144B1B88B3F5027F1ED0124B1B88B3F5E4
:10540800807F04D10F4B40F201221A8014E00D4B2B
:1054180040F209221A800FE00A4B1B8840F2092249
:10542800934205D0074B1B8840F20A22934203D1CE
:10543800044B40F201221A8000BF0C37BD465DF8CC
:10544800047B70474449002080B588B000AF364BD4
:105458001B8840F20922934262D0334B1B8840F2EA
:105468000A2293425CD007F10803002219462F480C
:105478001BF0BCFA0346002B01D00BF095FC3B1D3A
:105488000022194629481BF0A9FB0346002B01D02E
:105498000BF08AFC3B7A1A461201D31A9B009BB286
:1054A8007A7A1344FB83204B1B88B3F5807F27D17E
:1054B8001F4B1B68002B08D11B4B4FF401721A803D
:1054C8001B4B4FF0FF321A602BE01A4B1B68002B66
:1054D80008D1154B40F205221A80164B4FF0FF32C7
:1054E8001A601EE0144B1B78002B1AD0134B1B8834
:1054F800FA8B9A4215D10C4B40F203221A8010E025
:10550800094B1B8840F2032293420AD10C4B1B889B
:10551800FA8B9A4205D1044B4FF400721A8000E0CE
:1055280000BF2037BD4680BD4449002000930020BD
:10553800900B0020940B00204A4900204649002087
:105548004849002080B588B000AF0346FB712C4B5A
:105558001B884FF6FF7293424DD0294B1B88B3F539
:10556800027F48D04FF000024FF00003C7E9042340
:1055780007F11003082219462248FFF720FBD7E954
:10558800042310461946FBF7F9FA0346FB774FF058
:1055980000024FF00003C7E9022307F108030822BD
:1055A80019461948FFF70BFBD7E90223104619469D
:1055B800FBF7E4FA0346BB77FA79FB7F9A421AD3E2
:1055C800FA79BB7F9A4216D800211048FDF77EFD74
:1055D8000B4B1B88B3F5807F04D1094B40F20122A5
:1055E8001A8008E0064B1B88B3F5007F03D3044BF1
:1055F8004FF480721A8000BF2037BD4680BD00BFBF
:10560800444900207CC4020884C402088CC40208EF
:10561800B0B586B000AFF860B96087ED000BBA6826
:10562800FB689A4204D94FF000024FF0000324E0CF
:10563800B868FAF767FF16A3D3E90023FAF7DCFF87
:1056480002460B4614461D46F868FAF75BFF024609
:105658000B4620462946FBF7F9F802460B46C7E9F0
:10566800042397ED040B25F063FB51EC100BD7E9ED
:105678000023FAF7C1FF02460B4643EC172BB0EEA6
:10568800470AF0EE670A1837BD46B0BDAFF3008091
:10569800182D4454FB21194080B584B000AF07F1A0
:1056A800080383E803001346FB717B7A002B13D0B1
:1056B800364B1B7883F00103DBB2002B06D0FB7955
:1056C8001A460121324812F00DFA05E0FB791A4614
:1056D80004212F4812F006FABB7A002B13D02B4B6B
:1056E8001B7883F00103DBB2002B06D0FB791A4646
:1056F8000121274812F0F6F905E0FB791A46042142
:10570800234812F0EFF9FB7A002B10D01F4B5B787F
:10571800002B06D0FB791A4601211D4812F0E2F948
:1057280005E0FB791A460421194812F0DBF93B7BA6
:10573800002B10D0154B5B78002B06D0FB791A464E
:105748000121134812F0CEF905E0FB791A4604212D
:105758000F4812F0C7F93B7A002B13D00B4B1B787C
:1057680083F00103DBB2002B06D0FB791A46012136
:10577800074812F0B7F905E0FB791A4604210448F6
:1057880012F0B0F900BF1037BD4680BD484D00206B
:10579800000C024280B584B000AF07F1080383E82B
:1057A80003001346FB717B7A002B05D0FB791A4660
:1057B8000221154812F096F9BB7A002B05D0FB7927
:1057C8001A460821104812F08DF9FB7A002B05D0F3
:1057D800FB791A4610210C4812F084F93B7B002B08
:1057E80005D0FB791A462021074812F07BF93B7A4D
:1057F800002B05D0FB791A464021034812F072F9B4
:1058080000BF1037BD4680BD000C024290B585B080
:1058180000AF07F1080484E80300394681E80C006A
:105828007B78002B0BD07B7A83F00103DBB21A461E
:105838008021254812F056F97A7A244BDA70BB7821
:10584800002B0CD0BB7A83F00103DBB21A464FF46D
:1058580080711D4812F046F9BA7A1C4B1A71FB7810
:10586800002B0CD0FB7A83F00103DBB21A464FF40D
:105878000071154812F036F9FA7A144B5A713B79CF
:10588800002B0CD03B7B83F00103DBB21A464FF4AC
:1058980080610D4812F026F93A7B0C4B9A713B78DF
:1058A800002B0CD03B7A83F00103DBB21A464FF48D
:1058B8000061054812F016F93A7A044B9A7000BF55
:1058C8001437BD4690BD00BF000C0242484D002071
:1058D80090B585B000AF07F1080484E803003946A5
:1058E80081E80C0000223B4693E80300FFF7D4FE52
:1058F80000223B4693E80300FFF74CFF3B460CCBE6
:1059080007F1080103C9FFF781FF01223B4693E82D
:105918000300FFF73FFF01223B4693E80300FFF730
:10592800BBFE00BF1437BD4690BD000090B587B0E0
:1059380000AF07F1080484E80300394681E80C0049
:10594800FF23FB750023BB7500237B7500233B7584
:105958007B78002B07D07B7A83F00103DBB2002B26
:1059680001D00123FB75BB78002B07D0BB7A83F0ED
:105978000103DBB2002B01D00223FB75FB78002B5F
:1059880007D0FB7A83F00103DBB2002B01D003239D
:10599800FB753B79002B07D03B7B83F00103DBB21F
:1059A800002B01D00423FB753B78002B07D03B7AF2
:1059B80083F00103DBB2002B01D00523FB75FB7DCF
:1059C800052B28D8FB7D013BBB75BB7D03F001038C
:1059D800BB75FB7D013B5B107B757B7D03F0010391
:1059E8007B75FB7D013B9B103B753B7D03F0010301
:1059F8003B75BB7D1A460221094812F073F87B7D7E
:105A08001A460821064812F06DF83B7D1A46102107
:105A1800034812F067F800BF1C37BD4690BD00BFB1
:105A28000014024280B582B000AF03460A46FB71FB
:105A38001346BB71FB791A464FF400610E4812F009
:105A480051F80A200CF0E2FABB791A464FF480515B
:105A5800094812F047F80A200CF0D8FABB791A4620
:105A68004FF40041044812F03DF80A200CF0CEFA39
:105A780000BF0837BD4680BD000402420000000098
:105A880080B58AB000AF0346FB8001224FF48051F5
:105A98001F4812F027F80A200CF0B8FAFB881846BD
:105AA800FAF730FD4FF000021A4BFAF7CFFE024624
:105AB8000B46C7E9082397ED081B9FED110B24F04F
:105AC800C7FF87ED060B10A3D3E90023D7E906012A
