:020000040800F2
:1000000000000C208D0B0108C9000108D100010877
:10001000D9000108E1000108E9000108DD0B010831
:10002000000000000000000000000000F1000108D6
:10003000FF000108000000000D0101081B0101087C
:10004000DD0B0108DD0B010829010108DD0B0108AA
:10005000DD0B0108DD0B0108DD0B0108DD0B0108DC
:10006000DD0B0108DD0B0108DD0B0108DD0B0108CC
:10007000DD0B0108DD0B01083D010108DD0B010866
:10008000DD0B0108DD0B0108DD0B0108DD0B0108AC
:10009000DD0B0108DD0B0108DD0B0108DD0B01089C
:1000A000DD0B0108DD0B0108DD0B01084D01010826
:1000B000DD0B01086101010875010108DD0B010874
:1000C000DD0B0108DD0B0108DD0B0108DD0B01086C
:1000D000DD0B010889010108DD0B0108DD0B0108BA
:1000E000DD0B0108DD0B0108DD0B0108DD0B01084C
:1000F000DD0B0108DD0B01089D010108B1010108BC
:10010000C5010108D9010108DD0B0108DD0B01085B
:10011000DD0B0108DD0B0108DD0B0108DD0B01081B
:10012000DD0B0108ED0101080102010815020108BB
:10013000DD0B010829020108DD0B0108DD0B0108B8
:10014000DD0B0108DD0B0108DD0B01083D02010894
:100150005102010865020108DD0B0108DD0B0108F1
:10016000DD0B0108DD0B0108DD0B0108DD0B0108CB
:10017000DD0B0108DD0B0108DD0B0108DD0B0108BB
:10018000DD0B0108DD0B0108DD0B0108DD0B0108AB
:10019000DD0B0108DD0B0108DD0B0108DD0B01089B
:1001A000790201088D020108DD0B0108DD0B010851
:1001B000DD0B0108DD0B0108A1020108DD0B0108C0
:1001C000B5020108C9020108DD020108DD0B0108C2
:1001D000DD0B0108DD0B0108DD0B0108DD0B01085B
:1001E000DD0B0108DD0B0108DD0B0108F102010840
:1001F000DD0B0108DD0B0108FD020108DD0B010824
:10020000DD0B010811030108DD0B0108DD0B0108FE
:10021000DD0B0108DD0B0108DD0B0108DD0B01081A
:10022000DD0B0108DD0B0108DD0B0108DD0B01080A
:08023000DD0B0108DD0B0108E4
:1002380010B5054C237833B9044B13B10448AFF318
:1002480000800123237010BDD01A00200000000098
:1002580040B0020808B5034B1BB103490348AFF38C
:10026800008008BD00000000D41A002040B0020839
:10027800034613F8012B002AFBD1181A01387047DE
:1002880081F0004102E000BF83F0004330B54FEA3F
:1002980041044FEA430594EA050F08BF90EA020FAC
:1002A8001FBF54EA000C55EA020C7FEA645C7FEA3F
:1002B800655C00F0E2804FEA5454D4EB5555B8BF62
:1002C8006D420CDD2C4480EA020281EA030382EAD3
:1002D800000083EA010180EA020281EA0303362D65
:1002E80088BF30BD11F0004F4FEA01314FF4801C38
:1002F8004CEA113102D0404261EB410113F0004F4A
:100308004FEA03334CEA133302D0524263EB430300
:1003180094EA050F00F0A780A4F10104D5F1200E9E
:100328000DDB02FA0EFC22FA05F2801841F10001F9
:1003380003FA0EF2801843FA05F359410EE0A5F1CD
:1003480020050EF1200E012A03FA0EFC28BF4CF0FE
:10035800020C43FA05F3C01851EBE37101F00045B4
:1003680007D54FF0000EDCF1000C7EEB00006EEBC1
:100378000101B1F5801F1BD3B1F5001F0CD349084B
:100388005FEA30004FEA3C0C04F101044FEA4452A2
:1003980012F5800F80F09A80BCF1004F08BF5FEA29
:1003A800500C50F1000041EB045141EA050130BD09
:1003B8005FEA4C0C404141EB0101013C28BFB1F51B
:1003C800801FE9D291F0000F04BF01460020B1FA66
:1003D80081F308BF2033A3F10B03B3F120020CDA39
:1003E8000C3208DD02F1140CC2F10C0201FA0CF017
:1003F80021FA02F10CE002F11402D8BFC2F1200C7C
:1004080001FA02F120FA0CFCDCBF41EA0C01904031
:10041800E41AA2BF01EB0451294330BD6FEA04047A
:100428001F3C1CDA0C340EDC04F11404C4F1200265
:1004380020FA04F001FA02F340EA030021FA04F377
:1004480045EA030130BDC4F10C04C4F1200220FACE
:1004580002F001FA04F340EA0300294630BD21FA0C
:1004680004F0294630BD94F0000F83F4801306BFD2
:1004780081F480110134013D4EE77FEA645C18BFC6
:100488007FEA655C29D094EA050F08BF90EA020F5D
:1004980005D054EA000C04BF1946104630BD91EA55
:1004A800030F1EBF0021002030BD5FEA545C05D158
:1004B8004000494128BF41F0004130BD14F5800497
:1004C8003CBF01F5801130BD01F0004545F0FE410B
:1004D80041F470014FF0000030BD7FEA645C1ABF40
:1004E800194610467FEA655C1CBF0B46024650EA77
:1004F800013406BF52EA033591EA030F41F40021A3
:1005080030BD00BF90F0000F04BF0021704730B528
:100518004FF4806404F132044FF000054FF00001FD
:1005280050E700BF90F0000F04BF0021704730B5BE
:100538004FF4806404F1320410F0004548BF404293
:100548004FF000013EE700BF42004FEAE2014FEAE8
:1005580031014FEA02701FBF12F07F4393F07F4FC3
:1005680081F06051704732F07F4208BF704793F0C6
:100578007F4F04BF41F40021704730B54FF46074D9
:1005880001F0004521F000411CE700BF50EA0102DC
:1005980008BF704730B54FF000050AE050EA010285
:1005A80008BF704730B511F0004502D5404261EBF5
:1005B80041014FF4806404F132045FEA915C3FF436
:1005C800D8AE4FF003025FEADC0C18BF03325FEAD3
:1005D800DC0C18BF033202EBDC02C2F1200300FA84
:1005E80003FC20FA02F001FA03FE40EA0E0021FAA9
:1005F80002F11444BDE600BF70B54FF0FF0C4CF497
:10060800E06C1CEA11541DBF1CEA135594EA0C0F48
:1006180095EA0C0F00F0DEF82C4481EA030621EA83
:100628004C5123EA4C5350EA013518BF52EA0335BE
:1006380041F4801143F4801338D0A0FB02CE4FF070
:100648000005E1FB02E506F00042E0FB03E54FF0A0
:100658000006E1FB03569CF0000F18BF4EF0010E98
:10066800A4F1FF04B6F5007F64F5407404D25FEA94
:100678004E0E6D4146EB060642EAC62141EA555147
:100688004FEAC52040EA5E504FEACE2EB4F1FD0C89
:1006980088BFBCF5E06F1ED8BEF1004F08BF5FEA07
:1006A800500E50F1000041EB045170BD06F00046B9
:1006B80046EA010140EA020081EA0301B4EB5C0466
:1006C800C2BFD4EB0C0541EA045170BD41F480115E
:1006D8004FF0000E013C00F3AB8014F1360FDEBF83
:1006E800002001F0004170BDC4F10004203C35DA5F
:1006F8000C341BDC04F11404C4F1200500FA05F3E2
:1007080020FA04F001FA05F240EA020001F0004282
:1007180021F0004110EBD37021FA04F642EB0601F8
:100728005EEA430E08BF20EAD37070BDC4F10C0422
:10073800C4F1200500FA04F320FA05F001FA04F2E6
:1007480040EA020001F0004110EBD37041F10001D2
:100758005EEA430E08BF20EAD37070BDC4F12005DD
:1007680000FA05F24EEA020E20FA04F301FA05F245
:1007780043EA020321FA04F001F0004121FA04F2ED
:1007880020EA020000EBD3705EEA430E08BF20EABD
:10079800D37070BD94F0000F0FD101F000464000F7
:1007A80041EB010111F4801F08BF013CF7D041EA79
:1007B800060195F0000F18BF704703F0004652007D
:1007C80043EB030313F4801F08BF013DF7D043EA4E
:1007D8000603704794EA0C0F0CEA135518BF95EA04
:1007E8000C0F0CD050EA410618BF52EA4306D1D18B
:1007F80081EA030101F000414FF0000070BD50EAAA
:10080800410606BF1046194652EA430619D094EA33
:100818000C0F02D150EA013613D195EA0C0F05D11D
:1008280052EA03361CBF104619460AD181EA030171
:1008380001F0004141F0FE4141F470014FF0000029
:1008480070BD41F0FE4141F4780170BD70B54FF0C4
:10085800FF0C4CF4E06C1CEA11541DBF1CEA135544
:1008680094EA0C0F95EA0C0F00F0A7F8A4EB050426
:1008780081EA030E52EA03354FEA013100F088801D
:100888004FEA03334FF0805545EA131343EA1263E6
:100898004FEA022245EA111545EA10654FEA00269B
:1008A8000EF000419D4208BF964244F1FD0404F554
:1008B800407402D25B084FEA3202B61A65EB0305B0
:1008C8005B084FEA32024FF480104FF4002CB6EB6D
:1008D800020E75EB030E22BFB61A754640EA0C00ED
:1008E8005B084FEA3202B6EB020E75EB030E22BF2D
:1008F800B61A754640EA5C005B084FEA3202B6EB6E
:10090800020E75EB030E22BFB61A754640EA9C002C
:100918005B084FEA3202B6EB020E75EB030E22BFFC
:10092800B61A754640EADC0055EA060E18D04FEABA
:10093800051545EA16754FEA06164FEAC30343EA5A
:1009480052734FEAC2025FEA1C1CC0D111F4801F27
:100958000BD141EA00014FF000004FF0004CB6E720
:1009680011F4801F04BF01430020B4F1FD0C88BFBF
:10097800BCF5E06F3FF6AFAEB5EB030C04BFB6EBCA
:10098800020C5FEA500C50F1000041EB045170BDBD
:100998000EF0004E4EEA113114EB5C04C2BFD4EBEA
:1009A8000C0541EA045170BD41F480114FF0000E6E
:1009B800013C90E645EA060E8DE60CEA135594EAEA
:1009C8000C0F08BF95EA0C0F3FF43BAF94EA0C0FED
:1009D8000AD150EA01347FF434AF95EA0C0F7FF462
:1009E80025AF104619462CE795EA0C0F06D152EAB6
:1009F80003353FF4FDAE1046194622E750EA41069A
:100A080018BF52EA43067FF4C5AE50EA41047FF4AA
:100A18000DAF52EA43057FF4EBAE12E74FF0FF3C0F
:100A280006E000BF4FF0010C02E000BF4FF0010CE0
:100A38004DF804CD4FEA410C7FEA6C5C4FEA430C59
:100A480018BF7FEA6C5C1BD001B050EA410C0CBFA8
:100A580052EA430C91EA030F02BF90EA020F00200A
:100A6800704710F1000F91EA030F58BF994208BF71
:100A780090422CBFD8176FEAE37040F0010070472E
:100A88004FEA410C7FEA6C5C02D150EA013C07D185
:100A98004FEA430C7FEA6C5CD6D152EA033CD3D0D0
:100AA8005DF8040B704700BF8446104662468C46CA
:100AB8001946634600E000BF01B5FFF7B7FF0028FD
:100AC80048BF10F1000F01BD4DF808EDFFF7F4FF26
:100AD8000CBF012000205DF808FB00BF4DF808EDB1
:100AE800FFF7EAFF34BF012000205DF808FB00BFD4
:100AF8004DF808EDFFF7E0FF94BF012000205DF8F6
:100B080008FB00BF4DF808EDFFF7CEFF94BF0120AA
:100B180000205DF808FB00BF4DF808EDFFF7C4FFA3
:100B280034BF012000205DF808FB00BF4FEA4102F6
:100B380012F5001215D211D56FF47873B3EB625227
:100B480012D94FEAC12343F0004343EA505311F04E
:100B5800004F23FA02F018BF404270474FF00000E0
:100B6800704750EA013005D111F0004008BF6FF01E
:100B7800004070474FF00000704700BF4A0011D294
:100B880012F5001211D20DD56FF47873B3EB6252DF
:100B98000ED44FEAC12343F0004343EA505323FAEB
:100BA80002F070474FF00000704750EA013002D160
:100BB8004FF0FF3070474FF0000070474FEA410296
:100BC800B2F1E04324BFB3F5001CDCF1FE5C0DD9A3
:100BD80001F0004C4FEAC0024CEA5070B2F1004FED
:100BE80040EB830008BF20F00100704711F0804FF0
:100BF80021D113F13872BCBF01F00040704741F4B5
:100C080080114FEA5252C2F11802C2F1200C10FAB8
:100C18000CF320FA02F018BF40F001004FEAC1239C
:100C28004FEAD32303FA0CFC40EA0C0023FA02F340
:100C38004FEA4303CCE77FEA625307D150EA013316
:100C48001EBF4FF0FE4040F44000704701F00040E6
:100C580040F0FE4040F40000704700BF53B94AB965
:100C6800002908BF00281CBF4FF0FF314FF0FF30AC
:100C780000F0B2B9ADF1080C6DE904CE00F006F849
:100C8800DDF804E0DDE9022304B070472DE9F04FF8
:100C98008C46099E04460F46002B48D18A421546C9
:100CA8005ED9B2FA82F33BB1C3F120029F409D4066
:100CB8009C4020FA02F217434FEA154E1FFA85FCB2
:100CC800220CB7FBFEF10EFB117701FB0CF042EA98
:100CD8000742904207D9AA1801F1FF3702D2904281
:100CE80000F258813946121AA4B2B2FBFEF00EFB8C
:100CF800102200FB0CFC44EA0244A4450BD92C1931
:100D080000F1FF322CBF01270027A44502D9002F8C
:100D180000F04381104640EA0140A4EB0C04002196
:100D28001EB1DC400023C6E90043BDE8F08F8B42CA
:100D380006D90EB1C6E9000100210846BDE8F08FCA
:100D4800B3FA83F1002951D16345C0F0168182427C
:100D580040F213810846002EE7D0C6E90047E4E7D1
:100D6800002A00F0AF80B2FA82F3002B40F0C28074
:100D78008A1A4FEA154EAFB20121200CB2FBFEFCD5
:100D88000EFB1C2240EA024207FB0CF090420ED9EF
:100D9800AA180CF1FF382CBF4FF001094FF00009D9
:100DA800904203D9B9F1000F00F0F080C446121A3E
:100DB800A4B2B2FBFEF00EFB102200FB07F744EAD8
:100DC8000244A7420ED92C1900F1FF322CBF4FF074
:100DD800010E4FF0000EA74203D9BEF1000F00F03C
:100DE800D2801046E41B40EA0C4099E7C1F1200587
:100DF8008B400CFA01F400FA01F922FA05F72CFAF3
:100E080005FC8A401F4320FA05F3380C23431FFAD8
:100E180087FE1C0CBCFBF0F800FB18CC44EA0C4421
:100E280008FB0EFCA4450ED93C1908F1FF3A2CBF6B
:100E38004FF0010B4FF0000BA44503D9BBF1000F95
:100E480000F0B880D046A4EB0C041FFA83FCB4FB76
:100E5800F0F300FB134403FB0EFE4CEA0444A645E2
:100E68000ED93C1903F1FF302CBF4FF0010C4FF0A5
:100E7800000CA64503D9BCF1000F00F09F80034683
:100E880043EA0840A4EB0E04A0FB02EC6445734659
:100E9800E04602D307D1F14505D2BEEB02036CEB65
:100EA800070C0138E0465EB1B9EB030264EB0804B5
:100EB80004FA05F522FA01F3CC401D43C6E90054B3
:100EC800002132E742082F464B08AC4642EAC1727D
:100ED800AE46C407110C92B241EA034142EA01420C
:100EE800B1FBF5F1B3FBF5F01F23A2EB0C0241EACD
:100EF800004142E79D40C3F1200299409C402CFAF2
:100F080002FC4FEA154E20FA02F2AFB2BCFBFEF823
:100F18000A430EFB18CC110C41EA0C4108FB07FCF4
:100F28008C4550D9691808F1FF302CBF4FF00109E2
:100F38004FF000098C4502D9B9F1000F30D0A1EB70
:100F48000C01B1FBFEF808FB07FC0EFB181192B26E
:100F580042EA0142624534D2AA1808F1FF312CBF97
:100F68004FF001094FF000096245BED2B9F1000FF8
:100F7800BBD1A8F102012A44B7E7841A6CEB03023B
:100F880001201746E7E62C4402382BE7ACF1020CA7
:100F98002A440CE702392A44A5E62C440238BAE66A
:100FA800A5EB0C0CA8F102006144B1FBFEF808FBAC
:100FB80007FCCAE7A8F102083C4444E7023B3C446A
:100FC8005EE7414691E7A1EB0C014046B1FBFEF814
:100FD80008FB07FCB9E700BF704700BF80B586B0C3
:100FE80000AF78600B467B801BF088FA78617B68DD
:100FF8001B689B6A01333B617A693B69B2FBF3F278
:101008007B88B2FBF3F3FB607B681B68FA68013AE4
:10101800DA62FB685A1E7B68DA6000BF1837BD4683
:1010280080BD80B582B000AF7860786811F052F862
:10103800786810F083FD7B6800229A6200BF083749
:10104800BD4680BDB0B58CB000AFF860B9607A60BD
:1010580007F1100320220021184628F07AFC7B684B
:101068003B6104233B6200237B62BB68144A9342C2
:101078000BD10023BB614FF6FF73FB61104B9B6ADA
:10108800104A52F823307B6107E0BB680E4A93424E
:1010980003D101237B610023BB61BB689B6A5A1C97
:1010A800BB689A62FB681D4607F110040FCC0FC598
:1010B80094E80F0085E80F00F8683037BD46B0BDEA
:1010C8005C8E002000000020E88E002080B586B0ED
:1010D80000AFF860B9601346FB71F86810F064FA65
:1010E8000023FB750AE0FB7D5B01BA6813441946CF
:1010F800F86811F0D5FAFB7D0133FB75FA7DFB79B1
:101108009A42F0D300BF00BF1837BD4680BD00002B
:1011180080B584B000AFF860B96011461A460B4636
:10112800FB801346BB802B4AFB681360294ABB68C7
:101138009360284AFB889381264ABB88D381254B34
:1011480001221A74234B00225A74224B1868214B2F
:101158009968204B9B891A46FB689B6A02FB03F33C
:101168001A4610F0ADFE1B4B1B681B4A934203D175
:10117800184B1A4A5A6007E0164B1B68184A9342E4
:1011880002D1144B174A5A60124B5B68114AD28934
:1011980011461846FFF722FF0E4B5B68184620F0F1
:1011A800D5FB00BF0B4B5B68184621F0A1FE034638
:1011B800022BF7D000BF074B5B7C83F00103DBB247
:1011C800002BF8D1034B00225A7400BF1037BD46DC
:1011D80080BD00BF343A00205C8E00209894002027
:1011E800E88E0020E494002080B582B000AF7860DB
:1011F8000A4B01225A747B68094A934203D1094871
:1012080020F07DFB06E07B68074A934202D107483D
:1012180020F075FB00BF0837BD4680BD343A00207A
:101228005C8E002098940020E88E0020E494002032
:1012380080B58EB000AF6423BB8542F210737B8506
:10124800002387F8373059E097F83730304A52F89A
:1012580023307B62786AFFF7E4FE3B1D2D4A796AEA
:101268001846FFF7EFFE3B1D01221946786AFFF783
:101278002DFF4FF6FF724FF00111786A12F046FB0E
:101288000346002B01D00EF02CFC7B8DBA8D224931
:10129800786AFFF73DFF00233B63002387F82F3070
:1012A8000CE097F82F301C4A52F823303A6B13445D
:1012B8003B6397F82F30013387F82F3097F82F309A
:1012C8009BB2BA8D9A42ECD8BB8D3A6BB2FBF3F362
:1012D8003B63124B1B881A4640F6B83303FB02F1F6
:1012E8003B6B9A0097F83730B1FBF2F20C4941F8A2
:1012F800232097F83730013387F8373097F837309D
:10130800012BA1D900BF00BF3837BD4680BD00BF43
:101318004000002001000080EC1A0020A507FA0B0D
:101328002C3A002080B58EB000AFB9607A601A46BA
:101338000346FB731346BB81FB7B254A52F82330D7
:101348003B63386BFFF76DFE07F11003BA68396B22
:101358001846FFF777FE07F1100301221946386B8C
:10136800FFF7B4FEB7F84030BA891A49386BFFF76F
:10137800CFFE0023FB8619E0FB8E164A52F8233075
:10138800FA7B154951F8222003FB02F2134BA3FB09
:101398000213D21A52081344D90AFB8E5B007A68EA
:1013A80013448AB21A80FB8E0133FB86FA8EBB89FE
:1013B8009A42E1D30A4A7B685361FB7B064A52F89A
:1013C8002330074A936100BF3837BD4680BD00BF50
:1013D80040000020EC1A00202C3A002001011000E7
:1013E800343A002080B582B000AF0346FB71114A41
:1013F800FB7913740F4B00225A740E4B18680D4B6F
:1014080099680C4B9B891A460A4B1B7C02FB03F319
:101418001A46084B1B689B6A02FB03F31A4610F036
:101428004FFD044B5B68184620F090FA00BF083760
:10143800BD4680BD343A002080B485B000AF034675
:10144800FB710023FB731DE0154B9A68FB7BF97950
:1014580001FB03F39B0013441B68114A926903FBC9
:1014680002F2104BA3FB0213D21A52081344D90AF2
:101478000B4B5A69FB7B5B0013448AB21A80FB7BD7
:101488000133FB73FB7B9AB2054B9B899A42DBD3F2
:1014980000BF00BF1437BD465DF8047B704700BF2E
:1014A800343A00200101100080B400AF034B5B7C8C
:1014B8001846BD465DF8047B704700BF343A0020EB
:1014C80080B582B000AF7860074A7B68136001225C
:1014D8004FF48071054815F09DF901200FF02EFC9E
:1014E80000BF0837BD4680BD543A002000000242C4
:1014F80080B500AF00E000BF00F000FB0346002B02
:10150800F9D100224FF48071024815F083F900BF29
:1015180080BD00BF0000024280B584B000AFF86013
:10152800B96011461A460B46FB8013467B714FF48F
:101538008071114815F056F90346002B18D00F4B4F
:1015480000221A70FB881A46B968F86800F0F0F9AA
:101558007B79002B0DD000E000BF084B1B7883F08F
:101568000103DBB2002BF7D101200FF0E7FB00E00D
:1015780000BF1037BD4680BD00000242503A00202F
:1015880080B584B000AFF860B9601346FB80FB8873
:101598001A46B968F86800F005FA00BF1037BD466A
:1015A80080BD80B582B000AF7860396039687868EE
:1015B80000F030FA00BF0837BD4680BD80B582B064
:1015C80000AF78600B467B80064B1B687A88114613
:1015D80078689847044B01221A7000BF0837BD4647
:1015E80080BD00BF543A0020503A002080B483B038
:1015F80000AF7860044A7B68136000BF0C37BD46B3
:101608005DF8047B704700BF583A002080B400AFF3
:10161800064B1B68002B04DB044B1B680133034A91
:10162800136000BFBD465DF8047B7047480000208A
:1016380080B584B000AF0346FB71FB79002B0BD05B
:10164800134B00221A60134818F064FD0346002B60
:101658001AD00EF046FA17E00E4818F0A4FD03461B
:10166800002B01D00EF03DFA094B1B68FB73084BA9
:101678004FF0FF321A60084B1B68002B04D0064B52
:101688001B68FA7B1046984700BF1037BD4680BDDF
:1016980048000020D8910020583A002080B582B038
:1016A80000AF0346FB80FB88082B02D10120FFF71F
:1016B800BFFF00BF0837BD4680BD80B582B000AF10
:1016C8000346FB80FB88082B02D10020FFF7B0FF00
:1016D80000BF0837BD4680BD80B582B000AF7860D6
:1016E80039604FF4007200211F4828F032F94FF496
:1016F800007200211D4828F02CF94FF48072002157
:101708001B4828F026F91B4A7B6813601A4A3B6875
:10171800136001221021194815F07CF801222021BC
:10172800174815F077F8174B1B7883F00103DBB2E5
:10173800002B0BD014480EF0E9FB14480DF0E8FD1F
:1017480013480FF08BF90F4B01221A70FF22114931
:101758000F4824F082FD0346002B01D00EF0C1F99A
:1017680000BF0837BD4680BD5C3A00205C3D0020C4
:101778005C3C0020604100206441002000000242DF
:10178800001802424C00002024930020CC90002036
:10179800309500205C3E002080B500AF17481FF050
:1017A800D3F90346002B01D00EF09BF9144822F020
:1017B80041FB0346002B01D00EF093F9114B1B7827
:1017C800002B0BD00D480EF013FC0F480DF07AFEDD
:1017D8000B480FF0B3F90B4B00221A7000221021AE
:1017E8000A4815F017F800222021094815F012F8C8
:1017F800084B00221A7000BF80BD00BF2493002050
:10180800309500204C000020CC90002000000242BF
:10181800001802425C3F002080B582B000AF7860BB
:101828000B46FB70FB781A467968054828F0D4F80F
:10183800034AFB7882F8FF3000BF0837BD4680BDF9
:101848005C3C002080B586B004AF03463960FB716C
:10185800FB799AB205230293022301933B68009314
:1018680001239021034815F007FF0346184608375F
:10187800BD4680BDCC90002080B586B004AF03463D
:101888003960FB71FB799AB2052302930223019315
:101898003B68009301239021034816F001F80346A2
:1018A80018460837BD4680BDCC90002080B584B06E
:1018B80002AF03463960FB710B4AFB7913703B6832
:1018C8001B889AB2094B1A80074B1B781A460223C9
:1018D8000193064B009301239021054816F0FAF86E
:1018E80000BF0837BD4680BD684100206C4100201C
:1018F800CC90002080B588B004AF03460A46FB8030
:1019080013467B717B79FB73FA88052302930123C5
:10191800019307F10F0300930123A021034815F059
:10192800ABFE034618461037BD4680BDCC9000205C
:1019380080B584B000AFF860B9601346FB80FB88BF
:10194800BA68F968104827F0BFFD03461A460F4BDE
:101958001A800E4B1B88043B9AB20D4B1A800D4A15
:10196800FB6813600C4B06221A70002210210B48EA
:1019780014F050FF0122084909481FF013F800BF6E
:101988001037BD4680BD00BF603F00205441002095
:101998005C410020584100205C3F002000000242CA
:1019A8002493002080B586B000AFF860B960134674
:1019B800FB8000237B6107F11403F968184627F0C0
:1019C800B9FD00221021114814F024FF07F1140179
:1019D800052304220E481EF037FB0346002B01D0D6
:1019E8000EF07FF8FA880523B96809481EF040FD13
:1019F8000346002B01D00EF074F801221021034891
:101A080014F008FF00BF1837BD4680BD0000024231
:101A18002493002080B588B000AF7860396007F162
:101A2800100300221A601A710023FB7307F10F02DA
:101A380007F110000123796827F046FD0623BB73E0
:101A4800002210212A4814F0E5FE07F10E010523B3
:101A5800012228481EF0F8FA0346002B01D00EF0A8
:101A680040F801221021224814F0D4FE1AF046FD55
:101A78000346214AA2FB03231B0DFB6102E0FB691D
:101A8800013BFB61FB69002BF9D1002210211848AA
:101A980014F0C0FE07F110010523052215481EF0B9
:101AA800D3FA0346002B01D00EF01BF87B680133F4
:101AB800BB610EE007F10F01052301220D481EF05E
:101AC800C3FA0346002B01D00EF00BF8BB690133B3
:101AD800BB617A683B681344BA699A42EAD3012227
:101AE8001021034814F096FE00BF2037BD4680BD84
:101AF800000002422493002083DE1B4380B483B09D
:101B080000AF0023FB71064B1B78002B01D001238B
:101B1800FB71FB7918460C37BD465DF8047B7047AE
:101B28005C3F002080B582B000AF78600B467B80B8
:101B3800002220210B4814F06DFE7A880A23796868
:101B480009481EF081FA0346002B01D00DF0C9FFA9
:101B580001222021034814F05DFE00BF0837BD466E
:101B680080BD00BF001802422493002080B584B0D5
:101B780000AF78600023FB7300222021134814F083
:101B880049FE07F10F010523012211481EF070FCE0
:101B98000346002B01D00DF0A4FFFB7B002B0BD0DC
:101BA800FB7B1A460A23796809481EF061FC034644
:101BB800002B01D00DF095FF01222021034814F0DD
:101BC80029FEFB7B18461037BD4680BD001802422F
:101BD8002493002080B582B000AF0346FB71174BF9
:101BE8001B78FA799A4225D000224FF48061144874
:101BF80014F010FE00224FF40071114814F00AFE90
:101C08000A200FF09BF8FB791A464FF480610C48C4
:101C180014F000FEFB7983F00103DBB21A464FF49F
:101C28000071074814F0F6FD64200FF087F8034AA6
:101C3800FB79137000BF0837BD4680BD6E41002098
:101C48000018024280B586B004AF3A601A460346CF
:101C5800FB710B46BB711346BB80FB7999B2BB790C
:101C68009AB20A230293BB8801933B68009301232D
:101C7800034815F001FD034618460837BD4680BDE8
:101C88002091002080B586B004AF3A601A4603461A
:101C9800FB710B46BB711346BB80FB7999B2BB79CC
:101CA8009AB20A230293BB8801933B6800930123ED
:101CB800034815F0F5FD034618460837BD4680BDB4
:101CC8002091002080B582B000AF0023FB7100E0B6
:101CD80000BFFFF713FF0346002BF9D11021464838
:101CE80014F080FD0346012B0AD101200FF026F8DD
:101CF8004248FFF73BFF0346DAB2414B83F8FF2126
:101D08003F4B93F8FF31002B0ED03E4B1B683C4AEB
:101D18003D493A48984703461A46394B83F8FF200D
:101D28000123FB7100E000BFFFF7E8FE0346002B2C
:101D3800F9D14FF48051304814F054FD0346012B7B
:101D480029D110212C4814F04DFD0346002B22D137
:101D58002B4B93F8FF30002B0BD0294B93F8FF3017
:101D680019462748FFF7DEFE254B002283F8FF209F
:101D780011E0264B93F8FF30002B0BD0234B93F840
:101D8800FF3019462148FFF7CDFE204B002283F88B
:101D9800FF2000E000BF1E4B93F8FF31002B0CD052
:101DA800184B1B681A4A1B491B48984703461A4692
:101DB800174B83F8FF200123FB71154B93F8FF3075
:101DC800002B10D0124B93F8FF301A4610491348D5
:101DD80021F08CFF0346002B01D00DF082FE0C4B46
:101DE800002283F8FF2001200EF0A8FFFB79184697
:101DF8000837BD4680BD00BF001802425C3B00208A
:101E08005C3A0020604100205B3C00205C3C0020E4
:101E18005C3D00205B3F00205C3E002030950020A8
:101E280080B582B000AF786078681EF083FF034603
:101E3800002B01D00DF055FE00BF0837BD4680BD10
:101E480080B582B000AF78607B680D4A934212D1AA
:101E58004FF4007200210B4827F07BFD012220215E
:101E6800094814F0D7FC01221021084814F0D2FCCC
:101E7800074B00221A7000BF0837BD4680BD00BF5F
:101E8800249300205C3A002000180242000002421D
:101E98005C3F002080B584B000AF78607B68284A3A
:101EA800934247D11021274814F09CFC0346002B8D
:101EB80041D101221021234814F0ACFC224B1B789D
:101EC800062B23D1204B02221A701AF017FB034667
:101ED8001E4AA2FB03231B0DFB6002E0FB68013BCB
:101EE800FB60FB68002BF9D100221021154814F083
:101EF80091FC174B1B881A46164911481EF052FDD3
:101F08000346002B17D00DF0ECFD14E00E4B1B78A8
:101F1800022B0BD10C4B00221A700F4B1B680F4A77
:101F280012680F4909881046984704E0064B0022BA
:101F38001A7000E000BF00BF1037BD4680BD00BF6B
:101F480024930020000002425C3F002083DE1B43F4
:101F580054410020603F0020644100205841002087
:101F68005C41002080B582B000AF7860786822F0CC
:101F78003BF80346002B01D00DF0B3FD00BF083736
:101F8800BD4680BD80B582B000AF78607B680A4AE4
:101F980093420DD1094B002283F8FF21FF22084903
:101FA800054824F05AF90346002B01D00DF099FD9D
:101FB80000BF0837BD4680BD309500205C3D00203D
:101FC8005C3E002080B582B000AF78600B467B8015
:101FD8007B680B4A93420ED17B88DAB2094B83F8AF
:101FE800FF21FF220849064824F037F90346002B51
:101FF80001D00DF076FD00BF0837BD4680BD00BF9B
:10200800309500205C3D00205C3E002080B582B009
:1020180000AF0346FB71074817F051FF0346002B3A
:1020280001D00DF05EFD044AFB79137000BF08373C
:10203800BD4680BD749100206F41002080B500AF7F
:10204800044817F03CFF0346002B01D00DF049FD72
:1020580000BF80BD7491002080B582B000AF786069
:10206800094B1B7883F00103DBB2002B07D078689B
:1020780017F025FF0346002B01D00DF032FD00BFFD
:102088000837BD4680BD00BF6F41002084B0B0B5A1
:1020980082B000AF07F1180484E80F000023FB7139
:1020A800354B00221A70354B1B68354A1360354B87
:1020B8001B68334A5360344B1B68314A9360304B7A
:1020C80007F118025A622E4A07F1380393622C4A24
:1020D80007F15803D3622A4B2C4ADA61284B2C4A61
:1020E8001A6241F2883226492A4818F008FB03464A
:1020F800002B01D00DF0F5FC264818F014FB034620
:10210800012B2ED1244B1D4607F118042068616865
:10211800A268E3680FC520696169A269E3690FC510
:102128001D4B03F1200407F1380528686968AA687F
:10213800EB680FC428696969AA69EB690FC4164B73
:1021480003F1400407F1580528686968AA68EB6834
:102158000FC428696969AA69EB690FC40123FB7177
:1021680001E00023FB71FB7918460837BD46BDE83E
:10217800B04004B0704700BF7842002008B502089C
:102188005000002080B40208A4B402081CB302085E
:102198003CB30208C89200201842002080B586B0DF
:1021A80002AF78607B68002B71D03E4B00221A602A
:1021B8003D4A7B6813607B68013BFB608023BB6002
:1021C80023E0FFF73BFF374B1B6803F58023BA6812
:1021D80092B236491846FFF7D3F900E000BF3448F9
:1021E80014F0EAFB0346012BF8D1BA682F493048AE
:1021F80015F07DF90346002B01D00DF072FC294B38
:102208001A68BB681344274A1360264B1B68FA6890
:10221800D31ABA689A42D4D3224B1B687A68D31A65
:10222800BB60204B1B6803F58023BA6892B21F4934
:102238001846FFF7A5F90A2300931E4BBA681B49F5
:102248001B4815F066F90346002B01D00DF049FC38
:1022580020221849184827F053FB0346002B03D1C6
:10226800164B00221A700AE0242200210E4827F09B
:1022780070FB124B1B780133DAB2104B1A70012332
:10228800242209494FF40020FFF746F905E00B4BDB
:102298001B780133DAB2094B1A70084B184610370D
:1022A800BD4680BD70410020F441002074410020EB
:1022B80088900020F84100205842002078420020F1
:1022C80080B58CB002AF7860396007F1080320222E
:1022D8000021184627F03DFB1A4B1B884FF6FF726A
:1022E80093420ED0174B1B88002B07D0154B1B8829
:1022F8009B025B0803F10063194604E04FF001619B
:1023080001E04FF0016107F108030A2200927A68A0
:102318000D4815F0D5F80346002B01D00DF0E1FB70
:1023280007F1080320223968184627F0E9FA03461E
:10233800002B01D1012300E0002318462837BD46B1
:1023480080BD00BFA007FA0B8890002084B0B0B50C
:1023580090B000AF07F1500484E80F00464B1B68AB
:10236800464A1360464B1B68444A5360454B1B68FA
:10237800424A9360414B07F150025A623F4A07F1C3
:10238800700393623D4A07F19003D3623E4B3C468B
:102398001D460FCD0FC495E80F0084E80F003A4B97
:1023A80007F1200403F120050FCD0FC495E80F00B5
:1023B80084E80F00314A3B46D361304A3B4620331C
:1023C800136241F288322D49304818F098F90346D3
:1023D800002B01D00DF085FB2C4818F0A4F903461A
:1023E800012B01D1FF2340E03B46402219462848F3
:1023F80002F0CDFB214A3B46D361204A3B462033BD
:10240800136241F288321D49204818F078F90346D2
:10241800002B01D00DF065FB1C4818F084F9034629
:10242800012B01D1022320E03B46402219461948DE
:1024380002F0ADFB114A3B46D361104A3B462033BC
:10244800136241F288320D49104818F058F90346D2
:10245800002B01D00DF045FB0C4818F064F9034639
:10246800012B01D1012300E0002318464037BD4667
:10247800BDE8B04004B0704708B50208500000201D
:1024880080B40208A4B402081CB30208C892002051
:1024980058B0020860B0020880B586B000AF3B1D96
:1024A80083E807000023FB750023BB753B79503B8D
:1024B800052B00F28F8001A252F823F0DD240008DA
:1024C8001F250008452500086B25000891250008F0
:1024D800B72500087B79002B7ED10123FB750223E9
:1024E800BB753B7BFA7D9A4276D83B7BBA7D9A4294
:1024F80072D3BB681B787B757B7D184600F020F98A
:102508003B7B022B68D1BB685B783B753B7D1846EB
:1025180000F038F960E07B79002B5FD10023FB7570
:102528000023BB753B7BFA7D9A4257D83B7BBA7D2B
:102538009A4253D3012000F003F94FE07B79002B36
:102548004ED10023FB750023BB753B7BFA7D9A4275
:1025580046D83B7BBA7D9A4242D3002000F0F0F87F
:102568003EE07B79002B3DD10023FB750023BB7532
:102578003B7BFA7D9A4235D83B7BBA7D9A4231D370
:10258800002000F0DDF82DE07B79002B2CD1002312
:10259800FB750023BB753B7BFA7D9A4224D83B7BB5
:1025A800BA7D9A4220D3144B01221A701CE07B7921
:1025B800002B1BD10023FB750023BB753B7BFA7DE9
:1025C8009A4213D83B7BBA7D9A420FD30B4B012218
:1025D8001A700BE000BF0AE000BF08E000BF06E089
:1025E80000BF04E000BF02E000BF00E000BF00BF82
:1025F8001837BD4680BD00BF7B4200207C420020CA
:1026080080B584B000AF0346FB71344BFF221A70CB
:10261800FFF714FDFFF7C0F801224FF400613048BE
:1026280014F0F8F8002240212E4814F0F3F8642042
:102638000EF084FBFB79002B4BD02B4800F07EFA80
:1026480001224021274814F0E5F800224FF40061E8
:10265800234814F0DFF864200EF070FB2349244867
:10266800FFF73AF80A200EF069FBFFF7E7FC0023B2
:10267800FB732AE0002240211A4814F0CBF83220DC
:102688000EF05CFB01224021164814F0C3F8C82064
:102698000EF054FB4FF48051124814F0A3F803468F
:1026A800002BE7D000F082F80023FB7302E0FB7BED
:1026B8000133FB73FFF706FB034683F00103DBB22C
:1026C800002B02D0FB7B632BF1D9044B1B78FF2B2B
:1026D800E0D000BF1037BD4680BD00BF8400002099
:1026E8000000024200180242A1240008C515000893
:1026F800652B000880B586B000AF786051233B7326
:102708007B683B6129233B7507F10C0393E80700BD
:1027180000F0A8FA00BF1837BD4680BD80B584B068
:1027280000AF53233B710023BB6000233B733B1D69
:1027380093E8070000F096FA00BF1037BD4680BD49
:1027480080B483B000AF0346FB71074B1B78FA795E
:102758009A4202D0044AFB79137000BF0C37BD4679
:102768005DF8047B704700BF8400002080B400AF90
:10277800034B1B781846BD465DF8047B704700BFC5
:102788008400002080B483B000AF0346FB71FB795E
:10279800002B02D0044AFB79137000BF0C37BD46EA
:1027A8005DF8047B704700BF7942002080B584B093
:1027B80000AF50233B710023BB6000233B733B1DDC
:1027C80093E8070000F04EFA00BF1037BD4680BD01
:1027D80080B584B000AF094B00221A7055233B71B5
:1027E8000023BB6000233B733B1D93E8070000F008
:1027F80039FA00BF1037BD4680BD00BF7C420020BB
:1028080080B500AF0E4B1B68002B04DD0C4B1B681A
:10281800013B0B4A13600A4B1B68002B0ED1094879
:1028280017F0C1FC0346002B01D00DF05AF9044BF8
:102838004FF0FF321A60044B00221A7000BF80BDAF
:1028480088000020289200207A42002080B400AF3F
:10285800074B1B68002B05DD064B1B78042B01D9A1
:10286800012300E000231846BD465DF8047B70474D
:10287800880000207A42002080B588B000AF034667
:10288800FB714FF000024FF00003C7E9042307F182
:10289800100308221946264802F079F9D7E90423DB
:1028A80010461946FEF76AF90346FB774FF0000217
:1028B8004FF00003C7E9022307F10803082219466D
:1028C8001C4802F064F9D7E9022310461946FEF7BE
:1028D80055F90346BB77FA79FB7F9A4224D3FA79F4
:1028E800BB7F9A4220D80021134800F0D9FB134B34
:1028F8001B780133DAB2114B1A70104B1B78012B7D
:102908000BD10F4B0A221A600E4817F003FC03463E
:10291800002B09D00DF0E5F806E0084B1B78052BD5
:1029280002D1074B0A221A6000BF2037BD4680BD7E
:1029380068B0020870B0020878B002087A42002035
:10294800880000202892002080B584B000AF78600D
:102958000B46FB700023FB7300237B81FB78023B53
:102968001A467968104827F037F8FB78023B7A68EE
:1029780013441B889BB27B81FB78023B1A460A49A9
:102988000A4811F0CBFB0346BB817B89BA899A427E
:1029980002D10123FB7301E00023FB73FB7B184684
:1029A8001037BD4680BD00BF8842002064900020DB
:1029B80090B583B000AF78600B46FB70124B1B6874
:1029C800002B1CD07B681A78104B1A707B689A7899
:1029D8000E4B5A700D4B00225A607B685A780B4B8D
:1029E8001A720A4B1B7A002B03D07B680333074A01
:1029F8005360054B1C68054B93E80700A04700BFD0
:102A08000C37BD4690BD00BF844200207C430020A7
:102A1800B0B58AB000AFF8610B467A61FB76FB6906
:102A28001A78394B1A70384BF2225A70364B0022FA
:102A38005A60354B00221A72344B1B68002B1FD08A
:102A4800FB691A78324B1A70314B00225A60FB69C5
:102A58005A782F4B1A722E4B1B7A002B03D0FB6926
:102A680002332B4A5360294B1C68274D3846284BA4
:102A78000ECBA0472C463B4693E8070084E80700A6
:102A8800214B1B7A053387F827301F4B1A787B694F
:102A98001A707B6901331C4A127A1A707B690233F7
:102AA800194A52781A70184B1B7A002B0CD0164B07
:102AB8005B68002B08D07B690333134A5168124ABC
:102AC800127A184626F088FF97F82730023B1A46F4
:102AD8007969104826F080FF97F82730023B1A469C
:102AE8000C490D4811F01AFB03469BB2BB8497F8BA
:102AF8002730023B7A691344BA8C1A8097F827303A
:102B080018462837BD46B0BD7C43002080420020CF
:102B180088430020884200206490002080B483B05D
:102B280000AF7860044A7B68136000BF0C37BD466D
:102B38005DF8047B704700BF8042002080B483B0FA
:102B480000AF7860044A7B68136000BF0C37BD464D
:102B58005DF8047B704700BF8442002080B586B0D2
:102B680000AFF860B9607A600023FB750023BB757D
:102B7800FB685B787B757B7D0533DBB21946F868AB
:102B8800FFF7E2FE0346002B19D07B7D0533BB75AA
:102B9800BB7D1946F868FFF70BFFBB7DFA68D118B3
:102BA800BB7DC3F1FF031A46F86826F0B9FEBB687F
:102BB8001A78BB7DD31ADAB2BB681A7048E07B7DFD
:102BC8000433DBB21946F868FFF7BEFE0346002B54
:102BD8001CD07B7D0433BB75BB7D7A681946F868C9
:102BE800FFF716FF0346FB75BB7DFA68D118BB7D5E
:102BF800C3F1FF031A46F86826F092FEBB681A78FC
:102C0800BB7DD31ADAB2BB681A7021E0FB681A7868
:102C18007B681A707B68013300221A707B68023364
:102C2800F0221A70032279680C4826F0D5FE032298
:102C38000A490B4811F072FA03469BB27B827B6803
:102C480003337A8A1A800523FB75BB6800221A7041
:102C5800FB7D18461837BD4680BD00BF884200205E
:102C68006490002080B5C2B000AF07F58473A3F567
:102C7800827383E8070007F58473A3F582731B78D2
:102C88003B7507F58473A3F582731B7A7B7507F58B
:102C98008473A3F582731B7A002B17D007F584730E
:102CA800A3F582735B68002B10D007F58473A3F536
:102CB8008273596807F58473A3F582731B7A1A46E1
:102CC80007F114030233184626F086FE07F58473CD
:102CD800A3F582731B7A9A1C07F114031946174847
:102CE80026F07AFE07F58473A3F582731B7A023304
:102CF8001A461249124811F011FA03469BB27B8218
:102D080007F58473A3F582731B7A023307F1140263
:102D180013447A8A1A8007F58473A3F582731B7AA1
:102D28000433DAB207F1140311461846FEF774FDAE
:102D380000BF07F58477BD4680BD00BF88420020EC
:102D48006490002080B5C2B000AF07F58473A3F586
:102D5800827383E8070007F58473A3F582731B78F1
:102D68003B7507F58473A3F582731B7A7B7507F5AA
:102D78008473A3F582735B78BB7507F58473A3F539
:102D880082731B7A002B17D007F58473A3F582731F
:102D98005B68002B10D007F58473A3F5827359681C
:102DA80007F58473A3F582731B7A1A4607F1140397
:102DB8000333184626F010FE07F58473A3F58273D3
:102DC8001B7ADA1C07F114031946174826F004FE8B
:102DD80007F58473A3F582731B7A03331A461249E5
:102DE800124811F09BF903469BB27B8207F5847366
:102DF800A3F582731B7A033307F1140213447A8A0A
:102E08001A8007F58473A3F582731B7A0533DAB247
:102E180007F1140311461846FEF7FEFC00BF07F53C
:102E28008477BD4680BD00BF8842002064900020A2
:102E3800B0B596B000AF786007F13C0300221946A0
:102E480072481CF06BFC0346002B01D00CF049FEC5
:102E580007F13803002219466C481CF057FD034659
:102E6800002B01D00CF03DFE97F83B3087F830304E
:102E780097F8393087F8313097F83A3087F8323098
:102E880097F83C3087F8333097F83D3087F834307E
:102E980097F83E3087F835303B6CDBB2DB43DBB26A
:102EA80087F836307B68002B0BD07A6807F130033F
:102EB800106818609188927999809A71544B7B6553
:102EC80007E04FF400720021524826F042FD514BB2
:102ED8007B65514B07F114041D460FCD0FC495E8CF
:102EE800070084E807004D4A07F10C0392E8030045
:102EF80018600433198002330A0C1A70002387F80B
:102F080053303EE097F8533007F10C021A4407F1AA
:102F180014031146184626F024FD034687F852305C
:102F280097F8533058333B4413F8283C3C4AA2FBEB
:102F38000323DB08DAB297F852303032D2B2583372
:102F48003B4403F8442C97F8533058333B4413F868
:102F5800282C334BA3FB0213D9080B469B000B44C8
:102F68005B00D31ADAB297F8523001333032D2B25A
:102F780058333B4403F8442C97F85330013387F80F
:102F8800533097F85330062BBCD997F83630254A7A
:102F9800A2FB03235B09DBB23033DBB287F82A30AC
:102FA80097F836301F4AA2FB03125209642101FB2D
:102FB80002F29B1ADBB21A4AA2FB0323DB08DBB23C
:102FC8003033DBB287F82B3097F83620144BA3FB4D
:102FD8000213D9080B469B000B445B00D31ADBB2E3
:102FE8003033DBB287F82C307B6D1D4607F11404B3
:102FF8000FCC28606960AA60EB6007CC2861696122
:10300800AA611B2318465837BD46B0BDF49200206C
:10301800984500209843002080B002089CB0020820
:10302800CDCCCCCC1F85EB5180B584B000AF786097
:103038000B467B807B68FB600A4B1A687B881344CD
:10304800B3F5003F02D3074B00221A60054B1868FE
:103058007A880023F968FEF75FFA00BF1037BD468B
:1030680080BD00BF9443002080B500AF04220B4907
:103078004FF40030FEF784FA084B1B68B3F5003FA5
:1030880009D3064B00221A600023042203494FF497
:103098000030FEF741FA00BF80BD00BF9443002016
:1030A80080B584B000AF786039600020FFF7C0FEBB
:1030B8000346FB81FB89144A13440422134918462A
:1030C80026F08AFCFB890433FB81FB890E4A1344F2
:1030D80005227968184626F07FFCFB890533FB81B9
:1030E800FB89094A13440A4A1188927819809A7010
:1030F800FB890333FB81FB8919460348FFF794FFDB
:1031080000BF1037BD4680BD98430020A4B0020818
:103118005CB3020890B589B000AF03460A46FB804D
:103128001346BB800020FFF783FE0346FB83FB8B1F
:103138005F4A134404225F49184626F04DFCFB8B76
:103148000433FB835C4B07F10C040FCB07C42380CB
:1031580002341B0C2370594A07F108031268114600
:1031680019800233120C1A7007F1080207F10C03D8
:103178001146184626F0F5FB03467B77FB88504A34
:10318800A2FB0312520B42F2107101FB02F29B1ACE
:103198009BB24C4AA2FB03239B099BB2DAB27B7F0A
:1031A8003032D2B220333B4403F8142CFB88454A12
:1031B800A2FB031292094FF47A7101FB02F29B1AE7
:1031C8009BB2414AA2FB03235B099BB2DAB27B7F25
:1031D80002333032D2B220333B4403F8142C07F1C7
:1031E80008035A1C07F10C031146184626F0B9FBD0
:1031F80003467B77BB88324AA2FB0312520B42F28A
:10320800107101FB02F29B1A9BB22E4AA2FB032308
:103218009B099BB2DAB27B7F3032D2B220333B4477
:1032280003F8142CBB88274AA2FB031292094FF417
:103238007A7101FB02F29B1A9BB2234AA2FB032379
:103248005B099BB2DAB27B7F02333032D2B22033D1
:103258003B4403F8142CFB8B154A9C1807F10C030C
:103268001846FDF705F8024607F10C0319462046F3
:1032780026F0B2FB07F10C031846FCF7F9FF0346EA
:103288009AB2FB8B1344FB83FB8B094A13440F4A06
:103298001188927819809A70FB8B0333FB83FB8B20
:1032A80019460348FFF7C0FE00BF2437BD4690BD4E
:1032B80098430020ACB00208B4B00208C4B00208B9
:1032C8005917B7D1D34D62101F85EB515CB3020873
:1032D800B0B588B000AF78600020FFF7A9FD0346BD
:1032E800BB83BB8B7D4A134404227D49184626F0D4
:1032F80073FBBB8B0433BB837A4B07F10C040FCBF6
:1033080007C4237058233B8107F1080207F10C0317
:103318001146184626F025FB0346FB767A68724B61
:10332800A3FB02139B0D714901FB03F3D31A704AE7
:10333800A2FB03239B0CDAB2FB7E3032D2B22033DD
:103348003B4403F8142C7A68694BA3FB02139B0CCB
:10335800684901FB03F3D31A5B09674AA2FB0323FD
:10336800DB09DAB2FB7E02333032D2B220333B447F
:1033780003F8142C7A6853095F49A1FB0313DB098E
:103388005E4901FB03F3D31A5D4AA2FB03235B0BDF
:10339800DAB2FB7E03333032D2B220333B4403F837
:1033A800142C7A68564BA3FB02135B0B42F2107184
:1033B80001FB03F3D31A534AA2FB03239B09DAB296
:1033C800FB7E04333032D2B220333B4403F8142C52
:1033D8007A684C4BA3FB02139B094FF47A7101FBEB
:1033E80003F3D31A484AA2FB03235B09DAB2FB7E34
:1033F80006333032D2B220333B4403F8142C7A68B7
:10340800414BA3FB02135B09642101FB03F3D31AAD
:103418003E4AA2FB0323DB08DAB2FB7E07333032D5
:10342800D2B220333B4403F8142C7968374BA3FB02
:103438000123DA0813469B0013445B00CA1AD2B270
:10344800FB7E08333032D2B220333B4403F8142CCD
:103458000023FB7702E0FB7F0133FB77FB7F203300
:103468003B4413F8143C302BF5D0FB7F20333B440E
:1034780013F8143C2C2BEED0BB8B184A9C18FB7FFE
:1034880007F10C02D51807F10C031846FCF7F0FEFB
:103498000246FB7FD31A1A462946204626F09CFA94
:1034A80007F10C031846FCF7E3FE03469AB2BB8B00
:1034B8001344BB83BB8B094A1344154A118892787D
:1034C80019809A70BB8B0333BB83BB8B19460348A7
:1034D800FFF7AAFD00BF2037BD46B0BD98430020C6
:1034E800C8B00208D0B002086BCA5F6B809698001B
:1034F80083DE1B4340420F00C55A7C0AA0860100A8
:103508005917B7D1D34D62101F85EB51CDCCCCCC18
:103518005CB30208B0B594B000AFF8607A601A46A0
:103528000B46FB7213463B810020FFF781FC0346E4
:10353800A7F84E30B7F84E30B04A13440422B049C9
:10354800184626F049FAB7F84E300433A7F84E303B
:10355800AC4A07F1400392E803001860043319806D
:1035680002330A0C1A70FB681B68C7F84130B7F8B9
:103578004E30A24A134407F140010622184626F0AD
:103588002BFAB7F84E300633A7F84E30FB7A022BE9
:1035980040F0DA804FF000024FF00003C7E90E2335
:1035A8007B681C685D6822462B46C7E90E23D7E96D
:1035B8000E014FF00002944BFDF71EF802460B4631
:1035C800C7E90E23D7E90E2310461946FDF7D6FAA8
:1035D8000346A7F84A308D4A07F12C0307CA03C3EC
:1035E8001A800233120C1A7078233B8507F12802DF
:1035F80007F12C031146184626F0B3F9034687F85D
:103608004930B7F84A2053098149A1FB0313DB0964
:10361800804901FB03F3D31A7F4AA2FB03235B0B08
:10362800DAB297F849303032D2B250333B4403F81B
:10363800242CB7F84A30784AA2FB0312520B42F204
:10364800107101FB02F29B1A9BB2744AA2FB03237E
:103658009B099BB2DAB297F8493001333032D2B2C3
:1036680050333B4403F8242CB7F84A306B4AA2FB8A
:10367800031292094FF47A7101FB02F29B1A9BB272
:10368800674AA2FB03235B099BB2DAB297F8493079
:1036980002333032D2B250333B4403F8242CB7F80B
:1036A8004A305F4AA2FB03125209642101FB02F26D
:1036B8009B1A9BB25B4AA2FB0323DB089BB2DAB2DC
:1036C80097F8493003333032D2B250333B4403F8D1
:1036D800242C97F84930043350333B442E2203F806
:1036E800242CB7F84A204F4BA3FB0213D9080B46EA
:1036F8009B000B445B00D31A9BB2DAB297F84930AF
:1037080005333032D2B250333B4403F8242CB7F897
:103718004E303A4A9C1807F12C031846FCF7A8FDCE
:10372800024607F12C031946204626F055F907F101
:103738002C031846FCF79CFD03469AB2B7F84E30A6
:103748001344A7F84E3041E0374B07F114041D46E7
:103758000FCD0FC42B682370344A07F11003126889
:10376800114619800233120C1A700023A7F84C3046
:1037780027E0B7F84C307A6813441B781B09DBB292
:1037880050333B4413F83C3C3B74B7F84C307A68F0
:1037980013441B7803F00F0350333B4413F83C3CAD
:1037A8007B74B7F84E30154A13443A8A1A80B7F832
:1037B8004E300233A7F84E30B7F84C300133A7F833
:1037C8004C30B7F84C203B899A42D2D3B7F84E30E8
:1037D8000A4A1344164A1188927819809A70B7F8E1
:1037E8004E300333A7F84E30B7F84E301946034829
:1037F800FFF71AFC00BF5037BD46B0BD9843002004
:10380800E0B00208E8B0020800002440F0B0020866
:10381800C55A7C0AA08601005917B7D1D34D62104A
:103828001F85EB51CDCCCCCCFCB0020810B10208FE
:103838005CB3020880B586B000AF78600023FB75E2
:103848004FF400720021204826F083F80023FB8102
:103858001D4BBB60FB89BA68134404221B491846F8
:1038680026F0BAF8FB890433FB81FB89BA68134454
:1038780005227968184626F0AFF8FB890533FB81E5
:1038880000233B6116E0FB891A4611493869FDF7A8
:1038980077FEFB891A460E49B86826F031F80346C8
:1038A800002B02D10123FB7508E0FEF7C7FB3B693B
:1038B80001333B613B69B3F5003FE4D3FB7D184618
:1038C8001837BD4680BD00BF98430020A4B0020849
:1038D8009845002080B588B000AF78603960002333
:1038E800FB777868FFF7A4FA03463B823D4BFB6001
:1038F8003D4B1B68BB613B8A1A46F9683B4825F07B
:10390800FFFF0346002B02D1394B1B68BB61002324
:10391800BB6000237B615CE0BA697B691344C3F335
:103928001003BB6001223968B868FDF729FE3B68BF
:103938001B785B2B48D13B8A1A463968B868FDF773
:103948001FFE3B8A013B3A6813441B785D2B3BD131
:103958003B8A1A46F968386825F0D2FF0346002BDF
:1039680032DD3B8AFB770023FB742AE0FEF766FB17
:10397800FA7FBB68D018FB7F3A68134401221946C6
:10398800FDF7FEFDFB7F3A6813441B780A2B05D030
:10399800FB7F3A6813441B78002B0CD13B8A1A46EC
:1039A8003968124826F018F8114ABB681360FB7F83
:1039B8000133DBB212E0FB7F0133FB77FB7C013381
:1039C800FB74FB7CEE2BD1D9FEF738FB7B69013306
:1039D8007B617B69B3F5003F9ED3002318462037EF
:1039E800BD4680BD98450020944300208C000020EF
:1039F8009847002080B500AFFEF720FB4FF4003158
:103A08000020FDF7CEFD04214FF40030FDF7C9FD7D
:103A180004220021034825F09CFF024B00221A6073
:103A280000BF80BD9443002080B582B000AF7860AD
:103A38000B467B807B68B3F5003F0DD2084B1A68B4
:103A48007B881344013B064A13600023042204497F
:103A58004FF40030FDF760FD00BF0837BD4680BD5C
:103A68009443002080B582B000AF0346FB71FB7918
:103A78001A460421034812F0CDFE00BF0837BD46A0
:103A880080BD00BF0000024280B588B002AF7860F8
:103A98003960642300936423224A23490020FDF7F8
:103AA80041FC642300936423204A21490020FDF748
:103AB80039FC00237B6100233B610023FB7312E088
:103AC800FB7B184A32F813301A467B6913447B6132
:103AD800FB7B164A32F813301A463B6913443B61A4
:103AE800FB7B0133FB73FB7B632BE9D97B69114AB1
:103AF800A2FB03235B097B613B690E4AA2FB0323FC
:103B08005B093B617B699BB25B009AB27B681A8058
:103B18003B699BB25B009AB23B681A8000BF1837BA
:103B2800BD4680BD9C47002020000014644800204A
:103B3800400000181F85EB5180B582B000AF0346E6
:103B4800FB71FB791A460421034812F063FE00BF9B
:103B58000837BD4680BD00BF0014024290B583B04F
:103B680000AF0446084611461A462346FB71034631
:103B7800BB710B467B7113463B71FB791A460221D8
:103B88000C4812F047FEBB791A460821094812F082
:103B980041FE7B791A461021064812F03BFE3B791C
:103BA8001A460121034812F035FE00BF0C37BD4606
:103BB80090BD00BF0014024280B586B000AF7860A7
:103BC80039603868FCF79EFC1AA3D3E90023FCF798
:103BD80013FD02460B46C7E902237868FCF792FCFE
:103BE800D7E90223FCF708FD02460B4610461946A2
:103BF8004FF000020E4BFCF749FB02460B461046FD
:103C08001946FCF7BBFF03467B617B69002B02D199
:103C180001237B6106E07B69B3F5FA6F02D94FF4A3
:103C2800FA637B617B699BB218461837BD4680BD35
:103C38000000E03F8DEDB5A0F7C6B03E80B586B078
:103C480002AFF860B96011461A460B46FB8013466E
:103C5800BB80FA88BB8800931346BA68F9680120CC
:103C6800FDF760FB00BF1037BD4680BD00000000B7
:103C780080B58AB000AF78600B467B8013463B80E6
:103C88007B687B614FF000024FF00003C7E908230F
:103C98000223FB747B885B083B823B885B08FB81C3
:103CA8000023FB7644E00023FB834FF6FF73BB83BE
:103CB800FB7E9BB23A8A12FB03F39AB2FB89134448
:103CC800BB813B8A5B089AB2BB8913447B81BB8961
:103CD8003B8316E03B8B5B007A6913441B88FA8BA5
:103CE800934238BF1346FB833B8B5B007A691344CE
:103CF8001B88BA8B934228BF1346BB833B8B013387
:103D08003B833A8B7B899A42E4D3FA8BBB8BD31AD9
:103D18001846FCF707FC02460B46D7E90801FCF7F2
:103D2800B5FA02460B46C7E90823FB7E0133FB764A
:103D3800FA7EFB7C9A42B6D3FB7C1846FCF7E2FB82
:103D480002460B46D7E90801FCF780FD02460B4600
:103D5800C7E9082308A3D3E90023D7E90801FCF73A
:103D68004BFC02460B4643EC172BB0EE470AF0EE2D
:103D7800670A2837BD4680BDAAAAAAAAAAAAEA3F06
:103D88002DE9B04F90B000AF87ED020B87ED001B17
:103D98004FF000027A4BD7E90201FCF757FD0246C3
:103DA8000B46104619466CA3D3E90023FCF74EFDD9
:103DB80002460B46C7E90A234FF000024FF0000302
:103DC800D7E90A01FCF794FE0346002B04D04FF014
:103DD80000024FF00003B3E061A3D3E90023D7E961
:103DE8000A01FCF709FC02460B46C7E90E2300232B
:103DF80087F837308EE0D7E90E23D7E90A01FCF7B8
:103E080025FD02460B4610461946FCF7D7FE034629
:103E180000EE103A25F0EEFDF0EE407A9FED597A6B
:103E280067EE877A17EE900AFCF78EFB8046894684
:103E38004DA3D3E90023D7E90E01FCF7DDFB0246C9
:103E48000B4692469B464FF000024D4BD7E90A01BC
:103E5800FCF7D2FB02460B4650465946FCF714FACB
:103E680002460B4640464946FCF70EFA02460B4608
:103E7800C7E90823D7E90E233DA1D1E90001FCF7E2
:103E8800E5FC02460B46144683F0004536A3D3E909
:103E9800002320462946FCF7F7F902460B46C7E9F6
:103EA8000623D7E90623D7E90801FCF7CFFC024629
:103EB8000B46C7E90423D7E90423D7E90E01FCF729
:103EC800E3F902460B46C7E90E23D7E90401FCF7DC
:103ED80075FE07EE900AF0EEE77A9FED2B7AF4EE86
:103EE800C77AF1EE10FA1BD44FF000024FF000032E
:103EF800D7E90E01FCF7FCFD0346002B05D01EA3F5
:103F0800D3E90023C7E90E230BE097F837300133D4
:103F180087F8373097F83730132B7FF66CAF00E00F
:103F280000BF4FF00002164BD7E90E01FCF764FB07
:103F380002460B46D7E90001FCF788FC02460B460F
:103F480043EC172BB0EE470AF0EE670A4037BD4640
:103F5800BDE8B08FAFF300800000000000E0A5408E
:103F6800000000A0AAAA1A400000000000C0624099
:103F7800000000206C789A3F000000809997713DFE
:103F880000408F4061C3D33CCCBC8C2B80B582B041
:103F980000AF0346FB71FB791A464FF48061034872
:103FA80012F038FC00BF0837BD4680BD000402424D
:103FB80080B582B000AF03460A46FB711346BB7159
:103FC800FB79013B032B35D801A252F823F000BF3F
:103FD800E93F0008034000081F4000082F40000880
:103FE800BB791A462021164812F014FCBB791A46F0
:103FF8001021134812F00EFC1DE0BB791A464FF44D
:104008008051104812F006FCBB791A4610210C4862
:1040180012F000FC0FE0BB791A464FF48071084893
:1040280012F0F8FB07E0BB791A460421064812F0A3
:10403800F1FB00E000BF00BF0837BD4680BD00BFF0
:1040480000040242000802420018024280B586B00D
:1040580002AF396011461A460346FB710B46BB7125
:104068001346BB80BB795B08DBB2FB81FB79013B64
:10407800032B33D801A252F823F000BF9540000863
:10408800A9400008BD400008D1400008FA89BB8853
:10409800009313463A6814490020FDF743F91EE0DF
:1040A800FA89BB88009313463A6810490020FDF747
:1040B80039F914E0FA89BB88009313463A680C4929
:1040C8000020FDF72FF90AE0FA89BB880093134610
:1040D8003A6808490120FDF725F900E000BF00BF54
:1040E8001037BD4680BD00BF0080003E0000014281
:1040F800000002468000001C80B584B000AF034673
:10410800B96087ED010AFB731346BB737868FCF747
:104118001BFA4FF000020B4BFCF76EFA02460B46F7
:1041280010461946FCF72AFD03469BB2BA7BF87B7A
:10413800B968FFF78BFF0A20FDF754F900BF103765
:10414800BD4680BD0000244080B500AF0A20FDF7C1
:1041580073F90A20FDF746F900BF80BD80B582B02B
:1041680000AF0346FB71FB791A464FF480610348A0
:1041780012F050FB00BF0837BD4680BD0008024260
:1041880080B586B002AF78600B46FB7013463B8063
:10419800FB785B08DBB2FB81FA893B880093134606
:1041A8007A6804490120FDF7BDF800BF1037BD4605
:1041B80080BD00BF0000405A80B582B000AF034602
:1041C800FB71FB791A462021034812F023FB00BF3C
:1041D8000837BD4680BD00BF0008024280B586B0E2
:1041E80002AF396011461A460346FB710B46BB7194
:1041F8001346BB80BB795B08DBB2FB81FB79032BE1
:104208001AD0032B22DC012B02D0022B0AD01DE08E
:10421800FA89BB88009313463A680F490120FDF7D5
:1042280081F814E0FA89BB88009313463A680B4971
:104238000120FDF777F80AE0FA89BB880093134656
:104248003A6807490120FDF76DF800E000BF00BF9C
:104258001037BD4680BD00BF0800000C04000008F0
:104268000200000480B500AF0020FFF7FBFB002030
:10427800FFF762FC0020FFF789FE00210120FFF70D
:1042880097FE00210220FFF793FE00210320FFF78D
:104298008FFE00210420FFF78BFE0020FFF75EFF52
:1042A8000020FFF789FF00BF80BD80B58AB000AF4E
:1042B800B9607A601A460346FB8113467B73FB8913
:1042C800FB84082387F82230BB681B68BB61002386
:1042D800BB84002387F8233049E04FF000024FF0F9
:1042E8000003C7E904237A7B97F82330D31A87F8A9
:1042F800213097F8212097F822309A420BD297F86C
:1043080023307A68D11897F8212007F1100318464E
:1043180025F062FB0AE097F823307A68D11897F8FD
:10432800222007F11003184625F056FB07F110026A
:10433800FB8C1146184623F06FFB0346BB84BB8CED
:1043480003F48073002B03D023F080FB0346BB8467
:10435800BB8C002B01D00BF0C4FBFB8C0133FB841E
:1043680097F8232097F82230134487F8233097F8DA
:1043780023207B7B9A42B0D315F0A6FC0346002B82
:1043880001D00BF0AEFBFB8C18462837BD4680BD2C
:1043980080B58AB000AFB9607A601A460346FB81DF
:1043A80013467B73FB89FB8407F1100300221A6014
:1043B8005A609A60DA60082387F8243000237B84E7
:1043C800002387F8253048E007F11002FB8C1146DE
:1043D800184623F003FB03467B847B8CDBB2FF2B60
:1043E80001D10BF07EFB7A7B97F82530D31A87F83A
:1043F80021307A7B97F824309A4207D27A7B07F1EA
:1044080010031946786825F0E7FA1CE097F8212090
:1044180097F824309A420BD297F825307A681344DB
:1044280097F8212007F11001184625F0D5FA0AE07F
:1044380097F825307A68134497F8242007F110017B
:10444800184625F0C9FAFB8C0133FB8497F8252020
:1044580097F82430134487F8253097F825207B7B7C
:104468009A42B1D3BB68002B02D0BA69BB681A6004
:10447800FB8C18462837BD4680BD000080B584B047
:1044880000AF78600023FB607B68002B1DD03F23C2
:104498003B8100237B8114E07B891B010D4A134477
:1044A80004227968184625F02BFA0346002B05D11B
:1044B8007B891B01074A1344FB6006E07B890133B3
:1044C8007B817A893B899A42E6D3FB681846103784
:1044D800BD4680BDA007002080B594B000AF002382
:1044E8007B620023A7F84E30B44B1B681B699BB254
:1044F8007B84002387F84D30B04B1B689A68AF4B1C
:104508001B6842F001029A600023A7F84A3048E08D
:10451800B7F84A301B01AA4A1344184600F0CDFAEE
:10452800034687F82B3097F82B3003F00703DBB2EC
:10453800002B07D097F82B30DB08DBB2013387F864
:104548004D3004E097F82B30DB0887F84D30002316
:1045580087F849301AE0B7F84A301B01984A1344E3
:104568001B687B6207F124030422194693480FF065
:1045780091FD03469BB27B84B7F84E300133A7F810
:104588004E3097F84930013387F8493097F8492079
:1045980097F84D309A42DED3B7F84A300133A7F87E
:1045A8004A303F22B7F84A309342B1D311F000F9AC
:1045B8000346002B01D00BF094FA0023A7F84630ED
:1045C800002021F033FF0346A7F84630B7F84630FD
:1045D800002B01D00BF085FA0023A7F84630002302
:1045E800A7F84430754B1B681B699BB2FB81734B62
:1045F8001B689A68714B1B6842F001029A6000239D
:10460800A7F842302DE0B7F842300133A7F842301E
:1046180007F11002B7F842301146184623F0DEF9C8
:104628000346A7F84630B7F84630002B19D1BB69C6
:104638007B62FA89614B1B681A6107F12403042223
:1046480019465E480FF026FD03469BB2FB815B4B83
:104658001B685A4A12691A61B7F844300133A7F83F
:104668004430B7F84630002BCDD0B7F84230012B94
:1046780003D1B7F84630072B10D007F10E0107F128
:1046880022030222184625F03BF90346002B05D1E8
:10469800B7F84E20B7F844309A4261D0002023F092
:1046A80099F80346A7F84630B7F84630002B01D0F2
:1046B8000BF017FA0123A7F842300023A7F840307F
:1046C80048E0B7F840303E4A1B0113440433B7F8BA
:1046D80042201A800023FB63002387F83B30B7F899
:1046E8004030374A1B01134408331B68002B0FD096
:1046F800B7F84030324A1B01134408331B68FB6289
:10470800FB6A1B68FB63FB6A1B7987F83B300DE08B
:10471800B7F840302A4A1B0113440C331B683B632B
:104728003B6B1033FB63082387F83B30B7F8403006
:104738001B01234A991897F83B30B7F84200FA6BE7
:10474800FFF7B3FD0346A7F84230B7F8403001330E
:10475800A7F840303F22B7F840309342B1D377E111
:104768000123A7F8423000233B8734E03B8F144AEB
:104778001B0113440433B7F842201A803B8F1B01F6
:104788000F4A1344184600F098F9034687F8373063
:1047980097F83730DB08DBB2BB8697F8373003F081
:1047A8000703DBB2002B0DD0B7F84220BB8E1344B1
:1047B8009BB20133A7F842300AE000BF64900020A2
:1047C800A0070020B7F84220BB8E1344A7F8423058
:1047D8003B8F01333B873F223B8F9342C6D3322323
:1047E800A3F1300213469B0013445B001A4636239C
:1047F800303B13449C4A82FB03129210DB17D31AF6
:10480800DBB23033DBB23B723223A3F13002134602
:104818009B0013445B001A463623303B1A44924BE4
:1048280083FB02139910D317C91A0B469B000B443C
:104838005B00D11ACBB23033DBB27B724D234A2BEB
:1048480005D16123612B02D172236E2B37D04D2302
:10485800462B34D04D234D2B05D16123612B02D13A
:104868007223722B2BD04D23412B02D16123702B45
:1048780025D04D234D2B05D16123612B02D1722305
:10488800792B1CD04D234A2B05D16123752B02D1DE
:1048980072236E2B13D04D234A2B05D16123752B20
:1048A80002D172236C2B0AD04D23412B02D16123F4
:1048B800752B04D04D23532B01D0012300E0002396
:1048C800DBB23033DBB2BB724D234A2B05D16123F7
:1048D800612B02D172236E2B51D04D23462B4CD025
:1048E8004D234D2B05D16123612B02D17223722BED
:1048F80041D04D23412B02D16123702B39D04D2358
:104908004D2B05D16123612B02D17223792B2ED037
:104918004D234A2B05D16123752B02D172236E2BAF
:1049280023D04D234A2B05D16123752B02D1722345
:104938006C2B18D04D23412B02D16123752B10D03D
:104948004D23532B0BD04D234F2B06D04D234E2BED
:1049580001D1312314E0322312E0302310E039234F
:104968000EE038230CE037230AE0362308E035232D
:1049780006E0342304E0332302E0322300E031234D
:10498800FB723223202B0BD13323303B364A82FB78
:1049980003129210DB17D31ADBB23033DBB213E009
:1049A8003223A3F1300213469B0013445B001A46DE
:1049B8003323303B13442C4A82FB03129210DB173B
:1049C800D31ADBB23033DBB23B733223202B11D145
:1049D8003323A3F13002244B83FB02139910D3171E
:1049E800C91A0B469B000B445B00D11ACBB230337B
:1049F800DBB218E03223A3F1300213469B001344C4
:104A08005B001A463323303B1A44174B83FB0213CF
:104A18009910D317C91A0B469B000B445B00D11A97
:104A2800CBB23033DBB27B733B46062219460F48C4
:104A380000F0ADF807F108013B460622184624F0BD
:104A48005FFF0346002B03D00021084800F057F809
:104A580010F0D0FE0346002B01D00BF042F800BF47
:104A68005037BD4680BD00BF6766666614B1020850
:104A780080B584B000AF78600023FB737B68002B9F
:104A880016D07868FFF7FAFCB860BB68002B0FD027
:104A9800BB689B68002B02D00123FB7308E0BB684E
:104AA800DB68002B02D00223FB7301E00023FB73B9
:104AB800FB7B18461037BD4680BD80B586B000AF79
:104AC80078600023FB757B68002B13D07868FFF7AC
:104AD800D5FC38613B69002B0CD03B699B68002BE7
:104AE80006D03B699B68FB60FB681B79FB7501E09E
:104AF8000823FB75FB7D18461837BD4680BD80B579
:104B080088B000AF786039607B68002B3BD078684C
:104B1800FFF7B4FC78617B69002B34D00023FB7766
:104B28003B68BB617B699B68002B0CD07B699B68E9
:104B3800FB60FB681B79FB77BB69002B0ED1FB6818
:104B48001B68BB610AE00823FB77BB69002B05D112
:104B58007B69DB683B613B691033BB6110F028FE61
:104B68000346002B01D00AF0BCFF7B699888FB7FC5
:104B7800BA697968FFF799FB10F03CFE0346002BF1
:104B880001D00AF0AEFF00BF2037BD4680BD80B51A
:104B980088B000AFF860B9601346FB71FB68002B62
:104BA80025D0BB68002B22D0F868FFF767FCB861F6
:104BB800BB69002B1BD00023FB77BB699B68002BCC
:104BC80006D0BB699B687B617B691B79FB7701E039
:104BD8000823FB77FA79FB7F9A4201D2FB79FB77AE
:104BE800BB699888FB7FBA680021FFF7D1FB00BF3B
:104BF8002037BD4680BD80B586B000AF786039608B
:104C08007B68002B23D03B68002B20D07868FFF707
:104C180035FC78617B69002B19D07B699B68002B78
:104C28000BD07B699B68FB60FB681968FB681B7984
:104C38001A46386824F0D0FE09E07B69DB683B61DE
:104C48003B69103308221946386824F0C5FE00BFB6
:104C58001837BD4680BD80B586B000AF78604FF08C
:104C680000024FF00003C7E904237B68002B12D031
:104C78007868FFF703FCF860FB68002B0BD0FB6833
:104C8800DB68002B07D0FB68DB68BB60BB68D3E937
:104C98000623C7E90423D7E9042343EC172BB0EE16
:104CA800470AF0EE670A1837BD4680BD80B588B060
:104CB80000AFF86087ED000B0023FB77FB68002B43
:104CC80023D0F868FFF7DAFBB861BB69002B1CD06A
:104CD800BB69DB68002B18D0BB69DB687B617B692B
:104CE800D3E90223D7E90001FBF702FF0346002BB3
:104CF8000BD07B69D3E90023D7E90001FBF702FF5A
:104D08000346002B01D00123FB77FB7F1846203791
:104D1800BD4680BD80B588B000AFF86087ED000B58
:104D2800FB68002B48D0F868FFF7A8FBF861FB691F
:104D3800002B41D0FB69DB68002B3DD0FB69DB68A9
:104D4800BB61BB69D3E90623D7E90001FBF77EFD08
:104D580002460B4643EC172BB0EE470AF0EE670A03
:104D680024F0C2FE51EC100BBB69D3E90623FBF714
:104D780043FC02460B46C7E90423BB69D3E9002379
:104D8800D7E90401FBF7AAFE0346002B03D0BB6951
:104D9800D3E9002314E0BB69D3E90223D7E904016E
:104DA800FBF7BAFE0346002B03D0BB69D3E9022305
:104DB80006E0D7E9042303E04FF000024FF00003B8
:104DC80043EC172BB0EE470AF0EE670A2037BD46D2
:104DD80080BD000080B483B000AF0346FB80044A66
:104DE800FB88138000BF0C37BD465DF8047B704715
:104DF8004449002080B400AF034B1B881846BD46C9
:104E08005DF8047B704700BF4449002080B582B03C
:104E180000AF4FF000024FF00003C7E900233B4604
:104E2800082219460748FFF7B2FED7E900231046C3
:104E38001946FBF77BFE0346034A136000BF083799
:104E4800BD4680BD7CB10208900B002080B582B0C1
:104E580000AF4FF000024FF00003C7E900233B46C4
:104E6800082219460748FFF792FED7E900231046A3
:104E78001946FBF75BFE0346034A136000BF083779
:104E8800BD4680BD7CB10208940B002080B500AF00
:104E9800042246494FF42020FCF772FB434B1B8841
:104EA800002B03D0414B5B88002B13D13F4B40F2C2
:104EB80001221A803D4B40F201225A80012304222C
:104EC8003A494FF42020FCF727FB394B40F20122E6
:104ED8001A801DE0354B1B8840F20122934213D003
:104EE800324B40F201221A80304B40F201225A80A4
:104EF800012304222D494FF42020FCF70DFB2C4BF5
:104F080040F201221A8003E0284B5A88284B1A8065
:104F1800284BD3F8F43003F00053002B03D00021C2
:104F28002548FEF7BDF8234BD3F8F43003F000739F
:104F3800002B08D01E4B1B88B3F5027F03D01C4BF7
:104F48004FF400721A801B4BD3F8F430194A43F41B
:104F58000003C2F8F430FFF759FFFFF777FF144B4F
:104F68001B88B3F5027F14D0B3F5027F1ADCB3F5C2
:104F7800017F04D040F20522934205D012E00F4B86
:104F88004FF0FF321A600EE00D4B4FF0FF321A60FF
:104F980009E00A4B4FF0FF321A60094B4FF0FF321D
:104FA8001A6000E000BF00BF80BD00BF404900207C
:104FB80044490020000C024684B10208900B0020EE
:104FC800940B002080B58AB000AF0346FB71334ACA
:104FD800FB791370314B1B78002B5AD04FF000022D
:104FE8004FF00003C7E9062307F118030822194602
:104FF8002B48FFF7CCFDD7E9062310461946FBF7E7
:10500800BDFD034687F8273097F82730002B3DD0A1
:1050180097F82730062B39D84FF000024FF00003DD
:10502800C7E9042397F82730013B1E4A52F823307A
:1050380007F1100108221846FFF7A9FDD7E9042354
:1050480010461946FBF79AFD03469AB2164B1A808A
:105058004FF000024FF00003C7E9022397F827300A
:10506800013B124A52F8233007F10801082218467A
:10507800FFF78DFDD7E9022310461946FBF77EFDA1
:1050880003469AB20A4B1A8000BF02E0034B002283
:105098001A7000BF2837BD4680BD00BF4A490020AE
:1050A8008CB10208980B002046490020B00B002064
:1050B8004849002080B400AF0B4B1B68002B04DD6F
:1050C800094B1B68013B084A1360084B1B68002BFF
:1050D80004DD064B1B68013B044A136000BFBD4654
:1050E8005DF8047B704700BF900B0020940B0020F4
:1050F80080B588B000AF07F10803002219462E4892
:105108001AF00CFB0346002B01D00AF0EAFC3B1D09
:105118000022194628481AF0F9FB0346002B01D053
:105128000AF0DFFC3B7A1A461201D31A9B009BB2A5
:105138007A7A1344FB83214B1B88B3F5807F27D1F0
:105148001F4B1B68002B08D11C4B4FF401721A80AF
:105158001B4B4FF0FF321A6029E01A4B1B68002BDB
:1051680008D1164B40F205221A80164B4FF0FF3239
:105178001A601CE0144B1B78002B18D0134B1B88AB
:10518800FA8B9A4213D10D4B40F203221A800EE09B
:105198000A4B1B8840F20322934208D10C4B1B8810
:1051A800FA8B9A4203D1054B4FF400721A8000BF64
:1051B8002037BD4680BD00BFF4920020444900203E
:1051C800900B0020940B00204A49002046490020FB
:1051D8004849002080B588B000AF0346FB712C4BCE
:1051E8001B884FF6FF7293424DD0294B1B88B3F5AD
:1051F800027F48D04FF000024FF00003C7E90423B4
:1052080007F11003082219462248FFF7C0FCD7E926
:10521800042310461946FBF7B1FC0346FB774FF011
:1052280000024FF00003C7E9022307F10803082230
:1052380019461948FFF7ABFCD7E90223104619466F
:10524800FBF79CFC0346BB77FA79FB7F9A421AD39B
:10525800FA79BB7F9A4216D800211048FDF720FF43
:105268000B4B1B88B3F5807F04D1094B40F2012218
:105278001A8008E0064B1B88B3F5007F03D3044B64
:105288004FF480721A8000BF2037BD4680BD00BF32
:105298004449002094B102089CB10208A4B1020854
:1052A800B0B586B000AFF860B96087ED000BBA689A
:1052B800FB689A4204D94FF000024FF0000324E043
:1052C800B868FBF71FF916A3D3E90023FBF794F995
:1052D80002460B4614461D46F868FBF713F90246CA
:1052E8000B4620462946FBF7B1FA02460B46C7E9AA
:1052F800042397ED040B24F0B3FB51EC100BD7E912
:105308000023FBF779F902460B4643EC172BB0EE66
:10531800470AF0EE670A1837BD46B0BDAFF3008004
:10532800182D4454FB21194080B584B000AF07F113
:10533800080383E803001346FB717B7A002B13D024
:10534800364B1B7883F00103DBB2002B06D0FB79C8
:105358001A460121324811F05DFA05E0FB791A4638
:1053680004212F4811F056FABB7A002B13D02B4B8F
:105378001B7883F00103DBB2002B06D0FB791A46B9
:105388000121274811F046FA05E0FB791A46042165
:10539800234811F03FFAFB7A002B10D01F4B5B78A3
:1053A800002B06D0FB791A4601211D4811F032FA6C
:1053B80005E0FB791A460421194811F02BFA3B7BCA
:1053C800002B10D0154B5B78002B06D0FB791A46C2
:1053D8000121134811F01EFA05E0FB791A46042151
:1053E8000F4811F017FA3B7A002B13D00B4B1B78A0
:1053F80083F00103DBB2002B06D0FB791A460121AA
:10540800074811F007FA05E0FB791A460421044819
:1054180011F000FA00BF1037BD4680BD444D002092
:10542800000C024280B584B000AF07F1080383E89E
:1054380003001346FB717B7A002B05D0FB791A46D3
:105448000221154811F0E6F9BB7A002B05D0FB794B
:105458001A460821104811F0DDF9FB7A002B05D017
:10546800FB791A4610210C4811F0D4F93B7B002B2C
:1054780005D0FB791A462021074811F0CBF93B7A71
:10548800002B05D0FB791A464021034811F0C2F9D8
:1054980000BF1037BD4680BD000C024290B585B0F4
:1054A80000AF07F1080484E80300394681E80C00DE
:1054B8007B78002B0BD07B7A83F00103DBB21A4692
:1054C8008021254811F0A6F97A7A244BDA70BB7846
:1054D800002B0CD0BB7A83F00103DBB21A464FF4E1
:1054E80080711D4811F096F9BA7A1C4B1A71FB7835
:1054F800002B0CD0FB7A83F00103DBB21A464FF481
:105508000071154811F086F9FA7A144B5A713B79F3
:10551800002B0CD03B7B83F00103DBB21A464FF41F
:1055280080610D4811F076F93A7B0C4B9A713B7803
:10553800002B0CD03B7A83F00103DBB21A464FF400
:105548000061054811F066F93A7A044B9A7000BF79
:105558001437BD4690BD00BF000C0242444D0020E8
:1055680090B585B000AF07F1080484E80300394618
:1055780081E80C0000223B4693E80300FFF7D4FEC5
:1055880000223B4693E80300FFF74CFF3B460CCB59
:1055980007F1080103C9FFF781FF01223B4693E8A1
:1055A8000300FFF73FFF01223B4693E80300FFF7A4
:1055B800BBFE00BF1437BD4690BD000090B587B054
:1055C80000AF07F1080484E80300394681E80C00BD
:1055D800FF23FB750023BB7500237B7500233B75F8
:1055E8007B78002B07D07B7A83F00103DBB2002B9A
:1055F80001D00123FB75BB78002B07D0BB7A83F061
:105608000103DBB2002B01D00223FB75FB78002BD2
:1056180007D0FB7A83F00103DBB2002B01D0032310
:10562800FB753B79002B07D03B7B83F00103DBB292
:10563800002B01D00423FB753B78002B07D03B7A65
:1056480083F00103DBB2002B01D00523FB75FB7D42
:10565800052B28D8FB7D013BBB75BB7D03F00103FF
:10566800BB75FB7D013B5B107B757B7D03F0010304
:105678007B75FB7D013B9B103B753B7D03F0010374
:105688003B75BB7D1A460221094811F0C3F87B7DA2
:105698001A460821064811F0BDF83B7D1A4610212C
:1056A800034811F0B7F800BF1C37BD4690BD00BFD6
:1056B8000014024280B582B000AF03460A46FB716F
:1056C8001346BB71FB791A464FF400610E4811F07E
:1056D800A1F80A200BF032FBBB791A464FF480512F
:1056E800094811F097F80A200BF028FBBB791A46F5
:1056F8004FF40041044811F08DF80A200BF01EFB0E
:1057080000BF0837BD4680BD00040242000000000B
:1057180080B58AB000AF0346FB8001224FF4805168
:105728001F4811F077F80A200BF008FBFB88184691
:10573800FAF7E8FE4FF000021A4BFBF787F802462B
:105748000B46C7E9082397ED081B9FED110B24F0C2
:1057580017F887ED060B10A3D3E90023D7E9060154
:10576800FAF792FD02460B46C7E9042397ED040BAE
:1057780023F09EFF0346FB73FB7B19460020FCF7D2
:10578800B9F8034618462837BD4680BDAFF30080F8
:105798000000000080C014410000000000A1E340A8
:1057A8000004024200408F4080B582B000AF03463B
:1057B800FB71FB791A464FF40071034811F02AF87F
:1057C80000BF0837BD4680BD0004024280B582B0E4
:1057D80000AF0023FB712E4B1B683B603B881946CA
:1057E800052023F0CFFE02462A4B11461970C2F35A
:1057F80007215970C2F307429A70264B1B78264935
:105808001846FCF71FF803461A46FB791343FB7149
:1058180005200BF093FA7B881946042023F0B2FE8A
:1058280002461C4B11461970C2F307215970C2F386
:1058380007429A70174B1B7817491846FCF702F86D
:1058480003461A46FB791343FB7105200BF076FAE1
:10585800104B1A78114B1A70104B1B7810491846C8
:10586800FCF70AF803461A46FB791343FB71032237
:105878000A49084824F044F80346002B03D0FB7972
:1058880043F00103FB71FB7918460837BD4680BD1C
:10589800ACB10208584D0020594D00205C4D002045
:1058A8005D4D002080B584B000AF03460A46FB80FA
:1058B8001346BB800023BB810023FB73F8880223B7
:1058C800022240F6C41123F08BFE0346BB81BB893C
:1058D8001946082023F056FE0246394B1146197026
:1058E800C2F307215970C2F307429A70344B1B78F0
:1058F80034491846FBF7A6FF03461A46FB7B1343B9
:10590800FB732F4B1A78304B1A702F4B1B782F498B
:105918001846FBF7B1FF03461A46FB7B1343FB739C
:1059280003222949264823F0EBFF0346002B03D026
:10593800FB7B43F00103FB73B8880223022240F685
:10594800C41123F04DFE0346BB81BB8919460920CB
:1059580023F018FE02461A4B11461970C2F30721AC
:105968005970C2F307429A70154B1B7815491846AF
:10597800FBF768FF03461A46FB7B1343FB73104B88
:105988001A78114B1A70104B1B7810491846FBF700
:1059980073FF03461A46FB7B1343FB7303220A4932
:1059A800074823F0ADFF0346002B03D0FB7B43F0F1
:1059B8000103FB73FB7B18461037BD4680BD00BF53
:1059C800584D0020594D00205C4D00205D4D0020B1
:1059D80080B485B000AFF860B9601346FB80FB68FF
:1059E8004FF47A7202FB03F3174AD362BB684FF491
:1059F8007A7202FB03F3144A1363134AFB88A2F872
:105A08004C30114B0022A3F84E200F4B00225A6352
:105A18000D4B5A6B0C4BDB6A13440B4A93630A4BCE
:105A2800DA68094B1B6BD31A074AD363064BDB684A
:105A3800054A1364044B9B68034A536400BF143738
:105A4800BD465DF8047B70474C490020000000000B
:105A5800B0B590B000AF87ED000B4FF00002844B5B
:105A6800D7E90001FAF7F2FE02460B46C7E90A2316
:105A78004FF000024FF00003D7E90A01FBF738F8AE
:105A88000346002B04D04FF000024FF00003CCE097
:105A98006BA3D3E90023D7E90A01FAF7ADFD024663
:105AA8000B461046194668A3D3E90023FAF7A4FD6C
:105AB80002460B46C7E90E2300237B6397E064A3E5
:105AC800D3E90023D7E90E01FAF796FD02460B4603
