:020000040800F2
:1000000000000C2051FF000819F5000821F5000838
:1000100029F5000831F5000839F50008A1FF0008AE
:1000200000000000000000000000000041F5000892
:100030004FF50008000000005DF500086BF50008B2
:10004000A1FF0008A1FF000879F50008A1FF000842
:10005000A1FF0008A1FF0008A1FF0008A1FF000800
:10006000A1FF0008A1FF0008A1FF0008A1FF0008F0
:10007000A1FF0008A1FF00088DF50008A1FF0008FE
:10008000A1FF0008A1FF0008A1FF0008A1FF0008D0
:10009000A1FF0008A1FF0008A1FF0008A1FF0008C0
:1000A000A1FF0008A1FF0008A1FF00089DF50008BE
:1000B000A1FF0008B1F50008C5F50008A1FF000880
:1000C000A1FF0008A1FF0008A1FF0008A1FF000890
:1000D000A1FF0008D9F50008A1FF0008A1FF000852
:1000E000A1FF0008A1FF0008A1FF0008A1FF000870
:1000F000A1FF0008A1FF0008EDF5000801F60008C7
:10010000A1FF000815F60008A1FF0008A1FF0008E4
:10011000A1FF0008A1FF0008A1FF0008A1FF00083F
:10012000A1FF000829F600083DF6000851F6000876
:10013000A1FF000865F60008A1FF0008A1FF000864
:10014000A1FF0008A1FF0008A1FF000879F6000840
:100150008DF60008A1F60008A1FF0008A1FF000825
:10016000A1FF0008A1FF0008A1FF0008A1FF0008EF
:10017000A1FF0008A1FF0008A1FF0008A1FF0008DF
:10018000A1FF0008A1FF0008A1FF0008A1FF0008CF
:10019000A1FF0008A1FF0008A1FF0008A1FF0008BF
:1001A000B5F60008C9F60008A1FF0008A1FF000885
:1001B000A1FF0008A1FF0008DDF60008A1FF00086C
:1001C000F1F6000805F7000819F70008A1FF00087C
:1001D000A1FF0008A1FF0008A1FF0008A1FF00087F
:1001E000A1FF0008A1FF0008A1FF00082DF70008EB
:1001F000A1FF0008A1FF000839F70008A1FF0008CF
:10020000A1FF00084DF70008A1FF0008A1FF0008AA
:10021000A1FF0008A1FF0008A1FF0008A1FF00083E
:10022000A1FF0008A1FF0008A1FF0008A1FF00082E
:08023000A1FF0008A1FF000876
:1002380010B5054C237833B9044B13B10448AFF318
:1002480000800123237010BD201900200000000049
:10025800589E020808B5034B1BB103490348AFF386
:10026800008008BD0000000024190020589E0208E4
:10027800034613F8012B002AFBD1181A01387047DE
:1002880081F0004102E000BF83F0004330B54FEA3F
:1002980041044FEA430594EA050F08BF90EA020FAC
:1002A8001FBF54EA000C55EA020C7FEA645C7FEA3F
:1002B800655C00F0E2804FEA5454D4EB5555B8BF62
:1002C8006D420CDD2C4480EA020281EA030382EAD3
:1002D800000083EA010180EA020281EA0303362D65
:1002E80088BF30BD11F0004F4FEA01314FF4801C38
:1002F8004CEA113102D0404261EB410113F0004F4A
:100308004FEA03334CEA133302D0524263EB430300
:1003180094EA050F00F0A780A4F10104D5F1200E9E
:100328000DDB02FA0EFC22FA05F2801841F10001F9
:1003380003FA0EF2801843FA05F359410EE0A5F1CD
:1003480020050EF1200E012A03FA0EFC28BF4CF0FE
:10035800020C43FA05F3C01851EBE37101F00045B4
:1003680007D54FF0000EDCF1000C7EEB00006EEBC1
:100378000101B1F5801F1BD3B1F5001F0CD349084B
:100388005FEA30004FEA3C0C04F101044FEA4452A2
:1003980012F5800F80F09A80BCF1004F08BF5FEA29
:1003A800500C50F1000041EB045141EA050130BD09
:1003B8005FEA4C0C404141EB0101013C28BFB1F51B
:1003C800801FE9D291F0000F04BF01460020B1FA66
:1003D80081F308BF2033A3F10B03B3F120020CDA39
:1003E8000C3208DD02F1140CC2F10C0201FA0CF017
:1003F80021FA02F10CE002F11402D8BFC2F1200C7C
:1004080001FA02F120FA0CFCDCBF41EA0C01904031
:10041800E41AA2BF01EB0451294330BD6FEA04047A
:100428001F3C1CDA0C340EDC04F11404C4F1200265
:1004380020FA04F001FA02F340EA030021FA04F377
:1004480045EA030130BDC4F10C04C4F1200220FACE
:1004580002F001FA04F340EA0300294630BD21FA0C
:1004680004F0294630BD94F0000F83F4801306BFD2
:1004780081F480110134013D4EE77FEA645C18BFC6
:100488007FEA655C29D094EA050F08BF90EA020F5D
:1004980005D054EA000C04BF1946104630BD91EA55
:1004A800030F1EBF0021002030BD5FEA545C05D158
:1004B8004000494128BF41F0004130BD14F5800497
:1004C8003CBF01F5801130BD01F0004545F0FE410B
:1004D80041F470014FF0000030BD7FEA645C1ABF40
:1004E800194610467FEA655C1CBF0B46024650EA77
:1004F800013406BF52EA033591EA030F41F40021A3
:1005080030BD00BF90F0000F04BF0021704730B528
:100518004FF4806404F132044FF000054FF00001FD
:1005280050E700BF90F0000F04BF0021704730B5BE
:100538004FF4806404F1320410F0004548BF404293
:100548004FF000013EE700BF42004FEAE2014FEAE8
:1005580031014FEA02701FBF12F07F4393F07F4FC3
:1005680081F06051704732F07F4208BF704793F0C6
:100578007F4F04BF41F40021704730B54FF46074D9
:1005880001F0004521F000411CE700BF50EA0102DC
:1005980008BF704730B54FF000050AE050EA010285
:1005A80008BF704730B511F0004502D5404261EBF5
:1005B80041014FF4806404F132045FEA915C3FF436
:1005C800D8AE4FF003025FEADC0C18BF03325FEAD3
:1005D800DC0C18BF033202EBDC02C2F1200300FA84
:1005E80003FC20FA02F001FA03FE40EA0E0021FAA9
:1005F80002F11444BDE600BF70B54FF0FF0C4CF497
:10060800E06C1CEA11541DBF1CEA135594EA0C0F48
:1006180095EA0C0F00F0DEF82C4481EA030621EA83
:100628004C5123EA4C5350EA013518BF52EA0335BE
:1006380041F4801143F4801338D0A0FB02CE4FF070
:100648000005E1FB02E506F00042E0FB03E54FF0A0
:100658000006E1FB03569CF0000F18BF4EF0010E98
:10066800A4F1FF04B6F5007F64F5407404D25FEA94
:100678004E0E6D4146EB060642EAC62141EA555147
:100688004FEAC52040EA5E504FEACE2EB4F1FD0C89
:1006980088BFBCF5E06F1ED8BEF1004F08BF5FEA07
:1006A800500E50F1000041EB045170BD06F00046B9
:1006B80046EA010140EA020081EA0301B4EB5C0466
:1006C800C2BFD4EB0C0541EA045170BD41F480115E
:1006D8004FF0000E013C00F3AB8014F1360FDEBF83
:1006E800002001F0004170BDC4F10004203C35DA5F
:1006F8000C341BDC04F11404C4F1200500FA05F3E2
:1007080020FA04F001FA05F240EA020001F0004282
:1007180021F0004110EBD37021FA04F642EB0601F8
:100728005EEA430E08BF20EAD37070BDC4F10C0422
:10073800C4F1200500FA04F320FA05F001FA04F2E6
:1007480040EA020001F0004110EBD37041F10001D2
:100758005EEA430E08BF20EAD37070BDC4F12005DD
:1007680000FA05F24EEA020E20FA04F301FA05F245
:1007780043EA020321FA04F001F0004121FA04F2ED
:1007880020EA020000EBD3705EEA430E08BF20EABD
:10079800D37070BD94F0000F0FD101F000464000F7
:1007A80041EB010111F4801F08BF013CF7D041EA79
:1007B800060195F0000F18BF704703F0004652007D
:1007C80043EB030313F4801F08BF013DF7D043EA4E
:1007D8000603704794EA0C0F0CEA135518BF95EA04
:1007E8000C0F0CD050EA410618BF52EA4306D1D18B
:1007F80081EA030101F000414FF0000070BD50EAAA
:10080800410606BF1046194652EA430619D094EA33
:100818000C0F02D150EA013613D195EA0C0F05D11D
:1008280052EA03361CBF104619460AD181EA030171
:1008380001F0004141F0FE4141F470014FF0000029
:1008480070BD41F0FE4141F4780170BD70B54FF0C4
:10085800FF0C4CF4E06C1CEA11541DBF1CEA135544
:1008680094EA0C0F95EA0C0F00F0A7F8A4EB050426
:1008780081EA030E52EA03354FEA013100F088801D
:100888004FEA03334FF0805545EA131343EA1263E6
:100898004FEA022245EA111545EA10654FEA00269B
:1008A8000EF000419D4208BF964244F1FD0404F554
:1008B800407402D25B084FEA3202B61A65EB0305B0
:1008C8005B084FEA32024FF480104FF4002CB6EB6D
:1008D800020E75EB030E22BFB61A754640EA0C00ED
:1008E8005B084FEA3202B6EB020E75EB030E22BF2D
:1008F800B61A754640EA5C005B084FEA3202B6EB6E
:10090800020E75EB030E22BFB61A754640EA9C002C
:100918005B084FEA3202B6EB020E75EB030E22BFFC
:10092800B61A754640EADC0055EA060E18D04FEABA
:10093800051545EA16754FEA06164FEAC30343EA5A
:1009480052734FEAC2025FEA1C1CC0D111F4801F27
:100958000BD141EA00014FF000004FF0004CB6E720
:1009680011F4801F04BF01430020B4F1FD0C88BFBF
:10097800BCF5E06F3FF6AFAEB5EB030C04BFB6EBCA
:10098800020C5FEA500C50F1000041EB045170BDBD
:100998000EF0004E4EEA113114EB5C04C2BFD4EBEA
:1009A8000C0541EA045170BD41F480114FF0000E6E
:1009B800013C90E645EA060E8DE60CEA135594EAEA
:1009C8000C0F08BF95EA0C0F3FF43BAF94EA0C0FED
:1009D8000AD150EA01347FF434AF95EA0C0F7FF462
:1009E80025AF104619462CE795EA0C0F06D152EAB6
:1009F80003353FF4FDAE1046194622E750EA41069A
:100A080018BF52EA43067FF4C5AE50EA41047FF4AA
:100A18000DAF52EA43057FF4EBAE12E74FF0FF3C0F
:100A280006E000BF4FF0010C02E000BF4FF0010CE0
:100A38004DF804CD4FEA410C7FEA6C5C4FEA430C59
:100A480018BF7FEA6C5C1BD001B050EA410C0CBFA8
:100A580052EA430C91EA030F02BF90EA020F00200A
:100A6800704710F1000F91EA030F58BF994208BF71
:100A780090422CBFD8176FEAE37040F0010070472E
:100A88004FEA410C7FEA6C5C02D150EA013C07D185
:100A98004FEA430C7FEA6C5CD6D152EA033CD3D0D0
:100AA8005DF8040B704700BF8446104662468C46CA
:100AB8001946634600E000BF01B5FFF7B7FF0028FD
:100AC80048BF10F1000F01BD4DF808EDFFF7F4FF26
:100AD8000CBF012000205DF808FB00BF4DF808EDB1
:100AE800FFF7EAFF34BF012000205DF808FB00BFD4
:100AF8004DF808EDFFF7E0FF94BF012000205DF8F6
:100B080008FB00BF4DF808EDFFF7CEFF94BF0120AA
:100B180000205DF808FB00BF4DF808EDFFF7C4FFA3
:100B280034BF012000205DF808FB00BF4FEA4102F6
:100B380012F5001215D211D56FF47873B3EB625227
:100B480012D94FEAC12343F0004343EA505311F04E
:100B5800004F23FA02F018BF404270474FF00000E0
:100B6800704750EA013005D111F0004008BF6FF01E
:100B7800004070474FF00000704700BF4A0011D294
:100B880012F5001211D20DD56FF47873B3EB6252DF
:100B98000ED44FEAC12343F0004343EA505323FAEB
:100BA80002F070474FF00000704750EA013002D160
:100BB8004FF0FF3070474FF00000704753B94AB903
:100BC800002908BF00281CBF4FF0FF314FF0FF304D
:100BD80000F07EB9ADF1080C6DE904CE00F006F81E
:100BE800DDF804E0DDE9022304B070472DE9F04F99
:100BF800099D0C46002B4DD18A420F4684469646E5
:100C0800B2FA82F360D94BB102FA03FEC3F12002B3
:100C18009F4000FA03FC20FA02F217434FEA1E46EF
:100C28001FFA8EF44FEA1C42B7FBF6F106FB117768
:100C380001FB04F042EA0742904208D91EEB020287
:100C480001F1FF3702D2904200F22D813946121A83
:100C58001FFA8CFCB2FBF6F006FB102200FB04F432
:100C68004CEA024C644508D91EEB0C0C00F1FF322B
:100C780002D2644500F21A81104640EA0140ACEB0A
:100C8800040C002125B12CFA03F30022C5E9003237
:100C9800BDE8F08F8B4205D90DB1C5E900010021EF
:100CA8000846F5E7B3FA83F100294DD1A342C0F015
:100CB800F280904280F0EF80064623460846002DD9
:100CC800E6D0C5E90063E3E7002B40F0A2808A1A6A
:100CD8004FEA1E471FFA8EF60121B2FBF7F407FB15
:100CE80014204FEA1C4242EA004206FB04F09042FC
:100CF8000FD91EEB020204F1FF382CBF4FF0010997
:100D08004FF00009904203D9B9F1000F00F0C880F4
:100D18004446121A1FFA8CFCB2FBF7F007FB1022AC
:100D280000FB06F64CEA024C664508D91EEB0C0C93
:100D380000F1FF3202D2664500F2BB801046ACEBF0
:100D4800060C40EA04409DE7C1F120068B4004FAF6
:100D580001FE22FA06F720FA06FCF4408A401F43F7
:100D68004EEA0C0300FA01FE4FEA17484FEA13490E
:100D78001FFA87FCB4FBF8F008FB104449EA044466
:100D880000FB0CF9A1450ED93C1900F1FF3A2CBF24
:100D98004FF0010B4FF0000BA14503D9BBF1000F39
:100DA80000F093805046A4EB09041FFA83F9B4FBC2
:100DB800F8F308FB134403FB0CFC49EA0444A4457C
:100DC80006D93C1903F1FF3801D2A4457AD8434625
:100DD80043EA0040A4EB0C04A0FB02984445CC462F
:100DE800434602D306D1CE4504D20138B9EB020CF2
:100DF80068EB07035DB1BEEB0C0264EB030404FA75
:100E080006F622FA01F3CC401E43C5E9006400212E
:100E18003EE702FA03FEC3F1200104FA03F200FAE6
:100E280003FCCC404FEA1E4720FA01F11FFA8EF668
:100E3800B4FBF7F00A4307FB1044110C41EA0441E4
:100E480000FB06F48C420ED91EEB010100F1FF38BD
:100E58002CBF4FF001094FF000098C4202D9B9F1BB
:100E6800000F2CD04046091B92B2B1FBF7F407FBE8
:100E7800141142EA014204FB06F1914207D91EEB24
:100E8800020204F1FF3801D2914215D84446521AA1
:100E980044EA004121E7861A64EB030301200EE7C8
:100EA800023C724435E702397244D0E6F444023811
:100EB800E3E6F444023842E7023C7244E7E70238CA
:100EC8007144D0E7023B3C4482E702383C446AE77D
:100ED800704700BF80B586B000AF78600B467B8056
:100EE8001AF0C2FC78617B681B689B6A01333B611E
:100EF8007A693B69B2FBF3F27B88B2FBF3F3FB60E0
:100F08007B681B68FA68013ADA62FB685A1E7B68DC
:100F1800DA6000BF1837BD4680BD80B582B000AF2B
:100F28007860786810F0BAFA78680FF0EBFF7B68A1
:100F380000229A6200BF0837BD4680BDB0B58CB0AC
:100F480000AFF860B9607A6007F110032022002131
:100F5800184627F0B3FE7B683B6104233B620023FD
:100F68007B62BB68144A93420BD10023BB614FF6E6
:100F7800FF73FB61104B9B6A104A52F823307B6168
:100F880007E0BB680E4A934203D101237B6100232B
:100F9800BB61BB689B6A5A1CBB689A62FB681D46AA
:100FA80007F110040FCC0FC594E80F0085E80F0077
:100FB800F8683037BD46B0BD10760020000000202C
:100FC8009C76002080B586B000AFF860B960134603
:100FD800FB71F8680FF0CCFC0023FB750AE0FB7D81
:100FE8005B01BA6813441946F86810F03DFDFB7DB3
:100FF8000133FB75FA7DFB799A42F0D300BF00BF3D
:101008001837BD4680BD000080B584B000AFF860D9
:10101800B96011461A460B46FB801346BB802B4A23
:10102800FB681360294ABB689360284AFB88938150
:10103800264ABB88D381254B01221A74234B0022F0
:101048005A74224B1868214B9968204B9B891A4681
:10105800FB689B6A02FB03F31A4610F015F91B4B59
:101068001B681B4A934203D1184B1A4A5A6007E07F
:10107800164B1B68184A934202D1144B174A5A6000
:10108800124B5B68114AD28911461846FFF722FFB6
:101098000E4B5B6818461FF00FFE00BF0B4B5B68DA
:1010A800184621F0DBF80346022BF7D000BF074BA8
:1010B8005B7C83F00103DBB2002BF8D1034B0022E9
:1010C8005A7400BF1037BD4680BD00BFBC57002012
:1010D800107600204C7C00209C760020987C002014
:1010E80080B582B000AF0346FB71114AFB791374D7
:1010F8000F4B00225A740E4B18680D4B99680C4B15
:101108009B891A460A4B1B7C02FB03F31A46084BC1
:101118001B689B6A02FB03F31A4610F0B5F8044BF0
:101128005B6818461FF0C8FD00BF0837BD4680BD84
:10113800BC57002080B485B000AF0346FB71002384
:10114800FB731DE0154B9A68FB7BF97901FB03F3F0
:101158009B0013441B68114A926903FB02F2104B6F
:10116800A3FB0213D21A52081344D90A0B4B5A692B
:10117800FB7B5B0013448AB21A80FB7B0133FB7351
:10118800FB7B9AB2054B9B899A42DBD300BF00BF19
:101198001437BD465DF8047B704700BFBC5700207C
:1011A8000101100080B400AF034B5B7C1846BD46BC
:1011B8005DF8047B704700BFBC57002080B500AFC6
:1011C8004FF6FF724FF001110A4811F083FD0346F4
:1011D800002B01D00DF07DFE4FF6FF724FF001118C
:1011E800054811F077FD0346002B01D00DF071FE84
:1011F80000BF80BD107600209C76002080B483B0AC
:1012080000AF78607B68302B18D07B68302B18D8FB
:101218007B68202B0FD07B68202B12D87B68002B93
:1012280003D07B68102B03D00BE040F2DC5309E0BD
:101238004FF4E16306E04FF4006303E040F6C413A3
:1012480000E0002318460C37BD465DF8047B704764
:1012580080B58EB000AFB9607A601A460346FB735A
:101268001346BB81FB7B254A52F823303B63386B1E
:10127800FFF753FE07F11003BA68396B1846FFF7FA
:101288005DFE07F1100301221946386BFFF79AFE3D
:10129800B7F84030BA891A49386BFFF7B5FE002312
:1012A80087F837301AE097F83730154A52F8233064
:1012B8007A6C03FB02F2134BA3FB0213D21A5208F7
:1012C8001344D90A97F837305B007A6813448AB216
:1012D8001A8097F83730013387F8373097F8373066
:1012E8009BB2BA899A42DED8074A7B685361064A9C
:1012F8007B6C936100BF3837BD4680BD400000203D
:101308003C19002001011000BC570020B0B5A2B064
:1013180000AFB9627A623B62034687F82F3097F8CC
:101328002F30534A52F82330C7F88030D7F880005E
:10133800FFF7F3FD3B46BA6AD7F880101846FFF767
:10134800FDFD07F134043D460FCD0FC495E80F00AD
:1013580084E80F003B467A6AD7F880101846FFF7F2
:10136800EDFD07F154043D460FCD0FC495E80F007D
:1013780084E80F0007F1340302221946D7F88000E9
:10138800FFF720FEB7F898305B009AB2B7F89C30A8
:101398003849D7F88000FFF737FE0023A7F88630D2
:1013A80054E0B7F886305B00324A52F82330FB67C6
:1013B800B7F886305B0001332E4A52F82330BB67FA
:1013C800FB6FD7F8A02003FB02F2B7F886102A4B70
:1013D800A3FB0203D21A52081344DB0A274A42F835
:1013E8002130BB6FD7F8A02003FB02F2B7F88610B4
:1013F800214BA3FB0203D21A52081344DB0A204AEA
:1014080042F82130FA6FBB6F9A4203D9FA6FBB6F6B
:10141800D31A02E0BA6FFB6FD31A7B677B6FD7F8DA
:10142800A02003FB02F2144BA3FB0213D21A5208AA
:101438001344D90AB7F886305B003A6A13448AB273
:101448001A80B7F886300133A7F88630B7F88620B7
:10145800B7F898309A42A4D30A4A3B6A5361094ABA
:10146800D7F8A030936100BF8837BD46B0BD00BF34
:10147800400000203C190020010110007C380020A9
:101488001C480020BC57002080B582B000AF7860AF
:101498000A4B01225A747B68094A934203D10948CE
:1014A8001FF0E3FB06E07B68074A934202D1074836
:1014B8001FF0DBFB00BF0837BD4680BDBC570020CE
:1014C800107600204C7C00209C760020987C002020
:1014D80080B582B000AF7860074A7B68136001224C
:1014E8004FF48071054814F077FB01200EF008FED8
:1014F80000BF0837BD4680BDDC570020000002420F
:1015080080B500AF00E000BF00F09EFB0346002B53
:10151800F9D100224FF48071024814F05DFB00BF3E
:1015280080BD00BF0000024280B584B000AFF86003
:10153800B96011461A460B46FB8013467B714FF47F
:101548008071114814F030FB0346002B18D00F4B64
:1015580000221A70FB881A46B968F86800F088FA01
:101568007B79002B0DD000E000BF084B1B7883F07F
:101578000103DBB2002BF7D101200EF0C1FD00E022
:1015880000BF1037BD4680BD00000242D85700207A
:1015980080B584B000AFF860B9601346FB80FB8863
:1015A8001A46B968F86800F09DFA00BF1037BD46C2
:1015B80080BD80B582B000AF7860396039687868DE
:1015C80000F0C8FA00BF0837BD4680BD80B582B0BC
:1015D80000AF78600B467B80064B1B687A88114603
:1015E80078689847044B01221A7000BF0837BD4637
:1015F80080BD00BFDC570020D857002080B483B0DE
:1016080000AF7860044A7B68136000BF0C37BD46A2
:101618005DF8047B704700BFE057002080B400AF3E
:10162800064B1B68002B04DB044B1B680133034A81
:10163800136000BFBD465DF8047B7047480000207A
:1016480080B584B000AF0346FB71FB79002B0BD04B
:10165800134B00221A60134817F012FF0346002BA1
:101668001AD00DF036FC17E00E4817F052FF03466B
:10167800002B01D00DF02DFC094B1B68FB73084BA8
:101688004FF0FF321A60084B1B68002B04D0064B42
:101698001B68FA7B1046984700BF1037BD4680BDCF
:1016A800480000208C790020E057002080B582B0E7
:1016B80000AF0346FB80FB88082B02D10120FFF70F
:1016C800BFFF00BF0837BD4680BD80B582B000AF00
:1016D8000346FB80FB88082B02D10020FFF7B0FFF0
:1016E80000BF0837BD4680BD80B582B000AF034655
:1016F800FB71FB791A464FF48071034814F06CFAB9
:1017080000BF0837BD4680BD0008024280B582B0E0
:1017180000AF03460A46FB711346BB71FB791A46B4
:101728004FF48061064814F057FABB791A464FF413
:101738000071034814F050FA00BF0837BD4680BD59
:101748000008024280B582B000AF0346FB71FB7906
:101758001A468021034814F03FFA00BF0837BD46F7
:1017680080BD00BF0010024280B582B000AF786033
:1017780039604FF4007200211F4827F09FFA4FF498
:10178800007200211D4827F099FA4FF48072002159
:101798001B4827F093FA1B4A7B6813601A4A3B6878
:1017A800136001221021194814F016FA0122202191
:1017B800174814F011FA174B1B7883F00103DBB2BA
:1017C800002B0BD014480DF0C9FD14480CF098FFFD
:1017D80013480EF025FB0F4B01221A70FF22114906
:1017E8000F4823F0F0FE0346002B01D00DF071FBEB
:1017F80000BF0837BD4680BDE4570020E45A0020EA
:10180800E4590020E85E0020EC5E0020000002425F
:10181800001802424C000020D87A0020807800206E
:10182800E47C0020E45B002080B500AF17481EF080
:1018380041FB0346002B01D00DF04BFB144821F06F
:10184800AFFC0346002B01D00DF043FB114B1B7876
:10185800002B0BD00D480DF0F3FD0F480DF02AF8C2
:101868000B480EF04DFB0B4B00221A700022102182
:101878000A4814F0B1F900222021094814F0ACF903
:10188800084B00221A7000BF80BD00BFD87A002024
:10189800E47C00204C0000208078002000000242F8
:1018A80000180242E45C002080B582B000AF786086
:1018B8000B46FB70FB781A467968054827F03CFA16
:1018C800034AFB7882F8FF3000BF0837BD4680BD69
:1018D800E459002080B586B004AF03463960FB7137
:1018E800FB799AB205230293022301933B68009384
:1018F80001239021034815F0BBF803461846083722
:10190800BD4680BD8078002080B586B004AF034610
:101918003960FB71FB799AB2052302930223019384
:101928003B68009301239021034815F0B5F903465D
:1019380018460837BD4680BD8078002080B584B041
:1019480002AF03463960FB710B4AFB7913703B68A1
:101958001B889AB2094B1A80074B1B781A46022338
:101968000193064B009301239021054815F0AEFA28
:1019780000BF0837BD4680BDF05E0020F45E002041
:101988008078002080B586B004AF03463960FB71CB
:10199800FB799AB205230293022301933B680093D3
:1019A80001239021034815F063F8034618460837C9
:1019B800BD4680BD8078002080B586B004AF034660
:1019C8003960FB71FB799AB20523029302230193D4
:1019D8003B68009301239021034815F05DF9034605
:1019E80018460837BD4680BD8078002080B584B091
:1019F80002AF03463960FB710B4AFB7913703B68F1
:101A08001B889AB2094B1A80074B1B781A46022387
:101A18000193064B009301239021054815F056FACF
:101A280000BF0837BD4680BDF05E0020F45E002090
:101A38008078002080B588B004AF03460A46FB8052
:101A480013467B717B79FB73FA8805230293012384
:101A5800019307F10F0300930123A021034815F018
:101A680007F8034618461037BD4680BD8078002029
:101A780080B584B000AFF860B9601346FB80FB887E
:101A8800BA68F968104826F0D5FE03461A460F4B87
:101A98001A800E4B1B88043B9AB20D4B1A800D4AD4
:101AA800FB6813600C4B06221A70002210210B48A9
:101AB80014F092F80122084909481EF029F900BFDC
:101AC8001037BD4680BD00BFE85C0020DC5E00200A
:101AD800E45E0020E05E0020E45C0020000002429A
:101AE800D87A002080B586B000AFF860B960134698
:101AF800FB8000237B6107F11403F968184626F080
:101B0800CFFE00221021114814F066F807F11401E5
:101B1800052304220E481DF04DFC0346002B01D07E
:101B28000DF0D7F9FA880523B96809481DF056FE63
:101B38000346002B01D00DF0CCF9012210210348F7
:101B480014F04AF800BF1837BD4680BD00000242B5
:101B5800D87A002080B588B000AF78603960364AFE
:101B680007F1100392E8030018600433197000238A
:101B7800FB7307F10F0207F110000123796826F0C3
:101B880059FE0623BB73002210212C4814F024F8B8
:101B980007F10E010523012229481DF00BFC03461D
:101BA800002B01D00DF095F901221021234814F0E3
:101BB80013F819F059FE0346224AA2FB03231B0D12
:101BC800FB6102E0FB69013BFB61FB69002BF9D17A
:101BD80000221021194813F0FFFF07F11001052317
:101BE800052217481DF0E6FB0346002B01D00DF037
:101BF80070F97B680133BB610EE007F10F01052323
:101C080001220F481DF0D6FB0346002B01D00DF032
:101C180060F9BB690133BB617A683B681344BA69F0
:101C28009A42EAD301221021044813F0D5FF00BFDD
:101C38002037BD4680BD00BF709E020800000242EA
:101C4800D87A002083DE1B4380B483B000AF002322
:101C5800FB71064B1B78002B01D00123FB71FB792C
:101C680018460C37BD465DF8047B7047E45C0020DD
:101C780080B582B000AF78600B467B8000222021BF
:101C88000B4813F0A9FF7A880A23796809481DF0E0
:101C980091FB0346002B01D00DF01BF901222021F6
:101CA800034813F099FF00BF0837BD4680BD00BF49
:101CB80000180242D87A002080B584B000AF78605E
:101CC8000023FB7300222021134813F085FF07F13E
:101CD8000F010523012211481DF080FD0346002B4A
:101CE80001D00DF0F6F8FB7B002B0BD0FB7B1A46DE
:101CF8000A23796809481DF071FD0346002B01D0BD
:101D08000DF0E7F801222021034813F065FFFB7B63
:101D180018461037BD4680BD00180242D87A002008
:101D280080B582B000AF0346FB71174B1B78FA7978
:101D38009A4225D000224FF48061144813F04CFFDA
:101D480000224FF40071114813F046FF0A200EF0EC
:101D5800D7F9FB791A464FF480610C4813F03CFF21
:101D6800FB7983F00103DBB21A464FF40071074890
:101D780013F032FF64200EF0C3F9034AFB791370A5
:101D880000BF0837BD4680BDF65E0020001802423D
:101D980080B586B004AF3A601A460346FB710B461D
:101DA800BB711346BB80FB7999B2BB799AB20A23FF
:101DB8000293BB8801933B6800930123034814F006
:101DC80057FE034618460837BD4680BDD478002024
:101DD80080B586B004AF3A601A460346FB710B46DD
:101DE800BB711346BB80FB7999B2BB799AB20A23BF
:101DF8000293BB8801933B6800930123034814F0C6
:101E08004BFF034618460837BD4680BDD4780020EE
:101E180080B582B000AF0023FB7100E000BFFFF780
:101E280013FF0346002BF9D11021464813F0BCFEDE
:101E38000346012B0AD101200EF062F94248FFF750
:101E48003BFF0346DAB2414B83F8FF213F4B93F83F
:101E5800FF31002B0ED03E4B1B683C4A3D493A48A7
:101E6800984703461A46394B83F8FF200123FB7134
:101E780000E000BFFFF7E8FE0346002BF9D14FF45E
:101E88008051304813F090FE0346012B29D11021D0
:101E98002C4813F089FE0346002B22D12B4B93F8D4
:101EA800FF30002B0BD0294B93F8FF3019462748F9
:101EB800FFF7DEFE254B002283F8FF2011E0264BBA
:101EC80093F8FF30002B0BD0234B93F8FF301946C3
:101ED8002148FFF7CDFE204B002283F8FF2000E0C9
:101EE80000BF1E4B93F8FF31002B0CD0184B1B681A
:101EF8001A4A1B491B48984703461A46174B83F84A
:101F0800FF200123FB71154B93F8FF30002B10D0F5
:101F1800124B93F8FF301A461049134821F09CF8E9
:101F28000346002B01D00CF0D4FF0C4B002283F8A1
:101F3800FF2001200EF0E4F8FB7918460837BD466B
:101F480080BD00BF00180242E4580020E45700207A
:101F5800E85E0020E3590020E4590020E45A0020FC
:101F6800E35C0020E45B0020E47C002080B582B0C4
:101F780000AF786078681EF093F80346002B01D014
:101F88000CF0A7FF00BF0837BD4680BD80B582B002
:101F980000AF78607B680D4A934212D14FF400720B
:101FA80000210B4826F08AFE01222021094813F05F
:101FB80013FE01221021084813F00EFE074B0022E1
:101FC8001A7000BF0837BD4680BD00BFD87A002010
:101FD800E45700200018024200000242E45C00209E
:101FE80080B584B000AF78607B68284A934247D1B7
:101FF8001021274813F0D8FD0346002B41D10122B8
:102008001021234813F0E8FD224B1B78062B23D11F
:10201800204B02221A7019F027FC03461E4AA2FB25
:1020280003231B0DFB6002E0FB68013BFB60FB68C0
:10203800002BF9D100221021154813F0CDFD174BC4
:102048001B881A46164911481DF062FE0346002BEC
:1020580017D00CF03EFF14E00E4B1B78022B0BD16F
:102068000C4B00221A700F4B1B680F4A12680F495D
:1020780009881046984704E0064B00221A7000E0D1
:1020880000BF00BF1037BD4680BD00BFD87A002012
:1020980000000242E45C002083DE1B43DC5E00207B
:1020A800E85C0020EC5E0020E05E0020E45E00209A
:1020B80080B582B000AF7860786821F04BF90346AC
:1020C800002B01D00CF005FF00BF0837BD4680BDCE
:1020D80080B582B000AF78607B680A4A93420DD120
:1020E800094B002283F8FF21FF220849054823F005
:1020F8006AFA0346002B01D00CF0EBFE00BF08374C
:10210800BD4680BDE47C0020E45A0020E45B00204A
:1021180080B582B000AF78600B467B807B680B4A45
:1021280093420ED17B88DAB2094B83F8FF21FF2254
:102138000849064823F047FA0346002B01D00CF063
:10214800C8FE00BF0837BD4680BD00BFE47C002044
:10215800E45A0020E45B002080B582B000AF03465B
:10216800FB71074817F061F80346002B01D00CF00B
:10217800B0FE044AFB79137000BF0837BD4680BD26
:1021880028790020F75E002080B500AF044817F0DA
:102198004CF80346002B01D00CF09BFE00BF80BD1D
:1021A8002879002080B582B000AF7860094B1B7891
:1021B80083F00103DBB2002B07D0786817F035F8FD
:1021C8000346002B01D00CF084FE00BF0837BD4643
:1021D80080BD00BFF75E002084B0B0B582B000AF0C
:1021E80007F1180484E80F000023FB71354B002227
:1021F8001A70354B1B68354A1360354B1B68334AD8
:102208005360344B1B68314A9360304B07F1180216
:102218005A622E4A07F1380393622C4A07F1580391
:10222800D3622A4B2C4ADA61284B2C4A1A6241F2B3
:10223800883226492A4817F018FC0346002B01D09B
:102248000CF047FE264817F024FC0346012B2ED13C
:10225800244B1D4607F1180420686168A268E368EA
:102268000FC520696169A269E3690FC51D4B03F1B8
:10227800200407F1380528686968AA68EB680FC464
:1022880028696969AA69EB690FC4164B03F1400410
:1022980007F1580528686968AA68EB680FC42869B7
:1022A8006969AA69EB690FC40123FB7101E0002386
:1022B800FB71FB7918460837BD46BDE8B04004B04D
:1022C800704700BF585F002030A30208500000206C
:1022D800A8A20208CCA2020834A1020854A102084C
:1022E8007C7A0020F85E002080B5B0B002AF78603C
:1022F8007B68002B00F0928007F12C0384220021D8
:10230800184626F0DBFC07F10803242200211846B2
:1023180026F0D4FC7B68BB607B68013BC7F8B4300F
:102328008023C7F8B03028E0FFF72EFFFB6A03F5DB
:102338008020D7F8B0309AB207F12C03043319463D
:10234800FFF726F900E000BF3A4813F031FD0346D5
:10235800012BF8D107F12C030433D7F8B020194624
:10236800344814F0C0FA0346002B01D00CF0B1FD3C
:10237800FA6AD7F8B0301344FB62FB6AD7F8B42086
:10238800D31AD7F8B0209A42CED3FB6A7A68D31A08
:10239800C7F8B030FB6A03F58020D7F8B0309AB29E
:1023A80007F12C0304331946FFF7F2F807F1080385
:1023B8001A1D07F12C03191D0A2300931346D7F899
:1023C800B0201C4814F0A1FA0346002B01D00CF0F1
:1023D80080FD07F10803043320221946164826F029
:1023E80043FC0346002B03D1144B00221A700CE067
:1023F80007F1080324220021184626F05FFC0F4B42
:102408001B780133DAB20D4B1A7007F1080101236A
:1024180024224FF40020FFF787F805E0074B1B78CC
:102428000133DAB2054B1A70044B1846B837BD466B
:1024380080BD00BF3C780020385F0020585F002036
:1024480080B58CB002AF786039600023BB6007F1BB
:102458000C0300221A605A609A60DA601A615A61A5
:102468009A611A4B1B884FF6FF7293420ED0174B96
:102478001B88002B07D0154B1B889B025B0803F1B8
:102488000063194604E04FF0016101E04FF001617B
:1024980007F108030A2200927A680D4814F00CFA32
:1024A8000346002B01D00CF014FD07F1080320228D
:1024B8003968184626F0D8FB0346002B01D10123C2
:1024C80000E0002318462837BD4680BDA007FA0B58
:1024D8003C78002084B0B0B590B000AF07F150044C
:1024E80084E80F00464B1B68464A1360464B1B683E
:1024F800444A5360454B1B68424A9360414B07F17D
:1025080050025A623F4A07F1700393623D4A07F14D
:102518009003D3623E4B3C461D460FCD0FC495E851
:102528000F0084E80F003A4B07F1200403F120055F
:102538000FCD0FC495E80F0084E80F00314A3B46E1
:10254800D361304A3B462033136241F288322D4929
:10255800304817F08AFA0346002B01D00CF0B9FC7A
:102568002C4817F096FA0346012B01D1FF2340E0CF
:102578003B4640221946284802F0DDFA214A3B46EC
:10258800D361204A3B462033136241F288321D4909
:10259800204817F06AFA0346002B01D00CF099FC8A
:1025A8001C4817F076FA0346012B01D1022320E0DC
:1025B8003B4640221946194802F0BDFA114A3B46EB
:1025C800D361104A3B462033136241F288320D49E9
:1025D800104817F04AFA0346002B01D00CF079FC9A
:1025E8000C4817F056FA0346012B01D1012300E0ED
:1025F800002318464037BD46BDE8B04004B07047D8
:1026080030A3020850000020A8A20208CCA20208A9
:1026180034A102087C7A0020789E0208809E020875
:1026280080B586B000AF3B1D83E807000023FB752B
:102638000023BB753B79503B052B00F28F8001A22C
:1026480052F823F065260008A7260008CD260008C2
:10265800F3260008192700083F2700087B79002B7C
:102668007ED10123FB750223BB753B7BFA7D9A4221
:1026780076D83B7BBA7D9A4272D3BB681B787B7550
:102688007B7D184600F01CF93B7B022B68D1BB68A8
:102698005B783B753B7D184600F034F960E07B7948
:1026A800002B5FD10023FB750023BB753B7BFA7DB4
:1026B8009A4257D83B7BBA7D9A4253D3012000F007
:1026C800FFF84FE07B79002B4ED10023FB750023E8
:1026D800BB753B7BFA7D9A4246D83B7BBA7D9A42D2
:1026E80042D3002000F0ECF83EE07B79002B3DD18E
:1026F8000023FB750023BB753B7BFA7D9A4235D8D6
:102708003B7BBA7D9A4231D3002000F0D9F82DE006
:102718007B79002B2CD10023FB750023BB753B7BF9
:10272800FA7D9A4224D83B7BBA7D9A4220D3144B37
:1027380001221A701CE07B79002B1BD10023FB754A
:102748000023BB753B7BFA7D9A4213D83B7BBA7D4D
:102758009A420FD30B4B01221A700BE000BF0AE01C
:1027680000BF08E000BF06E000BF04E000BF02E0D1
:1027780000BF00E000BF00BF1837BD4680BD00BFE6
:102788005B5F00205C5F002080B582B000AF03462D
:10279800FB71324BFF221A70FFF7F6FCFFF744F883
:1027A80001224FF400612E4813F016FA002240214E
:1027B8002C4813F011FA64200DF0A2FCFB79002BD1
:1027C80047D0294800F07AFA01224021254813F021
:1027D80003FA00224FF40061214813F0FDF9642048
:1027E8000DF08EFC21492248FEF7BEFF0A200DF0AD
:1027F80087FC11E0FFF7C8FC00224021194813F0BC
:10280800EBF964200DF07CFC01224021154813F0FF
:10281800E3F964200DF074FC4FF48051114813F073
:10282800C3F90346002BE5D00FE0FFF7ADFC00F03D
:102838007DF802E001200DF063FCFFF7E9FA03469A
:1028480083F00103DBB2002BF4D1044B1B78FF2B80
:10285800EBD000BF0837BD4680BD00BF8400002014
:10286800000002420018024229260008D515000877
:10287800E52C000880B586B000AF786051233B7323
:102888007B683B6129233B7507F10C0393E807003C
:1028980000F0A8FA00BF1837BD4680BD80B584B0E7
:1028A80000AF53233B710023BB6000233B733B1DE8
:1028B80093E8070000F096FA00BF1037BD4680BDC8
:1028C80080B483B000AF0346FB71074B1B78FA79DD
:1028D8009A4202D0044AFB79137000BF0C37BD46F8
:1028E8005DF8047B704700BF8400002080B400AF0F
:1028F800034B1B781846BD465DF8047B704700BF44
:102908008400002080B483B000AF0346FB71FB79DC
:10291800002B02D0044AFB79137000BF0C37BD4668
:102928005DF8047B704700BF595F002080B584B014
:1029380000AF50233B710023BB6000233B733B1D5A
:1029480093E8070000F04EFA00BF1037BD4680BD7F
:1029580080B584B000AF094B00221A7055233B7133
:102968000023BB6000233B733B1D93E8070000F086
:1029780039FA00BF1037BD4680BD00BF5C5F00203C
:1029880080B500AF0E4B1B68002B04DD0C4B1B6899
:10299800013B0B4A13600A4B1B68002B0ED10948F8
:1029A80016F0B7FD0346002B01D00CF092FA044B49
:1029B8004FF0FF321A60044B00221A7000BF80BD2E
:1029C80088000020DC7900205A5F002080B400AF26
:1029D800074B1B68002B05DD064B1B78042B01D920
:1029E800012300E000231846BD465DF8047B7047CC
:1029F800880000205A5F002080B588B000AF0346E9
:102A0800FB714FF000024FF00003C7E9042307F100
:102A1800100308221946264802F08DF8D7E9042346
:102A280010461946FEF7AAF80346FB774FF0000256
:102A38004FF00003C7E9022307F1080308221946EB
:102A48001C4802F078F8D7E9022310461946FEF729
:102A580095F80346BB77FA79FB7F9A4224D3FA7933
:102A6800BB7F9A4220D80021134800F0D9FB134BB2
:102A78001B780133DAB2114B1A70104B1B78012BFB
:102A88000BD10F4B0A221A600E4816F0F9FC0346C8
:102A9800002B09D00CF01DFA06E0084B1B78052B1B
:102AA80002D1074B0A221A6000BF2037BD4680BDFD
:102AB800889E0208909E0208989E02085A5F00208D
:102AC80088000020DC79002080B584B000AF7860F1
:102AD8000B46FB700023FB7300237B81FB78023BD2
:102AE8001A467968104826F027F9FB78023B7A687D
:102AF80013441B889BB27B81FB78023B1A460A4928
:102B08000A4810F0EFFC0346BB817B89BA899A42D8
:102B180002D10123FB7301E00023FB73FB7B184602
:102B28001037BD4680BD00BF685F002018780020C0
:102B380090B583B000AF78600B46FB70124B1B68F2
:102B4800002B1CD07B681A78104B1A707B689A7817
:102B58000E4B5A700D4B00225A607B685A780B4B0B
:102B68001A720A4B1B7A002B03D07B680333074A7F
:102B78005360054B1C68054B93E80700A04700BF4E
:102B88000C37BD4690BD00BF645F00205C6000202C
:102B9800B0B58AB000AFF8610B467A61FB76FB6985
:102BA8001A78394B1A70384BF2225A70364B002279
:102BB8005A60354B00221A72344B1B68002B1FD009
:102BC800FB691A78324B1A70314B00225A60FB6944
:102BD8005A782F4B1A722E4B1B7A002B03D0FB69A5
:102BE80002332B4A5360294B1C68274D3846284B23
:102BF8000ECBA0472C463B4693E8070084E8070025
:102C0800214B1B7A053387F827301F4B1A787B69CD
:102C18001A707B6901331C4A127A1A707B69023375
:102C2800194A52781A70184B1B7A002B0CD0164B85
:102C38005B68002B08D07B690333134A5168124A3A
:102C4800127A184626F078F897F82730023B1A4689
:102C58007969104826F070F897F82730023B1A4631
:102C68000C490D4810F03EFC03469BB2BB8497F814
:102C78002730023B7A691344BA8C1A8097F82730B8
:102C880018462837BD46B0BD5C600020605F002054
:102C980068600020685F00201878002080B483B046
:102CA80000AF7860044A7B68136000BF0C37BD46EC
:102CB8005DF8047B704700BF605F002080B483B07C
:102CC80000AF7860044A7B68136000BF0C37BD46CC
:102CD8005DF8047B704700BF645F002080B586B054
:102CE80000AFF860B9607A600023FB750023BB75FC
:102CF800FB685B787B757B7D0533DBB21946F8682A
:102D0800FFF7E2FE0346002B19D07B7D0533BB7528
:102D1800BB7D1946F868FFF70BFFBB7DFA68D11831
:102D2800BB7DC3F1FF031A46F86825F0ADFFBB6809
:102D38001A78BB7DD31ADAB2BB681A7048E07B7D7B
:102D48000433DBB21946F868FFF7BEFE0346002BD2
:102D58001CD07B7D0433BB75BB7D7A681946F86847
:102D6800FFF716FF0346FB75BB7DFA68D118BB7DDC
:102D7800C3F1FF031A46F86825F086FFBB681A7886
:102D8800BB7DD31ADAB2BB681A7021E0FB681A78E7
:102D98007B681A707B68013300221A707B680233E3
:102DA800F0221A70032279680C4825F0C5FF032227
:102DB8000A490B4810F096FB03469BB27B827B685E
:102DC80003337A8A1A800523FB75BB6800221A70C0
:102DD800FB7D18461837BD4680BD00BF685F0020E0
:102DE8001878002080B5C2B000AF07F58473A3F54A
:102DF800827383E8070007F58473A3F582731B7851
:102E08003B7507F58473A3F582731B7A7B7507F509
:102E18008473A3F582731B7A002B17D007F584738C
:102E2800A3F582735B68002B10D007F58473A3F5B4
:102E38008273596807F58473A3F582731B7A1A465F
:102E480007F114030233184625F076FF07F584735B
:102E5800A3F582731B7A9A1C07F1140319461748C5
:102E680025F06AFF07F58473A3F582731B7A023392
:102E78001A461249124810F035FB03469BB27B8272
:102E880007F58473A3F582731B7A023307F11402E2
:102E980013447A8A1A8007F58473A3F582731B7A20
:102EA8000433DAB207F1140311461846FEF7FCFCA6
:102EB80000BF07F58477BD4680BD00BF685F00206E
:102EC8001878002080B5C2B000AF07F58473A3F569
:102ED800827383E8070007F58473A3F582731B7870
:102EE8003B7507F58473A3F582731B7A7B7507F529
:102EF8008473A3F582735B78BB7507F58473A3F5B8
:102F080082731B7A002B17D007F58473A3F582739D
:102F18005B68002B10D007F58473A3F5827359689A
:102F280007F58473A3F582731B7A1A4607F1140315
:102F38000333184625F000FF07F58473A3F5827361
:102F48001B7ADA1C07F114031946174825F0F4FE1A
:102F580007F58473A3F582731B7A03331A46124963
:102F6800124810F0BFFA03469BB27B8207F58473C0
:102F7800A3F582731B7A033307F1140213447A8A88
:102F88001A8007F58473A3F582731B7A0533DAB2C6
:102F980007F1140311461846FEF786FC00BF07F533
:102FA8008477BD4680BD00BF685F00201878002088
:102FB800B0B596B000AF786007F13C03002219461F
:102FC80072481BF061FD0346002B01D00BF081FF16
:102FD80007F13803002219466C481BF04DFE0346E2
:102FE800002B01D00BF075FF97F83B3087F8303095
:102FF80097F8393087F8313097F83A3087F8323017
:1030080097F83C3087F8333097F83D3087F83430FC
:1030180097F83E3087F835303B6CDBB2DB43DBB2E8
:1030280087F836307B68002B0BD07A6807F13003BD
:10303800106818609188927999809A71544B7B65D1
:1030480007E04FF400720021524825F037FE514B3B
:103058007B65514B07F114041D460FCD0FC495E84D
:10306800070084E807004D4A07F10C0392E80300C3
:1030780018600433198002330A0C1A70002387F889
:1030880053303EE097F8533007F10C021A4407F129
:1030980014031146184625F019FE034687F85230E6
:1030A80097F8533058333B4413F8283C3C4AA2FB6A
:1030B8000323DB08DAB297F852303032D2B25833F1
:1030C8003B4403F8442C97F8533058333B4413F8E7
:1030D800282C334BA3FB0213D9080B469B000B4447
:1030E8005B00D31ADAB297F8523001333032D2B2D9
:1030F80058333B4403F8442C97F85330013387F88E
:10310800533097F85330062BBCD997F83630254AF8
:10311800A2FB03235B09DBB23033DBB287F82A302A
:1031280097F836301F4AA2FB03125209642101FBAB
:1031380002F29B1ADBB21A4AA2FB0323DB08DBB2BA
:103148003033DBB287F82B3097F83620144BA3FBCB
:103158000213D9080B469B000B445B00D31ADBB261
:103168003033DBB287F82C307B6D1D4607F1140431
:103178000FCC28606960AA60EB6007CC28616961A0
:10318800AA611B2318465837BD46B0BDA87A00204F
:103198007862002078600020A09E0208BC9E020889
:1031A800CDCCCCCC1F85EB5180B584B000AF786016
:1031B8000B467B807B68FB600A4B1A687B8813444C
:1031C800B3F5003F02D3074B00221A60054B18687D
:1031D8007A880023F968FEF7A7F900BF1037BD46C3
:1031E80080BD00BF7460002080B500AF04220B4989
:1031F8004FF40030FEF7CCF9084B1B68B3F5003FDD
:1032080009D3064B00221A600023042203494FF415
:103218000030FEF789F900BF80BD00BF7460002050
:1032280080B584B000AF786039600020FFF7C0FE39
:103238000346FB81FB89144A1344042213491846A8
:1032480025F07AFDFB890433FB81FB890E4A134480
:1032580005227968184625F06FFDFB890533FB8147
:10326800FB89094A13440A4A1188927819809A708E
:10327800FB890333FB81FB8919460348FFF794FF59
:1032880000BF1037BD4680BD78600020C49E02088C
:1032980074A1020890B589B000AF03460A46FB80C6
:1032A8001346BB800020FFF783FE0346FB83FB8B9E
:1032B8005F4A134404225F49184625F03DFDFB8B05
:1032C8000433FB835C4B07F10C040FCB07C423804A
:1032D80002341B0C2370594A07F10803126811467F
:1032E80019800233120C1A7007F1080207F10C0357
:1032F8001146184625F0EAFC03467B77FB88504ABE
:10330800A2FB0312520B42F2107101FB02F29B1A4C
:103318009BB24C4AA2FB03239B099BB2DAB27B7F88
:103328003032D2B220333B4403F8142CFB88454A90
:10333800A2FB031292094FF47A7101FB02F29B1A65
:103348009BB2414AA2FB03235B099BB2DAB27B7FA3
:1033580002333032D2B220333B4403F8142C07F145
:1033680008035A1C07F10C031146184625F0AEFC59
:1033780003467B77BB88324AA2FB0312520B42F208
:10338800107101FB02F29B1A9BB22E4AA2FB032387
:103398009B099BB2DAB27B7F3032D2B220333B44F6
:1033A80003F8142CBB88274AA2FB031292094FF496
:1033B8007A7101FB02F29B1A9BB2234AA2FB0323F8
:1033C8005B099BB2DAB27B7F02333032D2B2203350
:1033D8003B4403F8142CFB8B154A9C1807F10C038B
:1033E8001846FCF745FF024607F10C03194620462C
:1033F80025F0A2FC07F10C031846FCF739FF034639
:103408009AB2FB8B1344FB83FB8B094A13440F4A84
:103418001188927819809A70FB8B0333FB83FB8B9E
:1034280019460348FFF7C0FE00BF2437BD4690BDCC
:1034380078600020CC9E0208D49E0208E49E020810
:103448005917B7D1D34D62101F85EB5174A10208EB
:10345800B0B588B000AF78600020FFF7A9FD03463B
:10346800BB83BB8B7D4A134404227D49184625F053
:1034780063FCBB8B0433BB837A4B07F10C040FCB83
:1034880007C4237058233B8107F1080207F10C0396
:103498001146184625F01AFC0346FB767A68724BEB
:1034A800A3FB02139B0D714901FB03F3D31A704A66
:1034B800A2FB03239B0CDAB2FB7E3032D2B220335C
:1034C8003B4403F8142C7A68694BA3FB02139B0C4A
:1034D800684901FB03F3D31A5B09674AA2FB03237C
:1034E800DB09DAB2FB7E02333032D2B220333B44FE
:1034F80003F8142C7A6853095F49A1FB0313DB090D
:103508005E4901FB03F3D31A5D4AA2FB03235B0B5D
:10351800DAB2FB7E03333032D2B220333B4403F8B5
:10352800142C7A68564BA3FB02135B0B42F2107102
:1035380001FB03F3D31A534AA2FB03239B09DAB214
:10354800FB7E04333032D2B220333B4403F8142CD0
:103558007A684C4BA3FB02139B094FF47A7101FB69
:1035680003F3D31A484AA2FB03235B09DAB2FB7EB2
:1035780006333032D2B220333B4403F8142C7A6835
:10358800414BA3FB02135B09642101FB03F3D31A2C
:103598003E4AA2FB0323DB08DAB2FB7E0733303254
:1035A800D2B220333B4403F8142C7968374BA3FB81
:1035B8000123DA0813469B0013445B00CA1AD2B2EF
:1035C800FB7E08333032D2B220333B4403F8142C4C
:1035D8000023FB7702E0FB7F0133FB77FB7F20337F
:1035E8003B4413F8143C302BF5D0FB7F20333B448D
:1035F80013F8143C2C2BEED0BB8B184A9C18FB7F7D
:1036080007F10C02D51807F10C031846FCF730FE39
:103618000246FB7FD31A1A462946204625F08CFB22
:1036280007F10C031846FCF723FE03469AB2BB8B3E
:103638001344BB83BB8B094A1344154A11889278FB
:1036480019809A70BB8B0333BB83BB8B1946034825
:10365800FFF7AAFD00BF2037BD46B0BD7860002047
:10366800E89E0208F09E02086BCA5F6B809698007D
:1036780083DE1B4340420F00C55A7C0AA086010026
:103688005917B7D1D34D62101F85EB51CDCCCCCC97
:1036980074A10208B0B594B000AFF8607A601A4619
:1036A8000B46FB7213463B810020FFF781FC034663
:1036B800A7F84E30B7F84E30B04A13440422B04948
:1036C800184625F039FBB7F84E300433A7F84E30CA
:1036D800AC4A07F1400392E80300186004331980EC
:1036E80002330A0C1A70FB681B68C7F84130B7F838
:1036F8004E30A24A134407F140010622184625F02D
:103708001BFBB7F84E300633A7F84E30FB7A022B76
:1037180040F0DA804FF000024FF00003C7E90E23B3
:103728007B681C685D6822462B46C7E90E23D7E9EB
:103738000E014FF00002944BFCF75EFF02460B4669
:10374800C7E90E23D7E90E2310461946FDF716FAE6
:103758000346A7F84A308D4A07F12C0307CA03C36A
:103768001A800233120C1A7078233B8507F128025D
:1037780007F12C031146184625F0A8FA034687F8E6
:103788004930B7F84A2053098149A1FB0313DB09E3
:10379800804901FB03F3D31A7F4AA2FB03235B0B87
:1037A800DAB297F849303032D2B250333B4403F89A
:1037B800242CB7F84A30784AA2FB0312520B42F283
:1037C800107101FB02F29B1A9BB2744AA2FB0323FD
:1037D8009B099BB2DAB297F8493001333032D2B242
:1037E80050333B4403F8242CB7F84A306B4AA2FB09
:1037F800031292094FF47A7101FB02F29B1A9BB2F1
:10380800674AA2FB03235B099BB2DAB297F84930F7
:1038180002333032D2B250333B4403F8242CB7F889
:103828004A305F4AA2FB03125209642101FB02F2EB
:103838009B1A9BB25B4AA2FB0323DB089BB2DAB25A
:1038480097F8493003333032D2B250333B4403F84F
:10385800242C97F84930043350333B442E2203F884
:10386800242CB7F84A204F4BA3FB0213D9080B4668
:103878009B000B445B00D31A9BB2DAB297F849302D
:1038880005333032D2B250333B4403F8242CB7F816
:103898004E303A4A9C1807F12C031846FCF7E8FC0E
:1038A800024607F12C031946204625F045FA07F190
:1038B8002C031846FCF7DCFC03469AB2B7F84E30E6
:1038C8001344A7F84E3041E0374B07F114041D4666
:1038D8000FCD0FC42B682370344A07F11003126808
:1038E800114619800233120C1A700023A7F84C30C5
:1038F80027E0B7F84C307A6813441B781B09DBB211
:1039080050333B4413F83C3C3B74B7F84C307A686E
:1039180013441B7803F00F0350333B4413F83C3C2B
:103928007B74B7F84E30154A13443A8A1A80B7F8B0
:103938004E300233A7F84E30B7F84C300133A7F8B1
:103948004C30B7F84C203B899A42D2D3B7F84E3066
:103958000A4A1344164A1188927819809A70B7F85F
:103968004E300333A7F84E30B7F84E3019460348A7
:10397800FFF71AFC00BF5037BD46B0BD7860002085
:10398800009F0208089F020800002440109F0208B8
:10399800C55A7C0AA08601005917B7D1D34D6210C9
:1039A8001F85EB51CDCCCCCC1C9F0208309F020860
:1039B80074A1020880B586B000AF78600023FB755B
:1039C8004FF400720021204825F078F90023FB818C
:1039D8001D4BBB60FB89BA68134404221B49184677
:1039E80025F0AAF9FB890433FB81FB89BA681344E3
:1039F80005227968184625F09FF9FB890533FB8174
:103A080000233B6116E0FB891A4611493869FDF726
:103A1800BFFDFB891A460E49B86825F025F903460B
:103A2800002B02D10123FB7508E0FEF7ADFB3B69D3
:103A380001333B613B69B3F5003FE4D3FB7D184696
:103A48001837BD4680BD00BF78600020C49E0208BC
:103A58007862002080B588B000AF786039600023B4
:103A6800FB777868FFF7A4FA03463B823D4BFB607F
:103A78003D4B1B68BB613B8A1A46F9683B4825F0F9
:103A8800F3F80346002B02D1394B1B68BB610023B6
:103A9800BB6000237B615CE0BA697B691344C3F3B4
:103AA8001003BB6001223968B868FDF771FD3B68F7
:103AB8001B785B2B48D13B8A1A463968B868FDF7F2
:103AC80067FD3B8A013B3A6813441B785D2B3BD169
:103AD8003B8A1A46F968386825F0C6F80346002B71
:103AE80032DD3B8AFB770023FB742AE0FEF74CFBB0
:103AF800FA7FBB68D018FB7F3A6813440122194645
:103B0800FDF746FDFB7F3A6813441B780A2B05D066
:103B1800FB7F3A6813441B78002B0CD13B8A1A466A
:103B28003968124825F008F9114ABB681360FB7F11
:103B38000133DBB212E0FB7F0133FB77FB7C0133FF
:103B4800FB74FB7CEE2BD1D9FEF71EFB7B6901339E
:103B58007B617B69B3F5003F9ED30023184620376D
:103B6800BD4680BD78620020746000208C00002073
:103B78007864002080B500AFFEF706FB4FF40031F3
:103B88000020FDF716FD04214FF40030FDF711FD6C
:103B980004220021034825F091F8024B00221A6004
:103BA80000BF80BD7460002080B582B000AF78602F
:103BB8000B467B807B68B3F5003F0DD2084B1A6833
:103BC8007B881344013B064A1360002304220449FE
:103BD8004FF40030FDF7A8FC00BF0837BD4680BD94
:103BE8007460002080B582B000AF0346FB71FB799A
:103BF8001A460421034811F0EFFF00BF0837BD46FD
:103C080080BD00BF0000024280B5ECB002AF07F5EE
:103C1800D473A3F5D273186007F5D473A3F5D473DE
:103C280019603020FDF7EAFAC7F8980107F1D002C9
:103C3800D7F8983101936423009364233449002012
:103C4800FDF706FB07F10802D7F8983101936423C2
:103C5800009364232F490020FDF7FAFA0023C7F8E0
:103C6800A4310023C7F8A031002387F89F3120E052
:103C780097F89F315B0003F5D4733B4433F8D83C85
:103C88001A46D7F8A4311344C7F8A43197F89F21EE
:103C980007F5D473A3F5D07333F812301A46D7F862
:103CA800A0311344C7F8A03197F89F31013387F842
:103CB8009F3197F89F31632BDAD9D7F8A431164A88
:103CC800A2FB03235B09C7F8A431D7F8A031124A35
:103CD800A2FB03235B09C7F8A031D7F8A4319BB234
:103CE8005B009AB207F5D473A3F5D2731B681A80E8
:103CF800D7F8A0319BB25B009AB207F5D473A3F54D
:103D0800D4731B681A8000BF07F5D477BD4680BD01
:103D180020000014400000181F85EB5180B582B0C8
:103D280000AF0346FB71FB791A460421034811F0E2
:103D380053FF00BF0837BD4680BD00BF00140242D4
:103D480090B583B000AF0446084611461A4623468C
:103D5800FB710346BB710B467B7113463B71FB79C4
:103D68001A4608211D4811F037FFBB791A46102161
:103D78001A4811F031FF7B791A462021174811F0B3
:103D88002BFF3B7983F00103DBB21A46012113486C
:103D980011F022FF3B7E1A464FF400610F4811F0E4
:103DA8001BFF3B7F1A464FF480510C4811F014FF5B
:103DB80097F820301A464FF40051084811F00CFFCC
:103DC80097F8243083F00103DBB21A460221034836
:103DD80011F002FF00BF0C37BD4690BD001402422F
:103DE80090B589B004AF78600B467B8013463B8062
:103DF8003020FDF703FAB860BB6802933B88019353
:103E08007B8800937B681A4A1A490120FDF77EFADD
:103E18000023FB811CE0FB895B007A6813441B8844
:103E28001846FCF77FFB10A3D3E90023FCF7E4FB5B
:103E380002460B4610461946FB895B007A68D4187F
:103E4800FCF79CFE03469BB22380FB890133FB8170
:103E5800FA897B889A42DED300BF00BF1437BD467B
:103E680090BD00BFAFF30080AAAAAAAAAAAAEA3FF7
:103E7800400000182000001480B582B000AF03464F
:103E8800FB71FB791A464FF48061034811F0A4FED8
:103E980000BF0837BD4680BD0004024280B582B02D
:103EA80000AF03460A46FB711346BB71FB79013B21
:103EB800032B35D801A252F823F000BFD53E0008E5
:103EC800EF3E00080B3F00081B3F0008BB791A466D
:103ED8002021164811F080FEBB791A46102113489C
:103EE80011F07AFE1DE0BB791A464FF48051104854
:103EF80011F072FEBB791A4610210C4811F06CFEC5
:103F08000FE0BB791A464FF48071084811F064FE3F
:103F180007E0BB791A460421064811F05DFE00E06F
:103F280000BF00BF0837BD4680BD00BF0004024285
:103F3800000802420018024280B582B000AF034672
:103F4800FB710120FDF7D0FBFB79013B042B1FD847
:103F580001A252F823F000BF753F00087D3F00081A
:103F6800993F0008853F00088F3F00080120FDF7B2
:103F7800E9FB0EE00020FDF7E5FB0AE00021012047
:103F8800FDF7C4FB05E001210020FDF7BFFB00E0C1
:103F980000BF00BF0837BD4680BD00BF80B586B0F2
:103FA80002AF396011461A460346FB710B46BB71D6
:103FB8001346BB80BB795B08DBB2FB81FB79013B15
:103FC800032B4BD801A252F823F000BFE53F0008AD
:103FD8000540000825400008454000083020FDF74E
:103FE8000DF9B860FA89BB680193BB880093134642
:103FF8003A681D490020FDF72BF930E03020FDF725
:10400800FDF8B860FA89BB680193BB880093134632
:104018003A6816490020FDF71BF920E03020FDF72B
:10402800EDF8B860FA89BB680193BB880093134622
:104038003A680F490020FDF70BF910E03020FDF732
:10404800DDF8B860FA89BB680193BB880093134612
:104058003A6808490120FDF7FBF800E000BF00BFFF
:104068001037BD4680BD00BF0080003E0000014201
:10407800000002468000001C80B584B000AF0346F3
:10408800B96087ED010AFB731346BB737868FCF7C8
:104098005BFA4FF000020B4BFCF7AEFA02460B46F8
:1040A80010461946FCF76AFD03469BB2BA7BF87BBB
:1040B800B968FFF773FF0A20FDF712F800BF103741
:1040C800BD4680BD0000244080B500AF0A20FDF742
:1040D80031F80A20FDF704F800BF80BD80B582B032
:1040E80000AF0346FB71FB791A462021034811F003
:1040F80073FD00BF0837BD4680BD00BF00080242FF
:1041080080B586B002AF78600B46FB7013463B80E3
:10411800FB785B08DBB2FB813020FDF76FF8B860F5
:10412800FA89BB6801933B88009313467A6804496F
:104138000120FDF78DF800BF1037BD4680BD00BFD8
:104148000000405A80B582B000AF0346FB71FB798E
:104158001A460821034811F03FFD00BF0837BD4645
:1041680080BD00BF0008024280B586B002AF39604A
:1041780011461A460346FB710B46BB711346BB80BA
:10418800BB795B08DBB2FB81FB79032B26D0032BC1
:1041980034DC012B02D0022B10D02FE03020FDF7A9
:1041A8002DF8B860FA89BB680193BB880093134661
:1041B8003A6815490120FDF74BF820E03020FDF75B
:1041C8001DF8B860FA89BB680193BB880093134651
:1041D8003A680E490120FDF73BF810E03020FDF762
:1041E8000DF8B860FA89BB680193BB880093134641
:1041F8003A6807490120FDF72BF800E000BF00BF2F
:104208001037BD4680BD00BF0800000C0400000840
:104218000200000480B500AF0020FFF7E3FC002097
:10422800FFF77CFD00210120FFF738FE0021022066
:10423800FFF734FE00210320FFF730FE00210420A1
:10424800FFF72CFE0020FFF749FF0020FFF77AFF59
:1042580000BF80BD80B58AB000AFB9607A601A46E9
:104268000346FB8113467B73FB89FB84082387F88D
:104278002230BB681B68BB610023BB84002387F81E
:10428800233049E04FF000024FF00003C7E9042350
:104298007A7B97F82330D31A87F8213097F82120B2
:1042A80097F822309A420BD297F823307A68D118BF
:1042B80097F8212007F11003184624F03DFD0AE085
:1042C80097F823307A68D11897F8222007F110035D
:1042D800184624F031FD07F11002FB8C11461846F0
:1042E80022F050FD0346BB84BB8C03F48073002B83
:1042F80003D022F061FD0346BB84BB8C002B01D0A8
:104308000AF0E7FDFB8C0133FB8497F8232097F82C
:104318002230134487F8233097F823207B7B9A4276
:10432800B0D314F087FE0346002B01D00AF0D1FD6C
:10433800FB8C18462837BD4680BD80B58AB000AFD3
:10434800B9607A601A460346FB8113467B73FB8982
:10435800FB8407F1100300221A605A609A60DA6041
:10436800082387F8243000237B84002387F825302E
:1043780048E007F11002FB8C1146184622F0E4FCD5
:1043880003467B847B8CDBB2FF2B01D10AF0A1FDB5
:104398007A7B97F82530D31A87F821307A7B97F8FB
:1043A80024309A4207D27A7B07F1100319467868BD
:1043B80024F0C2FC1CE097F8212097F824309A4298
:1043C8000BD297F825307A68134497F8212007F123
:1043D8001001184624F0B0FC0AE097F825307A68F6
:1043E800134497F8242007F11001184624F0A4FC80
:1043F800FB8C0133FB8497F8252097F8243013446D
:1044080087F8253097F825207B7B9A42B1D3BB6883
:10441800002B02D0BA69BB681A60FB8C1846283793
:10442800BD4680BD80B584B000AF78600023FB60D6
:104438007B68002B1DD038233B8100237B8114E04F
:104448007B891B010D4A134404227968184624F01D
:104458000BFC0346002B05D17B891B01074A13443B
:10446800FB6006E07B8901337B817A893B899A422C
:10447800E6D3FB6818461037BD4680BDC00600204D
:1044880080B594B000AF00237B620023A7F84E30BC
:10449800B44B1B681B699BB27B84002387F84D30A3
:1044A800B04B1B689A68AF4B1B6842F001029A60D8
:1044B8000023A7F84A3048E0B7F84A301B01AA4A57
:1044C8001344184600F0CDFA034687F82B3097F8C6
:1044D8002B3003F00703DBB2002B07D097F82B3003
:1044E800DB08DBB2013387F84D3004E097F82B3056
:1044F800DB0887F84D30002387F849301AE0B7F811
:104508004A301B01984A13441B687B6207F1240355
:104518000422194693480EF0A1FF03469BB27B8400
:10452800B7F84E300133A7F84E3097F849300133C9
:1045380087F8493097F8492097F84D309A42DED3EA
:10454800B7F84A300133A7F84A303822B7F84A306A
:104558009342B1D310F00EFB0346002B01D00AF0B2
:10456800B8FC0023A7F84630002021F015F90346CF
:10457800A7F84630B7F84630002B01D00AF0A9FC5E
:104588000023A7F846300023A7F84430754B1B6872
:104598001B699BB2FB81734B1B689A68714B1B6844
:1045A80042F001029A600023A7F842302DE0B7F8E4
:1045B80042300133A7F8423007F11002B7F8423011
:1045C8001146184622F0C0FB0346A7F84630B7F854
:1045D8004630002B19D1BB697B62FA89614B1B6895
:1045E8001A6107F12403042219465E480EF036FFCB
:1045F80003469BB2FB815B4B1B685A4A12691A61DE
:10460800B7F844300133A7F84430B7F84630002BE8
:10461800CDD0B7F84230012B03D1B7F84630072B7D
:1046280010D007F10E0107F122030222184624F0E8
:104638001BFB0346002B05D1B7F84E20B7F84430D2
:104648009A4261D0002022F07BFA0346A7F8463050
:10465800B7F84630002B01D00AF03BFC0123A7F83D
:1046680042300023A7F8403048E0B7F840303E4ACF
:104678001B0113440433B7F842201A800023FB635C
:10468800002387F83B30B7F84030374A1B01134402
:1046980008331B68002B0FD0B7F84030324A1B0193
:1046A800134408331B68FB62FB6A1B68FB63FB6AE5
:1046B8001B7987F83B300DE0B7F840302A4A1B01D8
:1046C80013440C331B683B633B6B1033FB630823B9
:1046D80087F83B30B7F840301B01234A991897F800
:1046E8003B30B7F84200FA6BFFF7B4FD0346A7F872
:1046F8004230B7F840300133A7F840303822B7F8D5
:1047080040309342B1D377E10123A7F84230002328
:104718003B8734E03B8F144A1B0113440433B7F83A
:1047280042201A803B8F1B010F4A1344184600F0A1
:1047380098F9034687F8373097F83730DB08DBB24B
:10474800BB8697F8373003F00703DBB2002B0DD098
:10475800B7F84220BB8E13449BB20133A7F842300E
:104768000AE000BF18780020C0060020B7F84220F1
:10477800BB8E1344A7F842303B8F01333B87382266
:104788003B8F9342C6D33223A3F1300213469B00DA
:1047980013445B001A463523303B13449C4A82FB82
:1047A80003129210DB17D31ADBB23033DBB23B7241
:1047B8003223A3F1300213469B0013445B001A46D0
:1047C8003523303B1A44924B83FB02139910D317BD
:1047D800C91A0B469B000B445B00D11ACBB230338D
:1047E800DBB27B7244234A2B05D16523612B02D1AE
:1047F80063236E2B37D04423462B34D044234D2BD0
:1048080005D16523612B02D16323722B2BD044235E
:10481800412B02D16523702B25D044234D2B05D184
:104828006523612B02D16323792B1CD044234A2BA7
:1048380005D16523752B02D163236E2B13D0442336
:104848004A2B05D16523752B02D163236C2B0AD023
:104858004423412B02D16523752B04D04423532BC9
:1048680001D0012300E00023DBB23033DBB2BB729E
:1048780044234A2B05D16523612B02D163236E2B78
:1048880051D04423462B4CD044234D2B05D16523CE
:10489800612B02D16323722B41D04423412B02D1D7
:1048A8006523702B39D044234D2B05D16523612B0B
:1048B80002D16323792B2ED044234A2B05D16523BB
:1048C800752B02D163236E2B23D044234A2B05D1A9
:1048D8006523752B02D163236C2B18D04423412BFD
:1048E80002D16523752B10D04423532B0BD04423BE
:1048F8004F2B06D044234E2B01D1312314E0322311
:1049080012E0302310E039230EE038230CE037237F
:104918000AE0362308E0352306E0342304E0332395
:1049280002E0322300E03123FB722023202B0BD13D
:104938003123303B364A82FB03129210DB17D31A1D
:10494800DBB23033DBB213E02023A3F1300213468D
:104958009B0013445B001A463123303B13442C4A16
:1049680082FB03129210DB17D31ADBB23033DBB2AF
:104978003B732023202B11D13123A3F13002244B88
:1049880083FB02139910D317C91A0B469B000B44DB
:104998005B00D11ACBB23033DBB218E02023A3F18D
:1049A800300213469B0013445B001A463123303B08
:1049B8001A44174B83FB02139910D317C91A0B46D5
:1049C8009B000B445B00D11ACBB23033DBB27B7354
:1049D8003B46062219460F4800F0ADF807F10801DA
:1049E8003B460622184624F03FF90346002B03D025
:1049F8000021084800F057F810F0DEF80346002BB5
:104A080001D00AF066FA00BF5037BD4680BD00BF2E
:104A180067666666349F020880B584B000AF786028
:104A28000023FB737B68002B16D07868FFF7FAFC2D
:104A3800B860BB68002B0FD0BB689B68002B02D006
:104A48000123FB7308E0BB68DB68002B02D002235C
:104A5800FB7301E00023FB73FB7B18461037BD4650
:104A680080BD80B586B000AF78600023FB757B6899
:104A7800002B13D07868FFF7D5FC38613B69002B11
:104A88000CD03B699B68002B06D03B699B68FB6098
:104A9800FB681B79FB7501E00823FB75FB7D184655
:104AA8001837BD4680BD80B588B000AF78603960E2
:104AB8007B68002B3BD07868FFF7B4FC78617B6992
:104AC800002B34D00023FB773B68BB617B699B6874
:104AD800002B0CD07B699B68FB60FB681B79FB771C
:104AE800BB69002B0ED1FB681B68BB610AE0082379
:104AF800FB77BB69002B05D17B69DB683B613B69B0
:104B08001033BB6110F036F80346002B01D00AF0D1
:104B1800E0F97B699888FB7FBA697968FFF79AFBA7
:104B280010F04AF80346002B01D00AF0D2F900BF72
:104B38002037BD4680BD80B588B000AFF860B96049
:104B48001346FB71FB68002B25D0BB68002B22D0D5
:104B5800F868FFF767FCB861BB69002B1BD000231E
:104B6800FB77BB699B68002B06D0BB699B687B61A0
:104B78007B691B79FB7701E00823FB77FA79FB7FD8
:104B88009A4201D2FB79FB77BB699888FB7FBA68A8
:104B98000021FFF7D2FB00BF2037BD4680BD80B59E
:104BA80086B000AF786039607B68002B23D03B6803
:104BB800002B20D07868FFF735FC78617B69002BE3
:104BC80019D07B699B68002B0BD07B699B68FB60C5
:104BD800FB681968FB681B791A46386824F0ACF83A
:104BE80009E07B69DB683B613B69103308221946A1
:104BF800386824F0A1F800BF1837BD4680BD80B5DD
:104C080086B000AF78604FF000024FF00003C7E9AC
:104C180004237B68002B12D07868FFF703FCF86048
:104C2800FB68002B0BD0FB68DB68002B07D0FB6808
:104C3800DB68BB60BB68D3E90623C7E90423D7E96F
:104C4800042343EC172BB0EE470AF0EE670A183737
:104C5800BD4680BD80B588B000AFF86087ED000B19
:104C68000023FB77FB68002B23D0F868FFF7DAFBFB
:104C7800B861BB69002B1CD0BB69DB68002B18D05E
:104C8800BB69DB687B617B69D3E90223D7E9000153
:104C9800FBF72EFF0346002B0BD07B69D3E90023DB
:104CA800D7E90001FBF72EFF0346002B01D00123B3
:104CB800FB77FB7F18462037BD4680BD80B588B09E
:104CC80000AFF86087ED000BFB68002B48D0F86850
:104CD800FFF7A8FBF861FB69002B41D0FB69DB6893
:104CE800002B3DD0FB69DB68BB61BB69D3E90623B8
:104CF800D7E90001FBF7AAFD02460B4643EC172B48
:104D0800B0EE470AF0EE670A24F07AF851EC100B7F
:104D1800BB69D3E90623FBF76FFC02460B46C7E9DC
:104D28000423BB69D3E90023D7E90401FBF7D6FEC6
:104D38000346002B03D0BB69D3E9002314E0BB6909
:104D4800D3E90223D7E90401FBF7E6FE0346002B6B
:104D580003D0BB69D3E9022306E0D7E9042303E0C3
:104D68004FF000024FF0000343EC172BB0EE470A58
:104D7800F0EE670A2037BD4680BD000080B483B0DE
:104D880000AF0346FB80044AFB88138000BF0C3742
:104D9800BD465DF8047B70478E64002080B400AF88
:104DA800034B1B881846BD465DF8047B704700BF5F
:104DB8008E64002080B582B000AF4FF000024FF043
:104DC8000003C7E900233B46082219460748FFF7B6
:104DD800B2FED7E9002310461946FBF7A7FE0346A3
:104DE800034A136000BF0837BD4680BD9C9F020878
:104DF800400A002080B582B000AF4FF000024FF0AB
:104E08000003C7E900233B46082219460748FFF775
:104E180092FED7E9002310461946FBF787FE0346A2
:104E2800034A136000BF0837BD4680BD9C9F020837
:104E3800440A002080B582B000AF3B1D0422194609
:104E48004FF42020FCF7A4FBBB88002B02D0FB8882
:104E5800002B11D140F20123BB8040F20123FB80DB
:104E6800391D012304224FF42020FCF75DFB374B4A
:104E780040F201221A8019E0BB8840F201229342D5
:104E880011D040F20123BB8040F20123FB80391D81
:104E9800012304224FF42020FCF746FB2B4B40F261
:104EA80001221A8002E0FA88284B1A80284BD3F88E
:104EB800F43003F00053002B03D000212548FEF7FF
:104EC800AFF9234BD3F8F43003F00073002B08D06C
:104ED8001E4B1B88B3F5027F03D01C4B4FF40072A6
:104EE8001A801B4BD3F8F430194A43F40003C2F874
:104EF800F430FFF75FFFFFF77DFF144B1B88B3F516
:104F0800027F14D0B3F5027F1ADCB3F5017F04D019
:104F180040F20522934205D012E00F4B4FF0FF32CA
:104F28001A600EE00D4B4FF0FF321A6009E00A4B91
:104F38004FF0FF321A60094B4FF0FF321A6000E061
:104F480000BF00BF0837BD4680BD00BF8E6400208B
:104F5800000C0246A49F0208400A0020440A0020D0
:104F680080B58AB000AF0346FB71334AFB791370F2
:104F7800314B1B78002B5AD04FF000024FF0000342
:104F8800C7E9062307F11803082219462B48FFF73B
:104F9800D2FDD7E9062310461946FBF7EFFD034675
:104FA80087F8273097F82730002B3DD097F827301F
:104FB800062B39D84FF000024FF00003C7E904234D
:104FC80097F82730013B1E4A52F8233007F11001A9
:104FD80008221846FFF7AFFDD7E904231046194603
:104FE800FBF7CCFD03469AB2164B1A804FF000022D
:104FF8004FF00003C7E9022397F82730013B124A14
:1050080052F8233007F1080108221846FFF793FDEC
:10501800D7E9022310461946FBF7B0FD03469AB2BA
:105028000A4B1A8000BF02E0034B00221A7000BF2F
:105038002837BD4680BD00BF94640020AC9F02089D
:10504800480A002090640020600A00209264002032
:1050580080B400AF0B4B1B68002B04DD094B1B68A9
:10506800013B084A1360084B1B68002B04DD064B04
:105078001B68013B044A136000BFBD465DF8047B12
:10508800704700BF400A0020440A002080B588B05D
:1050980000AF07F10803002219462E4819F0F4FC66
:1050A8000346002B01D009F014FF3B1D00221946CE
:1050B800284819F0E1FD0346002B01D009F009FF4B
:1050C8003B7A1A461201D31A9B009BB27A7A134490
:1050D800FB83214B1B88B3F5807F27D11F4B1B68AF
:1050E800002B08D11C4B4FF401721A801B4B4FF058
:1050F800FF321A6029E01A4B1B68002B08D1164BA7
:1051080040F205221A80164B4FF0FF321A601CE05D
:10511800144B1B78002B18D0134B1B88FA8B9A4220
:1051280013D10D4B40F203221A800EE00A4B1B8864
:1051380040F20322934208D10C4B1B88FA8B9A4207
:1051480003D1054B4FF400721A8000BF2037BD46CB
:1051580080BD00BFA87A00208E640020400A00208D
:10516800440A002094640020906400209264002087
:1051780080B588B000AF0346FB712C4B1B884FF6F7
:10518800FF7293424DD0294B1B88B3F5027F48D05C
:105198004FF000024FF00003C7E9042307F11003A2
:1051A800082219462248FFF7C6FCD7E9042310460F
:1051B8001946FBF7E3FC0346FB774FF000024FF07C
:1051C8000003C7E9022307F1080308221946194812
:1051D800FFF7B1FCD7E9022310461946FBF7CEFCCE
:1051E8000346BB77FA79FB7F9A421AD3FA79BB7FD9
:1051F8009A4216D800211048FEF712F80B4B1B886C
:10520800B3F5807F04D1094B40F201221A8008E0EF
:10521800064B1B88B3F5007F03D3044B4FF4807211
:105228001A8000BF2037BD4680BD00BF8E640020B5
:10523800B49F0208BC9F0208C49F02080000000037
:10524800B0B586B000AFF860B96087ED000BBA68FA
:10525800FB689A4204D94FF000024FF0000324E0A3
:10526800B868FBF74FF916A3D3E90023FBF7C4F995
:1052780002460B4614461D46F868FBF743F90246FA
:105288000B4620462946FBF7E1FA02460B46C7E9DA
:10529800042397ED040B23F05FFD51EC100BD7E9C5
:1052A8000023FBF7A9F902460B4643EC172BB0EE97
:1052B800470AF0EE670A1837BD46B0BDAFF3008065
:1052C800182D4454FB21194084B0B0B500AF07F144
:1052D800100484E80F003A7C7B7C1343DAB297F819
:1052E80024301343DBB2002B0BD03B7C1A46012140
:1052F800694810F071FC7B7C1A460221664810F060
:105308006BFCBA7CFB7C1343DAB297F82430134366
:10531800DBB2002B0BD0BB7C1A4604215E4810F090
:105328005BFCFB7C1A4608215B4810F055FC3A7D73
:105338007B7D1343DAB297F824301343DBB2002B9A
:105348000BD03B7D1A461021534810F045FC7B7D5D
:105358001A462021504810F03FFCBA7DFB7D1343CC
:10536800DAB297F824301343DBB2002B0BD0BB7DA5
:105378001A464021484810F02FFCFB7D1A46802130
:10538800454810F029FC3A7E7B7E1343DAB297F841
:1053980024301343DBB2002B0DD03B7E1A464FF46A
:1053A80080713D4810F018FC7B7E1A464FF400715E
:1053B800394810F011FCBA7EFB7E1343DAB297F835
:1053C80024301343DBB2002B0DD0BB7E1A464FF4BA
:1053D8008061314810F000FCFB7E1A464FF40061F2
:1053E8002D4810F0F9FB3A7F7B7F1343DAB297F828
:1053F80024301343DBB2002B0DD03B7F1A464FF409
:105408008051254810F0E8FB7B7F1A464FF4005185
:10541800214810F0E1FBBA7FFB7F1343DAB297F81B
:1054280024301343DBB2002B0DD0BB7F1A464FF458
:105438008041194810F0D0FBFB7F1A464FF4004119
:10544800154810F0C9FB97F8202097F8213013432E
:10545800DAB297F824301343DBB2002B0DD097F85B
:1054680020301A4601210D4810F0B6FB97F821307C
:105478001A460221094810F0AFFB094B1D4607F1F7
:1054880010040FCC0FC523682B8000BFBD46BDE8B4
:10549800B04004B0704700BF000C02420010024246
:1054A8006065002080B582B000AF03460A46FB71F4
:1054B8001346BB71FB791A464FF400610D4810F092
:1054C8008BFB0A200AF01CFEBB791A464FF4805168
:1054D800084810F081FB0A200AF012FEBB791A4630
:1054E8004FF40041034810F077FB00BF0837BD4672
:1054F80080BD00BF0004024280B58AB000AF0346F9
:10550800FB8001224FF480511F4810F065FB0120F9
:105518000AF0F6FDFB881846FAF7F4FF4FF0000290
:105528001A4BFBF793F902460B46C7E9082397ED98
:10553800081B9FED110B23F0D7FA87ED060B10A37C
:10554800D3E90023D7E90601FAF79EFE02460B4687
:10555800C7E9042397ED040B23F05EFA0346FB73B7
:10556800FB7B19460020FCF765FA034618462837E6
:10557800BD4680BDAFF300800000000080C014412C
:105588000000000000A1E3400004024200408F40F8
:1055980080B582B000AF0346FB71FB791A464FF421
:1055A8000071034810F018FB00BF0837BD4680BDE6
:1055B8000004024280B584B000AF0346FB710023AB
:1055C800FB735E4B1B68BB60FB7903F00103002B88
:1055D80054D03B891946052023F08AF90246584BD6
:1055E80011461970C2F307215970C2F307429A7025
:1055F800534B1B7853491846FCF76CF903461A4677
:10560800FB7B1343FB7305200AF07AFD7B8919465F
:10561800042023F06DF90246494B11461970C2F374
:1056280007215970C2F307429A70454B1B784549C8
:105638001846FCF74FF903461A46FB7B1343FB73E6
:1056480005200AF05DFD3E4B1A783F4B1A703E4B21
:105658001B783E491846FCF757F903461A46FB7B68
:105668001343FB7303223849354823F0FDFA0346F8
:10567800002B03D0FB7B43F00103FB73FB7903F0A2
:105688000203002B54D03B891946052023F030F93A
:1056980002462B4B11461970C2F307215970C2F309
:1056A80007429A70264B1B7826491846FCF76AF978
:1056B80003461A46FB7B1343FB7305200AF020FDC3
:1056C8007B891946042023F013F902461C4B114626
:1056D8001970C2F307215970C2F307429A70184B28
:1056E8001B7818491846FCF74DF903461A46FB7B08
:1056F8001343FB7305200AF003FD114B1A78124B74
:105708001A70114B1B7811491846FCF755F90346D6
:105718001A46FB7B1343FB7303220B49084823F00B
:10572800A3FA0346002B03D0FB7B43F00103FB7372
:10573800FB7B18461037BD4680BD00BFCC9F0208D2
:105748007C6500207D650020806500208165002043
:1057580080B584B000AF03460A46FB801346BB8081
:105768000023BB810023FB73F8880223022240F642
:10577800C41123F0E9F80346BB81BB891946082008
:1057880023F0B6F802463B4B11461970C2F30721C5
:105798005970C2F307429A70364B1B78364918463F
:1057A800FCF7F0F803461A46FB7B1343FB73314BB7
:1057B8001A78324B1A70314B1B7831491846FCF76E
:1057C800FBF803461A46FB7B1343FB7303222B4962
:1057D800284823F049FA0346002B03D0FB7B43F00B
:1057E8000103FB73B8880223022240F6C41123F098
:1057F800ABF80346BB81BB891946092023F078F82A
:1058080002461C4B11461970C2F307215970C2F3A6
:1058180007429A70174B1B7817491846FCF7B2F8DD
:1058280003461A46FB7B1343FB73124B1A78134B40
:105838001A70124B1B7812491846FCF7BDF803463C
:105848001A46FB7B1343FB7303220C49094823F0D8
:105858000BFA0346002B03D0FB7B43F00103FB73D9
:1058680024220021074823F029FAFB7B1846103729
:10587800BD4680BD7C6500207D65002080650020D8
:1058880081650020E864002080B586B000AFF8602C
:10589800B9601346FB800023FB75FB684FF47A72EE
:1058A80002FB03F3294A1365BB684FF47A7202FBC3
:1058B80003F3264A5365254AFB88A2F87030244B27
:1058C80000221A600223022240F6C411002023F0AD
:1058D8003BF80346BB82BB8A1946062023F008F82A
:1058E80002461C4B11461970C2F307215970C2F3C6
:1058F80007429A70174B1B7817491846FCF742F86D
:1059080003461A46FB7D1343FB75124B1A78134B5B
:105918001A70124B1B7812491846FCF74DF80346CB
:105928001A46FB7D1343FB7503220C49094823F0F3
:105938009BF90346002B03D0FB7D43F00103FB7565
:10594800FB7D18461837BD4680BD00BF986400200F
:10595800746500207C6500207D650020806500203E
:105968008165002080B582B000AF0346FB71FB79EA
:105978001A460421034810F02FF900BF0837BD4626
:1059880080BD00BF0010024284B080B582B000AF75
:1059980007F1100C8CE80F000120FBF7A5FEBA7E7A
:1059A800BB7F1343DAB2FB7E1343DAB2FB7F1343A8
:1059B800DBB283F00103FB713A7E3B7F1343DAB21B
:1059C8007B7E1343DAB27B7F1343DBB283F00103A0
:1059D800BB71BA79FB7911461846FBF797FE00BFF1
:1059E8000837BD46BDE8804004B07047B0B584B004
:1059F80000AF3C4684E80F003B68474A13607B6869
:105A08005B08454A5360BA68FB6813444FF47A72DE
:105A180002FB03F3404A9360BB684FF47A7202FBBF
:105A280003F33D4AD3603C4B00229A653A4B9A6D8A
:105A3800394B1B6D1344384AD365BB681846FAF7CF
:105A480061FD4FF00002354BFAF7D6FD02460B46D2
:105A580014461D46304B5B6D1846FAF753FD024657
:105A68000B4620462946FAF70FFC02460B4610461D
:105A78001946FBF783F80346274A1366BB6818469E
:105A8800FAF740FD4FF00002244BFAF7B5FD024645
:105A98000B4610461946FBF771F803461E4A536633
:105AA800BA68FB6813441846FAF72CFD4FF0000259
:105AB8001A4BFAF7A1FD02460B4610461946FBF7AA
:105AC8005DF80346144A9366134B5B7D002B1ED08A
