:020000040800F2
:1000000000000C20750B0108B1000108B9000108BF
:10001000C1000108C9000108D1000108C50B010891
:10002000000000000000000000000000D9000108EE
:10003000E700010800000000F500010803010108C5
:10004000C50B0108C50B010811010108C50B01080A
:10005000C50B0108C50B0108C50B0108C50B01083C
:10006000C50B0108C50B0108C50B0108C50B01082C
:10007000C50B0108C50B010825010108C50B0108C6
:10008000C50B0108C50B0108C50B0108C50B01080C
:10009000C50B0108C50B0108C50B0108C50B0108FC
:1000A000C50B0108C50B0108C50B01083501010886
:1000B000C50B0108490101085D010108C50B0108D4
:1000C000C50B0108C50B0108C50B0108C50B0108CC
:1000D000C50B010871010108C50B0108C50B01081A
:1000E000C50B0108C50B0108C50B0108C50B0108AC
:1000F000C50B0108C50B010885010108990101081C
:10010000AD010108C1010108C50B0108C50B0108BB
:10011000C50B0108C50B0108C50B0108C50B01087B
:10012000C50B0108D5010108E9010108FD0101081D
:10013000C50B010811020108C50B0108C50B010818
:10014000C50B0108C50B0108C50B010825020108F4
:10015000390201084D020108C50B0108C50B010851
:10016000C50B0108C50B0108C50B0108C50B01082B
:10017000C50B0108C50B0108C50B0108C50B01081B
:10018000C50B0108C50B0108C50B0108C50B01080B
:10019000C50B0108C50B0108C50B0108C50B0108FB
:1001A0006102010875020108C50B0108C50B0108B1
:1001B000C50B0108C50B010889020108C50B010820
:1001C0009D020108B1020108C5020108C50B010822
:1001D000C50B0108C50B0108C50B0108C50B0108BB
:1001E000C50B0108C50B0108C50B0108D9020108A0
:1001F000C50B0108C50B0108E5020108C50B010884
:10020000C50B0108F9020108C50B0108C50B01085F
:10021000C50B0108C50B0108C50B0108C50B01087A
:10022000C50B0108C50B0108C50B0108C50B01086A
:08023000C50B0108C50B010814
:1002380010B5054C237833B9044B13B10448AFF318
:1002480000800123237010BDD01A00200000000098
:1002580010AD020808B5034B1BB103490348AFF3BF
:10026800008008BD00000000D41A002010AD02086C
:10027800034613F8012B002AFBD1181A01387047DE
:1002880081F0004102E000BF83F0004330B54FEA3F
:1002980041044FEA430594EA050F08BF90EA020FAC
:1002A8001FBF54EA000C55EA020C7FEA645C7FEA3F
:1002B800655C00F0E2804FEA5454D4EB5555B8BF62
:1002C8006D420CDD2C4480EA020281EA030382EAD3
:1002D800000083EA010180EA020281EA0303362D65
:1002E80088BF30BD11F0004F4FEA01314FF4801C38
:1002F8004CEA113102D0404261EB410113F0004F4A
:100308004FEA03334CEA133302D0524263EB430300
:1003180094EA050F00F0A780A4F10104D5F1200E9E
:100328000DDB02FA0EFC22FA05F2801841F10001F9
:1003380003FA0EF2801843FA05F359410EE0A5F1CD
:1003480020050EF1200E012A03FA0EFC28BF4CF0FE
:10035800020C43FA05F3C01851EBE37101F00045B4
:1003680007D54FF0000EDCF1000C7EEB00006EEBC1
:100378000101B1F5801F1BD3B1F5001F0CD349084B
:100388005FEA30004FEA3C0C04F101044FEA4452A2
:1003980012F5800F80F09A80BCF1004F08BF5FEA29
:1003A800500C50F1000041EB045141EA050130BD09
:1003B8005FEA4C0C404141EB0101013C28BFB1F51B
:1003C800801FE9D291F0000F04BF01460020B1FA66
:1003D80081F308BF2033A3F10B03B3F120020CDA39
:1003E8000C3208DD02F1140CC2F10C0201FA0CF017
:1003F80021FA02F10CE002F11402D8BFC2F1200C7C
:1004080001FA02F120FA0CFCDCBF41EA0C01904031
:10041800E41AA2BF01EB0451294330BD6FEA04047A
:100428001F3C1CDA0C340EDC04F11404C4F1200265
:1004380020FA04F001FA02F340EA030021FA04F377
:1004480045EA030130BDC4F10C04C4F1200220FACE
:1004580002F001FA04F340EA0300294630BD21FA0C
:1004680004F0294630BD94F0000F83F4801306BFD2
:1004780081F480110134013D4EE77FEA645C18BFC6
:100488007FEA655C29D094EA050F08BF90EA020F5D
:1004980005D054EA000C04BF1946104630BD91EA55
:1004A800030F1EBF0021002030BD5FEA545C05D158
:1004B8004000494128BF41F0004130BD14F5800497
:1004C8003CBF01F5801130BD01F0004545F0FE410B
:1004D80041F470014FF0000030BD7FEA645C1ABF40
:1004E800194610467FEA655C1CBF0B46024650EA77
:1004F800013406BF52EA033591EA030F41F40021A3
:1005080030BD00BF90F0000F04BF0021704730B528
:100518004FF4806404F132044FF000054FF00001FD
:1005280050E700BF90F0000F04BF0021704730B5BE
:100538004FF4806404F1320410F0004548BF404293
:100548004FF000013EE700BF42004FEAE2014FEAE8
:1005580031014FEA02701FBF12F07F4393F07F4FC3
:1005680081F06051704732F07F4208BF704793F0C6
:100578007F4F04BF41F40021704730B54FF46074D9
:1005880001F0004521F000411CE700BF50EA0102DC
:1005980008BF704730B54FF000050AE050EA010285
:1005A80008BF704730B511F0004502D5404261EBF5
:1005B80041014FF4806404F132045FEA915C3FF436
:1005C800D8AE4FF003025FEADC0C18BF03325FEAD3
:1005D800DC0C18BF033202EBDC02C2F1200300FA84
:1005E80003FC20FA02F001FA03FE40EA0E0021FAA9
:1005F80002F11444BDE600BF70B54FF0FF0C4CF497
:10060800E06C1CEA11541DBF1CEA135594EA0C0F48
:1006180095EA0C0F00F0DEF82C4481EA030621EA83
:100628004C5123EA4C5350EA013518BF52EA0335BE
:1006380041F4801143F4801338D0A0FB02CE4FF070
:100648000005E1FB02E506F00042E0FB03E54FF0A0
:100658000006E1FB03569CF0000F18BF4EF0010E98
:10066800A4F1FF04B6F5007F64F5407404D25FEA94
:100678004E0E6D4146EB060642EAC62141EA555147
:100688004FEAC52040EA5E504FEACE2EB4F1FD0C89
:1006980088BFBCF5E06F1ED8BEF1004F08BF5FEA07
:1006A800500E50F1000041EB045170BD06F00046B9
:1006B80046EA010140EA020081EA0301B4EB5C0466
:1006C800C2BFD4EB0C0541EA045170BD41F480115E
:1006D8004FF0000E013C00F3AB8014F1360FDEBF83
:1006E800002001F0004170BDC4F10004203C35DA5F
:1006F8000C341BDC04F11404C4F1200500FA05F3E2
:1007080020FA04F001FA05F240EA020001F0004282
:1007180021F0004110EBD37021FA04F642EB0601F8
:100728005EEA430E08BF20EAD37070BDC4F10C0422
:10073800C4F1200500FA04F320FA05F001FA04F2E6
:1007480040EA020001F0004110EBD37041F10001D2
:100758005EEA430E08BF20EAD37070BDC4F12005DD
:1007680000FA05F24EEA020E20FA04F301FA05F245
:1007780043EA020321FA04F001F0004121FA04F2ED
:1007880020EA020000EBD3705EEA430E08BF20EABD
:10079800D37070BD94F0000F0FD101F000464000F7
:1007A80041EB010111F4801F08BF013CF7D041EA79
:1007B800060195F0000F18BF704703F0004652007D
:1007C80043EB030313F4801F08BF013DF7D043EA4E
:1007D8000603704794EA0C0F0CEA135518BF95EA04
:1007E8000C0F0CD050EA410618BF52EA4306D1D18B
:1007F80081EA030101F000414FF0000070BD50EAAA
:10080800410606BF1046194652EA430619D094EA33
:100818000C0F02D150EA013613D195EA0C0F05D11D
:1008280052EA03361CBF104619460AD181EA030171
:1008380001F0004141F0FE4141F470014FF0000029
:1008480070BD41F0FE4141F4780170BD70B54FF0C4
:10085800FF0C4CF4E06C1CEA11541DBF1CEA135544
:1008680094EA0C0F95EA0C0F00F0A7F8A4EB050426
:1008780081EA030E52EA03354FEA013100F088801D
:100888004FEA03334FF0805545EA131343EA1263E6
:100898004FEA022245EA111545EA10654FEA00269B
:1008A8000EF000419D4208BF964244F1FD0404F554
:1008B800407402D25B084FEA3202B61A65EB0305B0
:1008C8005B084FEA32024FF480104FF4002CB6EB6D
:1008D800020E75EB030E22BFB61A754640EA0C00ED
:1008E8005B084FEA3202B6EB020E75EB030E22BF2D
:1008F800B61A754640EA5C005B084FEA3202B6EB6E
:10090800020E75EB030E22BFB61A754640EA9C002C
:100918005B084FEA3202B6EB020E75EB030E22BFFC
:10092800B61A754640EADC0055EA060E18D04FEABA
:10093800051545EA16754FEA06164FEAC30343EA5A
:1009480052734FEAC2025FEA1C1CC0D111F4801F27
:100958000BD141EA00014FF000004FF0004CB6E720
:1009680011F4801F04BF01430020B4F1FD0C88BFBF
:10097800BCF5E06F3FF6AFAEB5EB030C04BFB6EBCA
:10098800020C5FEA500C50F1000041EB045170BDBD
:100998000EF0004E4EEA113114EB5C04C2BFD4EBEA
:1009A8000C0541EA045170BD41F480114FF0000E6E
:1009B800013C90E645EA060E8DE60CEA135594EAEA
:1009C8000C0F08BF95EA0C0F3FF43BAF94EA0C0FED
:1009D8000AD150EA01347FF434AF95EA0C0F7FF462
:1009E80025AF104619462CE795EA0C0F06D152EAB6
:1009F80003353FF4FDAE1046194622E750EA41069A
:100A080018BF52EA43067FF4C5AE50EA41047FF4AA
:100A18000DAF52EA43057FF4EBAE12E74FF0FF3C0F
:100A280006E000BF4FF0010C02E000BF4FF0010CE0
:100A38004DF804CD4FEA410C7FEA6C5C4FEA430C59
:100A480018BF7FEA6C5C1BD001B050EA410C0CBFA8
:100A580052EA430C91EA030F02BF90EA020F00200A
:100A6800704710F1000F91EA030F58BF994208BF71
:100A780090422CBFD8176FEAE37040F0010070472E
:100A88004FEA410C7FEA6C5C02D150EA013C07D185
:100A98004FEA430C7FEA6C5CD6D152EA033CD3D0D0
:100AA8005DF8040B704700BF8446104662468C46CA
:100AB8001946634600E000BF01B5FFF7B7FF0028FD
:100AC80048BF10F1000F01BD4DF808EDFFF7F4FF26
:100AD8000CBF012000205DF808FB00BF4DF808EDB1
:100AE800FFF7EAFF34BF012000205DF808FB00BFD4
:100AF8004DF808EDFFF7E0FF94BF012000205DF8F6
:100B080008FB00BF4DF808EDFFF7CEFF94BF0120AA
:100B180000205DF808FB00BF4DF808EDFFF7C4FFA3
:100B280034BF012000205DF808FB00BF4FEA4102F6
:100B380012F5001215D211D56FF47873B3EB625227
:100B480012D94FEAC12343F0004343EA505311F04E
:100B5800004F23FA02F018BF404270474FF00000E0
:100B6800704750EA013005D111F0004008BF6FF01E
:100B7800004070474FF00000704700BF4A0011D294
:100B880012F5001211D20DD56FF47873B3EB6252DF
:100B98000ED44FEAC12343F0004343EA505323FAEB
:100BA80002F070474FF00000704750EA013002D160
:100BB8004FF0FF3070474FF0000070474FEA410296
:100BC800B2F1E04324BFB3F5001CDCF1FE5C0DD9A3
:100BD80001F0004C4FEAC0024CEA5070B2F1004FED
:100BE80040EB830008BF20F00100704711F0804FF0
:100BF80021D113F13872BCBF01F00040704741F4B5
:100C080080114FEA5252C2F11802C2F1200C10FAB8
:100C18000CF320FA02F018BF40F001004FEAC1239C
:100C28004FEAD32303FA0CFC40EA0C0023FA02F340
:100C38004FEA4303CCE77FEA625307D150EA013316
:100C48001EBF4FF0FE4040F44000704701F00040E6
:100C580040F0FE4040F40000704700BF53B94AB965
:100C6800002908BF00281CBF4FF0FF314FF0FF30AC
:100C780000F0B0B9ADF1080C6DE904CE00F006F84B
:100C8800DDF804E0DDE9022304B070472DE9F04FF8
:100C9800099D884604468E46002B4AD18A4217464B
:100CA8005FD9B2FA82F64EB1C6F1200301FA06FE08
:100CB800B740B44020FA03F343EA0E0E4FEA174850
:100CC8001FFA87FC230CBEFBF8F108FB11EE01FBB1
:100CD8000CF243EA0E439A4207D9FB1801F1FF30A0
:100CE80002D29A4200F2548101469B1AA2B2B3FB87
:100CF800F8F008FB103300FB0CFC42EA0342944571
:100D08000BD9BA1800F1FF332CBF012400249445F5
:100D180002D9002C00F03F81184640EA0140A2EBBE
:100D28000C0200211DB1F2400023C5E90023BDE8F3
:100D3800F08F8B4205D90DB1C5E9000100210846A5
:100D4800F5E7B3FA83F100294ED14345C0F012818B
:100D5800824240F20F810846002DE8D0C5E9004ED6
:100D6800E5E7002A00F0AC80B2FA82F6002E40F0E7
:100D7800BB808B1A4FEA124EBCB20121020C80B222
:100D8800B3FBFEFC0EFB1C3342EA034304FB0CF2EC
:100D98009A420ED9FB180CF1FF382CBF4FF001090D
:100DA8004FF000099A4203D9B9F1000F00F0EC8026
:100DB800C4469B1AB3FBFEF80EFB183304FB08F479
:100DC80040EA034294420BD9BA1808F1FF332CBF0A
:100DD80001200020944202D9002800F0D1809846D2
:100DE800121B48EA0C409DE7C1F120068B4008FA27
:100DF80001F400FA01F922FA06F728FA06F88A40FF
:100E08001F4320FA06F3380C23431FFA87FC1C0CF7
:100E1800B8FBF0FE00FB1E8844EA08440EFB0CF801
:100E2800A0450ED93C190EF1FF3A2CBF4FF0010B2B
:100E38004FF0000BA04503D9BBF1000F00F0B880BC
:100E4800D646A4EB08041FFA83F8B4FBF0F300FBC2
:100E5800134403FB0CFC48EA0444A4450ED93C198E
:100E680003F1FF302CBF4FF001084FF00008A445F4
:100E780003D9B8F1000F00F09F80034643EA0E4003
:100E8800A4EB0C04A0FB02EC64457346E04602D3D5
:100E980007D1F14505D2BEEB02036CEB070C013814
:100EA800E0465DB1B9EB030264EB080404FA06F608
:100EB80022FA01F3CC401E43C5E90064002136E75D
:100EC800B1FBF2FC010C144680B2964641EA084197
:100ED8002026904640EA01431046B1FBF2F1A3EB0D
:100EE800080341EA0C414BE7B740C6F1200301FA79
:100EF80006F221FA03F84FEA174E20FA03F3BCB2C0
:100F0800B0401343020C190C80B2B8FBFEF90EFB7B
:100F1800198841EA084109FB04F8884551D979182C
:100F280009F1FF3C2CBF4FF0010A4FF0000A884539
:100F380002D9BAF1000F31D0A1EB0801B1FBFEF9DB
:100F480009FB04F80EFB19119BB243EA0143434520
:100F580035D2FB1809F1FF312CBF4FF0010A4FF0D1
:100F6800000A4345BBD2BAF1000FB8D1A9F102017A
:100F78003B44B4E7841A68EB030201209646EBE68B
:100F88003A44A8F102082BE7ACF1020C3B4410E705
:100F980002393B44A9E63A440238BEE6A7EB080802
:100FA800A9F1020C4144B1FBFEF909FB04F8C9E7B9
:100FB800AEF1020E3C4444E7023B3C445EE749463E
:100FC8008DE7A1EB0801CC46B1FBFEF909FB04F85B
:100FD800B8E700BF704700BF80B586B000AF786043
:100FE8000B467B801BF080FA78617B681B689B6AE4
:100FF80001333B617A693B69B2FBF3F27B88B2FB50
:10100800F3F3FB607B681B68FA68013ADA62FB68F5
:101018005A1E7B68DA6000BF1837BD4680BD80B5B0
:1010280082B000AF7860786811F04AF8786810F0FC
:101038007BFD7B6800229A6200BF0837BD4680BDF1
:10104800B0B58CB000AFF860B9607A6007F11003F2
:1010580020220021184628F071FC7B683B6104239C
:101068003B6200237B62BB68144A93420BD1002386
:10107800BB614FF6FF73FB61104B9B6A104A52F835
:1010880023307B6107E0BB680E4A934203D10123FA
:101098007B610023BB61BB689B6A5A1CBB689A6270
:1010A800FB681D4607F110040FCC0FC594E80F002C
:1010B80085E80F00F8683037BD46B0BD5C8E00206B
:1010C80000000020E88E002080B586B000AFF860F0
:1010D800B9601346FB71F86810F05CFA0023FB75E1
:1010E8000AE0FB7D5B01BA6813441946F86811F001
:1010F800CDFAFB7D0133FB75FA7DFB799A42F0D37B
:1011080000BF00BF1837BD4680BD000080B584B061
:1011180000AFF860B96011461A460B46FB801346CB
:10112800BB802B4AFB681360294ABB689360284A36
:10113800FB889381264ABB88D381254B01221A74E8
:10114800234B00225A74224B1868214B9968204B74
:101158009B891A46FB689B6A02FB03F31A4610F048
:10116800A5FE1B4B1B681B4A934203D1184B1A4A16
:101178005A6007E0164B1B68184A934202D1144B79
:10118800174A5A60124B5B68114AD28911461846B1
:10119800FFF722FF0E4B5B68184620F0CDFB00BF1F
:1011A8000B4B5B68184621F099FE0346022BF7D0DB
:1011B80000BF074B5B7C83F00103DBB2002BF8D147
:1011C800034B00225A7400BF1037BD4680BD00BFD4
:1011D800343A00205C8E002098940020E88E00208D
:1011E800E494002080B582B000AF78600A4B0122F9
:1011F8005A747B68094A934203D1094820F075FB69
:1012080006E07B68074A934202D1074820F06DFB4D
:1012180000BF0837BD4680BD343A00205C8E0020F0
:1012280098940020E88E0020E494002080B58EB0C9
:1012380000AF6423BB8542F210737B85002387F8D7
:10124800373059E097F83730304A52F823307B620C
:10125800786AFFF7E4FE3B1D2D4A796A1846FFF7C6
:10126800EFFE3B1D01221946786AFFF72DFF4FF666
:10127800FF724FF00111786A12F03EFB0346002B13
:1012880001D00EF022FC7B8DBA8D2249786AFFF7D7
:101298003DFF00233B63002387F82F300CE097F8CD
:1012A8002F301C4A52F823303A6B13443B6397F8AB
:1012B8002F30013387F82F3097F82F309BB2BA8D33
:1012C8009A42ECD8BB8D3A6BB2FBF3F33B63124BFB
:1012D8001B881A4640F6B83303FB02F13B6B9A00B1
:1012E80097F83730B1FBF2F20C4941F8232097F810
:1012F8003730013387F8373097F83730012BA1D9C9
:1013080000BF00BF3837BD4680BD00BF4000002089
:1013180001000080EC1A0020A507FA0B2C3A0020E7
:1013280080B58EB000AFB9607A601A460346FB7389
:101338001346BB81FB7B254A52F823303B63386B4D
:10134800FFF76DFE07F11003BA68396B1846FFF70F
:1013580077FE07F1100301221946386BFFF7B4FE38
:10136800B7F84030BA891A49386BFFF7CFFE002327
:10137800FB8619E0FB8E164A52F82330FA7B154992
:1013880051F8222003FB02F2134BA3FB0213D21ADB
:1013980052081344D90AFB8E5B007A6813448AB258
:1013A8001A80FB8E0133FB86FA8EBB899A42E1D301
:1013B8000A4A7B685361FB7B064A52F82330074A86
:1013C800936100BF3837BD4680BD00BF4000002094
:1013D800EC1A00202C3A002001011000343A0020B9
:1013E80080B582B000AF0346FB71114AFB791374D4
:1013F8000F4B00225A740E4B18680D4B99680C4B12
:101408009B891A460A4B1B7C02FB03F31A46084BBE
:101418001B689B6A02FB03F31A4610F047FD044B56
:101428005B68184620F088FA00BF0837BD4680BDC3
:10143800343A002080B485B000AF0346FB71002326
:10144800FB731DE0154B9A68FB7BF97901FB03F3ED
:101458009B0013441B68114A926903FB02F2104B6C
:10146800A3FB0213D21A52081344D90A0B4B5A6928
:10147800FB7B5B0013448AB21A80FB7B0133FB734E
:10148800FB7B9AB2054B9B899A42DBD300BF00BF16
:101498001437BD465DF8047B704700BF343A00201E
:1014A8000101100080B400AF034B5B7C1846BD46B9
:1014B8005DF8047B704700BF343A002080B582B0E5
:1014C80000AF7860074A7B68136001224FF480718F
:1014D800054815F095F901200FF024FC00BF0837E6
:1014E800BD4680BD543A00200000024280B500AFDE
:1014F80000E000BF00F000FB0346002BF9D10022FA
:101508004FF48071024815F07BF900BF80BD00BF21
:101518000000024280B584B000AFF860B96011469F
:101528001A460B46FB8013467B714FF480711148B5
:1015380015F04EF90346002B18D00F4B00221A70F5
:10154800FB881A46B968F86800F0F0F97B79002B37
:101558000DD000E000BF084B1B7883F00103DBB21D
:10156800002BF7D101200FF0DDFB00E000BF1037A2
:10157800BD4680BD00000242503A002080B584B0CC
:1015880000AFF860B9601346FB80FB881A46B9685B
:10159800F86800F005FA00BF1037BD4680BD80B579
:1015A80082B000AF786039603968786800F030FA46
:1015B80000BF0837BD4680BD80B582B000AF7860F7
:1015C8000B467B80064B1B687A88114678689847DB
:1015D800044B01221A7000BF0837BD4680BD00BF0A
:1015E800543A0020503A002080B483B000AF7860AD
:1015F800044A7B68136000BF0C37BD465DF8047B66
:10160800704700BF583A002080B400AF064B1B68F3
:10161800002B04DB044B1B680133034A136000BF33
:10162800BD465DF8047B70474800002080B584B053
:1016380000AF0346FB71FB79002B0BD0134B002244
:101648001A60134818F05CFD0346002B1AD00EF000
:101658003CFA17E00E4818F09CFD0346002B01D019
:101668000EF033FA094B1B68FB73084B4FF0FF323F
:101678001A60084B1B68002B04D0064B1B68FA7BCA
:101688001046984700BF1037BD4680BD480000206F
:10169800D8910020583A002080B582B000AF0346A8
:1016A800FB80FB88082B02D10120FFF7BFFF00BF9A
:1016B8000837BD4680BD80B582B000AF0346FB80C9
:1016C800FB88082B02D10020FFF7B0FF00BF0837C6
:1016D800BD4680BD80B582B000AF786039604FF4F8
:1016E800007200211F4828F029F94FF400720021E8
:1016F8001D4828F023F94FF4807200211B4828F078
:101708001DF91B4A7B6813601A4A3B681360012263
:101718001021194815F074F801222021174815F0F6
:101728006FF8174B1B7883F00103DBB2002B0BD04B
:1017380014480EF0DFFB14480DF0DEFD13480FF0DF
:1017480081F90F4B01221A70FF2211490F4824F02A
:101758007AFD0346002B01D00EF0B7F900BF083719
:10176800BD4680BD5C3A00205C3D00205C3C00200A
:10177800604100206441002000000242001802423B
:101788004C00002024930020CC90002030950020AD
:101798005C3E002080B500AF17481FF0CBF9034628
:1017A800002B01D00EF091F9144822F039FB0346C2
:1017B800002B01D00EF089F9114B1B78002B0BD0B0
:1017C8000D480EF009FC0F480DF070FE0B480FF0A5
:1017D800A9F90B4B00221A70012210210A4815F0B2
:1017E8000FF801222021094815F00AF8084B0022B9
:1017F8001A7000BF80BD00BF2493002030950020E0
:101808004C000020CC900020000002420018024248
:101818005C3F002080B582B000AF78600B46FB705B
:10182800FB781A467968054828F0CCF8034AFB7813
:1018380082F8FF3000BF0837BD4680BD5C3C002001
:1018480080B586B004AF03463960FB71FB799AB264
:1018580005230293022301933B68009301239021FF
:10186800034815F0FFFE034618460837BD4680BDFD
:10187800CC90002080B586B004AF03463960FB7178
:10188800FB799AB205230293022301933B680093E4
:1018980001239021034815F0F9FF0346184608373D
:1018A800BD4680BDCC90002080B584B002AF034611
:1018B8003960FB710B4AFB7913703B681B889AB23D
:1018C800094B1A80074B1B781A4602230193064BD3
:1018D800009301239021054816F0F2F800BF08375D
:1018E800BD4680BD684100206C410020CC9000209E
:1018F80080B588B004AF03460A46FB8013467B7167
:101908007B79FB73FA88052302930123019307F17E
:101918000F0300930123A021034815F0A3FE0346FB
:1019280018461037BD4680BDCC90002080B584B0E5
:1019380000AFF860B9601346FB80FB88BA68F968A5
:10194800104827F0B7FD03461A460F4B1A800E4B76
:101958001B88043B9AB20D4B1A800D4AFB68136032
:101968000C4B06221A70002210210B4814F048FF75
:101978000122084909481FF00BF800BF1037BD467F
:1019880080BD00BF603F0020544100205C41002022
:10199800584100205C3F00200000024224930020B0
:1019A80080B586B000AFF860B9601346FB800023AD
:1019B8007B6107F11403F968184627F0B1FD00228E
:1019C8001021114814F01CFF07F11401052304220B
:1019D8000E481EF02FFB0346002B01D00EF075F8C1
:1019E800FA880523B96809481EF038FD0346002B1C
:1019F80001D00EF06AF801221021034814F000FF0C
:101A080000BF1837BD4680BD000002422493002065
:101A180080B588B000AF7860396007F11003002204
:101A28001A601A710023FB7307F10F0207F1100007
:101A38000123796827F03EFD0623BB73002210219D
:101A48002A4814F0DDFE07F10E010523012228487B
:101A58001EF0F0FA0346002B01D00EF036F80122F2
:101A68001021224814F0CCFE1AF03EFD0346214A0C
:101A7800A2FB03231B0DFB6102E0FB69013BFB6139
:101A8800FB69002BF9D100221021184814F0B8FE88
:101A980007F110010523052215481EF0CBFA03466D
:101AA800002B01D00EF011F87B680133BB610EE00A
:101AB80007F10F01052301220D481EF0BBFA03466A
:101AC800002B01D00EF001F8BB690133BB617A68C5
:101AD8003B681344BA699A42EAD3012210210348A9
:101AE80014F08EFE00BF2037BD4680BD00000242C4
:101AF8002493002083DE1B4380B483B000AF00230F
:101B0800FB71064B1B78002B01D00123FB71FB797D
:101B180018460C37BD465DF8047B70475C3F0020D3
:101B280080B582B000AF78600B467B800022202110
:101B38000B4814F065FE7A880A23796809481EF074
:101B480079FA0346002B01D00DF0BFFF01222021B6
:101B5800034814F055FE00BF0837BD4680BD00BFDE
:101B6800001802422493002080B584B000AF78604A
:101B78000023FB7300222021134814F041FE07F1D3
:101B88000F010523012211481EF068FC0346002BB3
:101B980001D00DF09AFFFB7B002B0BD0FB7B1A4684
:101BA8000A23796809481EF059FC0346002B01D026
:101BB8000DF08BFF01222021034814F021FEFB7B4E
:101BC80018461037BD4680BD0018024224930020F5
:101BD80080B582B000AF0346FB71174B1B78FA79CA
:101BE8009A4225D000224FF48061144814F008FE70
:101BF80000224FF40071114814F002FE0A200FF081
:101C080091F8FB791A464FF480610C4814F0F8FDFE
:101C1800FB7983F00103DBB21A464FF400710748E1
:101C280014F0EEFD64200FF07DF8034AFB79137081
:101C380000BF0837BD4680BD6E4100200018024233
:101C480080B586B004AF3A601A460346FB710B466E
:101C5800BB711346BB80FB7999B2BB799AB20A2350
:101C68000293BB8801933B6800930123034815F056
:101C7800F9FC034618460837BD4680BD2091002070
:101C880080B586B004AF3A601A460346FB710B462E
:101C9800BB711346BB80FB7999B2BB799AB20A2310
:101CA8000293BB8801933B6800930123034815F016
:101CB800EDFD034618460837BD4680BD209100203B
:101CC80080B582B000AF0023FB7100E000BFFFF7D2
:101CD80013FF0346002BF9D11021464814F078FD74
:101CE8000346012B0AD101200FF01CF84248FFF7E8
:101CF8003BFF0346DAB2414B83F8FF213F4B93F891
:101D0800FF31002B0ED03E4B1B683C4A3D493A48F8
:101D1800984703461A46394B83F8FF200123FB7185
:101D280000E000BFFFF7E8FE0346002BF9D14FF4AF
:101D38008051304814F04CFD0346012B29D1102165
:101D48002C4814F045FD0346002B22D12B4B93F869
:101D5800FF30002B0BD0294B93F8FF30194627484A
:101D6800FFF7DEFE254B002283F8FF2011E0264B0B
:101D780093F8FF30002B0BD0234B93F8FF30194614
:101D88002148FFF7CDFE204B002283F8FF2000E01A
:101D980000BF1E4B93F8FF31002B0CD0184B1B686B
:101DA8001A4A1B491B48984703461A46174B83F89B
:101DB800FF200123FB71154B93F8FF30002B10D047
:101DC800124B93F8FF301A461049134821F084FF4C
:101DD8000346002B01D00DF078FE0C4B002283F84F
:101DE800FF2001200EF09EFFFB7918460837BD46FC
:101DF80080BD00BF001802425C3B00205C3A002016
:101E0800604100205B3C00205C3C00205C3D0020E1
:101E18005B3F00205C3E00203095002080B582B0FA
:101E280000AF786078681EF07BFF0346002B01D076
:101E38000DF04BFE00BF0837BD4680BD80B582B0AF
:101E480000AF78607B680D4A934212D14FF400725C
:101E580000210B4827F072FD01222021094814F0C7
:101E6800CFFC01221021084814F0CAFC074B0022BD
:101E78001A7000BF0837BD4680BD00BF24930020FC
:101E88005C3A002000180242000002425C3F002039
:101E980080B584B000AF78607B68284A934247D108
:101EA8001021274814F094FC0346002B41D101224D
:101EB8001021234814F0A4FC224B1B78062B23D1B5
:101EC800204B02221A701AF00FFB03461E4AA2FB8F
:101ED80003231B0DFB6002E0FB68013BFB60FB6812
:101EE800002BF9D100221021154814F089FC174B5A
:101EF8001B881A46164911481EF04AFD0346002B56
:101F080017D00DF0E2FD14E00E4B1B78022B0BD11D
:101F18000C4B00221A700F4B1B680F4A12680F49AE
:101F280009881046984704E0064B00221A7000E022
:101F380000BF00BF1037BD4680BD00BF24930020FE
:101F4800000002425C3F002083DE1B435441002016
:101F5800603F002064410020584100205C4100207F
:101F680080B582B000AF7860786822F033F8034615
:101F7800002B01D00DF0A9FD00BF0837BD4680BD7C
:101F880080B582B000AF78607B680A4A93420DD171
:101F9800094B002283F8FF21FF220849054824F055
:101FA80052F90346002B01D00DF08FFD00BF083712
:101FB800BD4680BD309500205C3D00205C3E002081
:101FC80080B582B000AF78600B467B807B680B4A97
:101FD80093420ED17B88DAB2094B83F8FF21FF22A6
:101FE8000849064824F02FF90346002B01D00DF0CC
:101FF8006CFD00BF0837BD4680BD00BF309500208E
:102008005C3D00205C3E002080B582B000AF0346F6
:10201800FB71074817F049FF0346002B01D00DF06C
:1020280054FD044AFB79137000BF0837BD4680BDD4
:10203800749100206F41002080B500AF044817F06C
:1020480034FF0346002B01D00DF03FFD00BF80BDDB
:102058007491002080B582B000AF7860094B1B787E
:1020680083F00103DBB2002B07D0786817F01DFF5F
:102078000346002B01D00DF028FD00BF0837BD46F0
:1020880080BD00BF6F41002084B0B0B582B000AF02
:1020980007F1180484E80F000023FB71354B002278
:1020A8001A70354B1B68354A1360354B1B68334A29
:1020B8005360344B1B68314A9360304B07F1180268
:1020C8005A622E4A07F1380393622C4A07F15803E3
:1020D800D3622A4B2C4ADA61284B2C4A1A6241F205
:1020E800883226492A4818F000FB0346002B01D005
:1020F8000DF0EBFC264818F00CFB0346012B2ED103
:10210800244B1D4607F1180420686168A268E3683B
:102118000FC520696169A269E3690FC51D4B03F109
:10212800200407F1380528686968AA68EB680FC4B5
:1021380028696969AA69EB690FC4164B03F1400461
:1021480007F1580528686968AA68EB680FC4286908
:102158006969AA69EB690FC40123FB7101E00023D7
:10216800FB71FB7918460837BD46BDE8B04004B09E
:10217800704700BF78420020D8B102085000002004
:1021880050B1020874B10208ECAF02080CB00208A2
:10219800C89200201842002080B586B002AF78604F
:1021A8007B68002B71D03E4B00221A603D4A7B6849
:1021B80013607B68013BFB608023BB6023E0FFF773
:1021C8003BFF374B1B6803F58023BA6892B2364948
:1021D8001846FFF7D3F900E000BF344814F0E2FBDB
:1021E8000346012BF8D1BA682F49304815F075F924
:1021F8000346002B01D00DF068FC294B1A68BB6818
:102208001344274A1360264B1B68FA68D31ABA6826
:102218009A42D4D3224B1B687A68D31ABB60204BEE
:102228001B6803F58023BA6892B21F491846FFF766
:10223800A5F90A2300931E4BBA681B491B4815F0E1
:102248005EF90346002B01D00DF03FFC202218490F
:10225800184827F049FB0346002B03D1164B0022F0
:102268001A700AE0242200210E4827F067FB124B5F
:102278001B780133DAB2104B1A7001232422094962
:102288004FF40020FFF746F905E00B4B1B780133AC
:10229800DAB2094B1A70084B18461037BD4680BD94
:1022A80070410020F44100207441002088900020F3
:1022B800F8410020584200207842002080B58CB0B8
:1022C80002AF7860396007F1080320220021184620
:1022D80027F034FB1A4B1B884FF6FF7293420ED03F
:1022E800174B1B88002B07D0154B1B889B025B08DC
:1022F80003F10063194604E04FF0016101E04FF07B
:10230800016107F108030A2200927A680D4815F066
:10231800CDF80346002B01D00DF0D7FB07F10803D9
:1023280020223968184627F0DFFA0346002B01D12E
:10233800012300E0002318462837BD4680BD00BFB2
:10234800A007FA0B8890002084B0B0B590B000AF19
:1023580007F1500484E80F00464B1B68464A136097
:10236800464B1B68444A5360454B1B68424A93607E
:10237800414B07F150025A623F4A07F170039362DA
:102388003D4A07F19003D3623E4B3C461D460FCDB4
:102398000FC495E80F0084E80F003A4B07F12004BA
:1023A80003F120050FCD0FC495E80F0084E80F0056
:1023B800314A3B46D361304A3B462033136241F2EF
:1023C80088322D49304818F090F90346002B01D087
:1023D8000DF07BFB2C4818F09CF90346012B01D12A
:1023E800FF2340E03B4640221946284802F0C7FB3D
:1023F800214A3B46D361204A3B462033136241F2CF
:1024080088321D49204818F070F90346002B01D086
:102418000DF05BFB1C4818F07CF90346012B01D139
:10242800022320E03B4640221946194802F0A7FB48
:10243800114A3B46D361104A3B462033136241F2AE
:1024480088320D49104818F050F90346002B01D086
:102458000DF03BFB0C4818F05CF90346012B01D149
:10246800012300E0002318464037BD46BDE8B040D0
:1024780004B07047D8B102085000002050B10208DB
:1024880074B10208ECAF0208C892002028AD020817
:1024980030AD020880B586B000AF3B1D83E8070069
:1024A8000023FB750023BB753B79503B052B00F2DD
:1024B8008F8001A252F823F0D92400081B250008B8
:1024C80041250008672500088D250008B325000868
:1024D8007B79002B7ED10123FB750223BB753B7BE7
:1024E800FA7D9A4276D83B7BBA7D9A4272D3BB6812
:1024F8001B787B757B7D184600F01CF93B7B022B13
:1025080068D1BB685B783B753B7D184600F034F9B1
:1025180060E07B79002B5FD10023FB750023BB753E
:102528003B7BFA7D9A4257D83B7BBA7D9A4253D37C
:10253800012000F0FFF84FE07B79002B4ED10023FB
:10254800FB750023BB753B7BFA7D9A4246D83B7BE3
:10255800BA7D9A4242D3002000F0ECF83EE07B7945
:10256800002B3DD10023FB750023BB753B7BFA7D17
:102578009A4235D83B7BBA7D9A4231D3002000F08D
:10258800D9F82DE07B79002B2CD10023FB75002393
:10259800BB753B7BFA7D9A4224D83B7BBA7D9A4235
:1025A80020D3144B01221A701CE07B79002B1BD11D
:1025B8000023FB750023BB753B7BFA7D9A4213D839
:1025C8003B7BBA7D9A420FD30B4B01221A700BE06A
:1025D80000BF0AE000BF08E000BF06E000BF04E05B
:1025E80000BF02E000BF00E000BF00BF1837BD46D3
:1025F80080BD00BF7B4200207C42002080B582B0B5
:1026080000AF0346FB71324BFF221A70FFF714FD2F
:10261800FFF7C0F801224FF400612E4814F0F0F8DB
:10262800002240212C4814F0EBF864200EF07AFBCD
:10263800FB79002B47D0294800F07AFA0122402183
:10264800254814F0DDF800224FF40061214814F009
:10265800D7F864200EF066FB21492248FFF73AF8C4
:102668000A200EF05FFB11E0FFF7E6FC0022402194
:10267800194814F0C5F864200EF054FB01224021DB
:10268800154814F0BDF864200EF04CFB4FF480514F
:10269800114814F09DF80346002BE5D00FE0FFF732
:1026A800CBFC00F07DF802E001200EF03BFBFFF7C9
:1026B80007FB034683F00103DBB2002BF4D1044B84
:1026C8001B78FF2BEBD000BF0837BD4680BD00BF8D
:1026D8008400002000000242001802429D240008E5
:1026E800C1150008592B000880B586B000AF786086
:1026F80051233B737B683B6129233B7507F10C032E
:1027080093E8070000F0A8FA00BF1837BD4680BD5F
:1027180080B584B000AF53233B710023BB60002316
:102728003B733B1D93E8070000F096FA00BF103793
:10273800BD4680BD80B483B000AF0346FB71074B34
:102748001B78FA799A4202D0044AFB79137000BFC9
:102758000C37BD465DF8047B704700BF840000203D
:1027680080B400AF034B1B781846BD465DF8047B68
:10277800704700BF8400002080B483B000AF0346D8
:10278800FB71FB79002B02D0044AFB79137000BF60
:102798000C37BD465DF8047B704700BF79420020C6
:1027A80080B584B000AF50233B710023BB60002389
:1027B8003B733B1D93E8070000F04EFA00BF10374B
:1027C800BD4680BD80B584B000AF094B00221A70A9
:1027D80055233B710023BB6000233B733B1D93E8EB
:1027E800070000F039FA00BF1037BD4680BD00BFB2
:1027F8007C42002080B500AF0E4B1B68002B04DD27
:102808000C4B1B68013B0B4A13600A4B1B68002BDF
:102818000ED1094817F0BDFC0346002B01D00DF07E
:1028280054F9044B4FF0FF321A60044B00221A701F
:1028380000BF80BD88000020289200207A42002036
:1028480080B400AF074B1B68002B05DD064B1B78D7
:10285800042B01D9012300E000231846BD465DF88A
:10286800047B7047880000207A42002080B588B039
:1028780000AF0346FB714FF000024FF00003C7E9B9
:10288800042307F1100308221946264802F077F9B5
:10289800D7E9042310461946FEF770F90346FB777B
:1028A8004FF000024FF00003C7E9022307F10803C5
:1028B800082219461C4802F062F9D7E9022310469B
:1028C8001946FEF75BF90346BB77FA79FB7F9A4214
:1028D80024D3FA79BB7F9A4220D80021134800F00C
:1028E800D9FB134B1B780133DAB2114B1A70104B1A
:1028F8001B78012B0BD10F4B0A221A600E4817F0D8
:10290800FFFB0346002B09D00DF0DFF806E0084B6B
:102918001B78052B02D1074B0A221A6000BF20370B
:10292800BD4680BD38AD020840AD020848AD02087A
:102938007A420020880000202892002080B584B0C8
:1029480000AF78600B46FB700023FB7300237B818C
:10295800FB78023B1A467968104827F033F8FB7871
:10296800023B7A6813441B889BB27B81FB78023B4D
:102978001A460A490A4811F0C7FB0346BB817B89FE
:10298800BA899A4202D10123FB7301E00023FB7349
:10299800FB7B18461037BD4680BD00BF884200202B
:1029A8006490002090B583B000AF78600B46FB7050
:1029B800124B1B68002B1CD07B681A78104B1A70BE
:1029C8007B689A780E4B5A700D4B00225A607B68D0
:1029D8005A780B4B1A720A4B1B7A002B03D07B6870
:1029E8000333074A5360054B1C68054B93E80700FF
:1029F800A04700BF0C37BD4690BD00BF84420020F1
:102A08007C430020B0B58AB000AFF8610B467A610C
:102A1800FB76FB691A78394B1A70384BF2225A70D8
:102A2800364B00225A60354B00221A72344B1B6811
:102A3800002B1FD0FB691A78324B1A70314B0022D9
:102A48005A60FB695A782F4B1A722E4B1B7A002B4F
:102A580003D0FB6902332B4A5360294B1C68274D6E
:102A68003846284B0ECBA0472C463B4693E8070038
:102A780084E80700214B1B7A053387F827301F4B62
:102A88001A787B691A707B6901331C4A127A1A70AA
:102A98007B690233194A52781A70184B1B7A002B3B
:102AA8000CD0164B5B68002B08D07B690333134AA4
:102AB8005168124A127A184626F084FF97F8273090
:102AC800023B1A467969104826F07CFF97F82730B0
:102AD800023B1A460C490D4811F016FB03469BB2FF
:102AE800BB8497F82730023B7A691344BA8C1A8062
:102AF80097F8273018462837BD46B0BD7C430020DC
:102B080080420020884300208842002064900020F2
:102B180080B483B000AF7860044A7B68136000BF5C
:102B28000C37BD465DF8047B704700BF804200202B
:102B380080B483B000AF7860044A7B68136000BF3C
:102B48000C37BD465DF8047B704700BF8442002007
:102B580080B586B000AFF860B9607A600023FB7575
:102B68000023BB75FB685B787B757B7D0533DBB227
:102B78001946F868FFF7E2FE0346002B19D07B7D63
:102B88000533BB75BB7D1946F868FFF70BFFBB7DA6
:102B9800FA68D118BB7DC3F1FF031A46F86826F01E
:102BA800B3FEBB681A78BB7DD31ADAB2BB681A7059
:102BB80048E07B7D0433DBB21946F868FFF7BEFEB8
:102BC8000346002B1CD07B7D0433BB75BB7D7A6824
:102BD8001946F868FFF716FF0346FB75BB7DFA68D0
:102BE800D118BB7DC3F1FF031A46F86826F08CFEA6
:102BF800BB681A78BB7DD31ADAB2BB681A7021E0B9
:102C0800FB681A787B681A707B68013300221A7097
:102C18007B680233F0221A70032279680C4826F088
:102C2800D1FE03220A490B4811F06EFA03469BB203
:102C38007B827B6803337A8A1A800523FB75BB681D
:102C480000221A70FB7D18461837BD4680BD00BFAC
:102C5800884200206490002080B5C2B000AF07F51C
:102C68008473A3F5827383E8070007F58473A3F5DB
:102C780082731B783B7507F58473A3F582731B7AFF
:102C88007B7507F58473A3F582731B7A002B17D025
:102C980007F58473A3F582735B68002B10D007F5E2
:102CA8008473A3F58273596807F58473A3F5827357
:102CB8001B7A1A4607F114030233184626F082FEDF
:102CC80007F58473A3F582731B7A9A1C07F1140322
:102CD8001946174826F076FE07F58473A3F5827324
:102CE8001B7A02331A461249124811F00DFA0346AC
:102CF8009BB27B8207F58473A3F582731B7A023338
:102D080007F1140213447A8A1A8007F58473A3F52D
:102D180082731B7A0433DAB207F11403114618469A
:102D2800FEF778FD00BF07F58477BD4680BD00BF7C
:102D3800884200206490002080B5C2B000AF07F53B
:102D48008473A3F5827383E8070007F58473A3F5FA
:102D580082731B783B7507F58473A3F582731B7A1E
:102D68007B7507F58473A3F582735B78BB7507F5EC
:102D78008473A3F582731B7A002B17D007F584732D
:102D8800A3F582735B68002B10D007F58473A3F555
:102D98008273596807F58473A3F582731B7A1A4600
:102DA80007F114030333184626F00CFE07F5847365
:102DB800A3F582731B7ADA1C07F114031946174826
:102DC80026F000FE07F58473A3F582731B7A03339C
:102DD8001A461249124811F097F903469BB27B82B2
:102DE80007F58473A3F582731B7A033307F1140282
:102DF80013447A8A1A8007F58473A3F582731B7AC1
:102E08000533DAB207F1140311461846FEF702FD3E
:102E180000BF07F58477BD4680BD00BF884200200B
:102E280064900020B0B596B000AF786007F13C031D
:102E38000022194672481CF067FC0346002B01D09B
:102E48000CF043FE07F13803002219466C481CF0C9
:102E580053FD0346002B01D00CF037FE97F83B30AA
:102E680087F8303097F8393087F8313097F83A30AA
:102E780087F8323097F83C3087F8333097F83D3090
:102E880087F8343097F83E3087F835303B6CDBB242
:102E9800DB43DBB287F836307B68002B0BD07A68CF
:102EA80007F13003106818609188927999809A71B7
:102EB800544B7B6507E04FF400720021524826F01E
:102EC8003DFD514B7B65514B07F114041D460FCD59
:102ED8000FC495E8070084E807004D4A07F10C0382
:102EE80092E8030018600433198002330A0C1A7040
:102EF800002387F853303EE097F8533007F10C026F
:102F08001A4407F114031146184626F01FFD03461C
:102F180087F8523097F8533058333B4413F8283C1D
:102F28003C4AA2FB0323DB08DAB297F8523030326E
:102F3800D2B258333B4403F8442C97F853305833F3
:102F48003B4413F8282C334BA3FB0213D9080B4638
:102F58009B000B445B00D31ADAB297F85230013366
:102F68003032D2B258333B4403F8442C97F85330EC
:102F7800013387F8533097F85330062BBCD997F8AC
:102F88003630254AA2FB03235B09DBB23033DBB2C0
:102F980087F82A3097F836301F4AA2FB03125209E5
:102FA800642101FB02F29B1ADBB21A4AA2FB03233B
:102FB800DB08DBB23033DBB287F82B3097F83620EA
:102FC800144BA3FB0213D9080B469B000B445B0070
:102FD800D31ADBB23033DBB287F82C307B6D1D4659
:102FE80007F114040FCC28606960AA60EB6007CC75
:102FF80028616961AA611B2318465837BD46B0BDD0
:10300800F4920020984500209843002050AD020813
:103018006CAD0208CDCCCCCC1F85EB5180B584B00B
:1030280000AF78600B467B807B68FB600A4B1A68B0
:103038007B881344B3F5003F02D3074B00221A6084
:10304800054B18687A880023F968FEF763FA00BF11
:103058001037BD4680BD00BF9443002080B500AF47
:1030680004220B494FF40030FEF788FA084B1B681E
:10307800B3F5003F09D3064B00221A60002304224F
:1030880003494FF40030FEF745FA00BF80BD00BF8A
:103098009443002080B584B000AF78603960002088
:1030A800FFF7C0FE0346FB81FB89144A1344042240
:1030B8001349184626F086FCFB890433FB81FB89FB
:1030C8000E4A134405227968184626F07BFCFB89D2
:1030D8000533FB81FB89094A13440A4A118892780F
:1030E80019809A70FB890333FB81FB8919460348D1
:1030F800FFF794FF00BF1037BD4680BD98430020FE
:1031080074AD02082CB0020890B589B000AF034630
:103118000A46FB801346BB800020FFF783FE034668
:10312800FB83FB8B5F4A134404225F49184626F051
:1031380049FCFB8B0433FB835C4B07F10C040FCB7E
:1031480007C4238002341B0C2370594A07F1080373
:103158001268114619800233120C1A7007F108021E
:1031680007F10C031146184626F0F0FB03467B775F
:10317800FB88504AA2FB0312520B42F2107101FB6A
:1031880002F29B1A9BB24C4AA2FB03239B099BB2F7
:10319800DAB27B7F3032D2B220333B4403F8142CAE
:1031A800FB88454AA2FB031292094FF47A7101FB8E
:1031B80002F29B1A9BB2414AA2FB03235B099BB212
:1031C800DAB27B7F02333032D2B220333B4403F889
:1031D800142C07F108035A1C07F10C031146184672
:1031E80026F0B4FB03467B77BB88324AA2FB031266
:1031F800520B42F2107101FB02F29B1A9BB22E4A4B
:10320800A2FB03239B099BB2DAB27B7F3032D2B296
:1032180020333B4403F8142CBB88274AA2FB031233
:1032280092094FF47A7101FB02F29B1A9BB2234A6E
:10323800A2FB03235B099BB2DAB27B7F02333032F5
:10324800D2B220333B4403F8142CFB8B154A9C184C
:1032580007F10C031846FDF70BF8024607F10C03BB
:103268001946204626F0AEFB07F10C031846FCF77A
:10327800FFFF03469AB2FB8B1344FB83FB8B094A7F
:1032880013440F4A1188927819809A70FB8B033384
:10329800FB83FB8B19460348FFF7C0FE00BF2437AA
:1032A800BD4690BD984300207CAD020884AD02085D
:1032B80094AD02085917B7D1D34D62101F85EB5151
:1032C8002CB00208B0B588B000AF78600020FFF7D6
:1032D800A9FD0346BB83BB8B7D4A134404227D4969
:1032E800184626F06FFBBB8B0433BB837A4B07F180
:1032F8000C040FCB07C4237058233B8107F1080245
:1033080007F10C031146184626F020FB0346FB760E
:103318007A68724BA3FB02139B0D714901FB03F3FF
:10332800D31A704AA2FB03239B0CDAB2FB7E30321D
:10333800D2B220333B4403F8142C7A68694BA3FBC0
:1033480002139B0C684901FB03F3D31A5B09674A14
:10335800A2FB0323DB09DAB2FB7E02333032D2B29E
:1033680020333B4403F8142C7A6853095F49A1FBC6
:103378000313DB095E4901FB03F3D31A5D4AA2FB81
:1033880003235B0BDAB2FB7E03333032D2B2203335
:103398003B4403F8142C7A68564BA3FB02135B0BCF
:1033A80042F2107101FB03F3D31A534AA2FB032321
:1033B8009B09DAB2FB7E04333032D2B220333B446D
:1033C80003F8142C7A684C4BA3FB02139B094FF4A7
:1033D8007A7101FB03F3D31A484AA2FB03235B0962
:1033E800DAB2FB7E06333032D2B220333B4403F8E4
:1033F800142C7A68414BA3FB02135B09642101FB7F
:1034080003F3D31A3E4AA2FB0323DB08DAB2FB7E9E
:1034180007333032D2B220333B4403F8142C796896
:10342800374BA3FB0123DA0813469B0013445B00C8
:10343800CA1AD2B2FB7E08333032D2B220333B44B0
:1034480003F8142C0023FB7702E0FB7F0133FB77A2
:10345800FB7F20333B4413F8143C302BF5D0FB7F23
:1034680020333B4413F8143C2C2BEED0BB8B184A6A
:103478009C18FB7F07F10C02D51807F10C031846BE
:10348800FCF7F6FE0246FB7FD31A1A462946204669
:1034980026F098FA07F10C031846FCF7E9FE0346F4
:1034A8009AB2BB8B1344BB83BB8B094A1344154A9E
:1034B8001188927819809A70BB8B0333BB83BB8BBE
:1034C80019460348FFF7AAFD00BF2037BD46B0BD27
:1034D8009843002098AD0208A0AD02086BCA5F6B44
:1034E8008096980083DE1B4340420F00C55A7C0A31
:1034F800A08601005917B7D1D34D62101F85EB5133
:10350800CDCCCCCC2CB00208B0B594B000AFF860EC
:103518007A601A460B46FB7213463B810020FFF780
:1035280081FC0346A7F84E30B7F84E30B04A134432
:103538000422B049184626F045FAB7F84E3004334D
:10354800A7F84E30AC4A07F1400392E80300186030
:103558000433198002330A0C1A70FB681B68C7F819
:103568004130B7F84E30A24A134407F14001062211
:10357800184626F027FAB7F84E300633A7F84E302B
:10358800FB7A022B40F0DA804FF000024FF0000384
:10359800C7E90E237B681C685D6822462B46C7E98D
:1035A8000E23D7E90E014FF00002944BFDF724F8E3
:1035B80002460B46C7E90E23D7E90E2310461946E3
:1035C800FDF7DCFA0346A7F84A308D4A07F12C03C9
:1035D80007CA03C31A800233120C1A7078233B857A
:1035E80007F1280207F12C031146184626F0AEF918
:1035F800034687F84930B7F84A2053098149A1FBA7
:103608000313DB09804901FB03F3D31A7F4AA2FBAA
:1036180003235B0BDAB297F849303032D2B2503319
:103628003B4403F8242CB7F84A30784AA2FB03122B
:10363800520B42F2107101FB02F29B1A9BB2744AC0
:10364800A2FB03239B099BB2DAB297F849300133F6
:103658003032D2B250333B4403F8242CB7F84A3006
:103668006B4AA2FB031292094FF47A7101FB02F232
:103678009B1A9BB2674AA2FB03235B099BB2DAB28F
:1036880097F8493002333032D2B250333B4403F812
:10369800242CB7F84A305F4AA2FB0312520964216E
:1036A80001FB02F29B1A9BB25B4AA2FB0323DB08D5
:1036B8009BB2DAB297F8493003333032D2B2503382
:1036C8003B4403F8242C97F84930043350333B44E7
:1036D8002E2203F8242CB7F84A204F4BA3FB0213E1
:1036E800D9080B469B000B445B00D31A9BB2DAB295
:1036F80097F8493005333032D2B250333B4403F89F
:10370800242CB7F84E303A4A9C1807F12C03184677
:10371800FCF7AEFD024607F12C031946204626F0B9
:1037280051F907F12C031846FCF7A2FD03469AB29B
:10373800B7F84E301344A7F84E3041E0374B07F145
:1037480014041D460FCD0FC42B682370344A07F1AB
:1037580010031268114619800233120C1A700023E4
:10376800A7F84C3027E0B7F84C307A6813441B7838
:103778001B09DBB250333B4413F83C3C3B74B7F8AD
:103788004C307A6813441B7803F00F0350333B44E2
:1037980013F83C3C7B74B7F84E30154A13443A8A08
:1037A8001A80B7F84E300233A7F84E30B7F84C30CD
:1037B8000133A7F84C30B7F84C203B899A42D2D352
:1037C800B7F84E300A4A1344164A1188927819807D
:1037D8009A70B7F84E300333A7F84E30B7F84E302A
:1037E80019460348FFF71AFC00BF5037BD46B0BD65
:1037F80098430020B0AD0208B8AD0208000024408C
:10380800C0AD0208C55A7C0AA08601005917B7D175
:10381800D34D62101F85EB51CDCCCCCCCCAD02087A
:10382800E0AD02082CB0020880B586B000AF786021
:103838000023FB754FF400720021204826F07EF823
:103848000023FB811D4BBB60FB89BA68134404222B
:103858001B49184626F0B6F8FB890433FB81FB891F
:10386800BA68134405227968184626F0ABF8FB8934
:103878000533FB8100233B6116E0FB891A46114999
:103888003869FDF77BFEFB891A460E49B86826F0B1
:103898002BF80346002B02D10123FB7508E0FEF745
:1038A800CBFB3B6901333B613B69B3F5003FE4D394
:1038B800FB7D18461837BD4680BD00BF98430020E1
:1038C80074AD02089845002080B588B000AF7860D4
:1038D80039600023FB777868FFF7A4FA03463B8238
:1038E8003D4BFB603D4B1B68BB613B8A1A46F96840
:1038F8003B4825F0F9FF0346002B02D1394B1B68E2
:10390800BB610023BB6000237B615CE0BA697B6913
:103918001344C3F31003BB6001223968B868FDF78C
:103928002DFE3B681B785B2B48D13B8A1A463968C9
:10393800B868FDF723FE3B8A013B3A6813441B78BD
:103948005D2B3BD13B8A1A46F968386825F0CCFFD5
:103958000346002B32DD3B8AFB770023FB742AE009
:10396800FEF76AFBFA7FBB68D018FB7F3A681344FE
:1039780001221946FDF702FEFB7F3A6813441B78C3
:103988000A2B05D0FB7F3A6813441B78002B0CD117
:103998003B8A1A463968124826F014F8114ABB685F
:1039A8001360FB7F0133DBB212E0FB7F0133FB774F
:1039B800FB7C0133FB74FB7CEE2BD1D9FEF73CFB7F
:1039C8007B6901337B617B69B3F5003F9ED300239C
:1039D80018462037BD4680BD9845002094430020F6
:1039E8008C0000209847002080B500AFFEF724FB2C
:1039F8004FF400310020FDF7D2FD04214FF40030D0
:103A0800FDF7CDFD04220021034825F097FF024B66
:103A180000221A6000BF80BD9443002080B582B0A8
:103A280000AF78600B467B807B68B3F5003F0DD212
:103A3800084B1A687B881344013B064A136000232D
:103A4800042204494FF40030FDF764FD00BF083735
:103A5800BD4680BD9443002080B582B000AF0346C8
:103A6800FB71FB791A460421034812F0C9FE00BF16
:103A78000837BD4680BD00BF0000024280B588B04F
:103A880002AF78603960642300936423224A234993
:103A98000020FDF745FC642300936423204A214954
:103AA8000020FDF73DFC00237B6100233B610023E0
:103AB800FB7312E0FB7B184A32F813301A467B6915
:103AC80013447B61FB7B164A32F813301A463B6974
:103AD80013443B61FB7B0133FB73FB7B632BE9D90D
:103AE8007B69114AA2FB03235B097B613B690E4A90
:103AF800A2FB03235B093B617B699BB25B009AB223
:103B08007B681A803B699BB25B009AB23B681A805B
:103B180000BF1837BD4680BD9C4700202000001418
:103B280064480020400000181F85EB5180B582B022
:103B380000AF0346FB71FB791A460421034812F0D3
:103B48005FFE00BF0837BD4680BD00BF00140242BB
:103B580090B583B000AF0446084611461A4623467E
:103B6800FB710346BB710B467B7113463B71FB79B6
:103B78001A4602210C4812F043FEBB791A46082166
:103B8800094812F03DFE7B791A461021064812F0CA
:103B980037FE3B791A460121034812F031FE00BF77
:103BA8000C37BD4690BD00BF001402420000000063
:103BB80080B586B000AF786039603868FCF7A2FC41
:103BC8001AA3D3E90023FCF717FD02460B46C7E901
:103BD80002237868FCF796FCD7E90223FCF70CFD72
:103BE80002460B46104619464FF000020E4BFCF7F2
:103BF8004DFB02460B4610461946FCF7BFFF03462D
:103C08007B617B69002B02D101237B6106E07B6924
:103C1800B3F5FA6F02D94FF4FA637B617B699BB203
:103C280018461837BD4680BD0000E03F8DEDB5A0B1
:103C3800F7C6B03E80B586B002AFF860B9601146ED
:103C48001A460B46FB801346BB80FA88BB88009354
:103C58001346BA68F9680120FDF762FB00BF103708
:103C6800BD4680BD0000000080B58AB000AF786016
:103C78000B467B8013463B807B687B614FF00002DC
:103C88004FF00003C7E908230223FB747B885B0815
:103C98003B823B885B08FB810023FB7644E00023E2
:103CA800FB834FF6FF73BB83FB7E9BB23A8A12FB02
:103CB80003F39AB2FB891344BB813B8A5B089AB22F
:103CC800BB8913447B81BB893B8316E03B8B5B003C
:103CD8007A6913441B88FA8B934238BF1346FB83D7
:103CE8003B8B5B007A6913441B88BA8B934228BFCD
:103CF8001346BB833B8B01333B833A8B7B899A42C8
:103D0800E4D3FA8BBB8BD31A1846FCF70BFC02469C
:103D18000B46D7E90801FCF7B9FA02460B46C7E992
:103D28000823FB7E0133FB76FA7EFB7C9A42B6D3EE
:103D3800FB7C1846FCF7E6FB02460B46D7E9080170
:103D4800FCF784FD02460B46C7E9082308A3D3E91C
:103D58000023D7E90801FCF74FFC02460B4643EC69
:103D6800172BB0EE470AF0EE670A2837BD4680BD2C
:103D7800AAAAAAAAAAAAEA3F2DE9B04F90B000AF12
:103D880087ED020B87ED001B4FF000027A4BD7E955
:103D98000201FCF75BFD02460B46104619466CA370
:103DA800D3E90023FCF752FD02460B46C7E90A2374
:103DB8004FF000024FF00003D7E90A01FCF798FE24
:103DC8000346002B04D04FF000024FF00003B3E08D
:103DD80061A3D3E90023D7E90A01FCF70DFC0246E9
:103DE8000B46C7E90E23002387F837308EE0D7E962
:103DF8000E23D7E90A01FCF729FD02460B461046B7
:103E08001946FCF7DBFE034600EE103A25F0E8FD04
:103E1800F0EE407A9FED597A67EE877A17EE900AAE
:103E2800FCF792FB804689464DA3D3E90023D7E9E6
:103E38000E01FCF7E1FB02460B4692469B464FF00B
:103E480000024D4BD7E90A01FCF7D6FB02460B46A8
:103E580050465946FCF718FA02460B464046494672
:103E6800FCF712FA02460B46C7E90823D7E90E23E6
:103E78003DA1D1E90001FCF7E9FC02460B461446D6
:103E880083F0004536A3D3E9002320462946FCF7F2
:103E9800FBF902460B46C7E90623D7E90623D7E90B
:103EA8000801FCF7D3FC02460B46C7E90423D7E90F
:103EB8000423D7E90E01FCF7E7F902460B46C7E9E8
:103EC8000E23D7E90401FCF779FE07EE900AF0EE1D
:103ED800E77A9FED2B7AF4EEC77AF1EE10FA1BD44D
:103EE8004FF000024FF00003D7E90E01FCF700FE87
:103EF8000346002B05D01EA3D3E90023C7E90E23F0
:103F08000BE097F83730013387F8373097F83730B8
:103F1800132B7FF66CAF00E000BF4FF00002164B8A
:103F2800D7E90E01FCF768FB02460B46D7E900010A
:103F3800FCF78CFC02460B4643EC172BB0EE470A05
:103F4800F0EE670A4037BD46BDE8B08FAFF300809A
:103F58000000000000E0A540000000A0AAAA1A4046
:103F68000000000000C06240000000206C789A3F0A
:103F7800000000809997713D00408F4061C3D33C99
:103F8800CCBC8C2B80B582B000AF0346FB71FB79AB
:103F98001A464FF48061034812F032FC00BF08371C
:103FA800BD4680BD0004024280B582B000AF034622
:103FB8000A46FB711346BB71FB79013B032B35D8CD
:103FC80001A252F823F000BFE13F0008FB3F0008C0
:103FD8001740000827400008BB791A4620211648D8
:103FE80012F00EFCBB791A461021134812F008FC97
:103FF8001DE0BB791A464FF48051104812F000FCBE
:10400800BB791A4610210C4812F0FAFB0FE0BB7975
:104018001A464FF48071084812F0F2FB07E0BB79AA
:104028001A460421064812F0EBFB00E000BF00BF6F
:104038000837BD4680BD00BF0004024200080242A6
:104048000018024280B586B002AF396011461A46A0
:104058000346FB710B46BB711346BB80BB795B08FB
:10406800DBB2FB81FB79013B032B33D801A252F869
:1040780023F000BF8D400008A1400008B5400008AB
:10408800C9400008FA89BB88009313463A68144966
:104098000020FDF745F91EE0FA89BB880093134616
:1040A8003A6810490020FDF73BF914E0FA89BB880B
:1040B800009313463A680C490020FDF731F90AE0ED
:1040C800FA89BB88009313463A6808490120FDF72E
:1040D80027F900E000BF00BF1037BD4680BD00BF14
:1040E8000080003E00000142000002468000001CE3
:1040F80080B584B000AF0346B96087ED010AFB7351
:104108001346BB737868FCF71FFA4FF000020B4B9D
:10411800FCF772FA02460B4610461946FCF72EFDCC
:1041280003469BB2BA7BF87BB968FFF78BFF0A207E
:10413800FDF756F900BF1037BD4680BD000024408A
:1041480080B500AF0A20FDF775F90A20FDF748F998
:1041580000BF80BD80B582B000AF0346FB71FB791C
:104168001A464FF48061034812F04AFB00BF083733
:10417800BD4680BD0008024280B586B002AF7860B7
:104188000B46FB7013463B80FB785B08DBB2FB8178
:10419800FA893B88009313467A6804490120FDF7A1
:1041A800BFF800BF1037BD4680BD00BF0000405AB1
:1041B80080B582B000AF0346FB71FB791A46202117
:1041C800034812F01DFB00BF0837BD4680BD00BF85
:1041D8000008024280B586B002AF396011461A461F
:1041E8000346FB710B46BB711346BB80BB795B086A
:1041F800DBB2FB81FB79032B1AD0032B22DC012BCA
:1042080002D0022B0AD01DE0FA89BB88009313461E
:104218003A680F490120FDF783F814E0FA89BB8852
:10422800009313463A680B490120FDF779F80AE034
:10423800FA89BB88009313463A6807490120FDF7BD
:104248006FF800E000BF00BF1037BD4680BD00BF5B
:104258000800000C040000080200000480B500AF4C
:104268000020FFF7F9FB0020FFF760FC0021012088
:10427800FFF79AFE00210220FFF796FE0021032097
:10428800FFF792FE00210420FFF78EFE0020FFF7C3
:1042980061FF0020FFF78CFF00BF80BD80B58AB0AA
:1042A80000AFB9607A601A460346FB8113467B73F8
:1042B800FB89FB84082387F82230BB681B68BB6135
:1042C8000023BB84002387F8233049E04FF0000225
:1042D8004FF00003C7E904237A7B97F82330D31AF9
:1042E80087F8213097F8212097F822309A420BD28C
:1042F80097F823307A68D11897F8212007F110032E
:10430800184625F05FFB0AE097F823307A68D11841
:1043180097F8222007F11003184625F053FB07F100
:104328001002FB8C1146184623F06CFB0346BB8435
:10433800BB8C03F48073002B03D023F07DFB034672
:10434800BB84BB8C002B01D00BF0BFFBFB8C013373
:10435800FB8497F8232097F82230134487F82330FA
:1043680097F823207B7B9A42B0D315F0A3FC034631
:10437800002B01D00BF0A9FBFB8C18462837BD4653
:1043880080BD80B58AB000AFB9607A601A4603462E
:10439800FB8113467B73FB89FB8407F11003002222
:1043A8001A605A609A60DA60082387F8243000237C
:1043B8007B84002387F8253048E007F11002FB8C46
:1043C8001146184623F000FB03467B847B8CDBB246
:1043D800FF2B01D10BF079FB7A7B97F82530D31AA4
:1043E80087F821307A7B97F824309A4207D27A7B73
:1043F80007F110031946786825F0E4FA1CE097F8ED
:10440800212097F824309A420BD297F825307A6801
:10441800134497F8212007F11001184625F0D2FA25
:104428000AE097F825307A68134497F8242007F1B2
:104438001001184625F0C6FAFB8C0133FB8497F867
:10444800252097F82430134487F8253097F825203D
:104458007B7B9A42B1D3BB68002B02D0BA69BB6898
:104468001A60FB8C18462837BD4680BD80B584B0DD
:1044780000AF78600023FB607B68002B1DD03F23D2
:104488003B8100237B8114E07B891B010D4A134487
:1044980004227968184625F027FA0346002B05D12F
:1044A8007B891B01074A1344FB6006E07B890133C3
:1044B8007B817A893B899A42E6D3FB681846103794
:1044C800BD4680BDA007002080B594B000AF002392
:1044D8007B620023A7F84E30B44B1B681B699BB264
:1044E8007B84002387F84D30B04B1B689A68AF4B2C
:1044F8001B6842F001029A600023A7F84A3048E09E
:10450800B7F84A301B01AA4A1344184600F0CDFAFE
:10451800034687F82B3097F82B3003F00703DBB2FC
:10452800002B07D097F82B30DB08DBB2013387F874
:104538004D3004E097F82B30DB0887F84D30002326
:1045480087F849301AE0B7F84A301B01984A1344F3
:104558001B687B6207F124030422194693480FF075
:104568008FFD03469BB27B84B7F84E300133A7F822
:104578004E3097F84930013387F8493097F8492089
:1045880097F84D309A42DED3B7F84A300133A7F88E
:104598004A303F22B7F84A309342B1D311F0FEF8BF
:1045A8000346002B01D00BF090FA0023A7F8463001
:1045B800002021F031FF0346A7F84630B7F846300F
:1045C800002B01D00BF081FA0023A7F84630002316
:1045D800A7F84430754B1B681B699BB2FB81734B72
:1045E8001B689A68714B1B6842F001029A600023AD
:1045F800A7F842302DE0B7F842300133A7F842302F
:1046080007F11002B7F842301146184623F0DCF9DA
:104618000346A7F84630B7F84630002B19D1BB69D6
:104628007B62FA89614B1B681A6107F12403042233
:1046380019465E480FF024FD03469BB2FB815B4B95
:104648001B685A4A12691A61B7F844300133A7F84F
:104658004430B7F84630002BCDD0B7F84230012BA4
:1046680003D1B7F84630072B10D007F10E0107F138
:1046780022030222184625F037F90346002B05D1FC
:10468800B7F84E20B7F844309A4261D0002023F0A2
:1046980097F80346A7F84630B7F84630002B01D004
:1046A8000BF013FA0123A7F842300023A7F8403093
:1046B80048E0B7F840303E4A1B0113440433B7F8CA
:1046C80042201A800023FB63002387F83B30B7F8A9
:1046D8004030374A1B01134408331B68002B0FD0A6
:1046E800B7F84030324A1B01134408331B68FB6299
:1046F800FB6A1B68FB63FB6A1B7987F83B300DE09C
:10470800B7F840302A4A1B0113440C331B683B633B
:104718003B6B1033FB63082387F83B30B7F8403016
:104728001B01234A991897F83B30B7F84200FA6BF7
:10473800FFF7B4FD0346A7F84230B7F8403001331D
:10474800A7F840303F22B7F840309342B1D377E121
:104758000123A7F8423000233B8734E03B8F144AFB
:104768001B0113440433B7F842201A803B8F1B0106
:104778000F4A1344184600F098F9034687F8373073
:1047880097F83730DB08DBB2BB8697F8373003F091
:104798000703DBB2002B0DD0B7F84220BB8E1344C1
:1047A8009BB20133A7F842300AE000BF64900020B2
:1047B800A0070020B7F84220BB8E1344A7F8423068
:1047C8003B8F01333B873F223B8F9342C6D3322333
:1047D800A3F1300213469B0013445B001A463623AC
:1047E800303B13449C4A82FB03129210DB17D31A06
:1047F800DBB23033DBB23B723223A3F13002134613
:104808009B0013445B001A463623303B1A44924BF4
:1048180083FB02139910D317C91A0B469B000B444C
:104828005B00D11ACBB23033DBB27B7246234A2B02
:1048380005D16523612B02D162236E2B37D0462325
:10484800462B34D046234D2B05D16523612B02D14D
:104858006223722B2BD04623412B02D16523702B68
:1048680025D046234D2B05D16523612B02D1622328
:10487800792B1CD046234A2B05D16523752B02D1F1
:1048880062236E2B13D046234A2B05D16523752B43
:1048980002D162236C2B0AD04623412B02D1652317
:1048A800752B04D04623532B01D0012300E00023AD
:1048B800DBB23033DBB2BB7246234A2B05D165230A
:1048C800612B02D162236E2B51D04623462B4CD04C
:1048D80046234D2B05D16523612B02D16223722B10
:1048E80041D04623412B02D16523702B39D0462372
:1048F8004D2B05D16523612B02D16223792B2ED054
:1049080046234A2B05D16523752B02D162236E2BD2
:1049180023D046234A2B05D16523752B02D1622368
:104928006C2B18D04623412B02D16523752B10D050
:104938004623532B0BD046234F2B06D046234E2B12
:1049480001D1312314E0322312E0302310E039235F
:104958000EE038230CE037230AE0362308E035233D
:1049680006E0342304E0332302E0322300E031235D
:10497800FB723223202B0BD13523303B364A82FB86
:1049880003129210DB17D31ADBB23033DBB213E019
:104998003223A3F1300213469B0013445B001A46EE
:1049A8003523303B13442C4A82FB03129210DB1749
:1049B800D31ADBB23033DBB23B733223202B11D155
:1049C8003523A3F13002244B83FB02139910D3172C
:1049D800C91A0B469B000B445B00D11ACBB230338B
:1049E800DBB218E03223A3F1300213469B001344D4
:1049F8005B001A463523303B1A44174B83FB0213DE
:104A08009910D317C91A0B469B000B445B00D11AA7
:104A1800CBB23033DBB27B733B46062219460F48D4
:104A280000F0ADF807F108013B460622184624F0CD
:104A38005BFF0346002B03D00021084800F057F81D
:104A480010F0CEFE0346002B01D00BF03EF800BF5D
:104A58005037BD4680BD00BF67666666E4AD020894
:104A680080B584B000AF78600023FB737B68002BAF
:104A780016D07868FFF7FAFCB860BB68002B0FD037
:104A8800BB689B68002B02D00123FB7308E0BB685E
:104A9800DB68002B02D00223FB7301E00023FB73C9
:104AA800FB7B18461037BD4680BD80B586B000AF89
:104AB80078600023FB757B68002B13D07868FFF7BC
:104AC800D5FC38613B69002B0CD03B699B68002BF7
:104AD80006D03B699B68FB60FB681B79FB7501E0AE
:104AE8000823FB75FB7D18461837BD4680BD80B589
:104AF80088B000AF786039607B68002B3BD078685D
:104B0800FFF7B4FC78617B69002B34D00023FB7776
:104B18003B68BB617B699B68002B0CD07B699B68F9
:104B2800FB60FB681B79FB77BB69002B0ED1FB6828
:104B38001B68BB610AE00823FB77BB69002B05D122
:104B48007B69DB683B613B691033BB6110F026FE73
:104B58000346002B01D00AF0B8FF7B699888FB7FD9
:104B6800BA697968FFF79AFB10F03AFE0346002B02
:104B780001D00AF0AAFF00BF2037BD4680BD80B52E
:104B880088B000AFF860B9601346FB71FB68002B72
:104B980025D0BB68002B22D0F868FFF767FCB86106
:104BA800BB69002B1BD00023FB77BB699B68002BDC
:104BB80006D0BB699B687B617B691B79FB7701E049
:104BC8000823FB77FA79FB7F9A4201D2FB79FB77BE
:104BD800BB699888FB7FBA680021FFF7D2FB00BF4A
:104BE8002037BD4680BD80B586B000AF786039609B
:104BF8007B68002B23D03B68002B20D07868FFF718
:104C080035FC78617B69002B19D07B699B68002B88
:104C18000BD07B699B68FB60FB681968FB681B7994
:104C28001A46386824F0CEFE09E07B69DB683B61F0
:104C38003B69103308221946386824F0C3FE00BFC8
:104C48001837BD4680BD80B586B000AF78604FF09C
:104C580000024FF00003C7E904237B68002B12D041
:104C68007868FFF703FCF860FB68002B0BD0FB6843
:104C7800DB68002B07D0FB68DB68BB60BB68D3E947
:104C88000623C7E90423D7E9042343EC172BB0EE26
:104C9800470AF0EE670A1837BD4680BD80B588B070
:104CA80000AFF86087ED000B0023FB77FB68002B53
:104CB80023D0F868FFF7DAFBB861BB69002B1CD07A
:104CC800BB69DB68002B18D0BB69DB687B617B693B
:104CD800D3E90223D7E90001FBF70AFF0346002BBB
:104CE8000BD07B69D3E90023D7E90001FBF70AFF62
:104CF8000346002B01D00123FB77FB7F18462037A2
:104D0800BD4680BD80B588B000AFF86087ED000B68
:104D1800FB68002B48D0F868FFF7A8FBF861FB692F
:104D2800002B41D0FB69DB68002B3DD0FB69DB68B9
:104D3800BB61BB69D3E90623D7E90001FBF786FD10
:104D480002460B4643EC172BB0EE470AF0EE670A13
:104D580024F0CEFE51EC100BBB69D3E90623FBF718
:104D68004BFC02460B46C7E90423BB69D3E9002381
:104D7800D7E90401FBF7B2FE0346002B03D0BB6959
:104D8800D3E9002314E0BB69D3E90223D7E904017E
:104D9800FBF7C2FE0346002B03D0BB69D3E902230D
:104DA80006E0D7E9042303E04FF000024FF00003C8
:104DB80043EC172BB0EE470AF0EE670A2037BD46E2
:104DC80080BD000080B483B000AF0346FB80044A76
:104DD800FB88138000BF0C37BD465DF8047B704725
:104DE8004449002080B400AF034B1B881846BD46D9
:104DF8005DF8047B704700BF4449002080B582B04D
:104E080000AF4FF000024FF00003C7E900233B4614
:104E1800082219460748FFF7B2FED7E900231046D3
:104E28001946FBF783FE0346034A136000BF0837A1
:104E3800BD4680BD4CAE0208900B002080B582B004
:104E480000AF4FF000024FF00003C7E900233B46D4
:104E5800082219460748FFF792FED7E900231046B3
:104E68001946FBF763FE0346034A136000BF083781
:104E7800BD4680BD4CAE0208940B002080B500AF43
:104E8800042246494FF42020FCF778FB434B1B884B
:104E9800002B03D0414B5B88002B13D13F4B40F2D2
:104EA80001221A803D4B40F201225A80012304223C
:104EB8003A494FF42020FCF72DFB394B40F20122F0
:104EC8001A801DE0354B1B8840F20122934213D013
:104ED800324B40F201221A80304B40F201225A80B4
:104EE800012304222D494FF42020FCF713FB2C4BFF
:104EF80040F201221A8003E0284B5A88284B1A8076
:104F0800284BD3F8F43003F00053002B03D00021D2
:104F18002548FEF7BFF8234BD3F8F43003F00073AD
:104F2800002B08D01E4B1B88B3F5027F03D01C4B07
:104F38004FF400721A801B4BD3F8F430194A43F42B
:104F48000003C2F8F430FFF759FFFFF777FF144B5F
:104F58001B88B3F5027F14D0B3F5027F1ADCB3F5D2
:104F6800017F04D040F20522934205D012E00F4B96
:104F78004FF0FF321A600EE00D4B4FF0FF321A600F
:104F880009E00A4B4FF0FF321A60094B4FF0FF322D
:104F98001A6000E000BF00BF80BD00BF404900208C
:104FA80044490020000C024654AE0208900B002031
:104FB800940B002080B58AB000AF0346FB71334ADA
:104FC800FB791370314B1B78002B5AD04FF000023D
:104FD8004FF00003C7E9062307F118030822194612
:104FE8002B48FFF7CCFDD7E9062310461946FBF7F7
:104FF800C5FD034687F8273097F82730002B3DD0AA
:1050080097F82730062B39D84FF000024FF00003ED
:10501800C7E9042397F82730013B1E4A52F823308A
:1050280007F1100108221846FFF7A9FDD7E9042364
:1050380010461946FBF7A2FD03469AB2164B1A8092
:105048004FF000024FF00003C7E9022397F827301A
:10505800013B124A52F8233007F10801082218468A
:10506800FFF78DFDD7E9022310461946FBF786FDA9
:1050780003469AB20A4B1A8000BF02E0034B002293
:105088001A7000BF2837BD4680BD00BF4A490020BE
:105098005CAE0208980B002046490020B00B0020A7
:1050A8004849002080B400AF0B4B1B68002B04DD7F
:1050B800094B1B68013B084A1360084B1B68002B0F
:1050C80004DD064B1B68013B044A136000BFBD4664
:1050D8005DF8047B704700BF900B0020940B002004
:1050E80080B588B000AF07F10803002219462E48A2
:1050F8001AF00AFB0346002B01D00AF0E6FC3B1D20
:105108000022194628481AF0F7FB0346002B01D065
:105118000AF0DBFC3B7A1A461201D31A9B009BB2B9
:105128007A7A1344FB83214B1B88B3F5807F27D100
:105138001F4B1B68002B08D11C4B4FF401721A80BF
:105148001B4B4FF0FF321A6029E01A4B1B68002BEB
:1051580008D1164B40F205221A80164B4FF0FF3249
:105168001A601CE0144B1B78002B18D0134B1B88BB
:10517800FA8B9A4213D10D4B40F203221A800EE0AB
:105188000A4B1B8840F20322934208D10C4B1B8820
:10519800FA8B9A4203D1054B4FF400721A8000BF74
:1051A8002037BD4680BD00BFF4920020444900204E
:1051B800900B0020940B00204A490020464900200B
:1051C8004849002080B588B000AF0346FB712C4BDE
:1051D8001B884FF6FF7293424DD0294B1B88B3F5BD
:1051E800027F48D04FF000024FF00003C7E90423C4
:1051F80007F11003082219462248FFF7C0FCD7E937
:10520800042310461946FBF7B9FC0346FB774FF019
:1052180000024FF00003C7E9022307F10803082240
:1052280019461948FFF7ABFCD7E90223104619467F
:10523800FBF7A4FC0346BB77FA79FB7F9A421AD3A3
:10524800FA79BB7F9A4216D800211048FDF722FF51
:105258000B4B1B88B3F5807F04D1094B40F2012228
:105268001A8008E0064B1B88B3F5007F03D3044B74
:105278004FF480721A8000BF2037BD4680BD00BF42
:105288004449002064AE02086CAE020874AE0208FD
:10529800B0B586B000AFF860B96087ED000BBA68AA
:1052A800FB689A4204D94FF000024FF0000324E053
:1052B800B868FBF727F916A3D3E90023FBF79CF995
:1052C80002460B4614461D46F868FBF71BF90246D2
:1052D8000B4620462946FBF7B9FA02460B46C7E9B2
:1052E800042397ED040B24F0AFFB51EC100BD7E926
:1052F8000023FBF781F902460B4643EC172BB0EE6F
:10530800470AF0EE670A1837BD46B0BDAFF3008014
:10531800182D4454FB21194080B584B000AF07F123
:10532800080383E803001346FB717B7A002B13D034
:10533800364B1B7883F00103DBB2002B06D0FB79D8
:105348001A460121324811F05BFA05E0FB791A464A
:1053580004212F4811F054FABB7A002B13D02B4BA1
:105368001B7883F00103DBB2002B06D0FB791A46C9
:105378000121274811F044FA05E0FB791A46042177
:10538800234811F03DFAFB7A002B10D01F4B5B78B5
:10539800002B06D0FB791A4601211D4811F030FA7E
:1053A80005E0FB791A460421194811F029FA3B7BDC
:1053B800002B10D0154B5B78002B06D0FB791A46D2
:1053C8000121134811F01CFA05E0FB791A46042163
:1053D8000F4811F015FA3B7A002B13D00B4B1B78B2
:1053E80083F00103DBB2002B06D0FB791A460121BA
:1053F800074811F005FA05E0FB791A46042104482C
:1054080011F0FEF900BF1037BD4680BD444D0020A5
:10541800000C024280B584B000AF07F1080383E8AE
:1054280003001346FB717B7A002B05D0FB791A46E3
:105438000221154811F0E4F9BB7A002B05D0FB795D
:105448001A460821104811F0DBF9FB7A002B05D029
:10545800FB791A4610210C4811F0D2F93B7B002B3E
:1054680005D0FB791A462021074811F0C9F93B7A83
:10547800002B05D0FB791A464021034811F0C0F9EA
:1054880000BF1037BD4680BD000C024290B585B004
:1054980000AF07F1080484E80300394681E80C00EE
:1054A8007B78002B0BD07B7A83F00103DBB21A46A2
:1054B8008021254811F0A4F97A7A244BDA70BB7858
:1054C800002B0CD0BB7A83F00103DBB21A464FF4F1
:1054D80080711D4811F094F9BA7A1C4B1A71FB7847
:1054E800002B0CD0FB7A83F00103DBB21A464FF491
:1054F8000071154811F084F9FA7A144B5A713B7906
:10550800002B0CD03B7B83F00103DBB21A464FF42F
:1055180080610D4811F074F93A7B0C4B9A713B7815
:10552800002B0CD03B7A83F00103DBB21A464FF410
:105538000061054811F064F93A7A044B9A7000BF8B
:105548001437BD4690BD00BF000C0242444D0020F8
:1055580090B585B000AF07F1080484E80300394628
:1055680081E80C0000223B4693E80300FFF7D4FED5
:1055780000223B4693E80300FFF74CFF3B460CCB69
:1055880007F1080103C9FFF781FF01223B4693E8B1
:105598000300FFF73FFF01223B4693E80300FFF7B4
:1055A800BBFE00BF1437BD4690BD000090B587B064
:1055B80000AF07F1080484E80300394681E80C00CD
:1055C800FF23FB750023BB7500237B7500233B7508
:1055D8007B78002B07D07B7A83F00103DBB2002BAA
:1055E80001D00123FB75BB78002B07D0BB7A83F071
:1055F8000103DBB2002B01D00223FB75FB78002BE3
:1056080007D0FB7A83F00103DBB2002B01D0032320
:10561800FB753B79002B07D03B7B83F00103DBB2A2
:10562800002B01D00423FB753B78002B07D03B7A75
:1056380083F00103DBB2002B01D00523FB75FB7D52
:10564800052B2ED8FB7D013B03F00103002B14BF73
:1056580001230023BB75FB7D013B5B1003F00103B5
:10566800002B14BF012300237B75FB7D013B9B109E
:1056780003F00103002B14BF012300233B75BB7DFE
:105688001A460221094811F0BBF87B7D1A46082109
:10569800064811F0B5F83B7D1A461021034811F071
:1056A800AFF800BF1C37BD4690BD00BF00140242D2
:1056B80080B582B000AF03460A46FB711346BB7142
:1056C800FB791A464FF400610E4811F099F80A2048
:1056D8000BF028FBBB791A464FF48051094811F0AA
:1056E8008FF80A200BF01EFBBB791A464FF40041D5
:1056F800044811F085F80A200BF014FB00BF0837A6
:10570800BD4680BD0004024280B58AB000AF0346A2
:10571800FB8001224FF480511F4811F071F80A20D4
:105728000BF000FBFB881846FAF7ECFE4FF000027E
:105738001A4BFBF78BF802460B46C7E9082397ED8F
:10574800081B9FED110B24F00FF887ED060B10A333
:10575800D3E90023D7E90601FAF796FD02460B467E
:10576800C7E9042397ED040B23F096FF0346FB7368
:10577800FB7B19460020FCF7BBF803461846283780
:10578800BD4680BDAFF300800000000080C014411A
:105798000000000000A1E3400004024200408F40E6
:1057A80080B582B000AF0346FB71FB791A464FF40F
:1057B8000071034811F024F800BF0837BD4680BDCA
:1057C8000004024280B582B000AF0023FB712E4B6B
:1057D8001B683B603B881946052023F0C9FE02463A
:1057E8002A4B11461970C2F307215970C2F30742B8
:1057F8009A70264B1B7826491846FCF721F8034671
:105808001A46FB791343FB7105200BF08BFA7B8852
:105818001946042023F0ACFE02461C4B11461970B1
:10582800C2F307215970C2F307429A70174B1B78CD
:1058380017491846FCF704F803461A46FB79134340
:10584800FB7105200BF06EFA104B1A78114B1A7089
:10585800104B1B7810491846FCF70CF803461A46FB
:10586800FB791343FB7103220A49084824F03CF8EA
:105878000346002B03D0FB7943F00103FB71FB794E
:1058880018460837BD4680BD7CAE0208584D00203A
:10589800594D00205C4D00205D4D002080B584B03E
:1058A80000AF03460A46FB801346BB800023BB813A
:1058B8000023FB73F8880223022240F6C41123F068
:1058C80083FE0346BB81BB891946082023F050FE9E
:1058D8000246394B11461970C2F307215970C2F3B9
:1058E80007429A70344B1B7834491846FBF7A8FFD7
:1058F80003461A46FB7B1343FB732F4B1A78304B36
:105908001A702F4B1B782F491846FBF7B3FF034635
:105918001A46FB7B1343FB7303222949264823F0CD
:10592800E3FF0346002B03D0FB7B43F00103FB732B
:10593800B8880223022240F6C41123F045FE03462C
:10594800BB81BB891946092023F012FE02461A4B77
:1059580011461970C2F307215970C2F307429A70B1
:10596800154B1B7815491846FBF76AFF03461A467C
:10597800FB7B1343FB73104B1A78114B1A70104BB7
:105988001B7810491846FBF775FF03461A46FB7B40
:105998001343FB7303220A49074823F0A5FF034674
:1059A800002B03D0FB7B43F00103FB73FB7B184602
:1059B8001037BD4680BD00BF584D0020594D00200E
:1059C8005C4D00205D4D002080B485B000AFF860CC
:1059D800B9601346FB80FB684FF47A7202FB03F34D
:1059E800174AD362BB684FF47A7202FB03F3144A76
:1059F8001363134AFB88A2F84C30114B0022A3F81A
:105A08004E200F4B00225A630D4B5A6B0C4BDB6A2E
:105A180013440B4A93630A4BDA68094B1B6BD31A7E
:105A2800074AD363064BDB68054A1364044B9B683B
:105A3800034A536400BF1437BD465DF8047B7047C2
:105A48004C49002000000000B0B590B000AF87EDD1
:105A5800000B4FF00002844BD7E90001FAF7F6FE7D
:105A680002460B46C7E90A234FF000024FF0000335
:105A7800D7E90A01FBF73CF80346002B04D04FF0A6
:105A880000024FF00003CCE06BA3D3E90023D7E971
:105A98000A01FAF7B1FD02460B461046194668A3FB
:105AA800D3E90023FAF7A8FD02460B46C7E90E23FF
:105AB80000237B6397E064A3D3E90023D7E90E01B1
:105AC800FAF79AFD02460B46C7E9082360A3D3E913
