:020000040800F2
:1000000000000C204D1601087D0B0108850B01082E
:100010008D0B0108950B01089D0B01089D16010829
:10002000000000000000000000000000A50B010817
:10003000B30B010800000000C10B0108CF0B010841
:100040009D1601089D160108DD0B01089D1601088B
:100050009D1601089D1601089D1601089D160108B0
:100060009D1601089D1601089D1601089D160108A0
:100070009D1601089D160108F10B01089D16010847
:100080009D1601089D160108FF0B01089D16010829
:100090009D1601089D1601089D1601089D16010870
:1000A0009D1601089D1601089D1601080D0C0108FA
:1000B0009D160108210C0108350C01089D16010848
:1000C0009D1601089D1601089D1601089D16010840
:1000D0009D160108490C01089D1601089D1601088E
:1000E0009D1601089D1601089D1601089D16010820
:1000F0009D1601089D1601085D0C0108710C010890
:10010000850C0108990C01089D1601089D1601082F
:100110009D1601089D1601089D1601089D160108EF
:100120009D160108AD0C0108C10C0108D50C010891
:100130009D160108E90C01089D1601089D1601088D
:100140009D1601089D1601089D160108FD0C010869
:10015000110D0108250D01089D1601089D160108C5
:100160009D1601089D1601089D1601089D1601089F
:100170009D1601089D1601089D1601089D1601088F
:100180009D1601089D1601089D1601089D1601087F
:100190009D1601089D1601089D1601089D1601086F
:1001A000390D01084D0D01089D1601089D16010825
:1001B0009D1601089D160108610D01089D16010894
:1001C000750D0108890D01089D0D01089D16010896
:1001D0009D1601089D1601089D1601089D1601082F
:1001E0009D1601089D1601089D160108B10D010814
:1001F0009D1601089D160108BD0D01089D160108F8
:100200009D160108D10D01089D1601089D160108D3
:100210009D1601089D1601089D1601089D160108EE
:100220009D1601089D1601089D1601089D160108DE
:080230009D1601089D1601084E
:1002380010B5054C237833B9044B13B10448AFF318
:1002480000800123237010BDD01A00200000000098
:1002580000BB020808B5034B1BB103490348AFF3C1
:10026800008008BD00000000D41A002000BB02086E
:10027800034613F8012B002AFBD1181A01387047DE
:1002880081F0004102E000BF83F0004330B54FEA3F
:1002980041044FEA430594EA050F08BF90EA020FAC
:1002A8001FBF54EA000C55EA020C7FEA645C7FEA3F
:1002B800655C00F0E2804FEA5454D4EB5555B8BF62
:1002C8006D420CDD2C4480EA020281EA030382EAD3
:1002D800000083EA010180EA020281EA0303362D65
:1002E80088BF30BD11F0004F4FEA01314FF4801C38
:1002F8004CEA113102D0404261EB410113F0004F4A
:100308004FEA03334CEA133302D0524263EB430300
:1003180094EA050F00F0A780A4F10104D5F1200E9E
:100328000DDB02FA0EFC22FA05F2801841F10001F9
:1003380003FA0EF2801843FA05F359410EE0A5F1CD
:1003480020050EF1200E012A03FA0EFC28BF4CF0FE
:10035800020C43FA05F3C01851EBE37101F00045B4
:1003680007D54FF0000EDCF1000C7EEB00006EEBC1
:100378000101B1F5801F1BD3B1F5001F0CD349084B
:100388005FEA30004FEA3C0C04F101044FEA4452A2
:1003980012F5800F80F09A80BCF1004F08BF5FEA29
:1003A800500C50F1000041EB045141EA050130BD09
:1003B8005FEA4C0C404141EB0101013C28BFB1F51B
:1003C800801FE9D291F0000F04BF01460020B1FA66
:1003D80081F308BF2033A3F10B03B3F120020CDA39
:1003E8000C3208DD02F1140CC2F10C0201FA0CF017
:1003F80021FA02F10CE002F11402D8BFC2F1200C7C
:1004080001FA02F120FA0CFCDCBF41EA0C01904031
:10041800E41AA2BF01EB0451294330BD6FEA04047A
:100428001F3C1CDA0C340EDC04F11404C4F1200265
:1004380020FA04F001FA02F340EA030021FA04F377
:1004480045EA030130BDC4F10C04C4F1200220FACE
:1004580002F001FA04F340EA0300294630BD21FA0C
:1004680004F0294630BD94F0000F83F4801306BFD2
:1004780081F480110134013D4EE77FEA645C18BFC6
:100488007FEA655C29D094EA050F08BF90EA020F5D
:1004980005D054EA000C04BF1946104630BD91EA55
:1004A800030F1EBF0021002030BD5FEA545C05D158
:1004B8004000494128BF41F0004130BD14F5800497
:1004C8003CBF01F5801130BD01F0004545F0FE410B
:1004D80041F470014FF0000030BD7FEA645C1ABF40
:1004E800194610467FEA655C1CBF0B46024650EA77
:1004F800013406BF52EA033591EA030F41F40021A3
:1005080030BD00BF90F0000F04BF0021704730B528
:100518004FF4806404F132044FF000054FF00001FD
:1005280050E700BF90F0000F04BF0021704730B5BE
:100538004FF4806404F1320410F0004548BF404293
:100548004FF000013EE700BF42004FEAE2014FEAE8
:1005580031014FEA02701FBF12F07F4393F07F4FC3
:1005680081F06051704732F07F4208BF704793F0C6
:100578007F4F04BF41F40021704730B54FF46074D9
:1005880001F0004521F000411CE700BF50EA0102DC
:1005980008BF704730B54FF000050AE050EA010285
:1005A80008BF704730B511F0004502D5404261EBF5
:1005B80041014FF4806404F132045FEA915C3FF436
:1005C800D8AE4FF003025FEADC0C18BF03325FEAD3
:1005D800DC0C18BF033202EBDC02C2F1200300FA84
:1005E80003FC20FA02F001FA03FE40EA0E0021FAA9
:1005F80002F11444BDE600BF70B54FF0FF0C4CF497
:10060800E06C1CEA11541DBF1CEA135594EA0C0F48
:1006180095EA0C0F00F0DEF82C4481EA030621EA83
:100628004C5123EA4C5350EA013518BF52EA0335BE
:1006380041F4801143F4801338D0A0FB02CE4FF070
:100648000005E1FB02E506F00042E0FB03E54FF0A0
:100658000006E1FB03569CF0000F18BF4EF0010E98
:10066800A4F1FF04B6F5007F64F5407404D25FEA94
:100678004E0E6D4146EB060642EAC62141EA555147
:100688004FEAC52040EA5E504FEACE2EB4F1FD0C89
:1006980088BFBCF5E06F1ED8BEF1004F08BF5FEA07
:1006A800500E50F1000041EB045170BD06F00046B9
:1006B80046EA010140EA020081EA0301B4EB5C0466
:1006C800C2BFD4EB0C0541EA045170BD41F480115E
:1006D8004FF0000E013C00F3AB8014F1360FDEBF83
:1006E800002001F0004170BDC4F10004203C35DA5F
:1006F8000C341BDC04F11404C4F1200500FA05F3E2
:1007080020FA04F001FA05F240EA020001F0004282
:1007180021F0004110EBD37021FA04F642EB0601F8
:100728005EEA430E08BF20EAD37070BDC4F10C0422
:10073800C4F1200500FA04F320FA05F001FA04F2E6
:1007480040EA020001F0004110EBD37041F10001D2
:100758005EEA430E08BF20EAD37070BDC4F12005DD
:1007680000FA05F24EEA020E20FA04F301FA05F245
:1007780043EA020321FA04F001F0004121FA04F2ED
:1007880020EA020000EBD3705EEA430E08BF20EABD
:10079800D37070BD94F0000F0FD101F000464000F7
:1007A80041EB010111F4801F08BF013CF7D041EA79
:1007B800060195F0000F18BF704703F0004652007D
:1007C80043EB030313F4801F08BF013DF7D043EA4E
:1007D8000603704794EA0C0F0CEA135518BF95EA04
:1007E8000C0F0CD050EA410618BF52EA4306D1D18B
:1007F80081EA030101F000414FF0000070BD50EAAA
:10080800410606BF1046194652EA430619D094EA33
:100818000C0F02D150EA013613D195EA0C0F05D11D
:1008280052EA03361CBF104619460AD181EA030171
:1008380001F0004141F0FE4141F470014FF0000029
:1008480070BD41F0FE4141F4780170BD70B54FF0C4
:10085800FF0C4CF4E06C1CEA11541DBF1CEA135544
:1008680094EA0C0F95EA0C0F00F0A7F8A4EB050426
:1008780081EA030E52EA03354FEA013100F088801D
:100888004FEA03334FF0805545EA131343EA1263E6
:100898004FEA022245EA111545EA10654FEA00269B
:1008A8000EF000419D4208BF964244F1FD0404F554
:1008B800407402D25B084FEA3202B61A65EB0305B0
:1008C8005B084FEA32024FF480104FF4002CB6EB6D
:1008D800020E75EB030E22BFB61A754640EA0C00ED
:1008E8005B084FEA3202B6EB020E75EB030E22BF2D
:1008F800B61A754640EA5C005B084FEA3202B6EB6E
:10090800020E75EB030E22BFB61A754640EA9C002C
:100918005B084FEA3202B6EB020E75EB030E22BFFC
:10092800B61A754640EADC0055EA060E18D04FEABA
:10093800051545EA16754FEA06164FEAC30343EA5A
:1009480052734FEAC2025FEA1C1CC0D111F4801F27
:100958000BD141EA00014FF000004FF0004CB6E720
:1009680011F4801F04BF01430020B4F1FD0C88BFBF
:10097800BCF5E06F3FF6AFAEB5EB030C04BFB6EBCA
:10098800020C5FEA500C50F1000041EB045170BDBD
:100998000EF0004E4EEA113114EB5C04C2BFD4EBEA
:1009A8000C0541EA045170BD41F480114FF0000E6E
:1009B800013C90E645EA060E8DE60CEA135594EAEA
:1009C8000C0F08BF95EA0C0F3FF43BAF94EA0C0FED
:1009D8000AD150EA01347FF434AF95EA0C0F7FF462
:1009E80025AF104619462CE795EA0C0F06D152EAB6
:1009F80003353FF4FDAE1046194622E750EA41069A
:100A080018BF52EA43067FF4C5AE50EA41047FF4AA
:100A18000DAF52EA43057FF4EBAE12E74FF0FF3C0F
:100A280006E000BF4FF0010C02E000BF4FF0010CE0
:100A38004DF804CD4FEA410C7FEA6C5C4FEA430C59
:100A480018BF7FEA6C5C1BD001B050EA410C0CBFA8
:100A580052EA430C91EA030F02BF90EA020F00200A
:100A6800704710F1000F91EA030F58BF994208BF71
:100A780090422CBFD8176FEAE37040F0010070472E
:100A88004FEA410C7FEA6C5C02D150EA013C07D185
:100A98004FEA430C7FEA6C5CD6D152EA033CD3D0D0
:100AA8005DF8040B704700BF8446104662468C46CA
:100AB8001946634600E000BF01B5FFF7B7FF0028FD
:100AC80048BF10F1000F01BD4DF808EDFFF7F4FF26
:100AD8000CBF012000205DF808FB00BF4DF808EDB1
:100AE800FFF7EAFF34BF012000205DF808FB00BFD4
:100AF8004DF808EDFFF7E0FF94BF012000205DF8F6
:100B080008FB00BF4DF808EDFFF7CEFF94BF0120AA
:100B180000205DF808FB00BF4DF808EDFFF7C4FFA3
:100B280034BF012000205DF808FB00BF4FEA4102F6
:100B380012F5001215D211D56FF47873B3EB625227
:100B480012D94FEAC12343F0004343EA505311F04E
:100B5800004F23FA02F018BF404270474FF00000E0
:100B6800704750EA013005D111F0004008BF6FF01E
:100B7800004070474FF00000704700BF4A0011D294
:100B880012F5001211D20DD56FF47873B3EB6252DF
:100B98000ED44FEAC12343F0004343EA505323FAEB
:100BA80002F070474FF00000704750EA013002D160
:100BB8004FF0FF3070474FF0000070474FEA410296
:100BC800B2F1E04324BFB3F5001CDCF1FE5C0DD9A3
:100BD80001F0004C4FEAC0024CEA5070B2F1004FED
:100BE80040EB830008BF20F00100704711F0804FF0
:100BF80021D113F13872BCBF01F00040704741F4B5
:100C080080114FEA5252C2F11802C2F1200C10FAB8
:100C18000CF320FA02F018BF40F001004FEAC1239C
:100C28004FEAD32303FA0CFC40EA0C0023FA02F340
:100C38004FEA4303CCE77FEA625307D150EA013316
:100C48001EBF4FF0FE4040F44000704701F00040E6
:100C580040F0FE4040F40000704700BF53B94AB965
:100C6800002908BF00281CBF4FF0FF314FF0FF30AC
:100C780000F0B2B9ADF1080C6DE904CE00F006F849
:100C8800DDF804E0DDE9022304B070472DE9F04FF8
:100C98008C46099E04460F46002B48D18A421546C9
:100CA8005ED9B2FA82F33BB1C3F120029F409D4066
:100CB8009C4020FA02F217434FEA154E1FFA85FCB2
:100CC800220CB7FBFEF10EFB117701FB0CF042EA98
:100CD8000742904207D9AA1801F1FF3702D2904281
:100CE80000F258813946121AA4B2B2FBFEF00EFB8C
:100CF800102200FB0CFC44EA0244A4450BD92C1931
:100D080000F1FF322CBF01270027A44502D9002F8C
:100D180000F04381104640EA0140A4EB0C04002196
:100D28001EB1DC400023C6E90043BDE8F08F8B42CA
:100D380006D90EB1C6E9000100210846BDE8F08FCA
:100D4800B3FA83F1002951D16345C0F0168182427C
:100D580040F213810846002EE7D0C6E90047E4E7D1
:100D6800002A00F0AF80B2FA82F3002B40F0C28074
:100D78008A1A4FEA154EAFB20121200CB2FBFEFCD5
:100D88000EFB1C2240EA024207FB0CF090420ED9EF
:100D9800AA180CF1FF382CBF4FF001094FF00009D9
:100DA800904203D9B9F1000F00F0F080C446121A3E
:100DB800A4B2B2FBFEF00EFB102200FB07F744EAD8
:100DC8000244A7420ED92C1900F1FF322CBF4FF074
:100DD800010E4FF0000EA74203D9BEF1000F00F03C
:100DE800D2801046E41B40EA0C4099E7C1F1200587
:100DF8008B400CFA01F400FA01F922FA05F72CFAF3
:100E080005FC8A401F4320FA05F3380C23431FFAD8
:100E180087FE1C0CBCFBF0F800FB18CC44EA0C4421
:100E280008FB0EFCA4450ED93C1908F1FF3A2CBF6B
:100E38004FF0010B4FF0000BA44503D9BBF1000F95
:100E480000F0B880D046A4EB0C041FFA83FCB4FB76
:100E5800F0F300FB134403FB0EFE4CEA0444A645E2
:100E68000ED93C1903F1FF302CBF4FF0010C4FF0A5
:100E7800000CA64503D9BCF1000F00F09F80034683
:100E880043EA0840A4EB0E04A0FB02EC6445734659
:100E9800E04602D307D1F14505D2BEEB02036CEB65
:100EA800070C0138E0465EB1B9EB030264EB0804B5
:100EB80004FA05F522FA01F3CC401D43C6E90054B3
:100EC800002132E742082F464B08AC4642EAC1727D
:100ED800AE46C407110C92B241EA034142EA01420C
:100EE800B1FBF5F1B3FBF5F01F23A2EB0C0241EACD
:100EF800004142E79D40C3F1200299409C402CFAF2
:100F080002FC4FEA154E20FA02F2AFB2BCFBFEF823
:100F18000A430EFB18CC110C41EA0C4108FB07FCF4
:100F28008C4550D9691808F1FF302CBF4FF00109E2
:100F38004FF000098C4502D9B9F1000F30D0A1EB70
:100F48000C01B1FBFEF808FB07FC0EFB181192B26E
:100F580042EA0142624534D2AA1808F1FF312CBF97
:100F68004FF001094FF000096245BED2B9F1000FF8
:100F7800BBD1A8F102012A44B7E7841A6CEB03023B
:100F880001201746E7E62C4402382BE7ACF1020CA7
:100F98002A440CE702392A44A5E62C440238BAE66A
:100FA800A5EB0C0CA8F102006144B1FBFEF808FBAC
:100FB80007FCCAE7A8F102083C4444E7023B3C446A
:100FC8005EE7414691E7A1EB0C014046B1FBFEF814
:100FD80008FB07FCB9E700BF704700BF80B586B0C3
:100FE80000AF78600B467B801BF0E8FF78617B6878
:100FF8001B689B6A01333B617A693B69B2FBF3F278
:101008007B88B2FBF3F3FB607B681B68FA68013AE4
:10101800DA62FB685A1E7B68DA6000BF1837BD4683
:1010280080BD80B582B000AF7860786811F0B2FDFD
:10103800786811F0E3FA7B6800229A6200BF0837EB
:10104800BD4680BDB0B58CB000AFF860B9607A60BD
:1010580007F1100320220021184629F0DAF97B68ED
:101068003B6104233B6200237B62BB68144A9342C2
:101078000BD10023BB614FF6FF73FB61104B9B6ADA
:10108800104A52F823307B6107E0BB680E4A93424E
:1010980003D101237B610023BB61BB689B6A5A1C97
:1010A800BB689A62FB681D4607F110040FCC0FC598
:1010B80094E80F0085E80F00F8683037BD46B0BDEA
:1010C800688E002000000020F48E002080B586B0D5
:1010D80000AFF860B9601346FB71F86810F0C4FF00
:1010E8000023FB750AE0FB7D5B01BA6813441946CF
:1010F800F86812F035F8FB7D0133FB75FA7DFB7952
:101108009A42F0D300BF00BF1837BD4680BD00002B
:1011180080B584B000AFF860B96011461A460B4636
:10112800FB801346BB802B4AFB681360294ABB68C7
:101138009360284AFB889381264ABB88D381254B34
:1011480001221A74234B00225A74224B1868214B2F
:101158009968204B9B891A46FB689B6A02FB03F33C
:101168001A4611F00DFC1B4B1B681B4A934203D116
:10117800184B1A4A5A6007E0164B1B68184A9342E4
:1011880002D1144B174A5A60124B5B68114AD28934
:1011980011461846FFF722FF0E4B5B68184621F0F0
:1011A80035F900BF0B4B5B68184622F001FC03467B
:1011B800022BF7D000BF074B5B7C83F00103DBB247
:1011C800002BF8D1034B00225A7400BF1037BD46DC
:1011D80080BD00BF343A0020688E0020A49400200F
:1011E800F48E0020F094002080B582B000AF7860C3
:1011F8000A4B01225A747B68094A934203D1094871
:1012080021F0DDF806E07B68074A934202D10748DF
:1012180021F0D5F800BF0837BD4680BD343A00201C
:10122800688E0020A4940020F48E0020F094002002
:1012380080B58EB000AF6423BB8542F210737B8506
:10124800002387F8373059E097F83730304A52F89A
:1012580023307B62786AFFF7E4FE3B1D2D4A796AEA
:101268001846FFF7EFFE3B1D01221946786AFFF783
:101278002DFF4FF6FF724FF00111786A13F0A6F8B0
:101288000346002B01D00FF086F97B8DBA8D2249D9
:10129800786AFFF73DFF00233B63002387F82F3070
:1012A8000CE097F82F301C4A52F823303A6B13445D
:1012B8003B6397F82F30013387F82F3097F82F309A
:1012C8009BB2BA8D9A42ECD8BB8D3A6BB2FBF3F362
:1012D8003B63124B1B881A4640F6B83303FB02F1F6
:1012E8003B6B9A0097F83730B1FBF2F20C4941F8A2
:1012F800232097F83730013387F8373097F837309D
:10130800012BA1D900BF00BF3837BD4680BD00BF43
:101318004000002001000080EC1A0020A507FA0B0D
:101328002C3A002080B58EB000AFB9607A601A46BA
:101338000346FB731346BB81FB7B254A52F82330D7
:101348003B63386BFFF76DFE07F11003BA68396B22
:101358001846FFF777FE07F1100301221946386B8C
:10136800FFF7B4FEB7F84030BA891A49386BFFF76F
:10137800CFFE0023FB8619E0FB8E164A52F8233075
:10138800FA7B154951F8222003FB02F2134BA3FB09
:101398000213D21A52081344D90AFB8E5B007A68EA
:1013A80013448AB21A80FB8E0133FB86FA8EBB89FE
:1013B8009A42E1D30A4A7B685361FB7B064A52F89A
:1013C8002330074A936100BF3837BD4680BD00BF50
:1013D80040000020EC1A00202C3A002001011000E7
:1013E800343A002080B582B000AF0346FB71114A41
:1013F800FB7913740F4B00225A740E4B18680D4B6F
:1014080099680C4B9B891A460A4B1B7C02FB03F319
:101418001A46084B1B689B6A02FB03F31A4611F035
:10142800AFFA044B5B68184620F0F0FF00BF08379E
:10143800BD4680BD343A002080B485B000AF034675
:10144800FB710023FB731DE0154B9A68FB7BF97950
:1014580001FB03F39B0013441B68114A926903FBC9
:1014680002F2104BA3FB0213D21A52081344D90AF2
:101478000B4B5A69FB7B5B0013448AB21A80FB7BD7
:101488000133FB73FB7B9AB2054B9B899A42DBD3F2
:1014980000BF00BF1437BD465DF8047B704700BF2E
:1014A800343A00200101100080B400AF034B5B7C8C
:1014B8001846BD465DF8047B704700BF343A0020EB
:1014C80080B582B000AF7860074A7B68136001225C
:1014D8004FF48071054815F0FDFE012010F08EF9DB
:1014E80000BF0837BD4680BD543A002000000242C4
:1014F80080B500AF00E000BF00F00EFB0346002BF4
:10150800F9D100224FF48071024815F0E3FE00BFC4
:1015180080BD00BF0000024280B584B000AFF86013
:10152800B96011461A460B46FB8013467B714FF48F
:101538008071114815F0B6FE0346002B18D00F4BEA
:1015480000221A70FB881A46B968F86800F0FEF99C
:101558007B79002B0DD000E000BF084B1B7883F08F
:101568000103DBB2002BF7D1012010F047F900E0AE
:1015780000BF1037BD4680BD00000242503A00202F
:1015880080B584B000AFF860B9601346FB80FB8873
:101598001A46B968F86800F013FA00BF1037BD465C
:1015A80080BD80B582B000AF7860396039687868EE
:1015B80000F03EFA00BF0837BD4680BD80B582B056
:1015C80000AF78600B467B80064B1B687A88114613
:1015D80078689847044B01221A7000BF0837BD4647
:1015E80080BD00BF543A0020503A002080B483B038
:1015F80000AF7860044A7B68136000BF0C37BD46B3
:101608005DF8047B704700BF583A002080B400AFF3
:10161800064B1B68002B04DB044B1B680133034A91
:10162800136000BFBD465DF8047B7047480000208A
:1016380080B584B000AF0346FB71FB79002B0BD05B
:10164800134B00221A60134819F0C4FA0346002B02
:101658001AD00EF0A0FF17E00E4819F004FB03465D
:10166800002B01D00EF097FF094B1B68FB73084B4A
:101678004FF0FF321A60084B1B68002B04D0064B52
:101688001B68FA7B1046984700BF1037BD4680BDDF
:1016980048000020E4910020583A002080B582B02C
:1016A80000AF0346FB80FB88082B03D10120FFF71E
:1016B800BFFF05E0FB88802B02D1002003F020FD4E
:1016C80000BF0837BD4680BD80B582B000AF034675
:1016D800FB80FB88082B03D10020FFF7A9FF05E05A
:1016E800FB88802B02D1012003F00AFD00BF0837D8
:1016F800BD4680BD80B582B000AF786039604FF4D8
:10170800007200211F4828F084FE4FF40072002167
:101718001D4828F07EFE4FF4807200211B4828F0F7
:1017280078FE1B4A7B6813601A4A3B6813600122E3
:101738001021194815F0CEFD01222021174815F077
:10174800C9FD174B1B7883F00103DBB2002B0BD0CC
:1017580014480FF035F914480EF034FB13480FF015
:10176800DDFE0F4B01221A70FF2211490F4825F0A8
:10177800D4FA0346002B01D00EF00DFF00BF083746
:10178800BD4680BD5C3A00205C3D00205C3C0020EA
:10179800604100206441002000000242001802421B
:1017A8004C00002030930020D89000203C95002069
:1017B8005C3E002080B500AF17481FF025FF0346A8
:1017C800002B01D00EF0E7FE144823F093F80346EF
:1017D800002B01D00EF0DFFE114B1B78002B0BD035
:1017E8000D480FF05FF90F480EF0C6FB0B480FF0DD
:1017F80005FF0B4B00221A70012210210A4815F030
:1018080069FD01222021094815F064FD084B0022DA
:101818001A7000BF80BD00BF309300203C950020A7
:101828004C000020D890002000000242001802421C
:101838005C3F002080B582B000AF78600B46FB703B
:10184800FB781A467968054828F026FE034AFB7893
:1018580082F8FF3000BF0837BD4680BD5C3C0020E1
:1018680080B586B004AF03463960FB71FB799AB244
:1018780005230293022301933B68009301239021DF
:10188800034816F059FC034618460837BD4680BD84
:10189800D890002080B586B004AF03463960FB714C
:1018A800FB799AB205230293022301933B680093C4
:1018B80001239021034816F053FD034618460837C4
:1018C800BD4680BDD890002080B584B002AF0346E5
:1018D8003960FB710B4AFB7913703B681B889AB21D
:1018E800094B1A80074B1B781A4602230193064BB3
:1018F800009301239021054816F04CFE00BF0837DD
:10190800BD4680BD684100206C410020D890002071
:1019180080B588B004AF03460A46FB8013467B7146
:101928007B79FB73FA88052302930123019307F15E
:101938000F0300930123A021034816F0FDFB034683
:1019480018461037BD4680BDD890002080B584B0B9
:1019580000AFF860B9601346FB80FB88BA68F96885
:10196800104828F011FB03461A460F4B1A800E4BFD
:101978001B88043B9AB20D4B1A800D4AFB68136012
:101988000C4B06221A70002210210B4815F0A2FCFD
:101998000122084909481FF065FD00BF1037BD4600
:1019A80080BD00BF603F0020544100205C41002002
:1019B800584100205C3F0020000002423093002084
:1019C80080B586B000AFF860B9601346FB8000238D
:1019D8007B6107F11403F968184628F00BFB002215
:1019E8001021114815F076FC07F114010523042293
:1019F8000E481FF089F80346002B01D00EF0CBFDEE
:101A0800FA880523B96809481FF092FA0346002BA3
:101A180001D00EF0C0FD01221021034815F05AFC38
:101A280000BF1837BD4680BD000002423093002039
:101A380080B588B000AF7860396007F110030022E4
:101A48001A601A710023FB7307F10F0207F11000E7
:101A58000123796828F098FA0623BB730022102125
:101A68002A4815F037FC07F10E0105230122284802
:101A78001FF04AF80346002B01D00EF08CFD01221E
:101A88001021224815F026FC1BF098FA0346214A3B
:101A9800A2FB03231B0DFB6102E0FB69013BFB6119
:101AA800FB69002BF9D100221021184815F012FC0F
:101AB80007F110010523052215481FF025F80346F4
:101AC800002B01D00EF067FD7B680133BB610EE08F
:101AD80007F10F01052301220D481FF015F80346F1
:101AE800002B01D00EF057FDBB690133BB617A684A
:101AF8003B681344BA699A42EAD301221021034889
:101B080015F0E8FB00BF2037BD4680BD000002424B
:101B18003093002083DE1B4380B483B000AF0023E2
:101B2800FB71064B1B78002B01D00123FB71FB795D
:101B380018460C37BD465DF8047B70475C3F0020B3
:101B480080B582B000AF78600B467B8000222021F0
:101B58000B4815F0BFFB7A880A23796809481EF0FC
:101B6800D3FF0346002B01D00EF015FD01222021E2
:101B7800034815F0AFFB00BF0837BD4680BD00BF66
:101B8800001802423093002080B584B000AF78601E
:101B98000023FB7300222021134815F09BFB07F15B
:101BA8000F010523012211481FF0C2F90346002B3B
:101BB80001D00EF0F0FCFB7B002B0BD0FB7B1A4610
:101BC8000A23796809481FF0B3F90346002B01D0AE
:101BD8000EF0E1FC01222021034815F07BFBFB7B82
:101BE80018461037BD4680BD0018024230930020C9
:101BF80080B582B000AF0346FB71174B1B78FA79AA
:101C08009A4225D000224FF48061144815F062FBF7
:101C180000224FF40071114815F05CFB0A200FF008
:101C2800EDFDFB791A464FF480610C4815F052FB24
:101C3800FB7983F00103DBB21A464FF400710748C1
:101C480015F048FB64200FF0D9FD034AFB791370A7
:101C580000BF0837BD4680BD6E4100200018024213
:101C680080B586B004AF3A601A460346FB710B464E
:101C7800BB711346BB80FB7999B2BB799AB20A2330
:101C88000293BB8801933B6800930123034816F035
:101C980053FA034618460837BD4680BD2C910020EC
:101CA80080B586B004AF3A601A460346FB710B460E
:101CB800BB711346BB80FB7999B2BB799AB20A23F0
:101CC8000293BB8801933B6800930123034816F0F5
:101CD80047FB034618460837BD4680BD2C910020B7
:101CE80080B582B000AF0023FB7100E000BFFFF7B2
:101CF80013FF0346002BF9D11021464815F0D2FAFC
:101D08000346012B0AD101200FF078FD4248FFF766
:101D18003BFF0346DAB2414B83F8FF213F4B93F870
:101D2800FF31002B0ED03E4B1B683C4A3D493A48D8
:101D3800984703461A46394B83F8FF200123FB7165
:101D480000E000BFFFF7E8FE0346002BF9D14FF48F
:101D58008051304815F0A6FA0346012B29D11021ED
:101D68002C4815F09FFA0346002B22D12B4B93F8F1
:101D7800FF30002B0BD0294B93F8FF30194627482A
:101D8800FFF7DEFE254B002283F8FF2011E0264BEB
:101D980093F8FF30002B0BD0234B93F8FF301946F4
:101DA8002148FFF7CDFE204B002283F8FF2000E0FA
:101DB80000BF1E4B93F8FF31002B0CD0184B1B684B
:101DC8001A4A1B491B48984703461A46174B83F87B
:101DD800FF200123FB71154B93F8FF30002B10D027
:101DE800124B93F8FF301A461049134822F0DEFCD4
:101DF8000346002B01D00EF0CEFB0C4B002283F8DB
:101E0800FF2001200FF0FAFCFB7918460837BD4681
:101E180080BD00BF001802425C3B00205C3A0020F5
:101E2800604100205B3C00205C3C00205C3D0020C1
:101E38005B3F00205C3E00203C95002080B582B0CE
:101E480000AF786078681FF0D5FC0346002B01D0FE
:101E58000EF0A1FB00BF0837BD4680BD80B582B03B
:101E680000AF78607B680D4A934212D14FF400723C
:101E780000210B4828F0CDFA01222021094815F04D
:101E880029FA01221021084815F024FA074B0022EC
:101E98001A7000BF0837BD4680BD00BF30930020D0
:101EA8005C3A002000180242000002425C3F002019
:101EB80080B584B000AF78607B68284A934247D1E8
:101EC8001021274815F0EEF90346002B41D10122D5
:101ED8001021234815F0FEF9224B1B78062B23D13D
:101EE800204B02221A701BF069F803461E4AA2FB17
:101EF80003231B0DFB6002E0FB68013BFB60FB68F2
:101F0800002BF9D100221021154815F0E3F9174BE1
:101F18001B881A46164911481FF0A4FA0346002BDD
:101F280017D00EF038FB14E00E4B1B78022B0BD1A8
:101F38000C4B00221A700F4B1B680F4A12680F498E
:101F480009881046984704E0064B00221A7000E002
:101F580000BF00BF1037BD4680BD00BF30930020D2
:101F6800000002425C3F002083DE1B4354410020F6
:101F7800603F002064410020584100205C4100205F
:101F880080B582B000AF7860786822F08DFD034696
:101F9800002B01D00EF0FFFA00BF0837BD4680BD08
:101FA80080B582B000AF78607B680A4A93420DD151
:101FB800094B002283F8FF21FF220849054824F035
:101FC800ACFE0346002B01D00EF0E5FA00BF08373F
:101FD800BD4680BD3C9500205C3D00205C3E002055
:101FE80080B582B000AF78600B467B807B680B4A77
:101FF80093420ED17B88DAB2094B83F8FF21FF2286
:102008000849064824F089FE0346002B01D00EF04B
:10201800C2FA00BF0837BD4680BD00BF3C9500200E
:102028005C3D00205C3E002080B582B000AF0346D6
:10203800FB71074818F0A3FC0346002B01D00EF0F3
:10204800AAFA044AFB79137000BF0837BD4680BD61
:10205800809100206F41002080B500AF044818F03F
:102068008EFC0346002B01D00EF095FA00BF80BD10
:102078008091002080B582B000AF7860094B1B7852
:1020880083F00103DBB2002B07D0786818F077FCE7
:102098000346002B01D00EF07EFA00BF0837BD467C
:1020A80080BD00BF6F41002084B0B0B582B000AFE2
:1020B80007F1180484E80F000023FB71354B002258
:1020C8001A70354B1B68354A1360354B1B68334A09
:1020D8005360344B1B68314A9360304B07F1180248
:1020E8005A622E4A07F1380393622C4A07F15803C3
:1020F800D3622A4B2C4ADA61284B2C4A1A6241F2E5
:10210800883226492A4819F05AF80346002B01D08C
:102118000EF041FA264819F066F80346012B2ED135
:10212800244B1D4607F1180420686168A268E3681B
:102138000FC520696169A269E3690FC51D4B03F1E9
:10214800200407F1380528686968AA68EB680FC495
:1021580028696969AA69EB690FC4164B03F1400441
:1021680007F1580528686968AA68EB680FC42869E8
:102178006969AA69EB690FC40123FB7101E00023B7
:10218800FB71FB7918460837BD46BDE8B04004B07E
:10219800704700BF7842002018C002085000002095
:1021A80090BF0208B4BF020804BE020824BE020899
:1021B800D49200201842002080B586B002AF786023
:1021C8007B68002B71D03E4B00221A603D4A7B6829
:1021D80013607B68013BFB608023BB6023E0FFF753
:1021E8003BFF374B1B6803F58023BA6892B2364928
:1021F8001846FFF7C5F900E000BF344815F03CF970
:102208000346012BF8D1BA682F49304815F0CFFEA4
:102218000346002B01D00EF0BEF9294B1A68BB68A3
:102228001344274A1360264B1B68FA68D31ABA6806
:102238009A42D4D3224B1B687A68D31ABB60204BCE
:102248001B6803F58023BA6892B21F491846FFF746
:1022580097F90A2300931E4BBA681B491B4815F0CF
:10226800B8FE0346002B01D00EF095F9202218493C
:10227800184828F0A5F80346002B03D1164B002276
:102288001A700AE0242200210E4828F0C2F8124BE6
:102298001B780133DAB2104B1A7001232422094942
:1022A8004FF40020FFF738F905E00B4B1B7801339A
:1022B800DAB2094B1A70084B18461037BD4680BD74
:1022C80070410020F44100207441002094900020C7
:1022D800F8410020584200207842002080B58CB098
:1022E80002AF7860396007F1080320220021184600
:1022F80028F08FF81A4B1B884FF6FF7293420ED0C6
:10230800174B1B88002B07D0154B1B889B025B08BB
:1023180003F10063194604E04FF0016101E04FF05A
:10232800016107F108030A2200927A680D4815F046
:1023380027FE0346002B01D00EF02DF907F1080304
:1023480020223968184628F03BF80346002B01D1B3
:10235800012300E0002318462837BD4680BD00BF92
:10236800A007FA0B9490002084B0B0B590B000AFED
:1023780007F1500484E80F00464B1B68464A136077
:10238800464B1B68444A5360454B1B68424A93605E
:10239800414B07F150025A623F4A07F170039362BA
:1023A8003D4A07F19003D3623E4B3C461D460FCD94
:1023B8000FC495E80F0084E80F003A4B07F120049A
:1023C80003F120050FCD0FC495E80F0084E80F0036
:1023D800314A3B46D361304A3B462033136241F2CF
:1023E80088322D49304818F0EAFE0346002B01D008
:1023F8000EF0D1F82C4818F0F6FE0346012B01D157
:10240800FF2340E03B4640221946284802F0C7FB1C
:10241800214A3B46D361204A3B462033136241F2AE
:1024280088321D49204818F0CAFE0346002B01D007
:102438000EF0B1F81C4818F0D6FE0346012B01D166
:10244800022320E03B4640221946194802F0A7FB28
:10245800114A3B46D361104A3B462033136241F28E
:1024680088320D49104818F0AAFE0346002B01D007
:102478000EF091F80C4818F0B6FE0346012B01D176
:10248800012300E0002318464037BD46BDE8B040B0
:1024980004B0704718C002085000002090BF02081E
:1024A800B4BF020804BE0208D492002018BB020878
:1024B80020BB020880B586B000AF3B1D83E807004B
:1024C8000023FB750023BB753B79503B052B00F2BD
:1024D8008F8001A252F823F0F92400083B25000858
:1024E8006125000887250008AD250008D3250008C8
:1024F8007B79002B7ED10123FB750223BB753B7BC7
:10250800FA7D9A4276D83B7BBA7D9A4272D3BB68F1
:102518001B787B757B7D184600F01CF93B7B022BF2
:1025280068D1BB685B783B753B7D184600F034F991
:1025380060E07B79002B5FD10023FB750023BB751E
:102548003B7BFA7D9A4257D83B7BBA7D9A4253D35C
:10255800012000F0FFF84FE07B79002B4ED10023DB
:10256800FB750023BB753B7BFA7D9A4246D83B7BC3
:10257800BA7D9A4242D3002000F0ECF83EE07B7925
:10258800002B3DD10023FB750023BB753B7BFA7DF7
:102598009A4235D83B7BBA7D9A4231D3002000F06D
:1025A800D9F82DE07B79002B2CD10023FB75002373
:1025B800BB753B7BFA7D9A4224D83B7BBA7D9A4215
:1025C80020D3144B01221A701CE07B79002B1BD1FD
:1025D8000023FB750023BB753B7BFA7D9A4213D819
:1025E8003B7BBA7D9A420FD30B4B01221A700BE04A
:1025F80000BF0AE000BF08E000BF06E000BF04E03B
:1026080000BF02E000BF00E000BF00BF1837BD46B2
:1026180080BD00BF7B4200207C42002080B582B094
:1026280000AF0346FB71324BFF221A70FFF714FD0F
:10263800FFF7C0F801224FF400612E4814F04AFE5B
:10264800002240212C4814F045FE64200FF0D6F8F3
:10265800FB79002B47D0294800F07AFA0122402163
:10266800254814F037FE00224FF40061214814F089
:1026780031FE64200FF0C2F821492248FFF73AF8EA
:102688000A200FF0BBF811E0FFF7E6FC002240211A
:10269800194814F01FFE64200FF0B0F80122402101
:1026A800154814F017FE64200FF0A8F84FF4805175
:1026B800114814F0F7FD0346002BE5D00FE0FFF7B3
:1026C800CBFC00F07DF802E001200FF097F8FFF74F
:1026D80007FB034683F00103DBB2002BF4D1044B64
:1026E8001B78FF2BEBD000BF0837BD4680BD00BF6D
:1026F800840000200000024200180242BD240008A5
:10270800C5150008792B000880B586B000AF786041
:1027180051233B737B683B6129233B7507F10C030D
:1027280093E8070000F0A8FA00BF1837BD4680BD3F
:1027380080B584B000AF53233B710023BB600023F6
:102748003B733B1D93E8070000F096FA00BF103773
:10275800BD4680BD80B483B000AF0346FB71074B14
:102768001B78FA799A4202D0044AFB79137000BFA9
:102778000C37BD465DF8047B704700BF840000201D
:1027880080B400AF034B1B781846BD465DF8047B48
:10279800704700BF8400002080B483B000AF0346B8
:1027A800FB71FB79002B02D0044AFB79137000BF40
:1027B8000C37BD465DF8047B704700BF79420020A6
:1027C80080B584B000AF50233B710023BB60002369
:1027D8003B733B1D93E8070000F04EFA00BF10372B
:1027E800BD4680BD80B584B000AF094B00221A7089
:1027F80055233B710023BB6000233B733B1D93E8CB
:10280800070000F039FA00BF1037BD4680BD00BF91
:102818007C42002080B500AF0E4B1B68002B04DD06
:102828000C4B1B68013B0B4A13600A4B1B68002BBF
:102838000ED1094818F017FA0346002B01D00DF005
:10284800AAFE044B4FF0FF321A60044B00221A70A4
:1028580000BF80BD88000020349200207A4200200A
:1028680080B400AF074B1B68002B05DD064B1B78B7
:10287800042B01D9012300E000231846BD465DF86A
:10288800047B7047880000207A42002080B588B019
:1028980000AF0346FB714FF000024FF00003C7E999
:1028A800042307F1100308221946264802F077F995
:1028B800D7E9042310461946FEF760F90346FB776B
:1028C8004FF000024FF00003C7E9022307F10803A5
:1028D800082219461C4802F062F9D7E9022310467B
:1028E8001946FEF74BF90346BB77FA79FB7F9A4204
:1028F80024D3FA79BB7F9A4220D80021134800F0EC
:10290800D9FB134B1B780133DAB2114B1A70104BF9
:102918001B78012B0BD10F4B0A221A600E4818F0B6
:1029280059F90346002B09D00DF035FE06E0084B97
:102938001B78052B02D1074B0A221A6000BF2037EB
:10294800BD4680BD28BB020830BB020838BB020860
:102958007A420020880000203492002080B584B09C
:1029680000AF78600B46FB700023FB7300237B816C
:10297800FB78023B1A467968104827F08DFDFB78F2
:10298800023B7A6813441B889BB27B81FB78023B2D
:102998001A460A490A4812F021F90346BB817B8985
:1029A800BA899A4202D10123FB7301E00023FB7329
:1029B800FB7B18461037BD4680BD00BF884200200B
:1029C8007090002090B583B000AF78600B46FB7024
:1029D800124B1B68002B1CD07B681A78104B1A709E
:1029E8007B689A780E4B5A700D4B00225A607B68B0
:1029F8005A780B4B1A720A4B1B7A002B03D07B6850
:102A08000333074A5360054B1C68054B93E80700DE
:102A1800A04700BF0C37BD4690BD00BF84420020D0
:102A28007C430020B0B58AB000AFF8610B467A61EC
:102A3800FB76FB691A78394B1A70384BF2225A70B8
:102A4800364B00225A60354B00221A72344B1B68F1
:102A5800002B1FD0FB691A78324B1A70314B0022B9
:102A68005A60FB695A782F4B1A722E4B1B7A002B2F
:102A780003D0FB6902332B4A5360294B1C68274D4E
:102A88003846284B0ECBA0472C463B4693E8070018
:102A980084E80700214B1B7A053387F827301F4B42
:102AA8001A787B691A707B6901331C4A127A1A708A
:102AB8007B690233194A52781A70184B1B7A002B1B
:102AC8000CD0164B5B68002B08D07B690333134A84
:102AD8005168124A127A184627F0DEFC97F8273018
:102AE800023B1A467969104827F0D6FC97F8273038
:102AF800023B1A460C490D4812F070F803469BB287
:102B0800BB8497F82730023B7A691344BA8C1A8041
:102B180097F8273018462837BD46B0BD7C430020BB
:102B280080420020884300208842002070900020C6
:102B380080B483B000AF7860044A7B68136000BF3C
:102B48000C37BD465DF8047B704700BF804200200B
:102B580080B483B000AF7860044A7B68136000BF1C
:102B68000C37BD465DF8047B704700BF84420020E7
:102B780080B586B000AFF860B9607A600023FB7555
:102B88000023BB75FB685B787B757B7D0533DBB207
:102B98001946F868FFF7E2FE0346002B19D07B7D43
:102BA8000533BB75BB7D1946F868FFF70BFFBB7D86
:102BB800FA68D118BB7DC3F1FF031A46F86827F0FD
:102BC8000FFCBB681A78BB7DD31ADAB2BB681A70DF
:102BD80048E07B7D0433DBB21946F868FFF7BEFE98
:102BE8000346002B1CD07B7D0433BB75BB7D7A6804
:102BF8001946F868FFF716FF0346FB75BB7DFA68B0
:102C0800D118BB7DC3F1FF031A46F86827F0E8FB2B
:102C1800BB681A78BB7DD31ADAB2BB681A7021E098
:102C2800FB681A787B681A707B68013300221A7077
:102C38007B680233F0221A70032279680C4827F067
:102C48002BFC03220A490B4811F0C8FF03469BB22C
:102C58007B827B6803337A8A1A800523FB75BB68FD
:102C680000221A70FB7D18461837BD4680BD00BF8C
:102C7800884200207090002080B5C2B000AF07F5F0
:102C88008473A3F5827383E8070007F58473A3F5BB
:102C980082731B783B7507F58473A3F582731B7ADF
:102CA8007B7507F58473A3F582731B7A002B17D005
:102CB80007F58473A3F582735B68002B10D007F5C2
:102CC8008473A3F58273596807F58473A3F5827337
:102CD8001B7A1A4607F114030233184627F0DCFB67
:102CE80007F58473A3F582731B7A9A1C07F1140302
:102CF8001946174827F0D0FB07F58473A3F58273AC
:102D08001B7A02331A461249124811F067FF03462C
:102D18009BB27B8207F58473A3F582731B7A023317
:102D280007F1140213447A8A1A8007F58473A3F50D
:102D380082731B7A0433DAB207F11403114618467A
:102D4800FEF778FD00BF07F58477BD4680BD00BF5C
:102D5800884200207090002080B5C2B000AF07F50F
:102D68008473A3F5827383E8070007F58473A3F5DA
:102D780082731B783B7507F58473A3F582731B7AFE
:102D88007B7507F58473A3F582735B78BB7507F5CC
:102D98008473A3F582731B7A002B17D007F584730D
:102DA800A3F582735B68002B10D007F58473A3F535
:102DB8008273596807F58473A3F582731B7A1A46E0
:102DC80007F114030333184627F066FB07F58473ED
:102DD800A3F582731B7ADA1C07F114031946174806
:102DE80027F05AFB07F58473A3F582731B7A033324
:102DF8001A461249124811F0F1FE03469BB27B8233
:102E080007F58473A3F582731B7A033307F1140261
:102E180013447A8A1A8007F58473A3F582731B7AA0
:102E28000533DAB207F1140311461846FEF702FD1E
:102E380000BF07F58477BD4680BD00BF88420020EB
:102E480070900020B0B596B000AF786007F13C03F1
:102E58000022194672481DF0C1F90346002B01D023
:102E68000DF099FB07F13803002219466C481DF054
:102E7800ADFA0346002B01D00DF08DFB97F83B30DF
:102E880087F8303097F8393087F8313097F83A308A
:102E980087F8323097F83C3087F8333097F83D3070
:102EA80087F8343097F83E3087F835303B6CDBB222
:102EB800DB43DBB287F836307B68002B0BD07A68AF
:102EC80007F13003106818609188927999809A7197
:102ED800544B7B6507E04FF400720021524827F0FD
:102EE80098FA514B7B65514B07F114041D460FCDE1
:102EF8000FC495E8070084E807004D4A07F10C0362
:102F080092E8030018600433198002330A0C1A701F
:102F1800002387F853303EE097F8533007F10C024E
:102F28001A4407F114031146184627F07AFA0346A3
:102F380087F8523097F8533058333B4413F8283CFD
:102F48003C4AA2FB0323DB08DAB297F8523030324E
:102F5800D2B258333B4403F8442C97F853305833D3
:102F68003B4413F8282C334BA3FB0213D9080B4618
:102F78009B000B445B00D31ADAB297F85230013346
:102F88003032D2B258333B4403F8442C97F85330CC
:102F9800013387F8533097F85330062BBCD997F88C
:102FA8003630254AA2FB03235B09DBB23033DBB2A0
:102FB80087F82A3097F836301F4AA2FB03125209C5
:102FC800642101FB02F29B1ADBB21A4AA2FB03231B
:102FD800DB08DBB23033DBB287F82B3097F83620CA
:102FE800144BA3FB0213D9080B469B000B445B0050
:102FF800D31ADBB23033DBB287F82C307B6D1D4639
:1030080007F114040FCC28606960AA60EB6007CC54
:1030180028616961AA611B2318465837BD46B0BDAF
:1030280000930020984500209843002040BB0208E8
:103038005CBB0208CDCCCCCC1F85EB5180B584B0ED
:1030480000AF78600B467B807B68FB600A4B1A6890
:103058007B881344B3F5003F02D3074B00221A6064
:10306800054B18687A880023F968FEF755FA00BFFF
:103078001037BD4680BD00BF9443002080B500AF27
:1030880004220B494FF40030FEF77AFA084B1B680C
:10309800B3F5003F09D3064B00221A60002304222F
:1030A80003494FF40030FEF737FA00BF80BD00BF78
:1030B8009443002080B584B000AF78603960002068
:1030C800FFF7C0FE0346FB81FB89144A1344042220
:1030D8001349184627F0E0F9FB890433FB81FB8983
:1030E8000E4A134405227968184627F0D5F9FB895A
:1030F8000533FB81FB89094A13440A4A11889278EF
:1031080019809A70FB890333FB81FB8919460348B0
:10311800FFF794FF00BF1037BD4680BD98430020DD
:1031280064BB020844BE020890B589B000AF0346EC
:103138000A46FB801346BB800020FFF783FE034648
:10314800FB83FB8B5F4A134404225F49184627F030
:10315800A3F9FB8B0433FB835C4B07F10C040FCB07
:1031680007C4238002341B0C2370594A07F1080353
:103178001268114619800233120C1A7007F10802FE
:1031880007F10C031146184627F04BF903467B77E5
:10319800FB88504AA2FB0312520B42F2107101FB4A
:1031A80002F29B1A9BB24C4AA2FB03239B099BB2D7
:1031B800DAB27B7F3032D2B220333B4403F8142C8E
:1031C800FB88454AA2FB031292094FF47A7101FB6E
:1031D80002F29B1A9BB2414AA2FB03235B099BB2F2
:1031E800DAB27B7F02333032D2B220333B4403F869
:1031F800142C07F108035A1C07F10C031146184652
:1032080027F00FF903467B77BB88324AA2FB0312EB
:10321800520B42F2107101FB02F29B1A9BB22E4A2A
:10322800A2FB03239B099BB2DAB27B7F3032D2B276
:1032380020333B4403F8142CBB88274AA2FB031213
:1032480092094FF47A7101FB02F29B1A9BB2234A4E
:10325800A2FB03235B099BB2DAB27B7F02333032D5
:10326800D2B220333B4403F8142CFB8B154A9C182C
:1032780007F10C031846FCF7FBFF024607F10C03A5
:103288001946204627F008F907F10C031846FCF701
:10329800EFFF03469AB2FB8B1344FB83FB8B094A6F
:1032A80013440F4A1188927819809A70FB8B033364
:1032B800FB83FB8B19460348FFF7C0FE00BF24378A
:1032C800BD4690BD984300206CBB020874BB020841
:1032D80084BB02085917B7D1D34D62101F85EB5133
:1032E80044BE0208B0B588B000AF78600020FFF790
:1032F800A9FD0346BB83BB8B7D4A134404227D4949
:10330800184627F0C9F8BB8B0433BB837A4B07F107
:103318000C040FCB07C4237058233B8107F1080224
:1033280007F10C031146184627F07BF80346FB7695
:103338007A68724BA3FB02139B0D714901FB03F3DF
:10334800D31A704AA2FB03239B0CDAB2FB7E3032FD
:10335800D2B220333B4403F8142C7A68694BA3FBA0
:1033680002139B0C684901FB03F3D31A5B09674AF4
:10337800A2FB0323DB09DAB2FB7E02333032D2B27E
:1033880020333B4403F8142C7A6853095F49A1FBA6
:103398000313DB095E4901FB03F3D31A5D4AA2FB61
:1033A80003235B0BDAB2FB7E03333032D2B2203315
:1033B8003B4403F8142C7A68564BA3FB02135B0BAF
:1033C80042F2107101FB03F3D31A534AA2FB032301
:1033D8009B09DAB2FB7E04333032D2B220333B444D
:1033E80003F8142C7A684C4BA3FB02139B094FF487
:1033F8007A7101FB03F3D31A484AA2FB03235B0942
:10340800DAB2FB7E06333032D2B220333B4403F8C3
:10341800142C7A68414BA3FB02135B09642101FB5E
:1034280003F3D31A3E4AA2FB0323DB08DAB2FB7E7E
:1034380007333032D2B220333B4403F8142C796876
:10344800374BA3FB0123DA0813469B0013445B00A8
:10345800CA1AD2B2FB7E08333032D2B220333B4490
:1034680003F8142C0023FB7702E0FB7F0133FB7782
:10347800FB7F20333B4413F8143C302BF5D0FB7F03
:1034880020333B4413F8143C2C2BEED0BB8B184A4A
:103498009C18FB7F07F10C02D51807F10C0318469E
:1034A800FCF7E6FE0246FB7FD31A1A462946204659
:1034B80026F0F2FF07F10C031846FCF7D9FE034685
:1034C8009AB2BB8B1344BB83BB8B094A1344154A7E
:1034D8001188927819809A70BB8B0333BB83BB8B9E
:1034E80019460348FFF7AAFD00BF2037BD46B0BD07
:1034F8009843002088BB020890BB02086BCA5F6B28
:103508008096980083DE1B4340420F00C55A7C0A10
:10351800A08601005917B7D1D34D62101F85EB5112
:10352800CDCCCCCC44BE0208B0B594B000AFF860A6
:103538007A601A460B46FB7213463B810020FFF760
:1035480081FC0346A7F84E30B7F84E30B04A134412
:103558000422B049184626F09FFFB7F84E300433CE
:10356800A7F84E30AC4A07F1400392E80300186010
:103578000433198002330A0C1A70FB681B68C7F8F9
:103588004130B7F84E30A24A134407F140010622F1
:10359800184626F081FFB7F84E300633A7F84E30AC
:1035A800FB7A022B40F0DA804FF000024FF0000364
:1035B800C7E90E237B681C685D6822462B46C7E96D
:1035C8000E23D7E90E014FF00002944BFDF714F8D3
:1035D80002460B46C7E90E23D7E90E2310461946C3
:1035E800FDF7CCFA0346A7F84A308D4A07F12C03B9
:1035F80007CA03C31A800233120C1A7078233B855A
:1036080007F1280207F12C031146184626F009FF96
:10361800034687F84930B7F84A2053098149A1FB86
:103628000313DB09804901FB03F3D31A7F4AA2FB8A
:1036380003235B0BDAB297F849303032D2B25033F9
:103648003B4403F8242CB7F84A30784AA2FB03120B
:10365800520B42F2107101FB02F29B1A9BB2744AA0
:10366800A2FB03239B099BB2DAB297F849300133D6
:103678003032D2B250333B4403F8242CB7F84A30E6
:103688006B4AA2FB031292094FF47A7101FB02F212
:103698009B1A9BB2674AA2FB03235B099BB2DAB26F
:1036A80097F8493002333032D2B250333B4403F8F2
:1036B800242CB7F84A305F4AA2FB0312520964214E
:1036C80001FB02F29B1A9BB25B4AA2FB0323DB08B5
:1036D8009BB2DAB297F8493003333032D2B2503362
:1036E8003B4403F8242C97F84930043350333B44C7
:1036F8002E2203F8242CB7F84A204F4BA3FB0213C1
:10370800D9080B469B000B445B00D31A9BB2DAB274
:1037180097F8493005333032D2B250333B4403F87E
:10372800242CB7F84E303A4A9C1807F12C03184657
:10373800FCF79EFD024607F12C031946204626F0A9
:10374800ABFE07F12C031846FCF792FD03469AB22C
:10375800B7F84E301344A7F84E3041E0374B07F125
:1037680014041D460FCD0FC42B682370344A07F18B
:1037780010031268114619800233120C1A700023C4
:10378800A7F84C3027E0B7F84C307A6813441B7818
:103798001B09DBB250333B4413F83C3C3B74B7F88D
:1037A8004C307A6813441B7803F00F0350333B44C2
:1037B80013F83C3C7B74B7F84E30154A13443A8AE8
:1037C8001A80B7F84E300233A7F84E30B7F84C30AD
:1037D8000133A7F84C30B7F84C203B899A42D2D332
:1037E800B7F84E300A4A1344164A1188927819805D
:1037F8009A70B7F84E300333A7F84E30B7F84E300A
:1038080019460348FFF71AFC00BF5037BD46B0BD44
:1038180098430020A0BB0208A8BB0208000024406F
:10382800B0BB0208C55A7C0AA08601005917B7D157
:10383800D34D62101F85EB51CDCCCCCCBCBB02085C
:10384800D0BB020844BE020880B586B000AF7860DD
:103858000023FB754FF400720021204826F0D9FDA3
:103868000023FB811D4BBB60FB89BA68134404220B
:103878001B49184626F010FEFB890433FB81FB899F
:10388800BA68134405227968184626F005FEFB89B4
:103898000533FB8100233B6116E0FB891A46114979
:1038A8003869FDF76DFEFB891A460E49B86826F09F
:1038B80087FD0346002B02D10123FB7508E0FEF7C4
:1038C800CBFB3B6901333B613B69B3F5003FE4D374
:1038D800FB7D18461837BD4680BD00BF98430020C1
:1038E80064BB02089845002080B588B000AF7860B6
:1038F80039600023FB777868FFF7A4FA03463B8218
:103908003D4BFB603D4B1B68BB613B8A1A46F9681F
:103918003B4826F055FD0346002B02D1394B1B6866
:10392800BB610023BB6000237B615CE0BA697B69F3
:103938001344C3F31003BB6001223968B868FDF76C
:103948001FFE3B681B785B2B48D13B8A1A463968B7
:10395800B868FDF715FE3B8A013B3A6813441B78AB
:103968005D2B3BD13B8A1A46F968386826F028FD5A
:103978000346002B32DD3B8AFB770023FB742AE0E9
:10398800FEF76AFBFA7FBB68D018FB7F3A681344DE
:1039980001221946FDF7F4FDFB7F3A6813441B78B2
:1039A8000A2B05D0FB7F3A6813441B78002B0CD1F7
:1039B8003B8A1A463968124826F06EFD114ABB68E0
:1039C8001360FB7F0133DBB212E0FB7F0133FB772F
:1039D800FB7C0133FB74FB7CEE2BD1D9FEF73CFB5F
:1039E8007B6901337B617B69B3F5003F9ED300237C
:1039F80018462037BD4680BD9845002094430020D6
:103A08008C0000209847002080B500AFFEF724FB0B
:103A18004FF400310020FDF7C4FD04214FF40030BD
:103A2800FDF7BFFD04220021034826F0F2FC024BFB
:103A380000221A6000BF80BD9443002080B582B088
:103A480000AF78600B467B807B68B3F5003F0DD2F2
:103A5800084B1A687B881344013B064A136000230D
:103A6800042204494FF40030FDF756FD00BF083723
:103A7800BD4680BD9443002080B582B000AF0346A8
:103A8800FB71FB791A460421034813F023FC00BF9D
:103A98000837BD4680BD00BF0000024280B588B02F
:103AA80002AF78603960642300936423224A234973
:103AB8000020FDF737FC642300936423204A214942
:103AC8000020FDF72FFC00237B6100233B610023CE
:103AD800FB7312E0FB7B184A32F813301A467B69F5
:103AE80013447B61FB7B164A32F813301A463B6954
:103AF80013443B61FB7B0133FB73FB7B632BE9D9ED
:103B08007B69114AA2FB03235B097B613B690E4A6F
:103B1800A2FB03235B093B617B699BB25B009AB202
:103B28007B681A803B699BB25B009AB23B681A803B
:103B380000BF1837BD4680BD9C47002020000014F8
:103B480064480020400000181F85EB5180B582B002
:103B580000AF0346FB71FB791A460421034813F0B2
:103B6800B9FB00BF0837BD4680BD00BF0014024244
:103B780090B583B000AF0446084611461A4623465E
:103B8800FB710346BB710B467B7113463B71FB7996
:103B98001A4602210C4813F09DFBBB791A460821EE
:103BA800094813F097FB7B791A461021064813F051
:103BB80091FB3B791A460121034813F08BFB00BFA8
:103BC8000C37BD4690BD00BF001402420000000043
:103BD80080B586B000AF786039603868FCF792FC31
:103BE8001AA3D3E90023FCF707FD02460B46C7E9F1
:103BF80002237868FCF786FCD7E90223FCF7FCFC73
:103C080002460B46104619464FF000020E4BFCF7D1
:103C18003DFB02460B4610461946FCF7AFFF03462C
:103C28007B617B69002B02D101237B6106E07B6904
:103C3800B3F5FA6F02D94FF4FA637B617B699BB2E3
:103C480018461837BD4680BD0000E03F8DEDB5A091
:103C5800F7C6B03E80B586B002AFF860B9601146CD
:103C68001A460B46FB801346BB80FA88BB88009334
:103C78001346BA68F9680120FDF754FB00BF1037F6
:103C8800BD4680BD0000000080B58AB000AF7860F6
:103C98000B467B8013463B807B687B614FF00002BC
:103CA8004FF00003C7E908230223FB747B885B08F5
:103CB8003B823B885B08FB810023FB7644E00023C2
:103CC800FB834FF6FF73BB83FB7E9BB23A8A12FBE2
:103CD80003F39AB2FB891344BB813B8A5B089AB20F
:103CE800BB8913447B81BB893B8316E03B8B5B001C
:103CF8007A6913441B88FA8B934238BF1346FB83B7
:103D08003B8B5B007A6913441B88BA8B934228BFAC
:103D18001346BB833B8B01333B833A8B7B899A42A7
:103D2800E4D3FA8BBB8BD31A1846FCF7FBFB02468D
:103D38000B46D7E90801FCF7A9FA02460B46C7E982
:103D48000823FB7E0133FB76FA7EFB7C9A42B6D3CE
:103D5800FB7C1846FCF7D6FB02460B46D7E9080160
:103D6800FCF774FD02460B46C7E9082308A3D3E90C
:103D78000023D7E90801FCF73FFC02460B4643EC59
:103D8800172BB0EE470AF0EE670A2837BD4680BD0C
:103D9800AAAAAAAAAAAAEA3F2DE9B04F90B000AFF2
:103DA80087ED020B87ED001B4FF000027A4BD7E935
:103DB8000201FCF74BFD02460B46104619466CA360
:103DC800D3E90023FCF742FD02460B46C7E90A2364
:103DD8004FF000024FF00003D7E90A01FCF788FE14
:103DE8000346002B04D04FF000024FF00003B3E06D
:103DF80061A3D3E90023D7E90A01FCF7FDFB0246DA
:103E08000B46C7E90E23002387F837308EE0D7E941
:103E18000E23D7E90A01FCF719FD02460B461046A6
:103E28001946FCF7CBFE034600EE103A26F042FB9B
:103E3800F0EE407A9FED597A67EE877A17EE900A8E
:103E4800FCF782FB804689464DA3D3E90023D7E9D6
:103E58000E01FCF7D1FB02460B4692469B464FF0FB
:103E680000024D4BD7E90A01FCF7C6FB02460B4698
:103E780050465946FCF708FA02460B464046494662
:103E8800FCF702FA02460B46C7E90823D7E90E23D6
:103E98003DA1D1E90001FCF7D9FC02460B461446C6
:103EA80083F0004536A3D3E9002320462946FCF7D2
:103EB800EBF902460B46C7E90623D7E90623D7E9FB
:103EC8000801FCF7C3FC02460B46C7E90423D7E9FF
:103ED8000423D7E90E01FCF7D7F902460B46C7E9D8
:103EE8000E23D7E90401FCF769FE07EE900AF0EE0D
:103EF800E77A9FED2B7AF4EEC77AF1EE10FA1BD42D
:103F08004FF000024FF00003D7E90E01FCF7F0FD77
:103F18000346002B05D01EA3D3E90023C7E90E23CF
:103F28000BE097F83730013387F8373097F8373098
:103F3800132B7FF66CAF00E000BF4FF00002164B6A
:103F4800D7E90E01FCF758FB02460B46D7E90001FA
:103F5800FCF77CFC02460B4643EC172BB0EE470AF5
:103F6800F0EE670A4037BD46BDE8B08FAFF300807A
:103F78000000000000E0A540000000A0AAAA1A4026
:103F88000000000000C06240000000206C789A3FEA
:103F9800000000809997713D00408F4061C3D33C79
:103FA800CCBC8C2B80B582B000AF0346FB71FB798B
:103FB8001A464FF48061034813F08CF900BF0837A4
:103FC800BD4680BD0004024280B582B000AF034602
:103FD8000A46FB711346BB71FB79013B032B35D8AD
:103FE80001A252F823F000BF014000081B4000085E
:103FF8003740000847400008BB791A462021164878
:1040080013F068F9BB791A461021134813F062F9C6
:104018001DE0BB791A464FF48051104813F05AF945
:10402800BB791A4610210C4813F054F90FE0BB79FC
:104038001A464FF48071084813F04CF907E0BB7931
:104048001A460421064813F045F900E000BF00BFF6
:104058000837BD4680BD00BF000402420008024286
:104068000018024280B586B002AF396011461A4680
:104078000346FB710B46BB711346BB80BB795B08DB
:10408800DBB2FB81FB79013B032B33D801A252F849
:1040980023F000BFAD400008C1400008D54000082B
:1040A800E9400008FA89BB88009313463A68144926
:1040B8000020FDF737F91EE0FA89BB880093134604
:1040C8003A6810490020FDF72DF914E0FA89BB88F9
:1040D800009313463A680C490020FDF723F90AE0DB
:1040E800FA89BB88009313463A6808490120FDF70E
:1040F80019F900E000BF00BF1037BD4680BD00BF02
:104108000080003E00000142000002468000001CC2
:1041180080B584B000AF0346B96087ED010AFB7330
:104128001346BB737868FCF70FFA4FF000020B4B8D
:10413800FCF762FA02460B4610461946FCF71EFDCC
:1041480003469BB2BA7BF87BB968FFF78BFF0A205E
:10415800FDF748F900BF1037BD4680BD0000244078
:1041680080B500AF0A20FDF767F90A20FDF73AF994
:1041780000BF80BD80B582B000AF0346FB71FB79FC
:104188001A464FF48061034813F0A4F800BF0837BB
:10419800BD4680BD0008024280B586B002AF786097
:1041A8000B46FB7013463B80FB785B08DBB2FB8158
:1041B800FA893B88009313467A6804490120FDF781
:1041C800B1F800BF1037BD4680BD00BF0000405A9F
:1041D80080B582B000AF0346FB71FB791A462021F7
:1041E800034813F077F800BF0837BD4680BD00BF0D
:1041F8000008024280B586B002AF396011461A46FF
:104208000346FB710B46BB711346BB80BB795B0849
:10421800DBB2FB81FB79032B1AD0032B22DC012BA9
:1042280002D0022B0AD01DE0FA89BB8800931346FE
:104238003A680F490120FDF775F814E0FA89BB8840
:10424800009313463A680B490120FDF76BF80AE022
:10425800FA89BB88009313463A6807490120FDF79D
:1042680061F800E000BF00BF1037BD4680BD00BF49
:104278000800000C040000080200000480B500AF2C
:104288000020FFF7F9FB0020FFF760FC0021012068
:10429800FFF79AFE00210220FFF796FE0021032077
:1042A800FFF792FE00210420FFF78EFE0020FFF7A3
:1042B80061FF0020FFF78CFF00BF80BD80B58AB08A
:1042C80000AFB9607A601A460346FB8113467B73D8
:1042D800FB89FB84082387F82230BB681B68BB6115
:1042E8000023BB84002387F8233049E04FF0000205
:1042F8004FF00003C7E904237A7B97F82330D31AD9
:1043080087F8213097F8212097F822309A420BD26B
:1043180097F823307A68D11897F8212007F110030D
:10432800184626F0B9F80AE097F823307A68D118C9
:1043380097F8222007F11003184626F0ADF807F188
:104348001002FB8C1146184624F0C6F80346BB84BD
:10435800BB8C03F48073002B03D024F0D7F80346FA
:10436800BB84BB8C002B01D00CF015F9FB8C0133FE
:10437800FB8497F8232097F82230134487F82330DA
:1043880097F823207B7B9A42B0D316F0FDF90346B9
:10439800002B01D00CF0FFF8FB8C18462837BD46DF
:1043A80080BD80B58AB000AFB9607A601A4603460E
:1043B800FB8113467B73FB89FB8407F11003002202
:1043C8001A605A609A60DA60082387F8243000235C
:1043D8007B84002387F8253048E007F11002FB8C26
:1043E8001146184624F05AF803467B847B8CDBB2CE
:1043F800FF2B01D10CF0CFF87A7B97F82530D31A30
:1044080087F821307A7B97F824309A4207D27A7B52
:1044180007F110031946786826F03EF81CE097F873
:10442800212097F824309A420BD297F825307A68E1
:10443800134497F8212007F11001184626F02CF8AC
:104448000AE097F825307A68134497F8242007F192
:104458001001184626F020F8FB8C0133FB8497F8EE
:10446800252097F82430134487F8253097F825201D
:104478007B7B9A42B1D3BB68002B02D0BA69BB6878
:104488001A60FB8C18462837BD4680BD80B584B0BD
:1044980000AF78600023FB607B68002B1DD03F23B2
:1044A8003B8100237B8114E07B891B010D4A134467
:1044B80004227968184625F083FF0346002B05D1AE
:1044C8007B891B01074A1344FB6006E07B890133A3
:1044D8007B817A893B899A42E6D3FB681846103774
:1044E800BD4680BDA007002080B594B000AF002372
:1044F8007B620023A7F84E30B44B1B681B699BB244
:104508007B84002387F84D30B04B1B689A68AF4B0B
:104518001B6842F001029A600023A7F84A3048E07D
:10452800B7F84A301B01AA4A1344184600F0CDFADE
:10453800034687F82B3097F82B3003F00703DBB2DC
:10454800002B07D097F82B30DB08DBB2013387F854
:104558004D3004E097F82B30DB0887F84D30002306
:1045680087F849301AE0B7F84A301B01984A1344D3
:104578001B687B6207F1240304221946934810F054
:10458800E9FA03469BB27B84B7F84E300133A7F8AB
:104598004E3097F84930013387F8493097F8492069
:1045A80097F84D309A42DED3B7F84A300133A7F86E
:1045B8004A303F22B7F84A309342B1D311F058FE3F
:1045C8000346002B01D00BF0E6FF0023A7F8463086
:1045D800002022F08BFC0346A7F84630B7F8463097
:1045E800002B01D00BF0D7FF0023A7F8463000239B
:1045F800A7F84430754B1B681B699BB2FB81734B52
:104608001B689A68714B1B6842F001029A6000238C
:10461800A7F842302DE0B7F842300133A7F842300E
:1046280007F11002B7F842301146184623F036FF5A
:104638000346A7F84630B7F84630002B19D1BB69B6
:104648007B62FA89614B1B681A6107F12403042213
:1046580019465E4810F07EFA03469BB2FB815B4B1D
:104668001B685A4A12691A61B7F844300133A7F82F
:104678004430B7F84630002BCDD0B7F84230012B84
:1046880003D1B7F84630072B10D007F10E0107F118
:1046980022030222184625F093FE0346002B05D17B
:1046A800B7F84E20B7F844309A4261D0002023F082
:1046B800F1FD0346A7F84630B7F84630002B01D085
:1046C8000BF069FF0123A7F842300023A7F8403018
:1046D80048E0B7F840303E4A1B0113440433B7F8AA
:1046E80042201A800023FB63002387F83B30B7F889
:1046F8004030374A1B01134408331B68002B0FD086
:10470800B7F84030324A1B01134408331B68FB6278
:10471800FB6A1B68FB63FB6A1B7987F83B300DE07B
:10472800B7F840302A4A1B0113440C331B683B631B
:104738003B6B1033FB63082387F83B30B7F84030F6
:104748001B01234A991897F83B30B7F84200FA6BD7
:10475800FFF7B4FD0346A7F84230B7F840300133FD
:10476800A7F840303F22B7F840309342B1D377E101
:104778000123A7F8423000233B8734E03B8F144ADB
:104788001B0113440433B7F842201A803B8F1B01E6
:104798000F4A1344184600F098F9034687F8373053
:1047A80097F83730DB08DBB2BB8697F8373003F071
:1047B8000703DBB2002B0DD0B7F84220BB8E1344A1
:1047C8009BB20133A7F842300AE000BF7090002086
:1047D800A0070020B7F84220BB8E1344A7F8423048
:1047E8003B8F01333B873F223B8F9342C6D3322313
:1047F800A3F1300213469B0013445B001A4636238C
:10480800303B13449C4A82FB03129210DB17D31AE5
:10481800DBB23033DBB23B723223A3F130021346F2
:104828009B0013445B001A463623303B1A44924BD4
:1048380083FB02139910D317C91A0B469B000B442C
:104848005B00D11ACBB23033DBB27B724D234A2BDB
:1048580005D16123612B02D172236E2B37D04D23F2
:10486800462B34D04D234D2B05D16123612B02D12A
:104878007223722B2BD04D23412B02D16123702B35
:1048880025D04D234D2B05D16123612B02D17223F5
:10489800792B1CD04D234A2B05D16123752B02D1CE
:1048A80072236E2B13D04D234A2B05D16123752B10
:1048B80002D172236C2B0AD04D23412B02D16123E4
:1048C800752B04D04D23532B01D0012300E0002386
:1048D800DBB23033DBB2BB724D234A2B05D16123E7
:1048E800612B02D172236E2B51D04D23462B4CD015
:1048F8004D234D2B05D16123612B02D17223722BDD
:1049080041D04D23412B02D16123702B39D04D2347
:104918004D2B05D16123612B02D17223792B2ED027
:104928004D234A2B05D16123752B02D172236E2B9F
:1049380023D04D234A2B05D16123752B02D1722335
:104948006C2B18D04D23412B02D16123752B10D02D
:104958004D23532B0BD04D234F2B06D04D234E2BDD
:1049680001D1312314E0322312E0302310E039233F
:104978000EE038230CE037230AE0362308E035231D
:1049880006E0342304E0332302E0322300E031233D
:10499800FB723223202B0BD13523303B364A82FB66
:1049A80003129210DB17D31ADBB23033DBB213E0F9
:1049B8003223A3F1300213469B0013445B001A46CE
:1049C8003523303B13442C4A82FB03129210DB1729
:1049D800D31ADBB23033DBB23B733223202B11D135
:1049E8003523A3F13002244B83FB02139910D3170C
:1049F800C91A0B469B000B445B00D11ACBB230336B
:104A0800DBB218E03223A3F1300213469B001344B3
:104A18005B001A463523303B1A44174B83FB0213BD
:104A28009910D317C91A0B469B000B445B00D11A87
:104A3800CBB23033DBB27B733B46062219460F48B4
:104A480000F0ADF807F108013B460622184625F0AC
:104A5800B7FC0346002B03D00021084800F057F8A4
:104A680011F028FC0346002B01D00BF094FD00BF89
:104A78005037BD4680BD00BF67666666D4BB020876
:104A880080B584B000AF78600023FB737B68002B8F
:104A980016D07868FFF7FAFCB860BB68002B0FD017
:104AA800BB689B68002B02D00123FB7308E0BB683E
:104AB800DB68002B02D00223FB7301E00023FB73A9
:104AC800FB7B18461037BD4680BD80B586B000AF69
:104AD80078600023FB757B68002B13D07868FFF79C
:104AE800D5FC38613B69002B0CD03B699B68002BD7
:104AF80006D03B699B68FB60FB681B79FB7501E08E
:104B08000823FB75FB7D18461837BD4680BD80B568
:104B180088B000AF786039607B68002B3BD078683C
:104B2800FFF7B4FC78617B69002B34D00023FB7756
:104B38003B68BB617B699B68002B0CD07B699B68D9
:104B4800FB60FB681B79FB77BB69002B0ED1FB6808
:104B58001B68BB610AE00823FB77BB69002B05D102
:104B68007B69DB683B613B691033BB6111F080FBFB
:104B78000346002B01D00BF00EFD7B699888FB7F64
:104B8800BA697968FFF79AFB11F094FB0346002B8A
:104B980001D00BF000FD00BF2037BD4680BD80B5B9
:104BA80088B000AFF860B9601346FB71FB68002B52
:104BB80025D0BB68002B22D0F868FFF767FCB861E6
:104BC800BB69002B1BD00023FB77BB699B68002BBC
:104BD80006D0BB699B687B617B691B79FB7701E029
:104BE8000823FB77FA79FB7F9A4201D2FB79FB779E
:104BF800BB699888FB7FBA680021FFF7D2FB00BF2A
:104C08002037BD4680BD80B586B000AF786039607A
:104C18007B68002B23D03B68002B20D07868FFF7F7
:104C280035FC78617B69002B19D07B699B68002B68
:104C38000BD07B699B68FB60FB681968FB681B7974
:104C48001A46386825F028FC09E07B69DB683B6177
:104C58003B69103308221946386825F01DFC00BF4F
:104C68001837BD4680BD80B586B000AF78604FF07C
:104C780000024FF00003C7E904237B68002B12D021
:104C88007868FFF703FCF860FB68002B0BD0FB6823
:104C9800DB68002B07D0FB68DB68BB60BB68D3E927
:104CA8000623C7E90423D7E9042343EC172BB0EE06
:104CB800470AF0EE670A1837BD4680BD80B588B050
:104CC80000AFF86087ED000B0023FB77FB68002B33
:104CD80023D0F868FFF7DAFBB861BB69002B1CD05A
:104CE800BB69DB68002B18D0BB69DB687B617B691B
:104CF800D3E90223D7E90001FBF7FAFE0346002BAC
:104D08000BD07B69D3E90023D7E90001FBF7FAFE52
:104D18000346002B01D00123FB77FB7F1846203781
:104D2800BD4680BD80B588B000AFF86087ED000B48
:104D3800FB68002B48D0F868FFF7A8FBF861FB690F
:104D4800002B41D0FB69DB68002B3DD0FB69DB6899
:104D5800BB61BB69D3E90623D7E90001FBF776FD00
:104D680002460B4643EC172BB0EE470AF0EE670AF3
:104D780025F01AFC51EC100BBB69D3E90623FBF7AD
:104D88003BFC02460B46C7E90423BB69D3E9002371
:104D9800D7E90401FBF7A2FE0346002B03D0BB6949
:104DA800D3E9002314E0BB69D3E90223D7E904015E
:104DB800FBF7B2FE0346002B03D0BB69D3E90223FD
:104DC80006E0D7E9042303E04FF000024FF00003A8
:104DD80043EC172BB0EE470AF0EE670A2037BD46C2
:104DE80080BD000080B483B000AF0346FB80044A56
:104DF800FB88138000BF0C37BD465DF8047B704705
:104E08004449002080B400AF034B1B881846BD46B8
:104E18005DF8047B704700BF4449002080B582B02C
:104E280000AF4FF000024FF00003C7E900233B46F4
:104E3800082219460748FFF7B2FED7E900231046B3
:104E48001946FBF773FE0346034A136000BF083791
:104E5800BD4680BD3CBC0208900B002080B582B0E6
:104E680000AF4FF000024FF00003C7E900233B46B4
:104E7800082219460748FFF792FED7E90023104693
:104E88001946FBF753FE0346034A136000BF083771
:104E9800BD4680BD3CBC0208940B002080B500AF25
:104EA800042246494FF42020FCF76AFB434B1B8839
:104EB800002B03D0414B5B88002B13D13F4B40F2B2
:104EC80001221A803D4B40F201225A80012304221C
:104ED8003A494FF42020FCF71FFB394B40F20122DE
:104EE8001A801DE0354B1B8840F20122934213D0F3
:104EF800324B40F201221A80304B40F201225A8094
:104F0800012304222D494FF42020FCF705FB2C4BEC
:104F180040F201221A8003E0284B5A88284B1A8055
:104F2800284BD3F8F43003F00053002B03D00021B2
:104F38002548FEF7BFF8234BD3F8F43003F000738D
:104F4800002B08D01E4B1B88B3F5027F03D01C4BE7
:104F58004FF400721A801B4BD3F8F430194A43F40B
:104F68000003C2F8F430FFF759FFFFF777FF144B3F
:104F78001B88B3F5027F14D0B3F5027F1ADCB3F5B2
:104F8800017F04D040F20522934205D012E00F4B76
:104F98004FF0FF321A600EE00D4B4FF0FF321A60EF
:104FA80009E00A4B4FF0FF321A60094B4FF0FF320D
:104FB8001A6000E000BF00BF80BD00BF404900206C
:104FC80044490020000C024644BC0208900B002013
:104FD800940B002080B58AB000AF0346FB71334ABA
:104FE800FB791370314B1B78002B5AD04FF000021D
:104FF8004FF00003C7E9062307F1180308221946F2
:105008002B48FFF7CCFDD7E9062310461946FBF7D6
:10501800B5FD034687F8273097F82730002B3DD099
:1050280097F82730062B39D84FF000024FF00003CD
:10503800C7E9042397F82730013B1E4A52F823306A
:1050480007F1100108221846FFF7A9FDD7E9042344
:1050580010461946FBF792FD03469AB2164B1A8082
:105068004FF000024FF00003C7E9022397F82730FA
:10507800013B124A52F8233007F10801082218466A
:10508800FFF78DFDD7E9022310461946FBF776FD99
:1050980003469AB20A4B1A8000BF02E0034B002273
:1050A8001A7000BF2837BD4680BD00BF4A4900209E
:1050B8004CBC0208980B002046490020B00B002089
:1050C8004849002080B400AF0B4B1B68002B04DD5F
:1050D800094B1B68013B084A1360084B1B68002BEF
:1050E80004DD064B1B68013B044A136000BFBD4644
:1050F8005DF8047B704700BF900B0020940B0020E4
:1051080080B483B000AF0346FB71FB79002B23D03A
:105118001C4B1B88B3F5807F04D01A4B1B88B3F552
:10512800007F29D3174B1B884FF6FF72934223D079
:10513800144B1B88B3F5027F1ED0124B1B88B3F5A6
:10514800807F04D10F4B40F201221A8014E00D4BEE
:1051580040F209221A800FE00A4B1B8840F209220C
:10516800934205D0074B1B8840F20A22934203D191
:10517800044B40F201221A8000BF0C37BD465DF88F
:10518800047B70474449002080B588B000AF364B97
:105198001B8840F20922934262D0334B1B8840F2AD
:1051A8000A2293425CD007F10803002219462F48CF
:1051B8001BF014F80346002B01D00BF0ECF93B1D53
:1051C8000022194629481BF001F90346002B01D09B
:1051D8000BF0E1F93B7A1A461201D31A9B009BB2F5
:1051E8007A7A1344FB83204B1B88B3F5807F27D141
:1051F8001F4B1B68002B08D11B4B4FF401721A8000
:105208001B4B4FF0FF321A602BE01A4B1B68002B28
:1052180008D1154B40F205221A80164B4FF0FF3289
:105228001A601EE0144B1B78002B1AD0134B1B88F6
:10523800FA8B9A4215D10C4B40F203221A8010E0E7
:10524800094B1B8840F2032293420AD10C4B1B885E
:10525800FA8B9A4205D1044B4FF400721A8000E091
:1052680000BF2037BD4680BD444900200093002080
:10527800900B0020940B00204A490020464900204A
:105288004849002080B588B000AF0346FB712C4B1D
:105298001B884FF6FF7293424DD0294B1B88B3F5FC
:1052A800027F48D04FF000024FF00003C7E9042303
:1052B80007F11003082219462248FFF770FCD7E9C6
:1052C800042310461946FBF759FC0346FB774FF0B9
:1052D80000024FF00003C7E9022307F10803082280
:1052E80019461948FFF75BFCD7E90223104619460F
:1052F800FBF744FC0346BB77FA79FB7F9A421AD343
:10530800FA79BB7F9A4216D800211048FDF7D2FEE1
:105318000B4B1B88B3F5807F04D1094B40F2012267
:105328001A8008E0064B1B88B3F5007F03D3044BB3
:105338004FF480721A8000BF2037BD4680BD00BF81
:105348004449002054BC02085CBC020864BC020842
:10535800B0B586B000AFF860B96087ED000BBA68E9
:10536800FB689A4204D94FF000024FF0000324E092
:10537800B868FBF7C7F816A3D3E90023FBF73CF995
:1053880002460B4614461D46F868FBF7BBF8024672
:105398000B4620462946FBF759FA02460B46C7E951
:1053A800042397ED040B25F0BBF851EC100BD7E95B
:1053B8000023FBF721F902460B4643EC172BB0EE0E
:1053C800470AF0EE670A1837BD46B0BDAFF3008054
:1053D800182D4454FB21194080B584B000AF07F163
:1053E800080383E803001346FB717B7A002B13D074
:1053F800364B1B7883F00103DBB2002B06D0FB7918
:105408001A460121324811F065FF05E0FB791A467A
:1054180004212F4811F05EFFBB7A002B13D02B4BD1
:105428001B7883F00103DBB2002B06D0FB791A4608
:105438000121274811F04EFF05E0FB791A460421A7
:10544800234811F047FFFB7A002B10D01F4B5B78E5
:10545800002B06D0FB791A4601211D4811F03AFFAE
:1054680005E0FB791A460421194811F033FF3B7B0C
:10547800002B10D0154B5B78002B06D0FB791A4611
:105488000121134811F026FF05E0FB791A46042193
:105498000F4811F01FFF3B7A002B13D00B4B1B78E2
:1054A80083F00103DBB2002B06D0FB791A460121F9
:1054B800074811F00FFF05E0FB791A46042104485C
:1054C80011F008FF00BF1037BD4680BD444D0020D5
:1054D800000C024280B584B000AF07F1080383E8EE
:1054E80003001346FB717B7A002B05D0FB791A4623
:1054F8000221154811F0EEFEBB7A002B05D0FB798E
:105508001A460821104811F0E5FEFB7A002B05D059
:10551800FB791A4610210C4811F0DCFE3B7B002B6E
:1055280005D0FB791A462021074811F0D3FE3B7AB3
:10553800002B05D0FB791A464021034811F0CAFE1A
:1055480000BF1037BD4680BD000C024290B585B043
:1055580000AF07F1080484E80300394681E80C002D
:105568007B78002B0BD07B7A83F00103DBB21A46E1
:105578008021254811F0AEFE7A7A244BDA70BB7888
:10558800002B0CD0BB7A83F00103DBB21A464FF430
:1055980080711D4811F09EFEBA7A1C4B1A71FB7877
:1055A800002B0CD0FB7A83F00103DBB21A464FF4D0
:1055B8000071154811F08EFEFA7A144B5A713B7936
:1055C800002B0CD03B7B83F00103DBB21A464FF46F
:1055D80080610D4811F07EFE3A7B0C4B9A713B7846
:1055E800002B0CD03B7A83F00103DBB21A464FF450
:1055F8000061054811F06EFE3A7A044B9A7000BFBC
:105608001437BD4690BD00BF000C0242444D002037
:1056180090B585B000AF07F1080484E80300394667
:1056280081E80C0000223B4693E80300FFF7D4FE14
:1056380000223B4693E80300FFF74CFF3B460CCBA8
:1056480007F1080103C9FFF781FF01223B4693E8F0
:105658000300FFF73FFF01223B4693E80300FFF7F3
:10566800BBFE00BF1437BD4690BD000090B587B0A3
:1056780000AF07F1080484E80300394681E80C000C
:10568800FF23FB750023BB7500237B7500233B7547
:105698007B78002B07D07B7A83F00103DBB2002BE9
:1056A80001D00123FB75BB78002B07D0BB7A83F0B0
:1056B8000103DBB2002B01D00223FB75FB78002B22
:1056C80007D0FB7A83F00103DBB2002B01D0032360
:1056D800FB753B79002B07D03B7B83F00103DBB2E2
:1056E800002B01D00423FB753B78002B07D03B7AB5
:1056F80083F00103DBB2002B01D00523FB75FB7D92
:10570800052B28D8FB7D013BBB75BB7D03F001034E
:10571800BB75FB7D013B5B107B757B7D03F0010353
:105728007B75FB7D013B9B103B753B7D03F00103C3
:105738003B75BB7D1A460221094811F0CBFD7B7DE4
:105748001A460821064811F0C5FD3B7D1A4610216E
:10575800034811F0BFFD00BF1C37BD4690BD00BF18
:105768000014024280B582B000AF03460A46FB71BE
:105778001346BB71FB791A464FF400610E4811F0CD
:10578800A9FD0A200CF03AF8BB791A464FF480516B
:10579800094811F09FFD0A200CF030F8BB791A4631
:1057A8004FF40041044811F095FD0A200CF026F84A
:1057B80000BF0837BD4680BD00040242000000005B
:1057C80080B58AB000AF0346FB8001224FF48051B8
:1057D8001F4811F07FFD0A200CF010F8FB881846CE
:1057E800FAF790FE4FF000021A4BFBF72FF802462B
:1057F8000B46C7E9082397ED081B9FED110B24F012
:105808001FFD87ED060B10A3D3E90023D7E9060196
:10581800FAF73AFD02460B46C7E9042397ED040B55
:1058280024F0A6FC0346FB73FB7B19460020FCF71B
:105838006FF8034618462837BD4680BDAFF3008091
:105848000000000080C014410000000000A1E340F7
:105858000004024200408F4080B582B000AF03468A
:10586800FB71FB791A464FF40071034811F032FDC1
:1058780000BF0837BD4680BD0004024280B582B033
:1058880000AF0023FB712E4B1B683B603B88194619
:10589800052024F0D7FB02462A4B11461970C2F3A3
:1058A80007215970C2F307429A70264B1B78264984
:1058B8001846FBF7D5FF03461A46FB791343FB71DD
:1058C80005200BF09BFF7B881946042024F0BAFBC7
:1058D80002461C4B11461970C2F307215970C2F3D6
:1058E80007429A70174B1B7817491846FBF7B8FF01
:1058F80003461A46FB791343FB7105200BF07EFF24
:10590800104B1A78114B1A70104B1B781049184617
:10591800FBF7C0FF03461A46FB791343FB710322CA
:105928000A49084824F04CFD0346002B03D0FB79B4
:1059380043F00103FB71FB7918460837BD4680BD6B
:105948006CBC0208584D0020594D00205C4D0020C9
:105958005D4D002080B584B000AF03460A46FB8049
:105968001346BB800023BB810023FB73F888022306
:10597800022240F6C41124F093FB0346BB81BB8985
:105988001946082024F05EFB0246394B114619706F
:10599800C2F307215970C2F307429A70344B1B783F
:1059A80034491846FBF75CFF03461A46FB7B134352
:1059B800FB732F4B1A78304B1A702F4B1B782F49DB
:1059C8001846FBF767FF03461A46FB7B1343FB7336
:1059D80003222949264824F0F3FC0346002B03D070
:1059E800FB7B43F00103FB73B8880223022240F6D5
:1059F800C41124F055FB0346BB81BB891946092015
:105A080024F020FB02461A4B11461970C2F30721F5
:105A18005970C2F307429A70154B1B7815491846FE
:105A2800FBF71EFF03461A46FB7B1343FB73104B21
:105A38001A78114B1A70104B1B7810491846FBF74F
:105A480029FF03461A46FB7B1343FB7303220A49CB
:105A5800074824F0B5FC0346002B03D0FB7B43F03A
:105A68000103FB73FB7B18461037BD4680BD00BFA2
:105A7800584D0020594D00205C4D00205D4D002000
:105A880080B485B000AFF860B9601346FB80FB684E
:105A98004FF47A7202FB03F3174AD362BB684FF4E0
:105AA8007A7202FB03F3144A1363134AFB88A2F8C1
:105AB8004C30114B0022A3F84E200F4B00225A63A2
:105AC8000D4B5A6B0C4BDB6A13440B4A93630A4B1E
